:1010000080D0002075B50000E90D040049B500004E
:1010100049B5000049B5000049B5000000000000D6
:1010200000000000000000000000000065AD0000AE
:1010300049B50000000000000DAD000049B50000FA
:1010400019AE00006966020019AE000019AE00007A
:1010500019AE000019AE000019AE000019AE000074
:1010600019AE000019AE000019AE000019AE000064
:1010700019AE000019AE000019AE000019AE000054
:1010800019AE000019AE000019AE000019AE000044
:1010900019AE000019AE000019AE000019AE000034
:1010A00019AE000019AE000019AE000019AE000024
:1010B00019AE000019AE000019AE000019AE000014
:1010C00019AE000019AE000019AE000019AE000004
:1010D00019AE000019AE000019AE000019AE0000F4
:1010E00019AE000019AE000019AE000019AE0000E4
:1010F00019AE000019AE000019AE000019AE0000D4
:1011000053B94AB9002908BF00281CBF4FF0FF316E
:101110004FF0FF3000F00CB8ADF1080C6DE904CED3
:1011200000F008F8DDF804E0DDE9022304B07047C0
:10113000704700BF2DE9F04786468C460846089E5A
:10114000154674461946002B40F0C2808542B2FA1B
:1011500082F245D94AB1C2F1200300FA02FC2EFA0C
:1011600003F3954043EA0C0C94404FEA154EA8B2A5
:10117000BCFBFEF8230C0EFB18CC08FB00F943EA7D
:101180000C43994528D9EB1808F1FF3704D299454B
:1011900002D9A8F102072B44A3EB0903A4B2B3FBC5
:1011A000FEFC0EFB1C330CFB00F044EA0344A0429F
:1011B00014D92C190CF1FF3304D2A04202D9ACF19E
:1011C00002032C44241A43EA07401EB1D4400023F2
:1011D00034607360BDE8F0874746DDE76346F1E7BA
:1011E00092BB431B01214FEA154EAFB2B3FBFEFC8D
:1011F000200C0EFB1C330CFB07F840EA0343984518
:1012000062D9EB180CF1FF3004D2984502D9ACF149
:1012100002002B44A3EB0803A4B2B3FBFEFC0EFBBD
:101220001C330CFB07F744EA0344A7424ED92C19A0
:101230000CF1FF3304D2A74202D9ACF102032C44D3
:10124000E41B43EA0040C0E7C2F1200320FA03F1A7
:10125000954090402EFA03F303434FEA154EAFB288
:10126000B1FBFEFC0EFB1C10190C0CFB07F841EA4D
:101270000041884504FA02F422D969180CF1FF30C4
:1012800004D2884502D9ACF102002944A1EB08013F
:101290009BB2B1FBFEFC0EFB1C110CFB07F743EAF3
:1012A00001439F420ED9EB180CF1FF3104D29F424B
:1012B00002D9ACF102012B44DB1B41EA004192E769
:1012C0006046E3E76146F7E76046A3E76346B7E7B2
:1012D000834206D916B9002108467BE7C6E900E03B
:1012E000F9E7B3FA83F78FB9834201D3724508D87F
:1012F000BEEB020460EB030301209C461EB90021F3
:1013000068E73846FAE7C6E9004CF8E7C7F1200C71
:10131000BB4022FA0CF41C432EFA0CF120FA0CF319
:10132000B84001434FEA14490EFA07F5B3FBF9F848
:101330001FFA84FE09FB18300B0C08FB0EFA43EA77
:1013400000439A4502FA07F240D9E31808F1FF304A
:1013500004D29A4502D9A8F102002344A3EB0A0360
:1013600089B2B3FBF9F809FB183308FB0EFE41EA1A
:1013700003418E452CD9611808F1FF3304D28E4504
:1013800002D9A8F10203214443EA0040A0FB0298DD
:10139000A1EB0E014145CE46434602D306D14D4551
:1013A00004D2B9EB020E68EB04030138002EA6D07C
:1013B000B5EB0E0261EB030101FA0CFC22FA07F314
:1013C0004CEA0303F940C6E9003198E74046C5E717
:1013D0004346D9E7000000002DE9F041484D88B0B0
:1013E000D5F85C31996811F0010100AF25D107F102
:1013F000080240F603400BF009FD044600286FD1B7
:10140000BC68E3681B78ABB90DF044FEBFF35B8F9B
:10141000D5F8D430BFF35B8F05F1D40203F0090394
:10142000BFF35B8F52E8001F42E800300028F9D17B
:10143000BFF35B8F204628F091FB07F108020021E3
:1014400041F203000BF0E2FC0446002848D1BE68DC
:101450002C48F168082201313FF0ABFE304628F0FD
:101460007DFB214607F1080241F201000BF0CEFCA2
:101470000446002834D1B868C3685A7885F87020CB
:101480005A88A5F872201A7985F87120B3F80720D8
:10149000A5F87420B3F80530A5F8763028F05EFB87
:1014A000214607F1080241F202000BF0AFFC0446AE
:1014B000B0B9BE681448F168402201313FF079FEAE
:1014C000114840F066F8304628F048FB95F87C302B
:1014D00059061FD40D4803685A0706D16FF012044D
:1014E00020462037BD46BDE8F081094BFB61022351
:1014F000BB6107F118024FF4825140F027F9EDE784
:10150000B8000020300100203801002038150020EC
:1015100090FB0400214607F1080242F203000BF0A1
:1015200075FC04460028DBD1BE68AF48F16808228C
:1015300001313FF03EFE304628F010FB214607F116
:10154000080242F202000BF061FC04460028C7D1F9
:10155000BC68E368B3F8012091B241B1D97831B1E8
:10156000A5F80421DA78A148114647F095F82046FD
:1015700028F0F4FA95F87C6016F0200618D10221C4
:1015800040F66D400BF0F2FA0446002800F0CD80E2
:1015900002210C3043F00EF80123037046702146FF
:1015A000324640F66D400BF031FC0446002897D1DE
:1015B00095F89C301B0713D507F10802002142F271
:1015C0001C000BF023FC0446002889D1B868C368CE
:1015D000D3F80120D3F80530C5E9382328F0BEFA46
:1015E00095F8D8309E0622D5391DB81C0BF094FC16
:1015F000044600287FF474AF042142F224000BF06B
:10160000B5FA0646002800F0908004210C3042F024
:10161000D1FF7B880380BB8843802246314642F25B
:1016200024000BF0F3FB044600287FF459AF95F833
:10163000D8305C0611D507F10802002142F22A00D9
:101640000BF0E4FB044600287FF44AAFB868C36897
:101650005B7885F8203128F081FA082142F20100F8
:101660000BF084FA044600285FD008210C3042F0C9
:10167000A1FF95F8D81011F0400F024640F2022366
:1016800008BF032388074CBF43F02C0043F00C0035
:1016900095F8D9308E0648BF40F0400013F0090F8E
:1016A00018BF40F40060CB0795F8A23003F00603A2
:1016B00048BF40F01000062B08BF40F4C070002166
:1016C00040F053F82146002242F201000BF09EFB4D
:1016D000044600287FF404AF95F87C30B5F8041177
:1016E0009E0625D4D1B907F1080241F205000BF09E
:1016F0008DFB044600287FF4F3AEB5F80431BC68D6
:101700004BB9E368B3F80120A5F804219A8837485B
:10171000114646F0C1FF204628F020FA082140F685
:1017200001400BF023FA0446B0B96FF06804D7E625
:101730000029F3D12E4803685C0702D16FF004043E
:10174000CEE62C4BFB610223BB6107F118024FF47C
:1017500082513FF0FBFFF1E708210C3042F02AFFF5
:1017600095F8D830D907024634D423484FF00051B9
:101770003FF0FBFF2146002240F601400BF046FB04
:10178000044600287FF4ACAE01463A1D4FF60140F6
:101790000BF03CFB164C98B3236813F0060F0AD0ED
:1017A000164BFB610223BB6107F118024FF4845111
:1017B00020463FF0CBFF0DF04FF8044600287FF4A1
:1017C0008FAE0FF0B1F8044600287FF489AE0CF01C
:1017D000BFF885E602A1D1E90001C9E7AFF30080B7
:1017E000908800020080002090010020C0010020AD
:1017F00038150020B4FB040010880002D7FB040059
:101800007B68DE68236803F00703022B66D9B6F80D
:101810000130032B96BF544A544952F82310E8462E
:101820008AB06A465248D3614FF400731384514B17
:10183000C2E9050142F8103F4F484FF413513FF001
:1018400085FF236803F00703022BC54646D9B6F887
:101850000120B6F80330022A5AD1032B58D8474A40
:1018600052F82310E8468AB06A464548D3614FF4DF
:10187000007313843F4BC2E9050142F8103F3E4814
:101880004FF413513FF062FF236803F00703022B6C
:10189000C54623D9737996F806E0B6F807C0D6F89E
:1018A0000900032B96BF374A304952F823106E4681
:1018B0008CB06A46DFF8D080C2E9073E4FF400736F
:1018C0009385324BC2E90581C2E909C04FF47351D7
:1018D00042F8103F28483FF039FFB546786828F0B5
:1018E0003DF93A1D00214FF602400BF08FFA0646F3
:1018F00080B1236813F0060F3FF45DAF244BFB610A
:1019000002231D48BB6107F118024FF4845150E7D0
:101910001649A7E7D7F804801E48D8F80C10022211
:1019200001313FF046FC404628F018F995F8C130E7
:101930005B077FF540AF3A1D31464FF603400BF091
:1019400065FA30B1236813F0060F3FF434AF124B41
:10195000D5E77C681148E168012211443FF029FC79
:10196000204628F0FBF826E7A49F040046F6040072
:10197000FBFB04000400000138150020949F0400C4
:1019800014FC0400849F04002CFC040007000001E8
:1019900059FC04007901002082FC04007801002039
:1019A0002DE9F04F00248FB0CDE90544FF23DFF887
:1019B0007091DFF870A18DF81330054604264FF0C2
:1019C000020807ABCDE9019305AB00930DF11302BB
:1019D00006AB03210020DDF818B0CDF81C8019F00B
:1019E00073F90228074663D0079A9DF81330002A3E
:1019F00062D04D4A0097082128463DF072F84B4AC4
:101A00004B4E2346082128463DF06BF8069F4FF0C9
:101A1000070AA7FB060140A3D3E900230AFB07112D
:101A2000FFF76EFB434A00903B46082128463DF0F5
:101A300058F8BCB3404A082128463DF052F83F4AC6
:101A4000082128463DF04DF83D4A082128463DF042
:101A500048F8394A082128463DF043F80DF120099D
:101A60004FF00008D9F8047019F808BBA7FB06016D
:101A700029A3D3E900230AFB0711FFF741FB08F173
:101A80000108CDE900705B462E4A082128463DF04A
:101A900028F85FFA88F39C42E4D8274A08212846B0
:101AA0003DF01FF8002017E00321002019F01EF977
:101AB000079B022BF8D097E7FF2B9AD0069A5A453E
:101AC0001CD0013E16F0FF0609D128461E4A082107
:101AD0003DF007F86FF00A000FB0BDE8F08F2CB1B1
:101AE00033465246082128463CF0FBFF9DF8133050
:101AF0008DF82030059B0993012462E70EAA02EBC2
:101B0000C4020134E4B202F8183C032C059B42F8ED
:101B1000143C7FF456AF72E700CA9A3B0000000005
:101B200081430400642C0500212C0500882C05004D
:101B30008D49FD1A962C0500A82C0500BF2C050028
:101B4000D62C0500ED2C0500402C050000000000FF
:101B50002DE9F843D0E90C35D0F82C805C193034ED
:101B6000A0450F46164619D81D4DA3FB05011AA323
:101B7000D3E90023FFF7C4FA0346A4EB0800A0FB57
:101B8000050123F07F4414A3D3E90023FFF7B8FA3B
:101B900020F07F403C603060BDE8F883DFF8409083
:101BA0000DA3D3E90023A8FB0901FFF7A9FA044616
:101BB00005F1300008A3D3E90023A0FB0901FFF7DA
:101BC0009FFA24F07F4420F07F403C603060BDE805
:101BD000F88300BFAFF300808D49FD1A07000000B5
:101BE00000CA9A3B00000000002800F042812DE965
:101BF000F04FC74C94F86A2012F001058DB040F008
:101C0000758194F82500FF2300F0030084F8263046
:101C100024F0AEF894F86A00420727D494F82920FB
:101C200094F8353004EB820204EB8303D66AD3F8D0
:101C3000388086B1B64831461CF02EFD33785B06FD
:101C400005D5062117F0B8FB002800F05181B048F7
:101C500041461CF021FD337813F00E0F40F09E80BA
:101C6000236A93B10C200DB0BDE8F08F2A4604F131
:101C70006B01C0F3C00024F01BFAFF2884F8260093
:101C8000CCD0284624F0BAF8C8E719F08BFD81467D
:101C9000002800F0528119F091FD8246002800F0E2
:101CA00049811DF019F90546002800F04881D0F857
:101CB00088004FF6FF732B8505F11C0B002800F000
:101CC0001D8105F17C0205F1780117F081FBB5F863
:101CD000763023F4EF6323F0070343F4887343F073
:101CE0000103A5F8763095F8393003F03F0363F02F
:101CF0007F0385F8393095F88E3023F0070385F897
:101D00008E3095F83C3023F00703002785F83C30EF
:101D10004FF4C023C5F888312846C5E91277C5F8C5
:101D20008870A5F88C706F86C5F82E7085F83B70AA
:101D30002F65A5F88E71A5F884711FF035FE85F822
:101D40005071C5F854911DF055FB95F8943160F32E
:101D5000020385F894311DF053FB95F8943160F33C
:101D6000C50385F8943195F8803167F3410385F810
:101D70008031012128461DF063FF05F1D4001FF0DA
:101D80009DFBC4E9189AC4F820B0C5E905772F7007
:101D9000ED6125F0E7F9002840F0AC8094F824309C
:101DA0000121C3F342030DF12B008DF82B3017F006
:101DB00099FC024600285ED098F8011030461CF0CD
:101DC00037FA5449B4F8687000253123A360C4E998
:101DD00005554DA3D3E9002325706560E560A0FBA0
:101DE0000101FFF78DF9206118F098FF00F1090853
:101DF0003FB9357805F00F05A5F10105B5FA85F570
:101E00006D0994F82400236965F3000010F00105C2
:101E100084F8240036D0404A099200201060022540
:101E20003E4A3F4F04930BAE019305920321CDE947
:101E30000200069443460090089607972A460B95A1
:101E400018F0FAFD314619F04DFDA0B9354905915C
:101E50004AF2D8330093CDE90300CDE9010007979A
:101E6000089606944346012203210B9518F0B0FD15
:101E70002EE01CF029B9236A002B3FF4F3AE1CF0CE
:101E8000E1F8EFE6244A2848049303F24713069446
:101E9000029591211360A7FB000301FB0731204B42
:101EA00007931E4B05934FF6FF7309920227039386
:101EB0000BAE15A3D3E900230B970896FFF720F983
:101EC0004346CDE900503A462846032118F0B4FDB8
:101ED000314619F007FD0028CDD194F86A3043F05F
:101EE000010384F86A301CF0EBFDF8B10020BAE67B
:101EF0001220B8E61CF0A6F80320B4E605F1800035
:101F0000C5F88800DDE600BF8D49FD1A0700000016
:101F1000684F002000CA9A3B5C4F0020ADE20100F0
:101F2000C1AE0100D9DD0100002AE784012023F0C1
:101F300001FFDBE7484619F03BFC072093E65046DB
:101F400019F042FC484619F033FCF6E700000000A7
:101F500070B590F824308AB0C3F342030D460446AE
:101F600001210DF1230016468DF8233017F0BAFB3E
:101F70007178024628461CF05BF91D491AA3D3E983
:101F80000023A0FB0101FFF7BBF823699842054637
:101F900021D21B1A00220192164A0293164BA21A52
:101FA000A3FB02320221920900230A4409AE0991DF
:101FB00012490591CDE903330321D2B2069600936D
:101FC000184618F097FD314619F08CFC38B9256198
:101FD00000200AB070BDFBD9C21A0023DBE70C2039
:101FE0000AB070BDAFF300808D49FD1A07000000F4
:101FF00000CA9A3B684F002009CB3D8DC1AE01005D
:1020000038B5194C9DF810E094F848C01CF0010553
:1020100023D163F3420C400194F83230A1874FEA98
:10202000CE0E0EF0180E00F0200040EA0E0023F055
:10203000380303430D4884F832309121A2FB00039A
:1020400084F848C001FB023105A3D3E90023FFF760
:1020500057F8C4E91000284638BD0C25284638BD7D
:102060008D49FD1A07000000802F0020002AE78418
:1020700010B504469DF8080022844FEA411CC000B8
:10208000A17D00F018000CF0200C4CEA000C0C486C
:1020900021F038014CEA010CA3FB0002912184F8E5
:1020A00016C001FB032104A3D3E90023FFF728F89E
:1020B000606210BDAFF300808D49FD1A070000007B
:1020C000002AE784000000002DE9F047044600F1F3
:1020D000350190F8480094F832305B4DDFF86C81A0
:1020E000C0F3400060F386138CB084F8323018F0EF
:1020F0006FFE94F83220A38F5548E46102F0790214
:10210000002784F832209121A3FB0002C4E905775F
:10211000277001FB03214AA3D3E90023FEF7F0FF58
:10212000651B626C4B4B6760AD08A3FB053502F184
:102130000903984298BF3A46C5F3470522644FF019
:1021400031028CBF19460146A26005EB4502E760EB
:10215000216148F82210064618F0E0FD236A00F1DC
:1021600009074FEA450A002B4AD00DF12C09AA4471
:1021700008EB8A030993CDF820900694A38F344886
:102180004FF00008A3FB0002CDF80C80912101FB69
:10219000032123690493304B0793304B05934FF091
:1021A000020A27A3D3E90023CDF82CA0FEF7A8FF4D
:1021B000104619464FF47A720023FEF7A1FF04354A
:1021C000EDB2CDE9016003213B462A46CDF80080FF
:1021D000404618F031FC494619F084FB60B994F888
:1021E000483043F0010384F848301CF02BFA08B360
:1021F00000200CB0BDE8F0870C200CB0BDE8F087E3
:102200000DF12C09CDE90A3321694B460AAA0320B6
:1022100001F036F90028AAD10B99114808A3D3E997
:102220000023A1FB0001FEF76BFF0A9B20F07F4714
:102230001F449CE7504623F07DFDD9E7AFF30080B3
:102240008D49FD1A07000000802F0020F44F002068
:10225000002AE784BD86F21AC1AE0100B1E8010090
:1022600000CA9A3B000000002DE9F04F05468BB0F4
:102270008B46012002219A46144627F0F1F90022EC
:1022800002218146012017F0F3F83B494FF4D07248
:10229000284617F07DF8461DF6B2384B00953246B9
:1022A0000121002018F03EFC10F0FD0F0CD0344A44
:1022B0003449354840F606033BF04FFD404080F37B
:1022C00011884FF0030002DF304BA4FB0348204687
:1022D00027A3D3E900234146FEF712FF2C4B20F041
:1022E0007F47A7FB03310722E01A02FB071168EBC7
:1022F00001014FF47A720023FEF702FFCDE901706D
:10230000CDF800B008950695296995F9394021481E
:102310000491214931EA240128BF014605911F4C4F
:1023200007944FF6FE710391534632460121002077
:1023300018F04EFB10F0FD0F0CD0114A1149124855
:1023400040F61B033BF009FD404080F311884FF03D
:10235000030002DFB9F1000F02D10BB0BDE8F08F2E
:102360000122022110460BB0BDE8F04F17F080B8F3
:102370008D49FD1A07000000D02F002081EE0100DA
:10238000E8B00400ACB104002CAA040000CA9A3BD7
:102390008D49FD1A114E0200B94F020029EE0100CD
:1023A0002DE9F043C469228D4FF6FF739A428DB038
:1023B00000F08880054620461FF0E2FD95F82830A1
:1023C000012B00F00A81022B00F0FD80002B00F0B1
:1023D000DC8094F85071002F40F0F880E68DB4F85E
:1023E0003080002E71D1AA8C08F101060023CDE9BE
:1023F0000A33B6B2002A70D094F93930002BC0F2FB
:1024000043810023A4F88A3195F82630D90740F19A
:10241000EA800023A4F88E310DF1270231462046D0
:102420001FF0FEFA743000F04181B4F888312BB10E
:10243000B34240F208819B1BA4F88831B4F8843180
:102440002BB1B34240F2F6809B1BA4F88431258E59
:1024500017B9A84500F0E5800135ADB294F8D13048
:1024600013F0010659D1DDE90A130A46002B40F0AA
:10247000E880002900F0D7801E461846228DE469C6
:102480000694CDE903570532A54D0290CDE900161B
:10249000D2B201210020059518F02CFB10F0FD0FA1
:1024A00010D019F05FFA84420CD09E4A9E499F4892
:1024B00040F2EC433BF051FC404080F311884FF078
:1024C000030002DF0DB0BDE8F083AA8C4644002370
:1024D000CDE90A33B6B2002A8ED195F82630DA0754
:1024E00097D4B4F88A31002B7DD0B34240F2F68005
:1024F0009B1BA4F88A31B4F88E31002B8CD09E42FD
:1025000080F0DA809B1B9BB20022062BA4F88E3150
:10251000228600F2A88001277EE794F939206FF324
:102520000003002A84F8D13073DB94F87600C0F3FE
:10253000C00100F0070024F073FCB4F86E30B4F86A
:102540006C10194401F2AD110844794972A3D3E922
:102550000023A0FB0101FEF7D3FDDDE90A1320F003
:102560007F4220692261904235BF161A801A0020EE
:1025700000260A46002B81D156EA010C7FF47EAF7B
:10258000002850D019461E4678E794F88E3003F0A4
:102590001803182B7FF41DAFA18DB4F886218B1D75
:1025A0009A42C4BF931F5B1AB4F88211CCBF9BB28E
:1025B0001346994200F08C80A4F88231A4F884314B
:1025C000A4F8882105E73D2784F850713946204654
:1025D0000DB0BDE8F0431CF0F1BF0023A4F8883132
:1025E000A4F88431F5E6B4F88E31002B87D1628DE2
:1025F000B4F88C3140F2E24101FB02F242F2107178
:1026000001FB0323013BB3FBF2F39BB2A4F88E3131
:1026100073E794F87700012100F0070024F002FC32
:102620008BE73D461AE7002D4BD000261146304679
:10263000334623E70023A4F8843120461FF090FAA4
:1026400005E730461AE719F005F9014600283BD0A6
:102650000023A4F88831238DC3801B2303710068F5
:1026600019F0C2F8EAE694F939309342BFF6D4AED5
:10267000B8F1000F7FF44FAFD4F878315A08DB0778
:1026800043D4C4F87821C7E628460AAA0BA904F166
:10269000D409FFF75DFA48461EF052FF18B34846CA
:1026A0001EF04EFF18B300232386AAE69DF82710DC
:1026B00020461CF083FF05E7082120461CF07EFF22
:1026C00000E7002FB1D1FDE60123A4F88831B5E67B
:1026D000B4F8881100297FF47CAE6FE73E212046D4
:1026E0001CF06CFFEEE6FF201CF028FFD7E7024647
:1026F000D4E91E0116F084FE0028D4D194F83C30B1
:10270000580744BFA38D23867BE642F00042C4F8FD
:10271000782100E7AFF300808D49FD1A0700000023
:10272000E9ED0100E8B00400F8B104002CAA0400AF
:1027300000CA9A3B000000002DE9F04F87B0CDE9B8
:102740000432BDF8442003780292BDF84820BDF859
:102750004080BDF84C50468EB0F82E90B0F814B1C1
:10276000019104460392002B00F0CB80013EB6B2EB
:10277000A368D4F80C71721B92B2002B009209DA94
:10278000E168626823F0004391422CBF7F18BF18B4
:10279000A360FF1A009A638D13FB02F39BB2B3FB95
:1027A000F8F218FB02F080B283421FFA82FA80F03E
:1027B0009780C01A40F2E2425D4902FB00F0A0FBA4
:1027C000010159A3D3E90023FEF79AFC20F07F40D2
:1027D0000744D94494F839304D44AD1B554440F278
:1027E000E246DB09E58506FB08F500F08E80226CE9
:1027F0000099A36CDFF838B102FB1133A36424F015
:1028000003FD814694F87401C0F3420024F0FEFCFD
:10281000059B814406FB03F305FB09F9236509F5D4
:102820007429444B09F23F29A3FB09394FEA994324
:1028300003FB0AF02364A5EB0309A36C6A080344B5
:10284000963A934228BF1346C4E911230023C4F8E3
:102850007C31A0FB0B0134A3D3E90023FEF750FC2D
:10286000049B3F1A3448A0FB0330800A06FB00F0AB
:102870002DA3D3E90023A0FB0B01FEF741FC20F0C0
:102880007F46029BA385039BA4F88C3129462046F2
:10289000A4F82A801FF000F9284BA18D2B44881D35
:1028A000B3FBF5F39AB29042A4F8862102D2521AF1
:1028B000063A92B2019BA4F8822113B10023A4F836
:1028C0008E313B464A4631462046FFF7CDFC94F810
:1028D000803143F0010384F8803107B0BDE8F08F08
:1028E00008FB1231124840F2E24389B203FB01F1C6
:1028F000A1FB00010CA3D3E90023FEF701FC3F1A62
:1029000067E74E445E44B6B232E7049B0848A3FB37
:10291000000105A3D3E90023FEF7F2FB20F07F4678
:10292000A9460136ADE700BF8D49FD1A070000003A
:1029300000CA9A3B83DE1B435917B7D17FC3C90135
:102940002DE9F04F0B681768D3F80090037F95B01E
:102950000E46C3F3801300F11E010446154612A86B
:1029600006228DF83F303EF024FC96F81180B8F135
:10297000FF0F0DF1400B5AD05A460DF13F01404672
:1029800022F0F4FE9DF83F3002338DF83F302146AF
:10299000032251F82E3B0A9305F1080005F1040AC1
:1029A0003EF007FC05F11803042204F12A01504609
:1029B0000B933EF0FEFB0B9B052204F13A011846F7
:1029C0003EF0F7FB0B9B0521184616F08BFE6B7F44
:1029D00000F03F0060F305036B7794F83F30C3F3DA
:1029E0000402AA77A28EEA81012803F01F0392B2A3
:1029F00005D91B3303F01F030B2B00D8EAB90022C3
:102A0000C9F8142095F820300A9862F3000385F87D
:102A10002030E56801262146267118F0DBFE286883
:102A20002E71294618F0E0FE15B0BDE8F08F0622A1
:102A300012A958463EF0BDFBA9E733680021596052
:102A4000E38EEA892B8240F2E24303FB02F20B920F
:102A5000638E0D9338461FF033F894F83F2097F8B3
:102A60007411520962F3430187F8741124F0CCFB0E
:102A70000C9097F87401C0F3420024F0C7FB0C9A45
:102A80000B99104401FB00F0B74A00F5742000F2E6
:102A90003F20A2FB00204A08800C963A6862AA6296
:102AA00094F8312040F2E24302FB03F3AB63238F3F
:102AB000A7F88C3138461EF0EFFF0B99AB4BAC4AB0
:102AC000C7F890210B44B3FBF1F39AB2A7F8862123
:102AD000298A881D824204DDC1F57F41FA310A440A
:102AE00092B2A7F882215146042207F5BC703EF04D
:102AF00060FB234613F81C2FC2F340120C92DA0736
:102B000000F10E814FF48073A38399F8260023F01F
:102B1000EDFB0146062204F12B00002900F0E680BF
:102B200004F124013EF045FBB8F1FF0F04F125004C
:102B300000F0DF8012A906223EF03BFB9DF83F30FB
:102B4000A3775946062204F11F003EF032FBEB89C1
:102B500063862B8AA386B7F88C31E38697F87431A5
:102B6000C3F3420384F8383038461CF0C1F9A88119
:102B7000E08021460A98746818F02CFEAB89E38047
:102B80001C2323710C9BD4F80080002B40F0B680EE
:102B90000C9B23772146404618F026FE95F85B00F3
:102BA000B5F85080B5F85240012100F0070024F03C
:102BB00039F9444404F20D24DFF8B8818246312308
:102BC00020180024A0FB0801BB607C6064A3D3E94B
:102BD0000023FC60FEF794FA20F07F4038610B9BE5
:102BE0006D6A0D995D1BF36840F2E24202FB01330E
:102BF00003F2B241A1EB0A0A22460221012016F09B
:102C000037FC48461BF004FD0246AAFB0801924629
:102C100053A3D3E90023FEF773FACDF80490B36809
:102C20005549009120F07F480AF102023A3BD2B2A6
:102C300020464344012117F0B7FF01287DD099F8C1
:102C40002430DB0764D438461CF052F9494BA5FB0D
:102C500003A9044642A3D3E9002350464946FEF7A0
:102C60004FFA464BB668464A079220F07F45A5FBCF
:102C70000331BAEB0300434B059340F2CD130697A3
:102C800008933B694FF0000BCDE903B34FF0070306
:102C900003FB051169EB01014FF47A720023FEF783
:102CA0002FFA05343A3EE4B2CDE90150CDF8008068
:102CB000334622460121584617F08AFE10F0FD0FD8
:102CC0000CD0314A314932484FF4E7733BF045F8B4
:102CD000404080F311884FF0030002DF01220221FF
:102CE000104616F0C5FB15B0BDE8F08F3EF06CFA4B
:102CF0001AE7062200213EF067FA1FE76B7F43F0D8
:102D000040036B77504622F02FFB0123E88340E716
:102D10000023012200931846114617F003FF92E7A3
:102D2000194A1C491A48F7233BF017F8404080F332
:102D300011884FF0030002DFE4E618F013FE81452E
:102D40003FF47DAF104A1449114840F275233BF01F
:102D500004F8404080F311884FF0030002DF6EE773
:102D60008D49FD1A0700000083DE1B437FC3C901A4
:102D7000404B4C0000CA9A3BD54D02008D49FD1ACC
:102D8000A54D0200114E0200ACB60400ACB1040027
:102D90002CAA040010AE040008B7040000000000D4
:102DA0002DE9F04F8BB0CDE9050104930020BDF86B
:102DB00060309DF85480BDF858A0BDF85CB0039316
:102DC00016461BF08BFE002800F0498108F001092F
:102DD0000446484617F0ECFFB9F1000F69D1236AA9
:102DE00004F11C020792002B6AD0276A3D6897F80D
:102DF0005A00C0F3C00100F0070024F011F8B7F842
:102E00005010B7F8523000F20D200144CC4819445C
:102E1000A1FB0001C8A3D3E90023FEF771F920F05C
:102E20007F402861304622F0C5FF94F833306FF3BD
:102E3000410384F83330FF2384F834306EB3A8F1B3
:102E40000203012B40F20F8194F84830049A68F392
:102E5000420384F8483094F8333062F3000384F876
:102E600033301499062204F124003EF0A2F9039BAA
:102E700023860021DDE90523009604F11C00FFF7FD
:102E8000F7F8606424F06EF9002840F0F7802046DF
:102E9000FFF71AF90BB0BDE8F08F23F0D5FB00283F
:102EA000CDD014990498324623F002F984F8340006
:102EB000C5E7062116F080FA002890D11220E9E734
:102EC00018F070FC0790002800F012811CF004F844
:102ED0000546002800F00981203016F017FC05F1A6
:102EE0001C07002840F0F480032105F1240023F0A2
:102EF0004BFED5F88800A5F82CB04FF6FF73A5F867
:102F00002AA02B85002800F0F58005F17C0205F150
:102F1000780116F05DFAB5F8763023F4EF6323F00C
:102F2000070343F4887343F00103A5F8763095F85E
:102F30008E304FF0000B23F0070385F88E3001210F
:102F40002846C5F888B0A5F88CB01CF079FEC5F805
:102F50002EB0A5F832B005F1340022F0B1F995F8A1
:102F6000393060F30503012185F839300DF1270070
:102F700023F00AFE039B9DF82720A5F88C31714BA6
:102F800085F83BB0A3FB0213DB0803EB4303A2EB82
:102F9000830295F83930A98DA5F88EB103F03F036F
:102FA00085F8393095F83C30A5F884B1053223F026
:102FB000030385F83A2085F83C3040F2E242624B48
:102FC00002FB0AFA4FF4C0225344C5F88821881D39
:102FD000B3FBFAF39AB28242A5F8862102DD063AE3
:102FE000521A92B2A5F8822128461EF0DDFC514605
:102FF00028461EF051FD079BC5F8543195F87431F1
:103000004FF0000A6FF3000385F8743185F850A182
:103010001CF0F0F995F8943160F3020385F89431CF
:103020001CF0EEF995F8943160F3C50385F89431FE
:1030300095F880316AF3410385F8803105F1D400B9
:103040001EF03CFA3123C5F804A0C5F80CA0AB6013
:103050002762C5E905AA85F800A0ED61C7E60C2046
:103060000BB0BDE8F08F002022F0C8FE94F833309A
:1030700043F00203C84684F83330E5E6256AEB6E78
:1030800063B1324A3249334840F21E433AF065FE9A
:10309000404080F311884FF0030002DF05F160012A
:1030A00005F15C0016F098F90646002835D02F6827
:1030B000EE66D7F8545115B3284618F079FB384618
:1030C0001BF010FF0023032023620BB0BDE8F08F3C
:1030D0001E4A21491F48C0233AF03FFE404080F37A
:1030E00011884FF0030002DFFEE6079818F060FB3E
:1030F0000720CFE605F18000C5F8880005E7134AF0
:103100001649144840F227433AF027FE404080F326
:1031100011884FF0030002DFCEE70C4A0F490D483B
:103120004FF484633AF019FE404080F311884FF069
:10313000030002DFBBE700BF8D49FD1A0700000056
:1031400000CA9A3BABAAAAAA7FC3C90138B7040038
:10315000DCAF04002CAA040088AA040038B10400E3
:103160002DE9F04F07468DB0044617F81C9F0E4618
:10317000154600F1240106220AA83EF01AF894F838
:103180001C80FB07C9F3C019C8F3401800F1148173
:103190000023A383B17C777C11F0010104F12B00A3
:1031A0004FF0060200F0F28004F11E013EF001F83B
:1031B000FF2F04F1250B04F11F0A00F0F0805246A6
:1031C000384604F11E0122F0D1FAA37F02330AA986
:1031D0005846A37706223DF0ECFF3368D3F8009001
:1031E000EB8963862B8AA386B9F83030E38624F016
:1031F00009F884F838002F6838461BF079FE002162
:10320000A881E08038461EF05BFCD6F804A0206858
:10321000214618F0DFFAAB89AAF806301C23DAF849
:1032200000408AF80430B8F1000F40F0D3808AF8EB
:103230001C805146204618F0D7FABB687A6895F88A
:103240005A00B5F80E80F5686B4C934238BF1346B0
:10325000C0F3C00103F1090A00F0070040F2E243A5
:1032600003FB08F823F0DCFD002202212D1A0120C7
:1032700016F0FEF848461BF007FCA5FB04455CA3CE
:10328000D3E90023834629462046FDF739FFCDF8D0
:103290000490B3685949009120F07F490BF1040272
:1032A000A3EB0A03D2B24B440121002017F07CFCAF
:1032B00010F0FD0F0CD0524A5249534840F23E33B1
:1032C0003AF04BFD404080F311884FF0030002DFDD
:1032D0004FF0000B5B4603220121CDF800B05846A9
:1032E00017F020FC38461BF003FEB3680646424840
:1032F000A3EB0A0AA8FB00013DA3D3E90023FDF7D5
:10330000FFFE1946414B0893414B069340F26E3342
:10331000079709933B698046CDE904B31046002323
:103320004FF47A72FDF7ECFE3A4B0722A9FB03310A
:10333000CDE9028002FB0911E01A65EB01014FF4AF
:103340007A720023FDF7DCFE0536F6B2CDE9009077
:10335000534632460121584617F056FB10F0FD0F38
:103360000CD0274A2749284840F26F333AF0F5FC41
:10337000404080F311884FF0030002DF0122022158
:10338000104616F075F80DB0BDE8F08F3DF01CFF4B
:10339000FF2F04F1250B04F11F0A7FF410AF5846EC
:1033A000062200213DF010FF84F81E900AA9504625
:1033B00006223DF0FEFE10E7114A1749124840F27E
:1033C000BE233AF0CAFC404080F311884FF003005E
:1033D00002DFDDE66B7F43F040036B77281D21F0B1
:1033E000C3FF4FF00108E88321E700BFAFF300807F
:1033F0008D49FD1A0700000000CA9A3B854F020064
:1034000038B70400ACB104002CAA0400894F0200B4
:10341000B94F02008D49FD1A10AE040000000000F3
:10342000052801D00020704738B500200D461BF05C
:1034300067FD044618B190F93930002B01DA0020FD
:1034400038BD90F87600C0F3C00100F0070023F00B
:10345000E7FC094900F2895005A3D3E90023A0FB4A
:103460000101FDF74DFE20F07F402860204638BD69
:103470008D49FD1A0700000000CA9A3B00000000B9
:103480002DE9F04F93B0FF240B930B1D0A930023FB
:10349000CDE90E33054616468DF837409B464FF072
:1034A000040A1F469946984610AB0693564B05935F
:1034B000564B03930FAB01930EAB002000930223F6
:1034C00010930490029033460DF13702294617F00D
:1034D000AFFB022815D0109BCBB9FF2C26D0336848
:1034E000BB4223D0BAF1000F40D00AF1FF3AFF24CB
:1034F0005FFA8AFA8DF83740D6E72946002017F0A0
:10350000F5FB109B022BF8D0109B002BE5D0404A16
:10351000404941484FF4F7733AF01FFC404080F3B4
:1035200011884FF0030002DFFF2CD8D19DF837003F
:10353000FF2829D011A9FFF773FF0028B4D0FF2C72
:103540000E9F119B0AD041463846099317F0E8FBBD
:103550000A9B03EB09029042099B17D8B8469DF8D5
:1035600037403768DDF83CB099469DE72B49284A3B
:1035700029484FF4FB733AF0F0FB404080F3118888
:103580004FF0030002DFB0E7FF2C34D024480721BE
:10359000A9FB000301FB093119A3D3E90023FDF7BF
:1035A000AFFD044600B140341E4AABF57423A3F5C9
:1035B0001073934216D81A480721A8FB000301FB99
:1035C00008310FA3D3E90023FDF79AFD164BA3FBA7
:1035D0000B2304EB93440B9B044400201C6013B0AA
:1035E000BDE8F08F0BF1E87B0BF5D43B08F1FF3819
:1035F0000BF5A57BDFE76FF0090013B0BDE8F08F96
:1036000000CA9A3B00000000855202008952020065
:1036100084B70400C8B704002CAA0400D0B7040083
:103620008D49FD1ABFBDF07F83DE1B430000000003
:103630002DE9F043C668476873683D491A68D0F8B9
:103640000090A7F57423A3F510738B4283B08046D6
:1036500007D907F1E87707F5D43709F1FF3907F5FE
:10366000A57773681169DD89CDF8049006F1100320
:1036700001AA0220FFF704FF00284ED10199A1EB17
:1036800009031B0237D40846494617F049FB034695
:1036900028480721A3FB000201FB032122A3D3E951
:1036A0000023FDF72DFD34690444002C346109DB4F
:1036B00040F2E24305FB03F3A3422FD2E41AA342F4
:1036C000FCD33461D8F800301A48A3EB0903A3FBFC
:1036D0000002072101FB032113A3D3E90023FDF717
:1036E0000FFD154BA3FB0737A0EB9740204430613B
:1036F00003B0BDE8F083484617F012FB03460D48BF
:103700000721A3FB000201FB032107A3D3E9002348
:10371000FDF7F6FC3469241AC7E73469002CD1D1CF
:1037200003B0BDE8F08300BF00CA9A3B0000000070
:10373000BFBDF07F8D49FD1A83DE1B4300000000F2
:10374000F0B5C468636883B00546002B63D125F0EB
:10375000F3FA002025F016FB0021084625F004FBB3
:1037600000222521082025F043FB454B019301A8A9
:1037700025F026FB434940F25B6025F0C5FB237A28
:10378000C3F3420262F306132046237223F05CFF68
:1037900022F05AFF58BB637A9B071FD127682E6817
:1037A000384623F0DBFA06446A6806F10901012075
:1037B00025F000FD25F0ECFD20461AF035FF811CB8
:1037C0003246C9B2384623F0D7FA054670BB2046C8
:1037D00023F05EFA88B9002003B0F0BD012022F08A
:1037E0009DFA4178821C007825F086FCD6E7607A45
:1037F00010F0030018BF0120F1E7234A23492448B1
:1038000040F22C433AF0A9FA404080F311884FF07F
:10381000030002DFDFE793F820309A0797D01D48B6
:10382000214625F047FA25F031FBD4E7164A1A491C
:10383000174840F214433AF090FA184B0721A5FBC1
:10384000030301FB05310CA3D3E90023FDF758FC6A
:103850001349024613483AF080FA404080F3118839
:103860004FF0030002DF1048214625F023FA25F02F
:103870000DFB6FF08B00AFE700CA9A3B0000000021
:10388000D6BE898E5555550080BB04008CAB040014
:103890002CAA0400016F0200A8AA04008D49FD1A99
:1038A00030BC040004BC04001972020000000000D7
:1038B0002DE9F041C46894F91630002B8CB0C0F2A9
:1038C000FF80636805460E46002B40F0EE80A37D26
:1038D0006FF30003A37525F02FFA002025F052FAAC
:1038E0000021084625F040FA00222521082025F075
:1038F0007FFA012018F0DAF80746002800F0C780A8
:1039000007F11C0025F09AFA874B0B930BA825F0C2
:1039100057FA864940F25B6025F0F6FAA07DC0F3C5
:103920004100253023F03AFA8148214625F0C2F9BA
:10393000A37D9B0603D46368002B00F0A58096202E
:1039400025F02CFC00231A461946184625F042FBA8
:1039500022F07AFE002838D1A37D13F0180F59D138
:10396000D4F800802F68404623F0F8F907446A68CD
:1039700007F10901002025F01DFC25F009FD25F0C7
:1039800099FB20461BF08EF8011DC9B240463A460D
:1039900023F0F2F98046002840F0998016B9636A56
:1039A000002B4ED1636843B1624B012202210020FB
:1039B0009D6015F091FD002835D1204623F068F96F
:1039C000D0B900200CB0BDE8F081A07DC0F3C000EC
:1039D00022F0A4F907460DF12B0022F0AFFC797814
:1039E0008046BA1C387825F087FB9DF82B00002212
:1039F000414625F091FDB3E74F4A5049504840F207
:103A00000B233AF0AAF9404080F311884FF00300ED
:103A100002DFD6E7012022F081F94178821C00788C
:103A200025F06AFB9CE7444A4649454840F2062394
:103A30003AF093F9404080F311884FF0030002DF21
:103A4000BBE7414A0792414A059240F2F3120093C4
:103A50000892CDE90366CDE9016606943B463146FE
:103A6000032216F0B5FF10F0FD0F9BD0324A384903
:103A700033484FF4FA733AF070F9404080F31188FC
:103A80004FF0030002DF8DE725F004FB60E72A4AD0
:103A900030492B484FF4C5733AF05FF9404080F34A
:103AA00011884FF0030002DF2AE7636893F82030A3
:103AB000D90705D4636893F820309A077FF507AFDC
:103AC0002548214625F0F6F825F0E0F979E71A4A6D
:103AD00022491B4840F2E5133AF03FF9204B0721F9
:103AE000A8FB030301FB08310DA3D3E90023FDF775
:103AF00007FB1C4902461C483AF02FF9404080F36E
:103B000011884FF0030002DF1848214625F0D2F853
:103B100025F0BCF96FF08B0054E700BFAFF30080D5
:103B200000CA9A3B00000000D6BE898E555555004C
:103B3000113C0000880B00203CBC04008CAB04004E
:103B40002CAA0400B4AB0400917D0200317E020077
:103B500050AF0400CCBB0400016F0200A8AA04000F
:103B60008D49FD1A88BC040004BC04006D7C020071
:103B700038B5044624F02AF8A37DA27DC3F341039F
:103B8000013303F00303032B08BF002363F3420256
:103B900014BF03F125002520A27523F0FFF8636808
:103BA0000BB123694BB917F0B9F8C11C002025F0FF
:103BB00075FBBDE8384025F0EBBB25F09DFB0546C5
:103BC00017F0ACF8C11C002025F068FB25F0E0FBE5
:103BD00025F092FB294617F0A3F80B4A034607216C
:103BE000A0FB020201FB032105A3D3E90023FDF79B
:103BF00087FA23691B1A236138BD00BFAFF3008029
:103C000000CA9A3B000000008D49FD1A0000000028
:103C10002DE9F0478AB0044625F062F9C0B250B9E8
:103C200023F014F9B448214625F044F80AB0BDE861
:103C3000F04725F02BB925F073F9054625F08EFAEB
:103C4000074625F095FA814625F0B6FC064625F094
:103C500097FC824625F046FAEDB2804625F028FA18
:103C600023F0F4F8002DDDD0012017F01FFF0546EA
:103C7000002800F02C8117F0FF07F6B240F01E81FB
:103C8000002E40F0C0804FF0FF093A464B463146C7
:103C9000204624F0C1F90028C4D02A7F616800239F
:103CA0008DF823305FFA88F702F00F03002900F047
:103CB000C980616891F82010880700F1C380072B44
:103CC000B0D0A17D090740F19781002B40F0A18081
:103CD0006B7F252BA6D8042017F0E8FE0028A1D082
:103CE00025F05EFB636A074643B9238C40F27122DC
:103CF00002FB03F3B0FBF3F203FB120723681A691C
:103D00007E4B0721A2FB030301FB023178A3D3E919
:103D10000023FDF7F5F96FF44A7C00EB0C03BB427E
:103D200080D325F0B7F94846636822F0EDFAE37DC9
:103D30008046980740F1DA81B8F1000F00F0D68193
:103D4000C246012725F0FAF8CDE9027A09AB0493BF
:103D500005F11E0301932B7FC3F3801301468246B6
:103D6000009300220123204624F070F9504625F0EC
:103D70006BF825F0ABF8002840F0C281214660487E
:103D800024F098FF626892F8203043F0010382F833
:103D90002030A37D43F08003A37517F0A9FE1723FD
:103DA00003714FF6FF730746C3802D7F51462422CF
:103DB0001C303DF0FEF93B7FBC60C5F3401565F358
:103DC00045133B7725F098FA002E3861099B7B61FB
:103DD00008BF4FF0FF0987F81990E37D13F0020345
:103DE00003D0B8F1000318BF0123BA7E63F30002C9
:103DF000BA7617F07DFEF860386839460AB0BDE83B
:103E0000F04717F0A3BE5FFA8AF022F00BFB814661
:103E10003BE7012B40F041816A7F0C2A7FF402AF1F
:103E20002A7FCDF80090194600230193D20905F1AD
:103E30002403204624F044F800287FF44CAF2B7F65
:103E400003F00F03002B40F0E7806B7F252B1A4611
:103E50003FF6E8AEA17D01F02101202958D0002ACB
:103E60003FF4E0AE63682BB12B7F03F00F03072B09
:103E70007FF4D8AE03209DF8238017F017FE054687
:103E800000283FF4CFAE17F033FE4FF6FF73EB8000
:103E900005232B71002F40F0BB807F20AB7E28765E
:103EA000002E08BF4FF0FF0968F34103286885F82A
:103EB0001990AB76294617F049FEB3E6A07D5FFA6C
:103EC00089F1C0F3C00022F043FA8146DDE60D4AD5
:103ED0000D490E4840F2C72339F03FFF404080F3C0
:103EE00011884FF0030002DFC5E600BFAFF300808A
:103EF00000CA9A3B00000000857C02008D49FD1A33
:103F0000757E02003CBC0400CCBB04002CAA04005B
:103F10006268002A40F0BF809620079225F03EF9A3
:103F2000079A104625F00EF8032017F0BFFD8046D3
:103F300000283FF477AE17F0DBFD4FF6FF73A8F8CB
:103F40000630052388F80430002F40F0D5807F2309
:103F5000002E88F8183014BF4B46FF2388F819301C
:103F600098F81A30D8F800006FF34103414688F8FA
:103F70001A3017F0EBFD24F0E1FF064603223378F8
:103F800062F3030333702B7F3278C3F3801363F340
:103F9000C7120C2332707370484622F0B5F9E37DE6
:103FA0009A07014640F1BA80002800F0B7803378C4
:103FB000304643F0400300F8023B06223DF0F9F89A
:103FC000062205F11E0106F108003DF0F2F8304628
:103FD00024F03AFF24F07AFF002840F0AE8025F06C
:103FE000D7F9A37D5C4843F001032146A3750AB0CD
:103FF000BDE8F04724F05EBEB9F1FF0F8DF82490C4
:10400000C2F3801855D0227E91453FF45EAE19E789
:1040100025F05AF8C0B241E7062B3FF416AF452110
:10402000D94011F001013FD1012B12D16B7F0C2B34
:104030007FF4F8AD2A7FCDF800900DF123030193B2
:10404000D20905F12403204623F03AFF08B16A7F24
:1040500005E72B7F03F00F03042B7FF4E3AD6B7FA9
:10406000252B3FF6DFADA37DDB077FF5DBAD24F02D
:1040700065FF2B7F0278C3F38013B3EBD21F7FF46D
:10408000D1AD0830062205F11E013DF06BF8002885
:104090007FF4C8ADDBE71A46E1E6062B3FF4D5AE68
:1040A0004522DA40D107D4D56A7F252A7FF6D7AEDC
:1040B000B8E505F11E0A09AA5146404622F068FA01
:1040C00000283FF4BCAEE37D03F0010343457FF4D9
:1040D000B6AE5146062204F108003DF043F82B7FAE
:1040E00003F00F0300283FF4F0ADABE6A77D04F129
:1040F000190AC7F3801725E624F0E6FFC3B227E7C5
:10410000164A1749174840F2A44339F026FE4040AA
:1041100080F311884FF0030002DF2FE6A37D327891
:10412000C3F38013304663F3861200F8022B04F1C8
:10413000190106223DF03DF842E7084A08490948BE
:1041400040F2275339F009FE404080F311884FF0C8
:10415000030002DF43E700BF997C02003CBC04007F
:10416000D4BB04002CAA04002DE9F041C468A28944
:104170004FF6FF739A4282B000F0C780054624F0E4
:104180006DF82B89628AE08A1A4492B21044637FE8
:10419000A28280B2411CE1825E064FF00001618282
:1041A00004F1180100F18C8003F03F000B46A17F61
:1041B000009004F11F0021F08FF80646D4E90B238C
:1041C0001344D4E90D0200210244E1626163A16A53
:1041D000A26394F872208B4228BF0B4612F00402AF
:1041E000236377D024F0A8FD002024F0CBFD201D10
:1041F00024F0E6FD2389A17A40F25B6043EA0141A5
:1042000024F082FE304622F0C9FD2146584824F0B1
:1042100051FD962024F0C2FF94F85A2094F85B00D8
:10422000C2F3C003002102F0070200F0070024F0EF
:10423000D1FE204624F072F827682E68384622F016
:104240008DFD06446A6806F10901002024F0B2FFE2
:10425000804625F071F8002025F088F8236B94F84B
:104260005B0003F13002A36B00F00700012103EBB8
:10427000420524F0F7FD4544054494F85B0000F046
:104280000700022824D004280CBF4FF4BC73282355
:1042900001211D4424F0E8FD284425F03FF8A189C0
:1042A00005313246C9B2384622F066FD054698BB54
:1042B000204622F0EDFCD0B9002002B0BDE8F0812C
:1042C0000A4603F03F03E18B21F052F8064675E7FA
:1042D0001823DDE7D4E9170115F092F8002881D101
:1042E00094F8723043F0040384F872307AE7214A7C
:1042F0002149224840F2551339F02FFD404080F308
:1043000011884FF0030002DFD6E71D48214624F054
:10431000D1FC24F0BBFDCFE7164A1A49174840F2FA
:104320004B1339F01AFD184B0721A5FB030301FBC2
:1043300005310DA3D3E90023FCF7E2FE1349024641
:10434000134839F00AFD404080F311884FF0030014
:1043500002DF1048214624F0ADFC24F097FD6FF0F9
:104360008B00AAE7AFF3008000CA9A3B0000000070
:104370007585020008BD04008CAB04002CAA040063
:10438000016F0200A8AA04008D49FD1A5CBD04005B
:1043900004BC0400DD6E0200F0B5C468A2894FF6CB
:1043A000FF739A4285B000F08B80054623F056FFDC
:1043B0002B89628AE08A1A4492B21044637FA282F7
:1043C00080B2411CE1825E064FF00001618204F17F
:1043D00018015FD403F03F000B46A17F009004F169
:1043E0001F0020F079FF0646204603A924F064F858
:1043F000039B94F872101A7861F3C3021A70039A3F
:1044000094F872301178C3F3400363F382011170A2
:1044100024F092FC002024F0B5FC201D24F0D0FCF8
:104420002389A17A40F25B6043EA014124F06CFDEC
:10443000304622F0B3FC0399204624F011F82146BF
:10444000374824F037FC962024F0A8FE94F85B004F
:1044500000F0070024F076FD27682E68384622F029
:104460007DFC06446A6806F10901012024F0A2FEE1
:1044700024F08EFFA18905313246C9B2384622F0B8
:104480007BFC054618BB204622F002FC50B90020F8
:1044900005B0F0BD0A4603F03F03E18B20F068FF52
:1044A0000646A1E71F4A2049204840F2031339F08D
:1044B00054FC404080F311884FF0030002DFE6E730
:1044C0001B48214624F0F6FB24F0E0FCDFE7154A08
:1044D00018491648F92339F040FC174B0721A5FB72
:1044E000030301FB05310CA3D3E90023FCF708FE0D
:1044F00012490246124839F030FC404080F31188DE
:104500004FF0030002DF0F48214624F0D3FB24F0D4
:10451000BDFC6FF08B00BBE700CA9A3B00000000B7
:10452000A983020068BD04008CAB04002CAA04001F
:10453000016F0200A8AA04008D49FD1AB8BD04004D
:1045400004BC0400DD6E0200004870473C160020E9
:1045500000487047C41900202DE9F04F8BB0804609
:1045600004AF0C46002959D091F83750084641F065
:10457000DAFB6D09022D14BF34233623484A494D16
:1045800040218146484807F01DF9204641F0CBFB09
:10459000464902460646204641F05BFB2B6803F085
:1045A0000703022B834612D9EA4688B004AA404B7F
:1045B00053614FF4007393833C493E4B916128460D
:1045C00042F8103F4FF4E65138F07AFED546BBF181
:1045D000000F27DA2B68590720D06C4688B004AA50
:1045E000354B3048C2E9053B032342F8103F4FF4F6
:1045F000C25138F065FEA5462B685A070ED06C46AE
:1046000088B004AA2D4B2748C2E9053B032342F892
:10461000103F4FF4C25138F053FEA5461C37BD463B
:10462000BDE8F08F002EB346E6DB4946404640F039
:10463000D4FF204641F010F900230293002200230A
:10464000CDE9002319491E4B3246404640F06DFF2C
:1046500000282B6814DA5B070ED06C4688B004AAD9
:10466000164BC2E90530032342F8103F0D484FF4C2
:10467000C25138F025FEA546124837F0A1FDCDE71E
:1046800003F00703022BC9D90F4B7B6105480223B6
:1046900007F110024FF486513B6138F011FEBDE77F
:1046A000A8CA040070150020906E0020D16E002072
:1046B000B44E050003000001B2CA0400C9CA0400D8
:1046C000BFD20300003A0020E7CA040090B589B0C9
:1046D000B0F87C301B4923F40073A0F87C30002331
:1046E000009302AF00230022044628F0FBF90028C3
:1046F0001548036816DA5B0711D0B4F87C306C46B5
:1047000088B0C3F3C20302AA1049C2E90513032308
:1047100042F8103F4FF4C25138F0D2FDA5461C3785
:10472000BD4690BD03F00703022BF8D9084B7B610F
:1047300007F1100202234FF486513B6138F0C0FDAF
:10474000EDE700BF5945000070150020F0CA0400D5
:1047500016CB0400B0B5554B554C8AB0002502AFBE
:10476000C7E901531422294607F10C003CF02CFD47
:104770003B1D06220121022027F0AEFE00280EDAA2
:1047800023685B073BD06D4688B002AA494BC2E95B
:104790000530032342F8103F4FF4C2511DE0786802
:1047A000454B4365454B8365182207F1080127F007
:1047B00075FF002826DA23685D0720D07B896D46C7
:1047C0005BBA88B09BB202AA3D49D061C2E9051329
:1047D000042342F8103F4FF40151204638F070FD99
:1047E00023685A07AD460AD0364BFB610223304896
:1047F000BB6107F118024FF4825138F061FD203798
:10480000BD46B0BD7868294640F06CFD002823689D
:1048100006DA5907F3D06D4688B002AA2A4BB6E7EC
:1048200003F00703022B0AD9284BFB610223BB616B
:1048300007F118024FF48651204638F041FD00235D
:104840007868234900930022002340F03DFE0028B1
:1048500011DA23685B070ED06D4688B002AA1D4BA3
:10486000C2E90530032342F8103F11484FF4C2510A
:1048700038F026FDAD464FF0FF3317484FF0FF32BA
:1048800037F0C4FC236803F00703022B0AD9134B4B
:10489000FB6102230648BB6107F118024FF4865101
:1048A00038F00EFD786827F0D1FEA8E702001092DC
:1048B0007015002023CB040049450000514500003D
:1048C00050CB04008ECB040072CB0400AACB0400B2
:1048D000CD460000BBCB0400003A0020E0CB040032
:1048E0007FB5224C206843F023FD18B9204838F0EA
:1048F000EDFDFEE720681F4E39F030FF206839F0EB
:1049000033FF002506232A461B492068CDE90035E0
:104910002B4603F0A5FE206839F023FF4FF4FA6020
:1049200038F0D1FC206839F01FFF1449206803F0EB
:10493000C9FE206839F015FF206839F015FF8DF8A1
:104940000C502A46314603A8551C06F055FF03A912
:10495000206803F0E7FE206839F003FFEDB24FF462
:10496000FA7038F0B0FC2A46ECE700BFA004002043
:10497000ECCB040027CC040011CC040059CC04007B
:1049800038B50F4C204643F0D3FCB8B12269A56876
:10499000136843F0400313602B680A4A062120463F
:1049A000984700280ADB40216B6920469847002879
:1049B00004DB4FF4FA7038F086FCF4E7002038BDD1
:1049C000F08F040001000A0010B51948036803F0D5
:1049D0000703022B8EB008D9164B0D930CAA0223A5
:1049E0004FF486510C9338F06BFC4FF0FF320021EE
:1049F000114843F051FE25F0A3FD10490023042285
:104A000025F0C2FF002200230024CDE906236FF029
:104A10000803CDE90334CDE90144094B0949009469
:104A20004FF4FA62084837F087F920460EB010BDFF
:104A30007015002034CC0400003A002090040020BF
:104A40005547000000840020381E00202DE9F8435F
:104A500000AF80460E46154600F0C2F8C368044613
:104A60001BB943691A78002A59D10023E3606368AF
:104A7000434556F8232009DB484B6361204600F08C
:104A800095F84FF0FF30BD46BDE8F883511C6161D9
:104A900092F80090B9F12D0FEED1911C616151781F
:104AA000A1602D2904D192786AB901336360E3E7EC
:104AB00049B93A4B6361494628463CF011FB00284E
:104AC000DCD0C4F80890A16828463CF009FBA36834
:104AD00062693A2B01D0114630BB127812B9626874
:104AE000013262602268AAB12A783A2A12D02C4890
:104AF000026851070ED06D4688B06A462949C2E95E
:104B00000513032342F8103F00234FF4C25101F074
:104B100093FCAD46204600F049F83F20B3E75A1C0D
:104B200042611B788360CEE740783A280BD000239F
:104B30002361137813B9636801336360204600F082
:104B400035F8A0689FE791F800C062681348BCF18F
:104B5000000F05D101329045626004DD56F8221045
:104B6000C4E90410E7E760612D783A2D04D12046AE
:104B700000F01CF8284686E72268002ACAD00848B8
:104B800002685207C6D06D4688B06A460649C2E937
:104B90000513032342F8103F6346B6E7B249050008
:104BA0006015002059D004006ED00400074B026845
:104BB0001A60074B42681A60064B82681A60064BFF
:104BC000C2681A60054B02691A607047C004002071
:104BD000BC040020203A00201C3A0020183A002093
:104BE00000487047A40400202DE9F04F91B08407DD
:104BF000009302F004030293C2F3C20303F1010322
:104C0000DDF86880039205460E46059340F0BE81AC
:104C1000041D30B1072909D86FF01B0011B0BDE8A1
:104C2000F08F01F00706341DC6F10806009B4FF017
:104C30000009591E4FF0040A4FF0FF330193CDF8DD
:104C400010904F46CB4653460DB1009A226005980E
:104C5000002800F3EB809A48009A824203D39948D7
:104C60008242C0F0E380039AA4EB050E92074FEA5C
:104C70009E0000F106810F2F00F2B480002D00F09D
:104C8000088107F140020DEB020C019A0CF8200C90
:104C90000CF8102C049801300490EAE07A2860D8CF
:104CA0004B280ED847285CD829282FD8252855D03E
:104CB00057D820287DD02338D0F1000B4BEB000BC8
:104CC00077E0A0F14C0CBCF12E0F4AD8DFE80CF0D5
:104CD0007149494949494949494949494C49494919
:104CE00049494949495A494C4C5A5A5A714C6E499A
:104CF0007149184C18494983804C49494C498000F6
:104D000000204FF0000B4FF0040A39E0A0F12A0C0C
:104D10005FFA8CFC012202FA0CFC1CEA0E0F48D14F
:104D20001CF062502ED11CEA020B42D0013C5444CC
:104D3000CAF1000C04EA0C04002D61D0A3EB050CB1
:104D4000A444B4453FF668AF002868D1042B47D18E
:104D500058F8043B2360043404232AE0019A013A02
:104D600001924FF0000B24E011F8010C6C2834D1B3
:104D700011F8023C00206C2B8346C4D14FF0080A86
:104D80005346D3E708F1070828F007080734F8E886
:104D900002AB24F0070435B106982044B0423FF638
:104DA0003BAFC4E900AB08344FF0000B4FF0080AEA
:104DB000534611F8010F002878D0BBF1000F7FF4A3
:104DC0006DAF2528F5D1019B013301934FF0010B05
:104DD0004FF0040AECE7584693E700208346A5E726
:104DE000082B02D06FF0150018E708F1070828F02B
:104DF0000708F8E80223C4E9002308340823D8E7A9
:104E000068B9042B02D108F10408A4E7082BE9D102
:104E100008F1070828F0070808F10808EDE7059AE7
:104E2000013A059258F8042B00920DE7039A900777
:104E300020D5A4EB050E4FEA9E004FF0010CBEF505
:104E4000007FCFD20F2FCDD8F5B107F140020DEB87
:104E5000020EC0B2019A0EF8200C0EF8102CBCF114
:104E6000000F3FF417AF60F07F000EF8200C09F13F
:104E700001090137C5F10802043406924FF6DA7EC3
:104E800097E74FF0000CDAE7BCF1000F01D00136D4
:104E9000EFE7029802360028EBD10098CDE9063101
:104EA0003CF039F9DDE906310644E2E7631BB3F56E
:104EB000806F97D245B9A6F10804E018AEE600BFAE
:104EC000F08E0400E86B0500029A28609B082B70A6
:104ED0009DF81030C2B1EB7085F80290B9F1000F67
:104EE00005D008A80022C5F1010C97420ED1C5F1EA
:104EF00001030DF120084FF0000A01930DF1300B72
:104F0000574512D1601B89E66B70E5E710F8013B4D
:104F1000190608D504EB0C0EB64503F07F033FF6E7
:104F20007BAE04F8013B0132DFE7B9F1000F03D09B
:104F300098F90020002A17DB029BD3B11AF80B2046
:104F400004F8012B0022019B98182044B0423FF640
:104F500063AE98F8000004F8010B00990392204614
:104F60003CF027F9039A14440AF1010A08F10108F8
:104F7000C6E798F8002055F822300093029B45F8C8
:104F8000223000983CF0C7F8421CDCE76FF00D00BF
:104F900044E600BF2DE9F04F95B000AF0446D7F8C6
:104FA00078B0BB61CBF3C0037A623B61396251B91F
:104FB00003784678807800EB830020443B6A9E4269
:104FC0001AD8031B3B6294F802A0E3787B61564633
:104FD000BAF1000F02D01BF0010F17D17B695BBB48
:104FE0007B6A1BB1BA69396A204698473D6A2846F0
:104FF0005437BD46BDE8F08F451C28463CF08BF881
:105000003B6A0130013328443B62D7E794F80080C3
:105010006368FB617B6A4FEA8802FA6004EB8808E8
:10502000002B40F005813D6AC1460AEB08030026CB
:105030004B4552D1D04413E01BF0020FD0D094F86E
:1050400000804FEA8803FB606368FB617B6A04EBC6
:105050008808002B7CD13D6ABAF1000F52D1564628
:105060001BF0050F0CBF022301237B627B6908EB59
:10507000430A0BF002033B62D045B8D018F8021B7C
:1050800018F8013C54F82390AD4B994502D3AD4B31
:1050900099453DD33B69002B47D0F86938F054F966
:1050A000002842D0A848036813F0060F13D0E94641
:1050B0008AB06A46A54B5361FB69C2E906314FF4D9
:1050C00000731384A24B42F8103F00234FF4125197
:1050D00001F0B2F9CD46023DCEE719F8012B7B6213
:1050E00054F822003CF017F8FA6F7B6A01303AB1AD
:1050F000D7F8802096423EBFFA6F22F8160001369C
:10510000054495E71BF004061CBF7E6AD044A7E760
:105110003B6923B1F86938F017F90028C2D11BF0B8
:10512000010F05D17B6AED1AA6E73B6A002BA3D0DD
:1051300048463BF0F0FFFB6F43B1D7F880309E420A
:105140003FBFFA6F431C22F816300136054493E73F
:10515000BAF1000F71D01BF0040671D0D1460026C1
:1051600007F14000524641463CF023F87B695B0062
:10517000BB607B69D04408EB43037B610BF0020307
:105180007B607B6998455DD12378FB6163781BF078
:10519000020F06EB03020CBF4FEA590100211BF07E
:1051A000010FD2B240F09D801BF0040F14BF48469F
:1051B000002094F802B094F803803B616270A07004
:1051C000E170BA69F9687B6A20469847051EFFF6C8
:1051D0000EAFFB6923703B69637084F80380BA6982
:1051E0007B6A84F802B0494607F140009847B0F165
:1051F0000008C0F2A3803B6ABA697869A3EB0A0190
:10520000FB68C91ABB68C91A7B6A98470028C0F2B4
:10521000A180A84408EB00054FF0000B07F1300A0D
:10522000B34560D30021BA697B6A08469847DEE639
:105230004FF0000907F1300094E75646D14695E754
:10524000B14693E718F8021B3D4A18F8015C54F880
:105250002530934202D33B4A93421CD33B6923B18E
:10526000F86938F071F800288BD17B68F3B909F13F
:10527000280207F12800024409F1010302F8101C7A
:1052800007F1500252FA83F309F102095FFA89F932
:1052900003F8105C75E73B692BB1F86938F054F8F6
:1052A00000287FF46EAF1BF0010F09D006F1280231
:1052B00007F12801731C561806F8205CDEB260E77F
:1052C0001BF0040F3FF45DAF09F1280207F128013C
:1052D00009F1010302EB010909F8105C5FFA83F997
:1052E0004FE7002065E71BF80A3087F82F3054F8A5
:1052F0002390FB6FFBB133F81B80BA697B6A0121F5
:1053000007F12F009847002824DB0544B8F1000F6F
:1053100006D148463BF0FFFE00F101081FFA88F86D
:10532000BA697B6A414648469847002812DB054423
:105330000BF1010B74E7D7F87C80DEE7454656E6B3
:10534000F08E0400E86B05005815002097D004008B
:105350000400000105464AE630B587B00025CDE9D6
:1053600003010446009503A90548059500F018F9C6
:10537000DDE904309842B8BF255407B030BD00BF06
:10538000A3D403002DE9F047058B04462807904677
:1053900011D4022905F0070540F0CD80204638F0F1
:1053A00099FA78B10138218B042811D8DFE800F090
:1053B000C3106D85950001290CBF45F0100545F01F
:1053C0002005258388F31188BFF36F8FBDE8F08730
:1053D00001F0070AAA4500F0A6800027B9463E461C
:1053E000A368002B00F0BD8041F00801218388F301
:1053F0001188BFF36F8FA168002900F0BB800D6892
:10540000002900F0B780D1F8048033465246204688
:10541000C047002D76D02B6829461D46F0E701F0E5
:1054200007035A1F012A1BD8002221F00701062B6F
:10543000276889B2C4E9002209D13B4603E0628BA8
:10544000013262831B68002BF9D141F002012183F4
:10545000204638F03FFA00287BD041F0200177E069
:10546000042B0AD121F0070189B22183204638F0AC
:1054700031FA10B141F020012183218B01F0070A9C
:10548000AA4550D00027B946AAE7236921F00701B1
:1054900041F00601062DD3F8009021832DD1B9F1FA
:1054A000000F40D041F00801218388F31188BFF339
:1054B0006F8F3A492046C84729E021F00701236948
:1054C00041F0040189B2042DD3F804902183E6D081
:1054D00000273E464FF0040A82E721F007012369C6
:1054E00041F0050189B2052DD3F808902183D6D06B
:1054F00000273E464FF0050A72E700273E464FF070
:10550000060A6DE72B4687E7B9F1000FD1D14FF0BE
:105510002003EFF3118883F31288BFF36F8F238B7F
:1055200023F008032383258BEA062ED525F01003EC
:10553000238305F007056669218B002EBFF66FAF48
:1055400000232768C4E9003321F0070141F001017D
:105550002183218B01F0070AAA454FF000097FF44F
:105560003FAF002F9BD041F00801218388F31188C1
:10557000BFF36F8F002FC7D03D6839463346524680
:10558000204638F0D3F92F46F4E7AB067FF51AAF83
:1055900025F02003238305F00705FFE659D9030012
:1055A0002DE9F04F814695B08B4617461C460025E5
:1055B000387808B9284658E37B1C2528039306D081
:1055C0005946C8470028C0F250830135FBE1182234
:1055D00000210EA83BF0F8FD7B78252B7DD0002321
:1055E000781C98469E469C461E46014610F8012BA4
:1055F0002B2A00F0A18000F29880202A00F09F80E2
:10560000232A00F09F802BB19DF8403043F04003E7
:105610008DF84030B8F1000F05D09DF8403043F0D0
:1056200020038DF84030BEF1000F05D09DF84030CA
:1056300043F010038DF84030BCF1000F05D09DF809
:10564000403043F008038DF840302EB19DF84030D3
:1056500043F004038DF840309DF8403003F04400DF
:10566000442803D16FF386138DF840309DF8403005
:105670002A2A43F080038DF840307FD19DF84120E5
:1056800042F001024B1C8DF841201A782E2A9DF819
:1056900041200CBF0121002161F341028DF841201E
:1056A00078D15A782A2A6ED0013300224FF00A0CA2
:1056B000194611F8010BA0F13006092E40F2958031
:1056C0009DF840101292C1F3400040EAD2700A46A1
:1056D00060F341028DF840205CE0BA1C03928DF823
:1056E00043309DF84130DA0740F12E8154F8048BA5
:1056F000B8F1000F07DA9DF8402042F004028DF85F
:105700004020C8F100085E0740F1278154F804AB3F
:10571000BAF1000F80F226819DF841306FF341030A
:105720008DF841304FF0FF3A1CE12D2A0DD0302A80
:105730007FF469AF012358E74FF0010C55E74FF0B4
:10574000010E52E74FF001084FE701264DE70EFB2F
:105750000262303A0346184610F8016BA6F1300C8D
:10576000BCF1090FF3D999428FD09DF840101192E6
:10577000D20F62F341018DF8401086E70B460022FC
:105780004FF00A0EE7E79DF8412042F004028DF841
:10579000412002331A786C2A47D02BD8682A31D09E
:1057A0006A2A4BD04C2A51D01A4612F8013B039278
:1057B000782B9DF841208DF8433000F2BE806D2B90
:1057C00051D8692B00F2B980572B67D8412B03D0F1
:1057D000453B022B00F2B1809DF84230042262F377
:1057E00002038DF84230012373E00CFB0202303AD1
:1057F0000B465DE7742A25D07A2AD5D19DF8412041
:1058000006210CE05A78682A9DF8412006D1012132
:1058100061F3C6028DF841200233C5E7022161F32E
:10582000C6028DF841200133BEE75A786C2A9DF8F4
:10583000412001D10421EBE70321F0E79DF841204D
:105840000521ECE79DF841200721E8E7BDF840205D
:1058500022F4F04222F0020242F4804242F00202BC
:10586000ADF84020DFE76E3BD9B201238B4040F218
:1058700082410B4237D113F0240F51D1D8075CD5A8
:105880009DF84230032161F302038DF8423002F0AB
:105890007803A3F140014B424B411AE0A3F15801B8
:1058A000C9B2012000FA01F111F4624F94D140F61F
:1058B000010631421DD111F4043F3ED09DF8423023
:1058C00060F3020302F07802402A8DF8423034D0AF
:1058D00000239DF84020C2F340010B4363F34102D3
:1058E0008DF84020FDE69DF84230022161F302036D
:1058F000E8E79DF84210022002F0780260F302010E
:10590000402A8DF8421002BF9DF8401041F001017D
:105910008DF84010632BDBD1131E18BF0123D8E78D
:105920009DF84230032161F3020312F0780F8DF8E5
:10593000423014BF01230023CBE79DF8403043F0F1
:1059400001038DF84030C3E79DF94020002AB4BF21
:10595000DDF844804FF0FF38D5E698077FF5E2AEDA
:10596000DDF848A09DF841100023CDE911339DF8E2
:10597000423003F00703012BC1F3C30133D1CB1E27
:10598000042B04D8DFE803F02146462121002368D8
:1059900001294FEAE372CDE90E321CD19DF938306E
:1059A000DA17CDE90E3204349DF8403013F00306C7
:1059B00050D0039B3A465946484638F00FF9002824
:1059C000C0F253810544039FF2E554F8043BDA1713
:1059D000CDE90E32E8E70229E5D11AB243F3C0332C
:1059E000CDE90E23DFE7022B24D1CB1E042B04D8F4
:1059F000DFE803F0181010181800012954F8043BD0
:105A00004FF0000214D00229CDE90E32CCD19BB266
:105A10000E93C9E7073424F00704F4E80223CDE924
:105A20000E23C1E754F8043B0E9300230F93BBE70A
:105A3000DBB2CDE7042B08D1073424F00704D4E906
:105A400000230834CDE90E23AEE7032BACD154F884
:105A5000043BDDE79DF843007828B4D862281CD8C1
:105A600025283FF4ADAD5828ADD10DF13603009394
:105A7000DDE90E0108AB10AA38F06AF8BAF1000FA0
:105A8000074680F29A80002F9DD00DF13603D81B77
:105A9000002E00F0C1800130BEE06338152892D896
:105AA00001A252F820F000BF7D5B00008F5B000078
:105AB000C7590000C7590000C7590000C759000066
:105AC0008F5B0000C7590000C7590000C75900008C
:105AD000C75900001D5C0000B55B0000DB5B0000E7
:105AE000C7590000C7590000015B0000C7590000FA
:105AF000B55B0000C7590000C7590000B55B000046
:105B0000BAF1000F0E9F35DB514638463BF082FB61
:105B100007EB000A002F3FF456AF00269DF84230F5
:105B200013F01002059200F0938002305B06119A88
:105B300048BF129B0492104448BFC018B8F1000F30
:105B400040F3A0809DF84020A8EB0008C2F380033A
:105B50005007069300F19680510640F189803EB1CE
:105B600059463046C84700287FDB069B01351E4654
:105B700030227EE038463BF0CEFAC9E70E9B8DF826
:105B80002030002608AF0DF1210A0120C6E71907D1
:105B90005CBFC3F300135E01DDE90E2348BF2B2673
:105BA000002BBFF662AF524263EB4303CDE90E23F5
:105BB0002D265AE7002658E700269DF840200DF1D3
:105BC0003603DB1B6FF386129A458DF840207FF673
:105BD0005AAFAAEB0303119355E70E9890B30DF15A
:105BE0003603009310AA08AB002137F0B1FFBDF8CF
:105BF000423003F0EF0343F4F04343F01003BAF1F3
:105C0000000F0746ADF84230D6DA00283FF4DBAE8D
:105C10000DF13603181A00269A467FE70E9B0729D6
:105C20003FF6D1AEDFE801F00C04060C08080C0CBE
:105C30001D70C8E61D80C6E6EA17C3E90052C2E639
:105C40001D60C0E62E4F064607F1050A052065E7F0
:105C50001A0748BF013069E7079310460692594674
:105C6000C8470028DDE9062304DA15B0BDE8F08F47
:105C7000202243461946002903F1FF33ECDC45445A
:105C80006D1A98462EB159463046C8470028ECDBBD
:105C900001359DF84230DA0601D41B0705D5594677
:105CA0003020C8470028E0DB0135059B33B19DF863
:105CB00043005946C8470028D7DB0135049E2E44CF
:105CC00005E059463020C8470028CEDB0135731B5C
:105CD000002BF6DC53463A465946484637F07EFFDD
:105CE0000028C2DB0544A844A8EB0503002B7FF77E
:105CF0006AAE59462020C8470028B6DB0135F3E7D5
:105D00004BD1040033F0C6B82DE9F047DFF85880D6
:105D1000044607464FF0010914B93846BDE8F0873C
:105D200094FAA4F5B5FA85F509FA05F32E0108EB06
:105D300005156FEA030A24EA03042B7B002BEBD042
:105D400058F806301B694BB946440422736828464C
:105D5000196807EA0A0700F033FBDDE72846984791
:105D60000028D9D1F0E700BFFC94040030B51049F9
:105D7000104889B0002242F02BFF0F4D0F494FF41D
:105D800000320023CDE9062300240E23CDE903349D
:105D9000CDE901440A4B00944FF44072284635F097
:105DA000CBFF0849284635F001FF204609B030BD39
:105DB000C95D0000B0230020F01E0020408C0020B0
:105DC000E960000086D50400014836F0F9B900BF4B
:105DD000B81700202DE9F04780461F480F4638F0DD
:105DE00048FA0646002830D000252846BDE8F0874E
:105DF000237B73B12368DB680BB120469847236887
:105E00001B69D3B9636804221968204600F0D8FAE8
:105E1000013610344C45EBD3B8F1000FE5D0002D1E
:105E2000E2D02846FFF770FF0546002FF7D000218B
:105E30004FF4A47036F0C8FEF1E7204698470028DA
:105E4000E0D00AFA06F31D43E2E7044CDFF81090B5
:105E500005464FF0010ADDE7343A0020FC940400C7
:105E60000C95040008B5034608462BB1044A13609C
:105E700000F084FD002008BD6FF01500FBE700BFB7
:105E8000C404002010B5044C237813B9034836F03D
:105E900097F90123237010BDD1730020B81700209B
:105EA00010B50446084838F0E4F95CB1BFF35B8FE5
:105EB000064B53E8001F013943E80012002AF8D1CD
:105EC000BFF35B8F10BD00BF2C3A0020303A00209A
:105ED0000020064BBFF35B8F014653E8000F43E8F9
:105EE0000012002AF9D1BFF35B8F70472C3A0020D3
:105EF00070B5FFF7EDFF084C084E0546B44200D3DD
:105F000070BD63685B792BB123685B6813B1294668
:105F1000204698471034F1E7FC9404000C950400E7
:105F200010B5044C0449204638F01EF8034B1C60A1
:105F300010BD00BFB014002018970400243A0020C0
:105F4000094A0A4808B500231370094A1360094A30
:105F50004FF400411360FFF785FFFFF7E1FFBDE855
:105F6000084000F085B900BFD27300206FE2030043
:105F70002C3A0020303A002001460022014800233C
:105F800038F013B8B0140020014838F0ACB800BFA6
:105F9000B0140020024B0146186838F0F6B800BF74
:105FA000243A0020014838F02CB900BFB01400207A
:105FB000F8B5354B1878002864D0FFF7E5FF0446A4
:105FC00090B1BFF35B8F314B53E8001F013943E8B9
:105FD0000012002AF8D1BFF35B8F2D4D2D4EB54234
:105FE0002DD32046FFF7D6FF2B4B2C4C1B68002BE4
:105FF00019DD42F0C5FD4FF47A72A0FB020302FBEB
:106000000131C30BD4E9002043EA41439B1A4FEA14
:10601000D13140F2E93261EB0001934271F10001AC
:1060200001D3FFF765FFD4E9003213F57A7342F12B
:106030000002C4E90032BDE8F840FFF7B3BF6B6867
:106040005B793BB121784B0706D52B6821461B684D
:10605000284698471035C2E72388626813F4E07F2A
:10606000C3F38217C1F3C201EFD0002AEDD00C4B6D
:10607000D21A42F38F020123284600F0BBF9B8423E
:10608000E8D3E2E7F8BD00BFD1730020303A00202A
:10609000FC9404000C9504002C3A0020A823002056
:1060A000F414002070B50D4D297861B90120FFF777
:1060B00091FE0B4C0B4EB44206D3FFF779FF00283C
:1060C000FBD101232B7070BD63685B791BB1236822
:1060D00020469B6898471034EDE700BFD27300203C
:1060E000FC9404000C95040000212DE9F0470846BB
:1060F000FFF770FE044648B340F267684FF00009AE
:1061000036F096FD1A4B186030B11A4B1B68092BFC
:1061100002DD194836F054F8184FDFF85CA000256E
:1061200044B12046FFF7F0FD044618B94FF0FF38A0
:106130004FF0FF39FFF73CFF064628B9B5B9424694
:106140004B46504636F062F83546E9E74FF0FF38E7
:106150004FF0FF39D4E72B689B691BB10022114631
:10616000284698471035BD42F5D3E8E7044DFAE7D5
:10617000283A0020303A0020B81700200C9504007F
:10618000FC94040013B5184838F073F8174B1B78CB
:106190007BB14FF02003EFF3118483F31288BFF338
:1061A0006F8FFFF705FF84F31188BFF36F8F02B085
:1061B00010BD0F4B1B68002BF9D050B900220023F3
:1061C000CDE900230B484FF40042002336F09CFF3A
:1061D000EDE70928EBD1074842F006FD064802B07A
:1061E000BDE8104035F0ECBF303A0020D2730020FB
:1061F000283A0020B0230020B817002010B5064B25
:106200001B68044698472146A060044837F04BFFBE
:10621000BDE81040FFF7B6BFC4040020B014002052
:1062200008B50A460146024837F0F8FF002008BDCD
:10623000B01400200146014837F0FBBFB014002025
:10624000024B0348C01AC008704700BFDC9204002C
:10625000FC940400044A054B9B1AB1EBD30F34BFE6
:1062600052F8310000207047DC920400FC940400D6
:106270000B480C4B30B51B1A0B4CDB0800210430CB
:10628000994200D130BD10F83120256802F0070294
:1062900025F007052A4344F8042B0131F0E700BF3D
:1062A000DC920400FC940400F4140020F8B50B4FB9
:1062B0000B4DED1B0646ED080024AC4202D14FF019
:1062C000FF3409E057F8340008B90134F5E73146E6
:1062D0003AF028FF0028F8D12046F8BDDC920400EF
:1062E000FC9404002DE9F843884615461E4698B9EB
:1062F000224FDFF88C90044609E0384633462A46A0
:106300004146FFF7EFFF844238BF044610374F4540
:10631000F3D32046BDE8F8831A4B1B4AD21AB5EBDB
:10632000D20F28D203EBC5031C79B44228BF3446F0
:106330004368164E1A7956F8253002EB42020721BF
:10634000914023EA010304F0070101FA02F213432A
:106350000021032223FA02F000F00700814202F13B
:10636000030238BF01461E2AF4D123F007030B4372
:1063700046F82530CDE70024DAE700BFFC9404009E
:106380000C950400DC920400FC940400F41400203A
:10639000F8B5094D094BED1A06460F46ED080024E5
:1063A000AC4200D3F8BD002122B23B463046013456
:1063B000FFF798FFA4B2F3E7FC940400DC9204001A
:1063C00038B50B4BC31A0D461B11114642680133F9
:1063D0001371436804469971FFF7DAFF63681D6023
:1063E000636801225A71BDE83840FFF74BBD00BF1A
:1063F000FC9404000146184663B1002A14DB4B6884
:106400000A491B7951F8220003EB4303D84000F0FE
:1064100007007047064B0749C91AB2EBD10F04D2E7
:1064200003EBC2031879704704207047F41400206E
:10643000DC920400FC9404002DE9F04F8FB004AF0F
:10644000C1F34A28B8600D4691467B600C0DB8F147
:10645000000F67D0002607F114034FF0040B4FF034
:106460000A0AC7F80C80C7E907667E620193CDF877
:1064700008B0CDF800A007F11C03F9683246484681
:10648000FEF788FDB0F5006F034620D32A48036865
:1064900013F0060F17D06C468AB0D9F8041004AB7D
:1064A000264DC3E9055140F2FF71D9611A464FF4F8
:1064B00000711984224B42F8103F4FF412513346B9
:1064C000FFF7BAFFA5462C37BD46BDE8F08FC0F3F5
:1064D0000A0804F11700184420F0070080083B6008
:1064E000FFF74AFD68F35325044690B13B68154A0F
:1064F000C7E9083600F1100107F11403F961CDE98D
:1065000000A3CDF808B0F96807F11C034846FEF770
:1065100041FD68F353257B68B9682A46204637F069
:10652000EAFED0E704F1170020F007008008FFF72B
:1065300023FD0446EDE700BF741500205ED1040082
:1065400004000001CBE203002DE9F04F87B0DDE944
:106550001269DDE9105A04460F4693469846A6B3E1
:106560001021CDF80090334652460020CDF814900B
:10657000FEF73AFB014605F117000844144B03915E
:1065800004F007040BF0070BE40020F0070003EA17
:10659000412344EA8B1480081C43FFF7EDFC44EAD6
:1065A0000554054640B13EB10399CDF800903346FD
:1065B00052461030FEF718FB43462246394628461D
:1065C00007B0BDE8F04F37F096BE3146D3E700BFC5
:1065D00000FE0F000EB403B503AB014653F8042BC5
:1065E0000448019337F0ADFE02B05DF804EB03B050
:1065F000704700BF6BE30300CA0605D48B064CBF8F
:1066000002490349FFF7E6BF704700BFEEE104000F
:1066100046D204002DE9F04F89B09B469DF84830E2
:106620000493DDE913930593049B0692DDE9157647
:1066300004460D46002B00F0878006F00803079300
:1066400037F035FE06F0020A024600284BD0864994
:106650002046FFF7BFFF8046BAF1000F08D016F0C2
:10666000440F42D181492A462046FFF7B3FF8044B8
:1066700006F001035BB17E4B049A7E4953F8222059
:106680007D4B2046002A08BF1A46FFF7A3FF06F0FD
:106690000803002B55D0794B049A794953F82220EE
:1066A0002046FFF797FF0546069B2BB175491A4612
:1066B0002046FFF78FFF0544BBF1000F05D072495C
:1066C0005A462046FFF786FF05444544B9F1000FBE
:1066D00049D1002F4FD1F30700F1C0803146204649
:1066E000FFF78AFFB4E08046B6E7684B18680028D9
:1066F000BDD0674B4FF47A7E1B68B5FBF3F54FF4C2
:106700006162B5FBF0F300FB1355B3FBF2FA0EFB2D
:1067100005F502FB1A323C21B5FBF0FCB2FBF1F3AC
:1067200000FB1C5501FB13220EFB05F50092B5FB87
:10673000F0F55849CDE901C552462046FFF74AFF1A
:1067400095E706F00805AFE7BBF1010F06D1B9F1F7
:10675000000F64D1002F7BD000250CE0B9F1000FB1
:10676000F8D04D485CE04D484D494B46224636F046
:10677000BAFD002F68D0DFF82C91DFF82CA1102F84
:1067800031462046B84628BF4FF01008FFF734FFC7
:106790004FF0000B5D4545DC059B51461A782046BD
:1067A000FFF718FF4FF0010B1BF0070F03D149460D
:1067B0002046FFF70FFFD8453BD9059B514613F8FC
:1067C0000B202046FFF706FF0BF1010BBBF1100F6A
:1067D000EAD1364920464FF0000BFFF7FBFE5A4640
:1067E000059B9A5CA2F120015F2928BF2E22304927
:1067F0002046FFF7EFFE0BF1010BBBF1100F1DD090
:106800001BF0070F03D149462046FFF7E3FED845AA
:106810005A46E5D849462046FFF7DCFEEBE71F481D
:10682000049DA1E749462046FFF7D4FE0BF1010B7A
:10683000B0E720492046FFF7CDFEC5E7059BB7EB43
:106840000807434405939AD1049B002B7FF443AF80
:10685000204609B0BDE8F04F37F07ABD064A054939
:106860002046FFF7B7FE39E7A2D10400A6D1040005
:106870002C970400F4E304009DD104004097040029
:10688000CBD10400D1D10400D5D104003C3A002082
:10689000383A0020AFD10400A1E303006BE303000A
:1068A00043E30300784F0500DAD10400E0D104008F
:1068B0006BD00400764F05002DE9F0410F884B683E
:1068C0008E6886B005460C469046C7F382175BB1CA
:1068D000134A9B1A43F38F0100291FDB2078C0F372
:1068E000C200FFF7B7FC03462146608851F8102B21
:1068F0000097C2F34A22002A01EB0204C0F30B10F6
:1069000008BF0021CDE90308CDE90114002231467A
:106910002846FFF77FFE06B0BDE8F0810023E3E7DD
:10692000F414002073B542F20F738B4228BF0B465C
:1069300005680F4A04460521684636F0D4FD6368B1
:106940000C495B6806460422284637F0EDFC636874
:106950003246694628465B6837F0E6FC63680649BC
:106960005B681722284637F0DFFC02B070BD00BF1D
:10697000F3340500FAD10400E2D10400074A0021F3
:106980000123904206D8064A01B901231360054B42
:106990001860704740085B000121F2E740420F0099
:1069A000383A00203C3A002000230428CB604B609A
:1069B00098BF044B044A98BF53F820308A600B609C
:1069C000704700BF9C980400A09504000023084A6B
:1069D0000B60CB604B608A60064B074AD21AB0EB63
:1069E000121F3EBF03EB00139B680B60704700BF94
:1069F00020980400FC9404000C9504000023064A2F
:106A000010B50C46CB604B608A6001461846FFF714
:106A100021FC206010BD00BFA09504002DE9F341CA
:106A20000E4C0F4E0F4FDFF840800546B44203D3A3
:106A3000002002B0BDE8F081636859791B79002914
:106A40000CBF3A464246CDE900230821A368074A15
:106A5000284638F046F81034E8E700BFFC940400FC
:106A60000C9504001FD204002433050028D2040032
:106A70002DE9F74F0D4604460020FFF7E1FB6B6858
:106A80005B79074623B91E4A0321204638F029F8CE
:106A90001C4B1D4ADFF874A00821204638F021F86D
:106AA0001B4A0821204638F01CF84FF000080FFA66
:106AB00088F6BE4208F1010803D3002003B0BDE808
:106AC000F08F3246012300212846FFF793FC002374
:106AD0003246194681462846FFF78CFC31468346EC
