:10000000C0460020B11D0000598D00009D1D00005C
:100010009D1D00009D1D00009D1D000000000000B2
:10002000000000000000000000000000CD1E0000E5
:100030009D1D000000000000991E00009D1D000095
:1000400099200000992000009920000099200000CC
:1000500099200000992000009920000099200000BC
:1000600099200000992000009920000099200000AC
:10007000992000009920000099200000992000009C
:10008000992000009920000099200000992000008C
:10009000992000009920000099200000992000007C
:1000A000992000009920000099200000992000006C
:1000B000992000009920000099200000992000005C
:1000C000992000009920000099200000992000004C
:1000D000F5050000992000009920000099200000FB
:1000E000992000009920000099200000992000002C
:1000F000992000009920000099200000992000001C
:1001000053B94AB9002908BF00281CBF4FF0FF317E
:100110004FF0FF3000F00CB8ADF1080C6DE904CEE3
:1001200000F008F8DDF804E0DDE9022304B07047D0
:10013000704700BF2DE9F04786468C460846089E6A
:10014000154674461946002B40F0C2808542B2FA2B
:1001500082F245D94AB1C2F1200300FA02FC2EFA1C
:1001600003F3954043EA0C0C94404FEA154EA8B2B5
:10017000BCFBFEF8230C0EFB18CC08FB00F943EA8D
:100180000C43994528D9EB1808F1FF3704D299455B
:1001900002D9A8F102072B44A3EB0903A4B2B3FBD5
:1001A000FEFC0EFB1C330CFB00F044EA0344A042AF
:1001B00014D92C190CF1FF3304D2A04202D9ACF1AE
:1001C00002032C44241A43EA07401EB1D440002302
:1001D00034607360BDE8F0874746DDE76346F1E7CA
:1001E00092BB431B01214FEA154EAFB2B3FBFEFC9D
:1001F000200C0EFB1C330CFB07F840EA0343984528
:1002000062D9EB180CF1FF3004D2984502D9ACF159
:1002100002002B44A3EB0803A4B2B3FBFEFC0EFBCD
:100220001C330CFB07F744EA0344A7424ED92C19B0
:100230000CF1FF3304D2A74202D9ACF102032C44E3
:10024000E41B43EA0040C0E7C2F1200320FA03F1B7
:10025000954090402EFA03F303434FEA154EAFB298
:10026000B1FBFEFC0EFB1C10190C0CFB07F841EA5D
:100270000041884504FA02F422D969180CF1FF30D4
:1002800004D2884502D9ACF102002944A1EB08014F
:100290009BB2B1FBFEFC0EFB1C110CFB07F743EA03
:1002A00001439F420ED9EB180CF1FF3104D29F425B
:1002B00002D9ACF102012B44DB1B41EA004192E779
:1002C0006046E3E76146F7E76046A3E76346B7E7C2
:1002D000834206D916B9002108467BE7C6E900E04B
:1002E000F9E7B3FA83F78FB9834201D3724508D88F
:1002F000BEEB020460EB030301209C461EB9002103
:1003000068E73846FAE7C6E9004CF8E7C7F1200C81
:10031000BB4022FA0CF41C432EFA0CF120FA0CF329
:10032000B84001434FEA14490EFA07F5B3FBF9F858
:100330001FFA84FE09FB18300B0C08FB0EFA43EA87
:1003400000439A4502FA07F240D9E31808F1FF305A
:1003500004D29A4502D9A8F102002344A3EB0A0370
:1003600089B2B3FBF9F809FB183308FB0EFE41EA2A
:1003700003418E452CD9611808F1FF3304D28E4514
:1003800002D9A8F10203214443EA0040A0FB0298ED
:10039000A1EB0E014145CE46434602D306D14D4561
:1003A00004D2B9EB020E68EB04030138002EA6D08C
:1003B000B5EB0E0261EB030101FA0CFC22FA07F324
:1003C0004CEA0303F940C6E9003198E74046C5E727
:1003D0004346D9E7034613F8012B002AFBD1181A2C
:1003E0000138704738B5134809F0F4FA00B31248E1
:1003F00007F075FF00281BDB104C114D4FF0FF324A
:100400004FF0FF33204606F049FC4FF0FF324FF02B
:10041000FF332146284606F00BFF0648836840213B
:100420005B699847002803DB204606F0AFFCE5E750
:10043000002038BD70A2000030A50000B8020020E6
:100440000003002038B5144809F0C4FA08B3134873
:1004500007F045FF00281CDB114C124D4FF0FF3216
:100460004FF0FF33204606F019FC4FF0FF324FF0FB
:10047000FF332146284606F0DBFE074883684FF429
:1004800080715B699847002803DB204606F07EFCFC
:10049000E4E7002038BD00BF70A2000028A50000DE
:1004A000B80200200003002038B50A4C0A4D4FF076
:1004B000FF324FF0FF33204606F0F0FB284606F0EF
:1004C00099FE204606F062FC00214FF4804007F0C0
:1004D00005FAECE7B80200200003002010B5084B35
:1004E000084C1B68012103B910BDDA6820688242FC
:1004F00001D1197002E0121A022AFAD91B69F2E737
:10050000580900205C09002010B50A4B1A683AB15E
:100510000948D36812690360002412B904B103606A
:1005200010BDD168126999422CBF194601240B46AF
:10053000F3E700BF580900205C09002043786BB145
:100540000B4A002141701368984208D1036903B136
:1005500001611360074A1378013B137070471A4614
:100560001B699842FBD10369136100230361F1E722
:1005700058090020241700202DE9F0411A4D1B4F87
:100580002C68002694B9FFF7BFFF194A1368B3F12E
:10059000807F04D303F17F4313602A68EAB9134ACA
:1005A000C2F84435BDE8F041FFF798BF2378D4F88E
:1005B000108083B1636826709847637823B1A3786D
:1005C00023B92046FFF7BAFF4446DBE7D7F80425F6
:1005D000A3681344E3602469D4E7D16801F17F4143
:1005E000D1601269DAE700BF5809002000400240DC
:1005F0005C090020684620F007018D4601B5064BD6
:100600000022C3F84421FFF7B7FF01F067FABDE805
:1006100001408546704700BF00400240014B1B6807
:10062000184700BFB000002030B585B004460D4625
:1006300010220021684609F035FD02238DF80230B2
:100640002A46044B01932146684607F0EBFB05B0B0
:1006500030BD00BF1D060000014B1860704700BF91
:10066000B000002080B505460E461746984607F0B4
:1006700071F9034609F092FDDFF81890044649F835
:100680000030424630463946A84754F8090001F088
:10069000ABFB00BF080000002DE9F047058B0446C6
:1006A0002807904611D4022905F0070540F0CC80B8
:1006B000204608F023F878B10138218B042811D89E
:1006C000DFE800F0C2106D85950001290CBF45F0F0
:1006D000100545F02005258388F31188BFF36F8F3F
:1006E000BDE8F08701F0070AAA4500F0A5800027C1
:1006F000B9463E46A368002B00F0BC8041F00801DB
:10070000218388F31188BFF36F8FA168002900F05F
:10071000BA800D68002900F0B680D1F80480334615
:1007200052462046C047002D76D02B6829461D46EC
:10073000F0E701F007035A1F012A1BD8002221F01D
:100740000701062B276889B2C4E9002209D13B467C
:1007500003E0628B013262831B68002BF9D141F008
:1007600002012183204607F0C9FF00287AD041F01A
:10077000200176E0042B0AD121F0070189B2218300
:10078000204607F0BBFF10B141F020012183218BEF
:1007900001F0070AAA454FD00027B946AAE7236906
:1007A00021F0070141F00601062DD3F800902183C6
:1007B0002DD1B9F1000F3FD041F00801218388F31A
:1007C0001188BFF36F8F3A492046C84729E021F0CE
:1007D0000701236941F0040189B2042DD3F8049084
:1007E0002183E6D000273E464FF0040A82E721F03D
:1007F0000701236941F0050189B2052DD3F808905E
:100800002183D6D000273E464FF0050A72E7002725
:100810003E464FF0060A6DE72B4687E7B9F1000F19
:10082000D1D1EFF31188202383F31288BFF36F8FA8
:10083000238B23F008032383258BEA062ED525F08E
:100840001003238305F007056669218B002EBFF690
:1008500070AF00232768C4E9003321F0070141F09D
:1008600001012183218B01F0070AAA454FF00009FD
:100870007FF440AF002F9CD041F00801218388F322
:100880001188BFF36F8F002FC8D03D6839463346BB
:100890005246204607F05EFF2F46F4E7AB067FF591
:1008A0001BAF25F02003238305F0070500E700BFF9
:1008B00081870000014B03600020704738A50000CD
:1008C000F0B40C4B0C4E5F6A0C4BB34203D36FF089
:1008D0008500F0BC70475D68BD4209D31C693CB11E
:1008E00095F802C00579AC4502D12346F0BC184703
:1008F0002433EAE760090020E8030020C403002055
:100900002DE9F047134CDFF85080DFF85090054692
:100910000E461746444503D36FF08500BDE8F087C7
:100920006268D9F824309A4212D3A36983B19078CF
:100930002979884205D13A4631462846BDE8F04734
:1009400018475279012A03D13A463146284698473A
:100950002434DFE7C4030020E803002060090020FE
:100960002DE9F0410B4CDFF8308005460E46174666
:10097000444502D36FF0850009E063690BB9243464
:10098000F6E73A463146284698470028F7D1BDE8B1
:10099000F08100BFC4030020E803002010B5044626
:1009A00008F047FA10F1780F00D050B9054A2046F8
:1009B00008F063F8D2F8C43023EA0003C2F8C43068
:1009C000002010BD60090020024B00221A605A600E
:1009D000704700BF1B0A002070B50B4B0B4CA342A5
:1009E00001D3002070BD196A1E7F00220439D5B2E0
:1009F000AE4201D82433F2E7013211F83250854279
:100A0000F5D10120EEE700BFC4030020E803002079
:100A100008B509480378C3F341130A3350F823306B
:100A20003BB100F1080200F110019847C043C00F2C
:100A300008BD1846FCE700BF6009002004282DE926
:100A4000F14FDFF8989004460F4616D001282DD1BB
:100A5000DFF88C8098F8B93043B300F0DDFD214D0C
:100A60004D4520D2D5F820B04FF0000A2B7F5FFA19
:100A70008AF6B34204D82435F2E7FFF7A5FFE7E78B
:100A80000BEBC6060AF1010A307908F0D2F90246EA
:100A9000307907F0F2FFD8F8C430002A23EA0003C7
:100AA000C8F8C430E2DA002388F8B9300D4D4D455E
:100AB00008D30B4B1B6A6BB13946204601B0BDE829
:100AC000F04F1847EB681BB13A4621462846984735
:100AD0002435ECE701B0BDE8F08F00BFE80300204B
:100AE00060090020C403002073B5C4B263060D463C
:100AF0008DF8074007D02046FFF76EFF78B10D4B09
:100B000093F8BA0058B10B4E204655B102F090F858
:100B1000F3691BB10DF1070108209847012002B0CD
:100B200070BD02F0ADF8F369002BF7D00DF10701AD
:100B30000920F2E76009002073B586788DF800601F
:100B4000037942791C4C43EA0223ADF80230C378A2
:100B5000304603F003038DF8043007F08EFFD4F81D
:100B6000C430184205460BD0304600F037FD304601
:100B7000FFF714FF09F0A3F810B9962006F0CCFE99
:100B8000684602F031F810F1780F03D010B1002060
:100B900002B070BD9DF8000002F0AEF810F1780FC1
:100BA00001D00028F3D1D4F8C43001202B4384F8BD
:100BB000B900C4F8C430EBE7600900202DE9F04724
:100BC000924DAB6904460E461746C3B9207800F033
:100BD0001F00012876D0022800F0DC8000BB94F9C9
:100BE00000103A68637800292EDA062B0CD0082B07
:100BF00025D0ABB9537001231370022303E198474A
:100C00000028E3D100200DE06388190A0A1F012A99
:100C10008C4605D9072903D8DAB26B6A1C781CB94F
:100C20006FF01500BDE8F0875D78654503D182421D
:100C300000F0E48001302344F0E71B78E3E095F80E
:100C4000BA3013700123DEE0052B11D0092BE7D158
:100C500063886E6A002B32D1FFF7B6FE638885F891
:100C6000BA30EB69002BCDD0694903209847C9E71A
:100C7000A07801F0A7FF0028C4D0D1E77378042B37
:100C800010D0052B11D0022B04D177796388BB4299
:100C900008BF012033781E443378002BEED10028A2
:100CA000BED0D9E796F80380F4E76388BB42F1D160
:100CB000B8F1000FEED13046FFF73EFFEAE7FF271D
:100CC000B846E9E795F8BA30D7F800C0002BA7D0AE
:100CD0006F6AA28894F804E03B46187800289FD0F9
:100CE0005978022904D193F80480F04500F29280EB
:100CF0000344F2E78CF800308CF80130316081E772
:100D00001F4493E00B2B8BD100264FF0FF08C14608
:100D1000B24606E07B78042B0FD0052B21D03B7820
:100D20001F443B78002BF5D1EB6913B151460720E6
:100D30009847002E7FF466AF72E797F80280A38889
:100D400097F803909845EAD163889945E7D1B8F1BF
:100D5000070F1CD805EB0803BA4683F8BB900126A1
:100D6000DDE7A3884345DAD1A3784B450AD0BE78A6
:100D7000304600F033FC3046FFF710FEB0FA80F644
:100D80007609CCE73846FFF7D7FE0646C7E7BA46EE
:100D90000026C4E794F900206378002A18DA002BB3
:100DA0007FF43EAF24793F6863060AD02046FFF700
:100DB00013FE00283FF434AF95F8BA30002B3FF40F
:100DC0002FAF3946204601F07BFF00237B7014E7EC
:100DD000012B08D0032B7FF423AF6388002B7FF413
:100DE0001FAF012103E0618800297FF419AFA088BB
:100DF000FFF77AFE00287FF405AF11E702293B6078
:100E00007FF41BAF5B883360FCE600BF6009002005
:100E10001A0A002094F9000063780028BFF672AF28
:100E2000002B3FF467AF0A2B7FF4FAAE3B78002B20
:100E30003FF4F6AE797804297FF462AFB9788A423C
:100E40007FF45EAF072A96BF5219002392F8BB3099
:100E50008CF80030F6E600BF13B5164C237DF3B9CD
:100E6000E268A168019201AB802007F014FE019AAC
:100E7000A3681344A360E3689B1AE3606BB962B193
:100E80002369E2889A4208DD94F8C82093FBF2F1C6
:100E900002FB11330BB90123237502B010BD0023EF
:100EA0001A4619468020237502B0BDE8104001F0B3
:100EB0004DBF00BF6009002030B585B00023024659
:100EC0000D460193002858D1002935D108220B4640
:100ED0000DEB020107F0C6FF002804DA802001F0C4
:100EE000A7FE05B030BD2A4C029A2260039A6260C8
:100EF00004F13802A2609DF90820BDF80E30257576
:100F0000002AC4E903550ADB802B04D9802001F0B4
:100F10008FFE0020E3E713B1C4E90333E1E7FFF7F5
:100F200077FD0028DAD0E28823699A42D4BFE260D4
:100F3000E360FFF791FFD4E7154CD4E90215002DCB
:100F400001AB04DC07F08EFF0028CADAC6E72A46A8
:100F500007F088FF0028D9DB019AA3681344A36037
:100F6000E3689B1AE360002BBBD104F13803A36054
:100F7000FFF74EFD0028DCD1B0E78028B1D1044B4B
:100F8000DA68002AD5D11B7D002BD2D1A9E700BF9A
:100F900060090020054B064A9A62064ADA62064A50
:100FA0001A63064A58629A6100207047600900205F
:100FB000BD0B0000C108000061090000010900002C
:100FC0002DE9F341414D04466F6A41484FF0FF322D
:100FD0004FF0FF3305F062FE95F8B860002E6ED139
:100FE0003C482C62E86101F0CBFF01F0B9FD041E22
:100FF00049DB00F033FB041E45DB7B78012B61D11C
:10100000FB79002B5ED0684685F8C830ADF8023019
:101010008DF804608DF8006001F0E6FD041E32DBFF
:10102000802768468DF8007001F0DEFD041E2ADB83
:101030002949304601F090FF041E24DB264938463A
:1010400001F08AFF041E1EDB244CDFF89480444527
:1010500020D3002001F050FE041E14DBD5F8C4306C
:10106000802043F00103C5F8C43001F045FE041EA2
:1010700009DBD5F8C43043F48033C5F8C43001230C
:1010800085F8B8300024124805F080FE204602B0F2
:10109000BDE8F081276A0026227FF3B29A4201D888
:1010A0002434D4E707EBC30257F83310107901F06A
:1010B00053FF01360028EFD04FF0FF34E3E76FF025
:1010C0007704E0E76FF01504DDE700BF600900205A
:1010D000CC0200203D0A0000B90E0000C40300202D
:1010E000E803002010B50A4B93F8B8404CB900F063
:1010F00055F848B1FFF74EFF2046BDE81040FFF716
:101100005FBF6FF0770010BD4FF0FF30FBE700BF0F
:101110006009002030B51F4B8BB005AA03F1100504
:1011200018685968144603C40833AB422246F7D105
:101130001B7823701022002101A808F0B3FF1222AF
:101140000021154808F0AEFF102101A807F099FF13
:1011500000281BDD0828B8BF0820093801AB0E495C
:101160001A18002012F8013F0AAC04EB131403F024
:101170000F0328336B44013014F8144C13F8143C5B
:101180000C7008284B7001F10201EBD102480BB042
:1011900030BD00BF90A70000251700202DE9F04FBB
:1011A000704C87B04FF0000B00264FF0011AB0468C
:1011B0003546B14623782BB96B4B02349C42F3D1B0
:1011C000684833E06378052B1BD8DFE803F0900311
:1011D000C8901D3B402304A88DF810B0ADF8123024
:1011E0008DF814B007F010FE40B1082304A8ADF844
:1011F000123007F009FE08B1ADF812B0BDF8123098
:10120000E37123781C44D5E7E378002BF9D1A37868
:101210007BB108F101085FFA88F8F2E76B689C423D
:1012200009D02435514B9D42F8D3002007B0BDE8CA
:10123000F08F4F4DF6E7AB68002BEAD041462046D1
:101240009847E6E7002DF0D000222B7F9A42ECD29F
:10125000296AA07801EBC2010B79984201D00132D2
:10126000F3E70127E07800F003008DF814002079FF
:1012700094F805C040EA0C20ADF8120094F9020081
:101280000028FBB228DA07F110004FF0010C0CFA2D
:1012900000F010EA0A0F26D143F080008DF810000C
:1012A00004A8CDE90213019207F0AEFDDDE90121AA
:1012B000039BC0B99DF81020A27012F0800F18BFD8
:1012C00010330A7118BFDBB24FF0010214BF9A400D
:1012D000BA404AEA020A94E70120B84010EA0A0F2D
:1012E00001D11846DAE70137102FBBD1B7E7032E3B
:1012F0001DD1FFF70FFF074668B1FFF76BF8102805
:1013000009D13846A31C07F1100250F8041B43F81A
:10131000041B9042F9D123786FF00201E218091BF7
:1013200004EB5303D14213D50136F6B269E7002E20
:10133000F1D1B9F1000F3FF478AFA4EB090389F8BC
:101340000230C3F3072389F8033089F80480EBE700
:1013500002F801BC13F8010902F8020DE2E7A14608
:101360004FE700BF08030020C1030020E80300206E
:10137000C403002010B5094B00211A461C78844292
:1013800004D15C6814B102EB811010BD0131042955
:1013900003F14003F2D10020F7E700BF2C0A002040
:1013A0002DE9F34150F8283C10F82C6C103304461A
:1013B0000AD1036950F8202C980736D5D2B95907BD
:1013C00015D5002344F8283C54F8283C10330BD0A2
:1013D00054E9077554F8148C08F071FC00284FD0BC
:1013E0002E48214608F04FFC02B0BDE8F08143F0E2
:1013F0000403236154F8241C01AB304607F04BFB77
:1014000010B16FF01503DDE7019A54F8243C134442
:1014100044F8243C54F8203C9B1A44F8203C54F8EF
:101420001C3C134444F81C3CCEE754F8241C01AB8C
:10143000304601F007FD0028E3D1019D54F8243C1B
:101440002B4444F8243C54F8203C5B1B44F8203CDB
:1014500054F81C3C2B4444F81C3C002DB1D03046C1
:1014600001F094FDB5FBF0F303FB1055002DA8D15E
:1014700054F8203C002BA4D0304601F02BFDA3E70C
:1014800044F8180CA4F1100005F0EEFC002DABD0D0
:10149000424639463046A847A6E700BF4805002027
:1014A0004B1E012B73B506460D460FD8FFF762FFA2
:1014B000044668B9012D09D101AB01220DF10301E8
:1014C000304601F0BFFC019B002BF5D102B070BD8E
:1014D00008F0F5FB04F12C0108B1012D05D10846F7
:1014E00002B0BDE87040FFF75BBF034802B0BDE843
:1014F000704008F0C8BB00BF480500202DE9F74F39
:10150000064601911546984607F00DFB0446002853
:101510005BD1EFF3118A202383F31288BFF36F8F1F
:10152000DFF8ACB000220023584605F0C1FC70B9CA
:10153000DFF8A090A70109EB8414636813F1100F82
:1015400014D10193584605F08FFC019B06E001344D
:10155000042C0BF1400BE5D16FF00B038AF31188DB
:10156000BFF36F8F184603B0BDE8F08F019B206179
:10157000C4E902350C9B63610D9BA36130466FF09B
:101580000F0309F80760C4F83C80636001F0FEFCBB
:1015900058B1304601F0FAFCB5FBF0F303FB1055EF
:1015A0001DB1E36B43F00403E36318F0020F07D0AF
:1015B00007F12C010848494408F065FB0023CDE7FA
:1015C000304601F087FC0346C8E76FF00F03C9E718
:1015D000480A00202C0A00204805002010B5EFF32F
:1015E0001184202383F31288BFF36F8FFFF7C2FEAD
:1015F00050B14368103307D16FF08B03436000F1A3
:101600002C01044808F03FFB84F31188BFF36F8F6F
:1016100010BD00BF48050020F8B50E4C042520275A
:10162000EFF3118687F31288BFF36F8F636810336F
:1016300007D16FF08B030848636004F12C0108F0B8
:1016400022FB86F31188BFF36F8F013D04F1400444
:10165000E6D1F8BD2C0A00204805002070B50A4CE0
:101660000A4E00253146204608F0F1FA0122A4F185
:1016700010001146013508F0AEFA042D04F14004C3
:10168000F0D1002070BD00BF580A0020A113000057
:1016900070B504460E4601791548154607F01FFA45
:1016A00010B394F900206378002A16DB202B04D0B5
:1016B000222B0ED06FF085000AE02B681A6840F8E4
:1016C000102C9A8820F80C2C9B7900F80A3C0020FA
:1016D00070BD638800F8093CF9E7212BEAD1103886
:1016E000072328603360F2E76FF01200F0E700BFD5
:1016F0002C0B002008B50146034807F0FEF910B195
:10170000012300F8073C08BD2C0B002001690123D0
:1017100081F84B300B6833B191F849301BB1024866
:10172000083108F0B0BA704748050020016901236C
:1017300081F84A300B6833B191F848301BB1024848
:10174000083108F0A0BA70474805002070B50123A1
:1017500082F8483013680D4614463BB192F84A307F
:1017600023B10E4802F1080108F08DFAD4F8903048
:101770009A681B699A4205D17DB904F1180140F6B7
:10178000CD4204E004F11801002DF8D00022BDE89C
:1017900070400248002305F003BD70BD48050020DD
:1017A00038B5056995F89E0088B195F89F307BB9EA
:1017B00085F84830D5F8900007F0EAF80022044692
:1017C0000023044805F1180105F0EAFC204638BD65
:1017D0000020FCE7480500200D4A03460021A0F840
:1017E00048101068C3F8940090889279A3F8980084
:1017F00083F89A2083F89C1083F89B10A3F89E101E
:1018000083F8A010402203F14C0008F04BBC00BF4D
:1018100010A50000F0B5D0F88C305B681B6A1F7D06
:1018200085B00446384607F07EF90646F8B994F8C4
:101830008630E3B1A06F4FF4806203A907F0C7F8C8
:101840000546A0B18306A4F1180308BF00F1FF35D7
:1018500084F830600193074B039900932A460223D2
:101860003846FFF74BFEA06F294607F0D0F805B0C9
:10187000F0BD00BF4D17000010B504690023C4F887
:10188000A8300C4BC4F8A400596804F1A80269B947
:10189000C3E9002204F10800074908F0D8F904F16F
:1018A0001800064908F0FFF9002010BD0A605A60D0
:1018B000F0E700BF2C0B0020518B00001518000032
:1018C00013B504698DF80710002384F84830D4F864
:1018D000900001220DF1070107F05AF810B908F045
:1018E000EEF940B12122002304F11801064805F069
:1018F00057FC02B010BD94F8A130002BF2D00021AB
:10190000212005F0EBFFE2E74805002037B514463B
:101910000A1E054620DDD4F88C0004F14C0107F0C6
:1019200037F8012384F8493023683BB194F84B30F1
:1019300023B1114804F1080108F0A5F9D4F88C107E
:101940004B684A699A1ACB699B1A3F2B04D801232A
:1019500084F8A03003B030BD94F89E30002BF9D04D
:10196000064B009301940123402204F14C012846C8
:10197000FFF7C4FDEEE700BF480500200D19000089
:10198000F7B50D4601461D4807F09DF8044610B313
:101990000646691E56F8A4395F6805291BD8DFE89A
:1019A00001F01C1A031C222610F8061C99B9012309
:1019B00000F8063C3B6A3246187BFFF7A7FF14F895
:1019C0005C2C42B93B6A187D0D4B009301960223B3
:1019D0001146FFF793FD03B0F0BD304603B0BDE8FC
:1019E000F040FFF7F9BE012304F8053CF3E710F8D7
:1019F000053C002BEFD00023F6E700BF2C0B0020A6
:101A00004D17000037B5094D0949002400944FF0E7
:101A1000FF334FF48062284605F08AFB05492846CB
:101A200005F02CFC204603B030BD00BF4805002067
:101A3000802C0020AEA700002DE9F041134F46682E
:101A4000044600254FF040082169114887F80080BE
:101A5000802201EBC51108F017FB05F01F0150397A
:101A60006068C9B207F0E6F86068022107F0E2F8A2
:101A70006068102107F0DEF8013504498122304604
:101A800007F0C8F8082DDFD1BDE8F081371B002032
:101A9000381B002030BFFFF7FDBF00BF2DE9F0412C
:101AA0000B4EDFF8308006EB0807CC1B05463246AC
:101AB0000949204608F0E8FAA01942460021083CEE
:101AC00008F0F0FAC5F8A44007F10800BDE8F0817D
:101AD00000000000040000000CA50000074A936805
:101AE00093F90E10002907DB526993421FBF044A85
:101AF000536843F080535360704700BFE8160020DE
:101B000000ED00E070B5264B15469A6A12F0100FF2
:101B10009A6A14BF1124102412F0080F9A6A18BF91
:101B20001224920706460AD5586B9A6A140634D5D1
:101B300019B19A6A22F080029A62132401E06FF0D0
:101B40001500174B9A6A12F0010F9A6A18BF1424F5
:101B500012F0200F9A6A18BF1524D20602D49B6A8D
:101B60009B070AD50E4B5B68190506D5314600F078
:101B700045FA10B180F309880224094B9A6A92064B
:101B800042BF5A6A22F400525A629A6A42F0FF0235
:101B90009A6200232B70204670BD6FF01500CCE7D1
:101BA00000ED00E0134B9A6A12F0007F9A6A14BFAE
:101BB0001E201D2012F0807F9A6A18BF1F2012F489
:101BC000002F9A6A18BF212012F4802F9A6A18BF3A
:101BD000222012F4003F9A6A18BF232012F4803F9B
:101BE0009A6A6FEA02426FEA12429A6218BF242090
:101BF000704700BF00ED00E010B5194B0246986A2F
:101C00009C6A10F4805F14BF1720162014F4006F34
:101C10009C6A18BF1820A40509D5986B986A00041F
:101C200004D51AB19A6A22F400429A6219200C4B28
:101C30009A6A12F4806F9A6A18BF1A20D2050CD4DF
:101C40009B6A13F4005F18BF1C20054A936A43F493
:101C50007F43936200230B7010BD1B20F5E700BF8C
:101C600000ED00E0F0B5484B5B688BB00446C3F371
:101C70000803002585F31188BFF36F8F02F07F40C2
:101C8000B0F17F4F11D102F00C0008280DD01007E1
:101C90004CBF0C4601250022033B8DF80720032B87
:101CA00005D8DFE803F0246367602C46F3E70023E0
:101CB0009DF80720CAB902AE04F1200720686168C8
:101CC000324603C20834BC421646F7D1099A002DA9
:101CD00054D0C2F3080121B96FEA52226FEA4222BE
:101CE000099202A9184607F031F80BB0F0BD264B57
:101CF000DA6A9107DBD4DA6A002AD8DBDA6A5200A2
:101D0000D5D55A69A16942F480725A61BFF34F8FE9
:101D1000BFF36F8F5A6931F8021C22F480725A6146
:101D2000BFF34F8FBFF36F8F4DF6027291420AD00F
:101D30009A6AD2B24AB10DF1070201212046FFF79B
:101D4000E1FE0346B4E72368B2E79A6A12F47F4FD4
:101D500005D00DF107010120FFF74EFFF1E79B6A67
:101D6000B3F5803FA3D3FFF71DFFEAE70DF10702AC
:101D70000021E3E70DF107010020EDE722F4FF72F7
:101D800022F00102ACE700BF00ED00E0024A536917
:101D900043F010035361704700ED00E0EFF308805B
:101DA000EFF3098101B57246FFF75CFF01BD00BF8B
:101DB00000200B49087003F03BFA202080F31188C3
:101DC00008484FF40461401880F30988EFF3148049
:101DD0000221084380F31488BFF36F8F00F0CEF820
:101DE000E21B002000350020084B9B6883420BD18A
:101DF000EFF3058343B1064B5A6842F080525A60B4
:101E00005A6A22F400425A6208F024B8E816002008
:101E100000ED00E00A4A93686FF00A01C3F8AC10C5
:101E20000849C3F8A8004B6843F080534B60002377
:101E300083F31188BFF36F8F9368D3F8AC007047BA
:101E4000E816002000ED00E010B50446EFF3118322
:101E5000202383F31288BFF36F8F0C4B586998606F
:101E60000B4B4FF000625A600A4BD0F8A4201A6066
:101E70000022D0F8A830C0F8A82083F31188BFF35F
:101E80006F8F00F027F9204610BD00BFE816002034
:101E900000ED00E0340B00200B498A684FF0300061
:101EA0001044EFF3098C80E8F01F74467046FFF78A
:101EB000CBFFA64604498A6802F1300090E8F01F83
:101EC0008CF3098870470000E81600201EF0040F0C
:101ED0000CBFEFF30880EFF30980816911F8021C51
:101EE0000229FFD001B506F033FF01BD40B2002842
:101EF00007DB044A4109012300F01F00834042F838
:101F00002130704700E100E040B200280CDB4309BB
:101F1000064900F01F0020330122824041F82320AF
:101F2000BFF34F8FBFF36F8F704700BF00E100E03A
:101F3000054B420900F01F0053F82220012303FA49
:101F400000F01040704700BF00E100E040B2002800
:101F5000A8BF00F1604001F10101B8BF064B4FEA94
:101F60004111ACBF00F5614000F00F00C9B2B4BF31
:101F7000195480F80013704714ED00E00F4A08B5BB
:101F80000F4B22F07F029A60BFF34F8FBFF36F8F2A
:101F9000D3F8882022F47002C3F88820EFF314836A
:101FA00023F0040383F31488BFF36F8F04F072FDF2
:101FB00005F08CFD00F064F804F0C2FD00000000A4
:101FC00000ED00E042F8203C009B42F81C3C0A492E
:101FD000019B42F8183C029B42F8143C21F001019D
:101FE0004FF0807342F8043C42F8081C0023203A6A
:101FF0000265C0F8A8307047650600000A4A03462B
:10200000906878B113F1160FD0F8940005D0A0F1C4
:1020100040029A4205D8834203D2814228BF002061
:1020200070470020704700BFE816002008B515462D
:102030000C4A0D4B9060D0F8A4201A600E4600F0B8
:1020400049F82C4686F309884FF00000074B984763
:1020500020464FF000014FF000024FF00003044C07
:10206000204700BFE8160020340B00206F8D0000D1
:1020700065060000014B10221A61704700ED00E078
:10208000044800232021C2180133302B82F80013AA
:10209000F9D1704700E100E008B5EFF30583064A87
:1020A000103B02EBC30152F8330049688847BDE892
:1020B0000840FFF713BD00BFE8A20000024B034A2F
:1020C0000348012100F078B800000420000000203F
:1020D0007CA50000D0F89420054B403A1A60054AD0
:1020E0004021C3E901121846012100F06FB800BF7A
:1020F000380B002000000B15084AC2F898000B6846
:1021000023F01F03034343F01003C2F89C308B6895
:1021100043F00103C2F8A030704700BF00ED00E0BB
:102120002DE9F043DFF8608085B00E461F46044677
:102130004FF00009B14523DA6068D8B13FB1411EC4
:1021400008421BD11F2819D92368194216D12368C8
:10215000019306F02DFEA36803430393D8F8905033
:10216000C5F30725D0B2013DA84207D801A9FFF762
:10217000C3FF421C09F101090C34DBE76FF01502C3
:10218000104605B0BDE8F08300ED00E0044B0522E9
:10219000C3F89420BFF34F8FBFF36F8F704700BF1A
:1021A00000ED00E0BFF35F8F024B0022C3F89420E4
:1021B000704700BF00ED00E010B5034C012322780A
:1021C000FFF7AEFF207010BDB81B002008B50B4A0A
:1021D00000231278FFF7A4FF10F1160F07D0084A6A
:1021E0000021D2F89030C3F30723984200DB08BDEA
:1021F000C2F89800C2F8A0100130F2E7B81B002026
:1022000000ED00E02DE9FF41524B534CD3F89030E4
:102210002568C3F307239D4200F29980FFF7C2FFB0
:1022200000200C26854218D14C4C4D4F2570684635
:10223000FEF740FBDFF81C8106460025AE4213D1B5
:10224000237844490020D1F89020C2F3072293421A
:1022500077DBFFF79BFF00201CE0616806FB0011A5
:10226000FFF74AFF0130DDE7009800EB05114FEA68
:10227000051CCB683B40B3F5000F50D00DD8B3F52B
:10228000001F36D0B3F5800F3ED0B3F5801F13D0BA
:102290006FF0150004B0BDE8F081B3F1807F47D046
:1022A000B3F1007FF4D150F80C3088684A6806F02A
:1022B0007FFD40F4802009E050F80C3088684A68BF
:1022C00006F076FD40F0885040F43020CDE901233F
:1022D0000390D8F890302078C3F30723013B98424D
:1022E000D6D801A9FFF708FF237801332370013501
:1022F000A4E750F80C3088684A6806F059FD40F0B1
:10230000885040F40020E1E750F80C3088684A68B3
:1023100006F04EFD40F0E06040F40030D6E750F8A3
:102320000C3088684A6806F043FD40F08270CDE7C3
:1023300050F80C3088684A6806F03AFD40F0887022
:10234000C4E7C1F89830C1F8A00001337BE74FF033
:10235000FF309FE700ED00E088A50000B81B0020DB
:102360000000F0FF08B5024B1B689847002008BD2D
:10237000440B0020034B044A1860937843F0020397
:1023800093707047440B00203001002008B50649C7
:10239000064821F00701C1F1005202F5802206F043
:1023A00046F9002008BD00BFC7550020480B00209B
:1023B0000E4A0123C2F840354FF080424FF0805161
:1023C000C2F87835D1F83001082808D1D1F8341195
:1023D000052904D80648415C09B1C2F838364FF0E7
:1023E00080430122C3F880250020704700E00140AF
:1023F000D0A7000020B1034B800143F00103184730
:10240000704700BF20A500004FF08043D3F840364E
:10241000DB072ED54FF01023D3F8043303F0070366
:10242000072B26D1144A0123C2F80435D2F8003410
:10243000002BFBD04FF01021D1F8043323F0070319
:1024400043F00403C1F804330023C2F804350A4AF8
:10245000D2F80034002BFBD0BFF34F8F0749084B55
:10246000CA6802F4E0621343CB60BFF34F8F00BF32
:10247000FDE70020704700BF00E0014000ED00E0F4
:102480000400FA05020600F07F0312D5082B05D1DF
:10249000010700F00F0306D50E48704710F0780FC3
:1024A00012D100F00F034C2000EB43100A4B1844EC
:1024B0007047082B05D1020700F00F0306D5074827
:1024C000704710F0780FF6D000207047044800EBFA
:1024D00043107047A00C0020540B0020C00D0020BA
:1024E000C00C00200149024807F0CDBB7C0B002046
:1024F000180600200146014807F062BBF0020020E8
:1025000002480022002304F07DBC00BFF00200203E
:1025100013B5124800F0B6FE114B98421AD111487B
:1025200003F0B0FC0024104803F0F2FC0F491048FF
:1025300000944FF0FF334FF4806204F0F9FD0D4931
:102540000B4804F09BFE0C480C4907F080FB20462A
:1025500002B010BD6FF00400FAE700BF652700006D
:102560000000AD0BE4A70000A8A50000C0300020CB
:1025700018060020D6A700007C0B00208128000050
:1025800010B50E49BFF35B8F002351E8002F012ADD
:1025900003D141E800300028F7D1BFF35B8F0CD1A5
:1025A00051F8044C1439204606F085F9783004D1EE
:1025B0002046BDE8104006F05AB910BD740B00204B
:1025C00038B5002464F07F00C0B2FFF75BFF013430
:1025D00006F003FC082CF5D10E4D0024E0B2FFF705
:1025E00051FF036903B90561013406F0F6FB082CBD
:1025F00005F14005F2D1084806F0EFFB074BD3F890
:102600007C2212B9064AC3F87C22064806F0E5FB94
:10261000002038BDE4110020A00C0020540B002045
:10262000E40D0020C00D002010B5054CFFF768FF39
:1026300020B14168204607F015FAF7E710BD00BF4A
:102640009C02002007B500230E48002201A904F0D7
:10265000F7FA90B1FFF7E8FF0A480022002301A92A
:1026600004F0EEFA38B90198042340600374FFF7D0
:1026700041FFFFF737FF002001E00198406003B001
:102680005DF804FB9C020020022810B511D8094B0C
:102690001C5CFFF7D7FF60B1002202740472FFF7E1
:1026A00029FF054B93F824301BB1BDE81040FFF71C
:1026B00019BF10BDE1A70000540B0020F8B58778C2
:1026C00006463846FFF7DEFE3B06F578044612D58F
:1026D000002D43D1FFF7B6FF034600283ED001226C
:1026E000A5770274032202739C60FFF703FFBDE825
:1026F000F840FFF7F7BE4DB1012D2FD1FFF7A2FF34
:10270000034658B3657705740573EDE7FFF79AFF45
:1027100020B3B278124B12F0800F02F0080111D0F2
:1027200041B1D3F8A836E360012303740223037395
:102730008460DAE702F00F02142101FB0233D3F8C0
:102740000836F0E711B1D3F8A837ECE702F00F0232
:10275000142101FB0233D3F80837E4E7F8BD00BFCA
:1027600000700240F0B5064689B01422002103A88B
:1027700007F098FC3378013B052B21D8DFE803F004
:102780007A0314146A1603238DF814300024FFF71B
:1027900059FF0346A0B1047400F10802DDE9050108
:1027A00082E8030018461DE00423EDE7B7783846B9
:1027B000FFF768FE837A044623B1013B022B43D91D
:1027C00009B0F0BD3B06F57813D5002DF8D1FFF721
:1027D00039FF03460028F3D00122A57702740322B3
:1027E00002739C60FFF786FE09B0BDE8F040FFF77A
:1027F00079BE55B1012DE3D1FFF724FF0346002830
:10280000DED0657705740573EBE7FFF71BFF07461E
:102810000028D5D00123037402230373846004F1DC
:102820000C01B07806F03AFB134AE168B2F88C323A
:102830008B4206D95B1AA2F88C3201F073F8384645
:10284000D0E7A2F88C52FAE7304609B0BDE8F04074
:10285000FFF734BF01A801F043F89DF80530052BC0
:1028600004D19DF8043013F0600FA9D0034B0593F9
:1028700001248CE702248AE7540B0020C00C0020BE
:102880002DE9F043A64CDFF89C9285B08046FFF717
:1028900037FE074610B905B0BDE8F08394F825303F
:1028A0003A7C3BB9002A00F0868079689D4807F0A1
:1028B000D9F8ECE7042A42D8DFE812F07D000500E1
:1028C0000001160140013B7BBD68032B37D8DFE8D0
:1028D00003F0023D5A5F6E69934B002232607260D2
:1028E000D3F880143170D3F884147170D3F888143D
:1028F000D3F88C0441EA00217180D3F89014D3F806
:10290000940441EA0021B180D3F89814D3F89C34A0
:1029100041EA0323F3800823EB6030687168834B3E
:1029200003C311462B68687A984796F90030002B4C
:1029300008DBF38833B1A4F88C3200F0F3FF796838
:102940004846B4E70023A4F88C32F8E76B7F002BED
:10295000F5D02B7F002BF2D000266E774FF0FF32A0
:1029600073482E774FF0FF3306F04AFA6B690193F4
:102970006B68CDE9023601A9687A00F0D9FC6C4891
:1029800006F040FADBE72B680121687A9847D6E722
:10299000AB7A6BB9EB7F5BB965484FF0FF324FF014
:1029A000FF3306F02DFA00F0C3FF614806F02AFA63
:1029B0002B680221E9E73A7A042AC0D8DFE802F05E
:1029C00059032367730000F02BFC05460028B6D19D
:1029D00000F066FBBFF35B8F5649012351E8002FDF
:1029E000002A03D141E800300028F7D1BFF35B8F04
:1029F000A5D141F8085C41F8105CE06963611439C5
:102A000005F0DEFE9BE7002565F07F00C0B2FFF712
:102A100039FD037A13B1407A01F0EEF80135082D43
:102A2000F2D194F854311BB194F8550101F0E4F857
:102A30000025E8B2FFF726FD037A13B1407A01F0D2
:102A4000DBF80135082DF4D194F874321BB194F8F9
:102A5000750201F0D1F8002000F0C6FB012384F8D4
:102A600025302368002B3FF46AAF002102209847ED
:102A700065E7002584F8255001F024F8FFF780FD74
:102A80002368002B3FF45BAF29460420EFE7002BBF
:102A90003FF455AF00F0CEFB2368002B3FF44FAF5F
:102AA00000210520E3E72268002A3FF448AF002B0D
:102AB0003FF445AF00210620904740E708F110059C
:102AC0004FF0FF334FF0FF32284606F099F9FFF739
:102AD00077FD284606F096F958F8283C002B3FF47D
:102AE0002EAF00210120C2E794F874327BB101259A
:102AF00084F8895284F88852FFF7A4FD38B10E4A51
:102B0000057405738260FFF7F5FCFFF7EBFC58F8DE
:102B1000283C002B3FF413AF00210A20A7E700BF99
:102B2000540B00209C02002000700240580B002033
:102B30008C0B0020740B0020C00D002006F045FE19
:102B400000F0C0FF00F0A2FAFFF76EFDFFF738FDBE
:102B500006F034FE014800F095FBF0E66527000022
:102B600038B5164D95F824402CBB05F1380006F019
:102B7000B2FF204601F092F922460121E8612720A8
:102B8000FFF7E4F906F01AFEFFF71AFD044610B944
:102B9000012385F824300A4B1B680BB1FFF7A2FC18
:102BA0004FF08043D3F83834DB0702D50020FFF71D
:102BB0006BFD204638BD0024FBE700BF540B00200E
:102BC000F0020020074B93F824203AB193F8253007
:102BD000002B14BF00206FF0120070476FF012003E
:102BE000704700BF540B002038B5104B93F82430C9
:102BF0000446C3B105782846FFF744FC10B96FF0CE
:102C0000150038BD4572237983726388436020784C
:102C1000618810F0080F02D14B1E0B42EFD106F075
:102C200038F90020EDE76FF01200EAE7540B0020BE
:102C300038B5124B93F824200546CAB193F82530D5
:102C4000B3B1FFF71FFC0446A8B1837A012B12D061
:102C500007D9023B012B07D96369A3610020E0601B
:102C600038BD00F06BFEF7E7284600F00DFEF3E7F5
:102C70006FF01200F4E76FF01500F1E7540B00203D
:102C800038B50E4B93F82420054682B193F82530D1
:102C90006BB1FFF7F7FB68B115F008040AD12846BD
:102CA00000F014FE284600F0DFFF204638BD6FF02C
:102CB0001200FBE76FF01500F8E700BF540B00208F
:102CC00038B50C4B93F8242005460C4662B193F8B6
:102CD00025304BB1FFF7D6FB48B144B1284600F090
:102CE000DBFD2070002038BD6FF01200FBE76FF0B5
:102CF0001500F8E7540B002070B5134E96F82430F9
:102D00000446C3B1FFF7BEFB0546B8B1230705D49F
:102D1000204600F0DBFD204600F0A6FF2B7A83B9A9
:102D200001232B7296F825300BB9002070BD204688
:102D300000F062FFF9E76FF01200F7E76FF015009F
:102D4000F4E76FF07700F1E7540B00202DE9F04332
:102D5000DFF8E4801E4698F8243085B0074689469F
:102D60001546002B61D098F82530002B5DD0030666
:102D70005ED5FFF787FB0446002859D0037A002B65
:102D800056D04FF0FF334FF0FF3208F1380006F015
:102D900037F8A37F4BB108F1380006F033F86FF035
:102DA0000A04204605B0BDE8F083A37AC5B13BB361
:102DB0000123A3774FF0000801A93846CDE901951A
:102DC000CDF80C8000F0B4FA1C4B984229D084F85E
:102DD0001E801EBB6FF00404194806F013F8E0E7EC
:102DE000E27F02B1E577002BE2D100F0ADFDB84201
:102DF000DED000F09DFD124806F004F80024D0E774
:102E0000B8F80A30AB42F0D96268B5FBF2F302FBC6
:102E10001353002BE9D10123E377E6E7C6F80080DE
:102E2000D8E706B135600024D6E76FF01204B8E7A2
:102E30006FF01504B5E700BF540B00200000AD0B88
:102E40008C0B00202DE9F0411D46204B174693F8CE
:102E500024200E46002A33D093F8253083B303068E
:102E600031D401B97FBBFFF70DFB044658B3037A99
:102E70004BB34FF0FF3316484FF0FF3205F0C0FF61
:102E8000E3689F42B84628BF984646B93FB905B1A6
:102E90002B600F4805F0B6FF0020BDE8F081A16966
:102EA0004246304607F0F0F8A3694344A361E36863
:102EB000A3EB0803E360002DEBD0C5F80080E8E742
:102EC0006FF01200E9E76FF01500E6E7540B002001
:102ED0008C0B002070B51E4D95F82420034682B35C
:102EE00095F825206AB31B062ED4FFF7CBFA0446CB
:102EF00050B3037A43B34FF0FF334FF0FF3205F185
:102F0000380005F07DFFE368B3B9012663692677D1
:102F1000A361637F83B1FFF795FB30B905F13800FA
:102F200005F070FF6FF00B0070BD067484600673CF
:102F3000FFF7E0FAFFF7D6FA064805F063FF002036
:102F4000F2E76FF01200EFE76FF01500ECE700BF5B
:102F5000540B00208C0B002010B5084B93F8243044
:102F60000C462BB1FFF78EFA28B10460002010BD8B
:102F70006FF01200FBE76FF01500F8E7540B00202C
:102F8000014B1860704700BF540B002008B5074B79
:102F900093F8243023B1FFF775FA20B1406808BDDB
:102FA0006FF01200FBE76FF01500F8E7540B0020FC
:102FB0004FF08053D3F83021082A06D1D3F83431AA
:102FC000052B04D8034AD05C7047002070470120CD
:102FD000704700BFE5A70000064B10F0800FA3F17B
:102FE000D80208BF134600F00F00182202FB003081
:102FF000704700BFFC140020EFF31180202383F3FF
:103000001288BFF36F8F0A4BD3F8001C032261B9FB
:1030100049F27531C3F8001CC3F8142DC3F8001C25
:1030200080F31188BFF36F8F7047C3F8142DF7E753
:1030300000E00640EFF31180202383F31288BFF3F2
:103040006F8F0A4BD3F8001C61B949F27532C3F88F
:10305000002CC3F8141DC3F8002C80F31188BFF3B3
:103060006F8F70470022C3F8142DF6E700E006408A
:103070004FF08053D3F83031082B02BF024B0022AF
:10308000C3F81C2C704700BF00700240024A0023A6
:103090001360024A13707047DC150020BD1B00202E
:1030A00008B54A4B4FF40062C3F80024FFF780FFD5
:1030B00008B1FFF7A1FF4FF08053D3F83031082B50
:1030C00018D1EFF31180202383F31288BFF36F8FA1
:1030D0003F4BD3F8001CC02200296ED149F2753154
:1030E000C3F8001CC3F8142CC3F8001C80F311882B
:1030F000BFF36F8F354B0122C3F80025D3F80024AE
:103100001205FBD54FF40062C3F800244FF0805342
:10311000D3F83031082B17D1EFF31180202383F33C
:103120001288BFF36F8F2A4BD3F8001C002947D1B8
:1031300049F27532C3F8002CC3F8141CC3F8002CF4
:1031400080F31188BFF36F8FFFF732FF30B1FFF7C5
:1031500071FFFFF72DFF08B1FFF74EFF4FF08053CF
:10316000D3F83031082B194B0AD140F2E372C3F87F
:1031700000284022C3F80428BFF36F8FBFF34F8F9E
:103180008022C3F81C250122C3F83025114B40F2E0
:10319000FF121A60104B00211960104B1970FFF7D5
:1031A00067FF0F4B19700F4B02221A70FFF700FFD9
:1031B00050B1BDE80840FFF73DBFC3F8142C95E7B8
:1031C0000022C3F8142CBBE708BD00BF007002400A
:1031D00000E00640D8150020D4150020B91B0020BF
:1031E000BB1B0020BD1B0020094B002210B51A702C
:1031F000084A094B094C002808BF1346C4F800339D
:103200002720FEF773FE0123C4F8043510BD00BF6C
:10321000BC1B0020FDFFDF01FDFFFF01007002402D
:10322000034B1878012894BF00200120704700BF8D
:10323000BD1B002010B5EFF31181202383F312880A
:10324000BFF36F8F0D4B1B7803F0FF0083B10C4B66
:10325000D3F8002412F400720AD10124C3F82C45DB
:10326000D3F82C45D3F80044A40502D5C3F82C2587
:10327000002081F31188BFF36F8F10BDBC1B0020AD
:1032800000700240F8B51C4B1C7894BB1B4A1060C0
:1032900001221A7040F2FF17264664F07F0514F0F1
:1032A000080FEDB214BF39464021284605F0F1FD64
:1032B0002846FFF791FE0134092C867506730661D6
:1032C000EBD1002440F2FF17254614F0080FE6B2B8
:1032D00014BF39464021304605F0DBFD3046FFF78C
:1032E0007BFE0134092C857505730561EDD1044819
:1032F000F8BD0448FCE700BFBD1B0020DC15002022
:103300000000AD0B0500AD0B084B10F0800F00F076
:103310000F0114BFD3F81025D3F8142501238B40D7
:10332000134214BF01200020704700BF007002400C
:103330002DE9F8430246EFF31187202383F3128827
:10334000BFF36F8F030703D1184B1B78834229D13A
:10335000174B184E1C683568104605F092FDE44383
:10336000A4B24FF001092C4309FA00F814EA08044A
:103370001AD11046FFF730FE80F80C90034607C9BB
:103380001C6183E807009C750B4B0C4845EA080557
:1033900080223560C3F8042187F31188BFF36F8F53
:1033A000BDE8F8830648F7E70648F5E7BB1B0020B1
:1033B000D8150020D415002000E100E00000AD0B7E
:1033C0000A00AD0B0B00AD0B10F0080F074B06D039
:1033D000D3F8C00410F4803F18BF0020704700F0FD
:1033E0000F0000F5947053F8200070470070024001
:1033F0002DE9F74FA84BD3F8604134B10022C3F850
:103400006021D3F86C44C3F86C44D3F828214AB146
:103410000022C3F82821A14B187805F032FD0123C2
:1034200083401C439E4F9F4E3D7897F9008015F0D6
:10343000080143D1B8F1000F05F00F032EDA9A4AC4
:1034400052F8230020B342F823101422534303F10F
:10345000804303F51C33D3F80836944A117803F0FF
:1034600001034B401370FFF703FE914803F0FCFC8F
:103470002846FFF7B1FD837D032B37D1284605F0A1
:1034800000FD012303FA00F0336823EA00033360F0
:10349000DFF82092DFF8208201255FE0874A52F8AA
:1034A00023000028F4D042F823101422534303F1E0
:1034B000804303F51C33D3F80837CEE7B8F1000F8B
:1034C000754B09DBD3F85021002AE1D00022C3F864
:1034D0005021D3F8A837C0E7D3F82C21002AD7D041
:1034E0000022C3F82C21D3F8A836B6E7037BDBB95A
:1034F000284605F0C6FC012303FA00F03368B8F152
:10350000000F23EA0003336001DA882DC0D10623BF
:103510008DF8043000238DF80730674B8DF8065086
:103520001B6801A89847B3E7002DB1D15A4B01227F
:10353000DA64ADE794FAA4F0D9F80020B0FA80F08C
:1035400005FA00F31A430F28C9F8002024EA0304FF
:10355000326840F3B780134200F0C580002CE9D1F7
:103560004D4BD3F800215AB1C3F80041544B1C70A5
:103570004A4B1C70012301934F4B01A81B689847CD
:10358000454BD3F85421EAB10022C3F85421D3F8B3
:103590000413890216D58DF80420D3F82025ADF840
:1035A0000620D3F8C034002BD9F8003014BF4FF0F8
:1035B00001224FF480721343C9F800303E4B01A83A
:1035C0001B689847344BD3F85821002A2ED000228C
:1035D000C3F85821D3F80044C3F80044E30508D5E4
:1035E000374B01221A7002230193334B01A81B6849
:1035F0009847A50508D5324B00221A700323019382
:103600002D4B01A81B68984760050FD52C4B1A78E5
:1036100062B100221A70204B0122C3F808259A6576
:1036200004230193244B01A81B6898471A4BD3F835
:103630005C310BB31E4B9B6813B93B7859061BD00A
:10364000154B0022C3F85C21D3F88034134A23F0D1
:103650007F031370336823F001133360D9F800300F
:1036600023F4803343F00103C9F8003005230193AC
:10367000114B01A81B6898473268D9F800301A42EC
:1036800007D00B480022002303F012FC002800F0B2
:103690009F8003B0BDE8F08F00700240BB1B00208C
:1036A000BA1B0020D415002008710240B91B00206D
:1036B000E0020020D8150020DC1500203071024007
:1036C000BC1B002013407FF449AF062260F07F014D
:1036D0008DF804208DF806108DF80730D8F80030EA
:1036E00001A898473AE70623A0F110018DF80430AD
:1036F0008DF806108DF80750F0E718F0012314BF7D
:1037000093FAA3F898FAA8F8B8FA88F8B8F10F0F66
:1037100018D9A8F11005EDB22846FFF75DFC044664
:103720002846FFF751FE6368B4F814C02268984237
:1037300030D81B1A00EB020E11466360C4F800E09B
:1037400082462AE048F080052846FFF745FC43689A
:10375000B0F814A001689A4528BF9A4601F060436A
:10376000B3F1005F044604D04348524606F08CFC97
:1037700041492268636852442260A268A3EB0A03AD
:10378000D20768B2636033D5BAF1000F32D100239B
:1037900023732FE011464FF0000A604525D1003B0E
:1037A00018BF01231AB3504521D9012303FA08F3A6
:1037B0002BEA0303336006238DF804302F4B8DF87A
:1037C000065002221B68A2758DF8072001A89847B1
:1037D000D6F800B0D9F800301BEA03088DD128488C
:1037E00003B0BDE8F04F03F03FBB0023DAE768B257
:1037F000002BCCD04FF08053D3F83031082B02BFD0
:10380000204B8222C3F81C2CD9F800303D700122D5
:1038100002FA08F823EA0803C9F80030236915F012
:10382000080F53442361174B17D1002805F00F05EB
:103830004FF0140000FB0530B5BF03EB85030A35DC
:10384000C0F80016C0F80017B5BFC0F804A6C0F84D
:1038500004A75A6043F825201BE70028B5BFC3F82A
:10386000A016C3F8A017C3F8A4A6C3F8A4A7B4BFB2
:103870005A629A640DE700BFE4130020DC150020B3
:10388000E002002000700240024B40F48070C3F858
:103890001805704700700240030713D400F00F03AF
:1038A00010F0800F084A0BBF03F5887303F584738B
:1038B00002EB830252F8230008BF5068003818BF9B
:1038C000012070470020704700700240034BC3F88E
:1038D0000C0540F48070C3F80C057047007002407E
:1038E0000023036043600E4BD3F880240270D3F8AA
:1038F00084244270D3F88824D3F88C1442EA01223D
:103900004280D3F89024D3F8941442EA01228280B2
:10391000D3F89824D3F89C3442EA0323C380704739
:1039200000700240014B0122DA64704700700240CF
:10393000014B01221A65704700700240014B0122C1
:103940005A65704700700240014B1878704700BFFD
:10395000BB1B002010B50246EFF31184202383F334
:103960001288BFF36F8F05F08CFA0B49012303FA1D
:1039700000F00B6823EA00030B6012F0080101BF9E
:1039800002F00F02054B02F5947243F8221084F303
:103990001188BFF36F8F10BDD81500200070024052
:1039A000F7B50146EFF31185202383F31288BFF3A7
:1039B0006F8FFFF711FB0646084605F062FA0122F9
:1039C00011F0800F02FA00F22D4818D1036832EA94
:1039D00003040AD00846FFF7BDFF0323B37585F340
:1039E0001188BFF36F8F03B0F0BD2649347323EA0B
:1039F000020303600B6823EA02030B60EDE70B0789
:103A000015D48029204B2FD001F00F0404F2DA34B2
:103A10006400C3F80048D3F80448D3F80478E4B24B
:103A200044F002043C43C3F80448D3F80438154F6B
:103A300004683B6864EA030C1CEA020FCFD013430E
:103A40003B60002333730323B3758DF807300F4BAE
:103A50008DF8061024EA0204062204601B688DF823
:103A6000042001A89847BAE740F2B474C3F80048AC
:103A7000D3F80448D3F80478E4B244F00404D1E75E
:103A8000D4150020D815002000700240DC1500205D
:103A900038B50446094D4FF0FF324FF0FF3328464A
:103AA00003F006FA2046FFF77BFF284603F0DCF917
:103AB000034B8022C3F8042138BD00BFE002002080
:103AC00000E100E0F8B54FF0FF324FF0FF332B4834
:103AD00003F0EEF92A4B8022C3F884212720FEF759
:103AE00027FA98B1274E284B34681B68240C24040D
:103AF0001C43012764BB254D40F2FF133360272090
:103B0000C5F80445FEF700FAC5F80043204A1378CB
:103B10008BB11E4B0021C3F808110121C3F8002608
:103B2000C3F804165960D3F808110029FBD000210E
:103B3000C3F808111170154B0022C3F80025FFF7D8
:103B400097FA0E4803F090F9124B01221A70F8BD53
:103B500094FAA4F5B5FA85F50F2D2846C6BFA5F150
:103B60001000C0B240F08000030701D4FFF718FF37
:103B700007FA05F524EA0504BCE700BFE0020020CF
:103B800000E100E0D8150020D415002000700240AC
:103B9000B91B0020BD1B002010B504464FF0FF32BA
:103BA0004FF0FF33114803F083F92046FFF7F8FE8A
:103BB00004F00F02012393400D4A14F0800F14BF4C
:103BC000D2F81015D2F814156FEA030315BF0B4095
:103BD0000B40C2F81035C2F81435044803F044F91C
:103BE000044B8022C3F8042110BD00BFE002002076
:103BF0000070024000E100E070B50446FFF784FB6E
:103C000068B904F00F02012514F0800F144B05FA77
:103C100002F205D0D3F810150A43C3F8102570BD81
:103C2000D3F814150A43C3F81425631E062BF6D8DF
:103C3000EFF31186202383F31288BFF36F8F2046A2
:103C4000FFF788FE204605F01CF9064A13688540F8
:103C500023EA0503136086F31188BFF36F8FDEE755
:103C600000700240D4150020030610B5044605D4A8
:103C7000FFF712FE10B12046FFF76CFE014BC3F8B0
:103C8000184510BD00700240084B70B5C31A0D46B0
:103C900007499B10044659430648402205F01DF988
:103CA0002B4601462046BDE870401847F415002019
:103CB000B76DDBB648A2000073B50C4C0C4A40232C
:103CC000041B00930D460B460A49A41061430646A7
:103CD000094805F02EF9011E05DA30462B4602B0E0
:103CE000BDE87040184702B070BD00BFF415002059
:103CF0009D8F0000B76DDBB648A2000010B5EFF352
:103D00001184202383F31288BFF36F8F074A13684F
:103D100023F00201DB07116002D4012005F0ACFCA6
:103D200084F31188BFF36F8F10BD00BF44160020CD
:103D3000002270B5012104461046FEF707F90F482E
:103D400001F006FC0E4B984215D101F011FC2669DA
:103D50000C49304604F021FD00280BDB01253564B9
:103D60002469084904F11C0004F017FD002801DB58
:103D7000E564002070BD6FF00400FBE7813E0000A9
:103D80000000AD0BACA500001FB500220123CDE95A
:103D90000223094ACDF800D06B46CDF804D005F0D7
:103DA000F6F8002805DB4FF480420023684603F054
:103DB0007FF805B05DF804FBBB8F000030B4104BFA
:103DC0000C2202FB003301460020D3E90E52986317
:103DD000EFF31180202484F31288BFF36F8F1C6CE3
:103DE00004F0C00444F002041C6480F31188BFF3A3
:103DF0006F8F1DB12B46034830BC184730BC70474D
:103E0000F415002048A2000010B4EFF31182202323
:103E100083F31288BFF36F8F1748016841F00204E3
:103E20000460C80707D482F31188BFF36F8F0120A5
:103E300010BC01F0B5BB4FF08041D1F80C04D1F8B3
:103E40000C14C907EFD5EFF3118083F31288BFF389
:103E50006F8F0A490B6C03F0C00343F002030B643D
:103E600080F31188BFF36F8F82F31188BFF36F8FD8
:103E7000002010BCFFF7A2BF44160020F41500205C
:103E800010B1012804D07047034B1B6C5B0701D1B4
:103E9000FFF794BF704700BFF4150020024AC3B279
:103EA0001C2003FB00207047F41500202DE9F04191
:103EB0003849BFF35B8F0746012251E8003F41E8D4
:103EC00000200028F9D1BFF35B8F33B93249334862
:103ED0004B60CB608A6004F073FC7B1E012B2BD8F7
:103EE000012F07D14FF08043D3F81C3403F00303B4
:103EF000012B21D005F0E3FE0546F8B9284B1B78CD
:103F0000E3B14FF080430222C3F808230646DFF8EE
:103F100094804FF08044D4F81824D4F81834D20395
:103F200015D503F00303012B01D0012F0FD155B399
:103F300086F31188BFF36F8FBDE8F081EFF3118630
:103F4000202383F31288BFF36F8F0125DFE7ADB124
:103F5000304604F01EFFD4F81835002BDBD1D4F81E
:103F60000421002AD7D0C4F80431D4F80431012345
:103F7000C4F81835C8F88031A360CCE700212120AF
:103F800003F0ACFCE7E74FF080430222C3F80423C0
:103F9000D2E700BFF0150020E01500201016002029
:103FA000E21B002000E100E00146024883685B68F4
:103FB000184700BF84A2000008B5074805F00AFDB5
:103FC00038B10648FEF7D6F90448FCF745FB002057
:103FD00008BD6FF01200FBE784A20000C18F000053
:103FE000F0B54068057B01F01F0444EA45140569FB
:103FF00087B0002D64D0B2F5001F00F1100506D186
:104000002146284605F0C9FB002007B0F0BD01AEEF
:104010000027B2F5800F0197776039D1B3F1007FA7
:1040200014BF052304238DF804300023CDE9046375
:104030000393836823FA01F111F001011AD1B2F15F
:10404000A07F17D104F01F03620903F5E0732AD0A3
:10405000012A3BD11F4A52F82330DB070AD40DF165
:10406000030632462146284601F078FD1A4B984255
:104070001CD0029603AA2146284601F031FC174BBA
:10408000984220D101222146284601F0CFFDBBE70E
:10409000B3F1C06F05D0B3F1007F14BF0123022339
:1040A000C1E70323BFE74FF0A042D4E731462846DB
:1040B00001F0B6FD094B9842DBD06FF00B00A4E78E
:1040C0006FF08500A1E76FF015009EE751F82330EF
:1040D000FFDE00BF000300500400AD0B0000AD0B7D
:1040E00038B545682B69B3B11035284601F088FD15
:1040F000044680B90146284601F04AFD084B984223
:104100000BD108492246284601F022FD224605210E
:104110000620FDF71BFF002038BD6FF00400FBE711
:104120000000AD0B29410000420970B5034602D0E2
:10413000012A17D070BD0D4E326951680029F9D09F
:1041400003F01F0301250C689D400029F2D08A6806
:104150002A4002D04B68304698472CB1236821464C
:104160001C46F2E7024EE7E72346F8E770A200009C
:104170005CA200002DE9F043466840F20635D00607
:10418000337B87B002EA050554BFC2F34010032019
:1041900001F01F07B5F5837F144647EA43178DF8F2
:1041A000030044D00FD8062D18D007D8B5B1022D82
:1041B0003FD06FF0150007B0BDE8F083B5F5807F04
:1041C000F7D101250AE040F20222954233D0B5F53D
:1041D000407F32D0B5F5007FEBD1022522032ED5EA
:1041E000726801238B40C2F80835326992BB07F030
:1041F0001F037F092BD0012F79D13F4A02EB8302A5
:1042000084F48033D2F80017C3F30043C4F340446E
:1042100044EA430421F4E16144EA800421F0070107
:1042200044EA05230B43C2F800370020C3E7072503
:10423000D4E70425D2E70525D0E70325CEE76303BD
:1042400041BF012372688B40C2F80C35CDE74FF0B7
:10425000A042D3E710360DF102023946304601F094
:104260007DFC14F4403F80460CD13946304605F0C1
:1042700092FA224B9845D8D19DF80210304601F0B1
:10428000C9FCD2E701AB4FF0000903AA394630461A
:10429000CDE90439CDE90199CDF80C9001F020FB6E
:1042A000164B984285D114F4003315D09DF8033095
:1042B0008DF80E3084F48034C4F300444B4603AAD6
:1042C000394630468DF80C508DF80D4001F0C2FB98
:1042D0000A4B9842CDD06CE7CDE9043303AA0DF127
:1042E000030339463046039301F0FAFAF0E703F589
:1042F000E07352F82330FFDE000300500000AD0BE6
:1043000008B543681B68D3F80805D3F80C1502F00C
:10431000C5FA034B984214BF6FF00F00002008BD90
:104320000000AD0B37B50446002201210420FDF743
:104330000DFE63689D6901AA0021284604F0CEFEA7
:10434000002814DB019B2A681979186800F0C0F86E
:1043500000280CDB60682369064A00F1080102F0BE
:1043600043F9054B984214BF6FF00F00002003B0D3
:1043700030BD00BF7D4300000000AD0B0378012B72
:1043800008D0022B08D04BB9054B0B6201F110008D
:1043900002F06ABD034BF8E7034BF6E7034BF4E783
:1043A0000000AD0B0100AE0B0200AE0B0100AD0B27
:1043B0002DE9F04F8BB005460C46914601934768B6
:1043C00006694FF0FF324FF0FF33304602F070FDC8
:1043D00006F1100A00220023504602F069FD38461B
:1043E00002F046F9DFF8C0B04FF00008C14501D82F
:1043F00000242EE0237A039313F008014DD11222FA
:104400000DF11600029105F04DFE039B60680199C5
:10441000069003F0010220688DF8151013F0020FCA
:1044200002998DF8142008901DD109F1FF334345FE
:1044300002D9237D5B0718D57ABB202205A938460F
:1044400002F042F9584512D0184B984228D06FF02C
:104450000404384602F01CF9304602F005FD2046FF
:104460000BB0BDE8F08F0A46E8E74022E6E74FF4DC
:1044700080420023504602F01BFD30B1384602F066
:1044800007F92846FFF73CFFE1E7336A5B4504F193
:104490000C04DCD108F10108A8E76FF08504D8E727
:1044A0006FF00F04D5E700BF0000AD0B0B00AD0BA4
:1044B000036803F01F025B09026004D0012B03486C
:1044C00018BF002070474FF0A04070470003005015
:1044D0002DE9F04FDFF85C81DFF85C9185B015467F
:1044E000824600EB8101514503D1002005B0BDE8B3
:1044F000F08FDAF80030D804C3F3432203F07F04CE
:1045000000F192807F2C4FEA134318F8027008BF25
:104510004FF0FF34192B00F28A80DFE803F00D140E
:104520001A1D20261D88888888376388888888888F
:1045300088888888667C7F82C5F80C45621C5ED1BD
:104540000AF1040ACFE7C5F81445631CF8D0002629
:104550005FE0C5F80845F1E7C5F81045F5E7661CCA
:10456000C5F80845ECD0002604E0601CC5F80C45F1
:10457000E6D0012603A80394FFF79AFF039B4FF0B0
:10458000010B0BFA03F3C0F80C3508E0C5F8084539
:10459000002FDAD1631CD3D00026B3460627DAF801
:1045A0000030019303F40052002A03A81CBF4FF00F
:1045B000000B01260394FFF77BFF039A019B00EB9E
:1045C0008200C3F3C114D0F800273B0243EA8403FE
:1045D00043EA0B0302EA0902134343EA4603C0F825
:1045E0000037ADE7C5F80C45D2E7C5F86045621C59
:1045F000DAF80030A4D0C3F38033002BB9D003A87D
:104600000394FFF755FF039B012606FA03F3C0F856
:104610000835B346C3E7C5F86445E8E7C5F868451B
:10462000E5E7C5F86C45E2E76FF015005EE76FF06F
:1046300085005BE723A80000F0F8FCFF2DE9F743B5
:104640000646002201210220FDF780FC0220FDF732
:104650004DFC776835693C684FF00008C4F8008568
:104660002E60D7F80C9001AA4146484604F036FD6A
:10467000002839DB019BD9F8002019791868FFF769
:1046800027FF002830DB6B7AD6F810C0012B03D04F
:10469000032B27D14FF01008AB7A032B22D1E97AF4
:1046A00009B101291ED12A7A12B1022A1AD10E2289
:1046B0006B687068B3F5164F006800F0B28034D8AC
:1046C000B3F5165F00F0B0801AD8B3F5966F00F01E
:1046D000AD800CD8B3F5967F00F0AB80B3F5167FB4
:1046E00000F0AA806FF0850003B0BDE8F083B3F559
:1046F000166F00F0A480B3F5965FF3D15C4B43E0F6
:10470000B3F5E14F00F09E8008D8B3F5615F00F08B
:104710009B80B3F5964FE5D1564B35E047F6122E08
:104720007345DFD14FF400032EE0B3F5613F00F095
:104730008D8015D8B3F5963F00F08B800AD84DF6E2
:10474000C02E734500F08780B3F5614FCAD14FF496
:104750006B0319E0B3F5E13FC4D14FF0EB7313E005
:10476000B3F5612F7AD009D8DFF80CE1734578D022
:10477000B3F5E12FB6D14FF0E86305E0DFF8FCE0D8
:104780007345AFD14FF08053C0F82435736841EAC8
:1047900008011B680A43C3F86C25D5E901010CF137
:1047A000040383E803007B68990712D505F11C0018
:1047B00001F008FC324B984256D1287F04F10C02DC
:1047C00004F5907104F04EFF2B7F0120984000F01B
:1047D00057FE0823C4F800353B7A53B9C4F81031AA
:1047E000D4F81031AB69C4F834350123C4F8383536
:1047F00023607B689A075CBF4FF48073C4F804336E
:104800007B68DB0644BF4FF48003C4F804336B6954
:10481000C4F8443500200123C4F84805A360E360D0
:1048200062E74FF41D03AFE7164BADE74FF49E234D
:10483000AAE74FF4A033A7E74FF41C33A4E74FF4E3
:104840001D23A1E7104B9FE7104B9DE74FF06C73C2
:104850009AE70F4B98E74FF4650395E74FF07063C5
:1048600092E74FF080638FE76FF004003CE700BFF2
:1048700000B0130000A04E0090D0030040420F0093
:104880000000AD0B0050270000C0750000F03A009A
:1048900000903A012DE9F041044607690D4605F004
:1048A0000EFA4FF02008B0B91F4B1B789BB164265D
:1048B000606804F0ECFCF0B9012004F0D1FE013E88
:1048C000F6D10021212003F009F8F0E781F31188E7
:1048D000BFF36F8FF5E7EFF311810E4688F312886F
:1048E000BFF36F8F606804F0D2FC80B981F3118848
:1048F000BFF36F8FEFE7EFF311810E4688F3128855
:10490000BFF36F8F606804F0C2FC0028DED07B69C3
:104910001D7079690122204604F0FAFB86F31188A4
:10492000BFF36F8FBDE8F081E21B00207FB5054625
:10493000406829698A6C0B6D0ABBABB14C6C8B6506
:1049400016461A46C96C0291CDE9004611B3002BF8
:1049500018BF134600226946039301F071FC0E4B09
:1049600098420AD06FF004032C69236304F12000FD
:1049700002F07AFA002384F85C3004B070BD4C6C0D
:1049800013B19A4228BF1A46002C8A6514BF1646F6
:104990000026D7E70B46DDE70000AD0B2DE9F04F11
:1049A00089B00E460093436801938B88046999048B
:1049B0000746914600F128814FF0FF324FF0FF3358
:1049C00004F1100002F074FA6660D7F81080D7F88E
:1049D00004A098F85D301BB1D8F800309E427DD01D
:1049E000B6F804C01CF4006F40F04D811CF0090FB4
:1049F00040F04681CCF34513082B40F041813568E7
:104A0000B64B9D4240F23C810AF1080BBBE80F0017
:104A10000DF10C0EAEE80F00DBF80030CEF80030E0
:104A2000AF4B9D4240F2F980AE4B9D4240F2F88080
:104A3000AD4B9D4240F2F780AC4B9D4240F2F68078
:104A4000AB4B9D4240F2F580AA4B9D422CBF4FF0EC
:104A500000454FF080451CF0020F05950CF0040353
:104A600000F0EA80002B14BF032302238DF81830D6
:104A7000CCF300138DF81930DAF80030D3F808358C
:104A80001CF0020F4FEA5312CCF3400103F01F0356
:104A900040F0D980002A00F0D380012A40F016812E
:104AA0009549012202FA03F3C1F80C3598F85D30FC
:104AB0002BB1504601F08CFB002388F85D30434653
:104AC0008E4A03A9504601F04FFB8D4B984240F0AF
:104AD000C780012388F85D30C8F80060012384F89E
:104AE0005C30019B596A4A1C03D003F1280004F092
:104AF0007EFDB9F1000F40F0C980C4F83490002366
:104B0000A36304F1480204F1380104F1340004F015
:104B10006CFC009B6064002B40F0C180E3630023C9
:104B2000236404F1500204F1400104F13C0004F05C
:104B30005CFCE06420680023236348B183683BB1D8
:104B40000121083004F064FC2368186904F03DFF7B
:104B50003846FFF7EBFE0022A06B1346834240F07D
:104B6000A7800023256C1946A94240F0A8809342F3
:104B7000264638BF13464FF4FA5202FB03F556F8A7
:104B8000203B4FF000081B68B5FBF3F54FF4004CD9
:104B9000C835414640F2E7304FF47A720023E5FB16
:104BA0000C01FBF7ADFA02460B46304602F080F9E5
:104BB00018B9256B15F1740F13D10198C4F85880FA
:104BC00001F006FB84F85D803F696FF073053D637B
:104BD00007F1200002F048F987F85C80304602F0C7
:104BE0008DF92368002B3DD09A68002A3AD0998825
:104BF00011F4805636D1186904F0E7FE206831467A
:104C0000083004F005FC2DE0A369002B7FF4D4AE3E
:104C100063689E427FF4D0AED7E64FF000751AE786
:104C20004FF0806517E74FF0006514E74FF08055AF
:104C300011E74FF000550EE7003B18BF012315E7C1
:104C40004FF0A0412DE742B1012A42D12A49012269
:104C500002FA03F3C1F8083528E74FF0A041F6E760
:104C60006FF0040523689B8813F4005304D163603C
:104C700004F1100002F0F8F8284609B0BDE8F08F02
:104C80006FF01505EEE76FF08505EBE7D9F800301A
:104C90006363002B3FF433AFD9F8043030E7009B57
:104CA0001B68E363002B3FF43AAF009B5B6837E778
:104CB000616B01EBC301013349680A444EE7E06BC5
:104CC00000EBC1000131406803444DE7C1F80C1509
:104CD000FFDE0023C3F80835FAE700BF47E801000C
:104CE0008FD003001FA107003F420F007F841E00EA
:104CF000FF083D0000127A000003005053950000A9
:104D00000000AD0B00F01F0240090DD001280ED1AC
:104D10000A4B03EB82030A4AD3F80007024042EA37
:104D20008102C3F8002770474FF0A043F1E702F576
:104D3000E072002353F82230FFDE00BF0003005072
:104D4000F0F8FCFFF0B587B001238DF802300223A4
:104D50008DF804306B4403930F4601AB0DF1030152
:104D60000024049305460291059400F059FF0C4B72
:104D7000984206460FD103AA3946284600F0B0FDF6
:104D8000B0420BD09DF80310284600F043FF6FF0AF
:104D9000040007B0F0BD6FF01200FAE72046F8E714
:104DA0000000AD0B70B5012383400E4ABFF35B8F4B
:104DB000DC4352E8001F01EA040542E80056002ED9
:104DC000F7D1BFF35B8F4FF4803282400648C0F8C2
:104DD0000823BFF35F8FBFF36F8F0B4214BF012017
:104DE000002070BD641600200010014070B40E4910
:104DF000D1E90034D01AC31844F1000422F07F46F0
:104E0000C1E90034A6F50013B3F5400F09D2074BF2
:104E10001B681A0A1B069C19054B42F10005C3E9E1
:104E2000004570BC02F02CBFF80600206816002078
:104E30000007002011B3BFF35B8F0123104A8340AA
:104E400052E800CF4CEA030C42E800C10029F7D138
:104E5000BFF35B8F0B4A4FF480338340C2F80433B7
:104E6000094BBFF35B8F1B68BFF35B8FC340DB074E
:104E700042BF064B4FF40032C3F80021704700BF19
:104E800064160020001001406016002000E100E0E0
:104E90000D4B1868010A0006BFF35F8F0B4BD3F868
:104EA0000435181841F10001B3F5801F0AD2084BF0
:104EB000D3E90023904271EB030303D210F1807019
:104EC00041F10001704700BF68160020001001404A
:104ED000000700202DE9F04F85B016461F469DF8CB
:104EE00040A00446FFF75EFF0190FFF7D1FFB042FC
:104EF00071EB070354D23E4B301A67EB0101984225
:104F000071F100014FD23B4B03EB0413D3E90223B1
:104F10009F4208BF96425ED037494FF4803804F173
:104F2000500508FA04F8AD00C1F848832046ADB238
:104F300004F085FB26F07F4B05F1804504F5A8734E
:104F400005F58835DC464FF003090293029A2CF0F0
:104F50007F4341F82230C1F84483D1F80435274A11
:104F60006FF00200C01A604420F07F40904232D9B6
:104F7000286868B1D1F804350393A3EB0B0020F047
:104F80007F40B0F5000F26D9204604F058FB039B64
:104F9000BAF1000F07D109EB030C09F10109D5E7BC
:104FA000BAF1000F09D06FF0150520460199FFF7FF
:104FB00041FF284605B0BDE8F08F0123104ABFF33A
:104FC0005B8FA34052E8000F184342E8000100291C
:104FD000F8D1BFF35B8F07490E98230101EB041250
:104FE000C8500F9B5360C2E902670025DDE700BF90
:104FF00001008000E806002000100140FDFF7F0056
:10500000601600207FB51C4C1C4BC4F80833C4F854
:1050100048331B4B00254FF0FF304FF0FF31C4F8F1
:105020000855C3E902014FF48033C4F80433154B2B
:1050300002264FF400320121C4F804631120C3F8A2
:1050400080212A46FCF782FF1120FCF74FFF0E4A11
:105050000123A360236013600C4B0D4A0093CDE93C
:10506000015500232846FFF735FF3046FEF71EFFA7
:10507000284604B070BD00BF0010014003000F00BF
:10508000E806002000E100E064160020ED4D00007D
:10509000FFFF7F002DE9F7432F4CD4F80433990725
:1050A0000BD5D4F8043143B12C4A0023C4F80431A1
:1050B000D4F80431136801331360D4F80433DA03ED
:1050C00029D5BFF35B8F264B53E8002F22F0010157
:1050D00043E800100028F7D1BFF35B8FD30702D459
:1050E000D4F84031BBB10025C4F84051D4F8403168
:1050F000FFF7CEFEEFF31182202383F31288BFF374
:105100006F8F184BD3E90267B042B94106D282F3E0
:105110001188BFF36F8F03B0BDE8F0834FF0FF3805
:105120004FF0FF39C3E90289D3E900101D604FF445
:105130008033C4F84833C4F84051D4F8403182F386
:105140001188BFF36F8F0029E5D0009032463B46AF
:1051500028468847DFE700BF00100140681600209E
:1051600060160020E806002030B5431C124C85B0C4
:1051700005D08442A8BF0446012CB8BF0124FFF724
:1051800087FE0E4B0C4DD3E90013401AB0F5000F0B
:1051900010D22218AA4228BF2A4652184FF0000007
:1051A00007490091CDE9010043F10003FFF792FEAA
:1051B00005B030BD2A46F0E7FFFF7F00F80600206B
:1051C000ED4D000008B5FFF763FE024B1B68C01AE7
:1051D00008BD00BFF8060020BFF34F8F0549064BFE
:1051E000CA6802F4E0621343CB60BFF34F8F00BF85
:1051F000FDE700BF00ED00E00400FA054FF080532A
:10520000D3F83021082A06D1D3F83431052B02D83F
:10521000024AD05C70470020704700BF4CA80000D5
:10522000024AD2F80034002BFBD0704700E0014066
:1052300010B54FF08053D3F83021082A4ED14FF0EB
:1052400080420021C2F80C11C2F81011C2F83815C2
:1052500002F54042D3F80414C2F82015D3F808141C
:10526000C2F82415D3F80C14C2F82815D3F810147A
:10527000C2F82C15D3F81414C2F83015D3F818144A
:10528000C2F83415D3F81C14C2F84015D3F8201412
:10529000C2F84415D3F82414C2F84815D3F82814DA
:1052A000C2F84C15D3F82C14C2F85015D3F83014AA
:1052B000C2F85415D3F83414C2F86015D3F8381472
:1052C000C2F86415D3F83C14C2F86815D3F840143A
:1052D000C2F86C15D3F84434C2F87035FFF78EFF6E
:1052E00018B13F4B3F4AC3F88C26FFF787FF18B130
:1052F0003D4BFB22C3F81825FFF780FF70B14FF03C
:1053000080414FF08053D1F8E42ED3F8583222F088
:105310000F0203F00F031343C1F8E43EFFF76EFFE3
:1053200020B1324B4FF40072C3F840264FF0805347
:10533000D3F83031082B1AD14FF08043D3F8002432
:10534000D20744BF6FF00102C3F800244FF080532E
:10535000D3F83431052B02D8254AD35C3BB14FF04A
:105360001023D3F808224FF08043C3F858254FF09C
:105370001021D1F80C32DB0714D51E480123C0F8E8
:105380000435FFF74DFFD1F80C3223F00103C1F8CB
:105390000C32FFF745FF0023C0F80435FFF740FF4C
:1053A000FFF71AFFD1F80032002B03DBD1F80432EB
:1053B000002B14DA0F4901234FF01020C1F80435F7
:1053C0001224FFF72DFFC0F80042FFF729FFC0F8B5
:1053D0000442FFF725FF0023C1F80435DEE710BDC6
:1053E000005000404881030000F00040009002405F
:1053F00046A8000000E0014030B50468CCB1BFF31E
:105400005B8FB4FA84F3C3F11F03DBB201229A402D
:1054100024EA020250E8005FA54204D140E8002CD3
:10542000BCF1000FF6D1BFF35B8FE6D102480B70E1
:1054300030BD0248FCE700BF0000AD0B0200AD0B21
:1054400010B50368CB40DB0714D401238B400268FE
:10545000BFF35B8F43EA020150E8004F944204D14E
:1054600040E8001CBCF1000FF6D1BFF35B8FEED11A
:10547000014810BD0148FCE70000AD0B0400AD0B76
:10548000014BC3F80405704700F00140F7B504462E
:1054900018B1012823D003B0F0BD4FF080430222A1
:1054A000C3F808230122DA60C3F80401D3F80431F9
:1054B000064601238DF8073042F210754FF0804701
:1054C000D4B1012CE7D1D7F80C3403F48033AEBB50
:1054D00083B3012004F0C4F8013DF4D12AE04FF079
:1054E00080430022C3F808035860C3F80021D3F8B2
:1054F00000310DF10706DCE7D7F8183403F48033E8
:105500003EB9002BC7D0012004F0AAF8013DF3D129
:10551000C1E7D7F8182402F003023260002BBAD09A
:105520009DF80700012803D104F09AF8013DC7D186
:10553000012CB0D1054B00225A71ACE7D7F80C24EE
:1055400002F001023270002BEAD1F3E76C16002062
:10555000044B1A7922B9012218609A8002487047D8
:10556000024870476C1600200000AD0B0C00AD0B1C
:1055700008B5094B1B682BB10020FCF7D9FC08B912
:10558000FCF7B4FC4FF080430022C3F81825034B0E
:1055900001221A7008BD00BF6C160020E01B00201D
:1055A00010B510B1012843D010BD4FF08043D3F89F
:1055B0001814D3F81824C80321D502F00303012BD3
:1055C00004D013B10020FFF761FF00234FF08042A9
:1055D0000220C2F8183508224FF4827303F1804389
:1055E0000021196002F180421C6801241460154AF0
:1055F00012680AB34FF08043C3F80403D4E7D3F82A
:105600001424D107E1D5D3F81C249207DAD40D4A2B
:1056100012681AB10222C3F80423C5E7D3F80421A3
:10562000002AFBD00022C3F80421D3F80431BBE7E1
:1056300000224FF48073D1E71A68002AFCD0196069
:105640001B68B1E76C16002010B54FF08043D3F80B
:1056500000216AB10022C3F80021D3F80021012201
:10566000C3F80823114B587910B95A711B68984731
:105670004FF08043D3F8042172B10022C3F8042113
:10568000D3F80421D3F81824D3F81824920704D1AE
:105690000122C3F818259A6010BD0222C3F808231E
:1056A000024BBDE810401B68012018476C16002013
:1056B000036803F01F025B09026004D0012B03485A
:1056C00018BF002070474FF0A04070470003005003
:1056D000034A430900F01F00D35C1844C0B270476E
:1056E00052A8000070B50546FFF7F2FF0C4C0830D9
:1056F0000E4634F81030DA0508D5C3F3432304EB23
:10570000C302284654F8333052689847A3682BB137
:10571000E26831462846BDE87040184770BD00BFBA
:10572000FC01002008B5FFF7D3FF034B083033F826
:105730001000400B08BD00BFFC01002008B5FFF7BA
:10574000C7FF034B083033F81000C0F3400008BD1A
:10575000FC01002008B5FFF7BBFF034B083033F80E
:105760001000C0F3401008BDFC010020034611F0FA
:10577000010010B5CCB20DD1A207C4F3400012D580
:10578000094AD2F820055860C2F82005003818BF31
:10579000012008E04FF0A041D1F820251A60C1F89F
:1057A0002025002AE8D010BD0003005010B5FFF7F7
:1057B0008FFF124A083032F81030D9051CD5C3F3D8
:1057C000432123F4F85322F8103002F10E04002094
:1057D00034F8023F13F4807F03D0C3F3432399428C
:1057E0000AD001303028F3D1002342F83130044888
:1057F000BDE81040FFF724BE10BD00BFFC01002033
:1058000074020020F0B50546002004460126074634
:105810008C420BD1114BD3F87C2132B10022C3F85A
:105820007C21D3F87C3140F00040F0BDE3B29B0016
:1058300003F580729B0806FA03F31D420BD002F1B8
:10584000804202F5C042D2F800C0BCF1000F02D085
:105850001760126818430134DAE700BF00600040A7
:10586000F7B506460846FFF733FF194F00F1080564
:105870000C4637F81530DB0727D5304603F067FFB5
:105880002046FFF767FF40B12046FFF74BFF316826
:1058900000F5A270002341F820302046FFF786FF74
:1058A000002301A827F815300194FFF701FF019BA1
:1058B00000EB8300074BD0F80027134043F00203AE
:1058C000C0F80037044803B0F0BD0448FBE700BF50
:1058D000FC010020F0F8FCFF0000AD0B0400AD0B54
:1058E0002DE9FF41164680460846FFF7F1FE0D46BA
:1058F0003168044609B32846FFF720FF18B128464F
:10590000FFF728FF10BB0023CDE900338DF80E30E0
:105910008DF80F300DF10F020B4628460DF10E01E8
:1059200003F0ACFE474A04F1080132F8113023F0CD
:10593000020343F0010322F81130736863B3284671
:105940001F785968FFF7FAFE10B1D1B13E4826E042
:105950003C4A04F1080032F8103023F02003DB0445
:10596000DB0C22F8103061B1032FEFD87168496861
:1059700091F800C0D8F80010A7B90CF5A27C41F846
:105980002C70304A04F1080132F8113023F01C0366
:1059900043EA870322F81130B3684BBB2B4804B0AD
:1059A000BDE8F08101EB8C0143EA4C33D1F810E5FE
:1059B0002EF0030EC1F810E5D8F8001001EB8C0EA4
:1059C00043F02003DEF8101522F8103021F44F3197
:1059D00021F44071CEF810152902DEF8108501F48B
:1059E0007C5141EA074141EA0801CEF81015C8E7A9
:1059F000D3E900672846FFF7D9FE002ECED0114D1F
:105A0000D5E90023964203D19F4201D1002209E04B
:105A10000F480DF10F01FFF7EFFC0C4B9842BED180
:105A20009DF80F2045F8326005EBC20308345F6033
:105A300035F8143043EA422343F4807325F81430D8
:105A4000ACE700BFFC0100200400AD0B0000AD0B73
:105A5000740200202DE9F0430C4685B080462046B4
:105A600011461E46FFF734FE054629B32046FFF7D0
:105A700065FE18B92046FFF76DFE18BB314F05F1E2
:105A8000080937F8193013F01C0F02D04B78012B9E
:105A900018D001238DF80F300023CDE900134A1CE4
:105AA0008B1C20460DF10F0103F0E8FD37F819308B
:105AB00043F0030327F81930002E41D02046FFF7AA
:105AC0003DFE18B9204805B0BDE8F08396F800C047
:105AD000D8F800301B4F0CF5A272002143F82210B9
