:10100000004B0020BD520000C1C4000091520000FE
:101010009152000091520000915200000000000027
:10102000000000000000000000000000F94E000079
:101030009152000000000000A54E000091520000F7
:10104000A94F0000A94F0000A94F0000A94F0000C0
:10105000A94F0000A94F0000A94F0000A94F0000B0
:10106000A94F0000A94F0000A94F0000A94F0000A0
:10107000A94F0000A94F0000A94F0000A94F000090
:10108000A94F0000A94F0000A94F0000A94F000080
:10109000A94F0000A94F0000A94F0000A94F000070
:1010A000A94F0000A94F0000A94F0000A94F000060
:1010B000A94F0000A94F0000A94F0000A94F000050
:1010C000A94F0000A94F0000A94F0000A94F000040
:1010D000612B0000A94F0000A94F0000A94F00009C
:1010E000A94F0000A94F0000A94F0000A94F000020
:1010F000A94F0000A94F0000A94F0000A94F000010
:1011000081F0004102E000BF83F0004330B54FEAB8
:1011100041044FEA430594EA050F08BF90EA020F25
:101120001FBF54EA000C55EA020C7FEA645C7FEAB8
:10113000655C00F0E2804FEA5454D4EB5555B8BFDB
:101140006D420CDD2C4480EA020281EA030382EA4C
:10115000000083EA010180EA020281EA0303362DDE
:1011600088BF30BD11F0004F4FEA01314FF4801CB1
:101170004CEA113102D0404261EB410113F0004FC3
:101180004FEA03334CEA133302D0524263EB43037A
:1011900094EA050F00F0A780A4F10104D5F1200E18
:1011A0000DDB02FA0EFC22FA05F2801841F1000173
:1011B00003FA0EF2801843FA05F359410EE0A5F147
:1011C00020050EF1200E012A03FA0EFC28BF4CF078
:1011D000020C43FA05F3C01851EBE37101F000452E
:1011E00007D54FF0000EDCF1000C7EEB00006EEB3B
:1011F0000101B1F5801F1BD3B1F5001F0CD34908C5
:101200005FEA30004FEA3C0C04F101044FEA44521B
:1012100012F5800F80F09A80BCF1004F08BF5FEAA2
:10122000500C50F1000041EB045141EA050130BD82
:101230005FEA4C0C404141EB0101013C28BFB1F594
:10124000801FE9D291F0000F04BF01460020B1FADF
:1012500081F308BF2033A3F10B03B3F120020CDAB2
:101260000C3208DD02F1140CC2F10C0201FA0CF090
:1012700021FA02F10CE002F11402D8BFC2F1200CF5
:1012800001FA02F120FA0CFCDCBF41EA0C019040AB
:10129000E41AA2BF01EB0451294330BD6FEA0404F4
:1012A0001F3C1CDA0C340EDC04F11404C4F12002DF
:1012B00020FA04F001FA02F340EA030021FA04F3F1
:1012C00045EA030130BDC4F10C04C4F1200220FA48
:1012D00002F001FA04F340EA0300294630BD21FA86
:1012E00004F0294630BD94F0000F83F4801306BF4C
:1012F00081F480110134013D4EE77FEA645C18BF40
:101300007FEA655C29D094EA050F08BF90EA020FD6
:1013100005D054EA000C04BF1946104630BD91EACE
:10132000030F1EBF0021002030BD5FEA545C05D1D1
:101330004000494128BF41F0004130BD14F5800410
:101340003CBF01F5801130BD01F0004545F0FE4184
:1013500041F470014FF0000030BD7FEA645C1ABFB9
:10136000194610467FEA655C1CBF0B46024650EAF0
:10137000013406BF52EA033591EA030F41F400211C
:1013800030BD00BF90F0000F04BF0021704730B5A2
:101390004FF4806404F132044FF000054FF0000177
:1013A00050E700BF90F0000F04BF0021704730B538
:1013B0004FF4806404F1320410F0004548BF40420D
:1013C0004FF000013EE700BF42004FEAE2014FEA62
:1013D00031014FEA02701FBF12F07F4393F07F4F3D
:1013E00081F06051704732F07F4208BF704793F040
:1013F0007F4F04BF41F40021704730B54FF4607453
:1014000001F0004521F000411CE700BF50EA010255
:1014100008BF704730B54FF000050AE050EA0102FE
:1014200008BF704730B511F0004502D5404261EB6E
:1014300041014FF4806404F132045FEA915C3FF4AF
:10144000D8AE4FF003025FEADC0C18BF03325FEA4C
:10145000DC0C18BF033202EBDC02C2F1200300FAFD
:1014600003FC20FA02F001FA03FE40EA0E0021FA22
:1014700002F11444BDE600BF70B54FF0FF0C4CF410
:10148000E06C1CEA11541DBF1CEA135594EA0C0FC2
:1014900095EA0C0F00F0DEF82C4481EA030621EAFD
:1014A0004C5123EA4C5350EA013518BF52EA033538
:1014B00041F4801143F4801338D0A0FB02CE4FF0EA
:1014C0000005E1FB02E506F00042E0FB03E54FF01A
:1014D0000006E1FB03569CF0000F18BF4EF0010E12
:1014E000A4F1FF04B6F5007F64F5407404D25FEA0E
:1014F0004E0E6D4146EB060642EAC62141EA5551C1
:101500004FEAC52040EA5E504FEACE2EB4F1FD0C02
:1015100088BFBCF5E06F1ED8BEF1004F08BF5FEA80
:10152000500E50F1000041EB045170BD06F0004632
:1015300046EA010140EA020081EA0301B4EB5C04DF
:10154000C2BFD4EB0C0541EA045170BD41F48011D7
:101550004FF0000E013C00F3AB8014F1360FDEBFFC
:10156000002001F0004170BDC4F10004203C35DAD8
:101570000C341BDC04F11404C4F1200500FA05F35B
:1015800020FA04F001FA05F240EA020001F00042FC
:1015900021F0004110EBD37021FA04F642EB060172
:1015A0005EEA430E08BF20EAD37070BDC4F10C049C
:1015B000C4F1200500FA04F320FA05F001FA04F260
:1015C00040EA020001F0004110EBD37041F100014C
:1015D0005EEA430E08BF20EAD37070BDC4F1200557
:1015E00000FA05F24EEA020E20FA04F301FA05F2BF
:1015F00043EA020321FA04F001F0004121FA04F267
:1016000020EA020000EBD3705EEA430E08BF20EA36
:10161000D37070BD94F0000F0FD101F00046400070
:1016200041EB010111F4801F08BF013CF7D041EAF2
:10163000060195F0000F18BF704703F000465200F6
:1016400043EB030313F4801F08BF013DF7D043EAC7
:101650000603704794EA0C0F0CEA135518BF95EA7D
:101660000C0F0CD050EA410618BF52EA4306D1D104
:1016700081EA030101F000414FF0000070BD50EA23
:10168000410606BF1046194652EA430619D094EAAD
:101690000C0F02D150EA013613D195EA0C0F05D197
:1016A00052EA03361CBF104619460AD181EA0301EB
:1016B00001F0004141F0FE4141F470014FF00000A3
:1016C00070BD41F0FE4141F4780170BD70B54FF03E
:1016D000FF0C4CF4E06C1CEA11541DBF1CEA1355BE
:1016E00094EA0C0F95EA0C0F00F0A7F8A4EB0504A0
:1016F00081EA030E52EA03354FEA013100F0888097
:101700004FEA03334FF0805545EA131343EA12635F
:101710004FEA022245EA111545EA10654FEA002614
:101720000EF000419D4208BF964244F1FD0404F5CD
:10173000407402D25B084FEA3202B61A65EB030529
:101740005B084FEA32024FF480104FF4002CB6EBE6
:10175000020E75EB030E22BFB61A754640EA0C0066
:101760005B084FEA3202B6EB020E75EB030E22BFA6
:10177000B61A754640EA5C005B084FEA3202B6EBE7
:10178000020E75EB030E22BFB61A754640EA9C00A6
:101790005B084FEA3202B6EB020E75EB030E22BF76
:1017A000B61A754640EADC0055EA060E18D04FEA34
:1017B000051545EA16754FEA06164FEAC30343EAD4
:1017C00052734FEAC2025FEA1C1CC0D111F4801FA1
:1017D0000BD141EA00014FF000004FF0004CB6E79A
:1017E00011F4801F04BF01430020B4F1FD0C88BF39
:1017F000BCF5E06F3FF6AFAEB5EB030C04BFB6EB44
:10180000020C5FEA500C50F1000041EB045170BD36
:101810000EF0004E4EEA113114EB5C04C2BFD4EB63
:101820000C0541EA045170BD41F480114FF0000EE7
:10183000013C90E645EA060E8DE60CEA135594EA63
:101840000C0F08BF95EA0C0F3FF43BAF94EA0C0F66
:101850000AD150EA01347FF434AF95EA0C0F7FF4DB
:1018600025AF104619462CE795EA0C0F06D152EA2F
:1018700003353FF4FDAE1046194622E750EA410613
:1018800018BF52EA43067FF4C5AE50EA41047FF424
:101890000DAF52EA43057FF4EBAE12E74FEA410287
:1018A000B2F1E04324BFB3F5001CDCF1FE5C0DD9BE
:1018B00001F0004C4FEAC0024CEA5070B2F1004F08
:1018C00040EB830008BF20F00100704711F0804F0B
:1018D00021D113F13872BCBF01F00040704741F4D0
:1018E00080114FEA5252C2F11802C2F1200C10FAD4
:1018F0000CF320FA02F018BF40F001004FEAC123B8
:101900004FEAD32303FA0CFC40EA0C0023FA02F35B
:101910004FEA4303CCE77FEA625307D150EA013331
:101920001EBF4FF0FE4040F44000704701F0004001
:1019300040F0FE4040F40000704700BF80F00040DF
:1019400002E000BF81F0004142001FBF5FEA410397
:1019500092EA030F7FEA226C7FEA236C6AD04FEA97
:101960001262D2EB1363C1BFD218414048404140DC
:10197000B8BF5B42192B88BF704710F0004F40F48E
:10198000000020F07F4018BF404211F0004F41F4AA
:10199000000121F07F4118BF494292EA030F3FD076
:1019A000A2F1010241FA03FC10EB0C00C3F1200389
:1019B00001FA03F100F0004302D5494260EB400018
:1019C000B0F5000F13D3B0F1807F06D340084FEA83
:1019D000310102F10102FE2A51D2B1F1004F40EB78
:1019E000C25008BF20F0010040EA030070474900E0
:1019F00040EB0000013A28BFB0F5000FEDD2B0FA7D
:101A000080FCACF1080CB2EB0C0200FA0CF0AABF9F
:101A100000EBC25052421843BCBFD040184370473D
:101A200092F0000F81F4000106BF80F40000013243
:101A3000013BB5E74FEA41037FEA226C18BF7FEA1A
:101A4000236C21D092EA030F04D092F0000F08BF5C
:101A50000846704790EA010F1CBF0020704712F043
:101A60007F4F04D1400028BF40F00040704712F182
:101A700000723CBF00F50000704700F0004343F0E7
:101A8000FE4040F4000070477FEA226216BF08461D
:101A90007FEA23630146420206BF5FEA412390EAE0
:101AA000010F40F4800070474FF0000304E000BFD6
:101AB00010F0004348BF40425FEA000C08BF704787
:101AC00043F0964301464FF000001CE050EA01024B
:101AD00008BF70474FF000030AE000BF50EA010260
:101AE00008BF704711F0004302D5404261EB41014D
:101AF0005FEA010C02BF84460146002043F0B64372
:101B000008BFA3F18053A3F50003BCFA8CF2083A96
:101B1000A3EBC25310DB01FA02FC634400FA02FC9F
:101B2000C2F12002BCF1004F20FA02F243EB0200A6
:101B300008BF20F00100704702F1200201FA02FC08
:101B4000C2F1200250EA4C0021FA02F243EB0200FB
:101B500008BF20EADC7070474FF0FF0C1CEAD0523F
:101B60001EBF1CEAD15392EA0C0F93EA0C0F6FD000
:101B70001A4480EA010C400218BF5FEA41211ED0DE
:101B80004FF0006343EA501043EA5111A0FB0131CA
:101B90000CF00040B1F5000F3EBF490041EAD3719F
:101BA0005B0040EA010062F17F02FD2A1DD8B3F11B
:101BB000004F40EBC25008BF20F00100704790F08A
:101BC000000F0CF0004C08BF49024CEA502040EADC
:101BD00051207F3AC2BFD2F1FF0340EAC2507047A2
:101BE00040F400004FF00003013A5DDC12F1190FE0
:101BF000DCBF00F000407047C2F10002410021FA52
:101C000002F1C2F1200200FA02FC5FEA310040F169
:101C1000000053EA4C0308BF20EADC70704792F0E2
:101C2000000F00F0004C02BF400010F4000F013A1A
:101C3000F9D040EA0C0093F0000F01F0004C02BF15
:101C4000490011F4000F013BF9D041EA0C018FE784
:101C50000CEAD15392EA0C0F18BF93EA0C0F0AD08A
:101C600030F0004C18BF31F0004CD8D180EA0100B0
:101C700000F00040704790F0000F17BF90F0004F49
:101C8000084691F0000F91F0004F14D092EA0C0F2B
:101C900001D142020FD193EA0C0F03D14B0218BFBE
:101CA000084608D180EA010000F0004040F0FE4004
:101CB00040F40000704740F0FE4040F440007047A0
:101CC0004FF0FF0C1CEAD0521EBF1CEAD15392EA1F
:101CD0000C0F93EA0C0F69D0A2EB030280EA010C0F
:101CE00049024FEA402037D04FF0805343EA1111A8
:101CF00043EA10130CF000408B4238BF5B0042F106
:101D00007D024FF4000C8B4224BF5B1A40EA0C00AA
:101D1000B3EB510F24BFA3EB510340EA5C00B3EBDC
:101D2000910F24BFA3EB910340EA9C00B3EBD10FCA
:101D300024BFA3EBD10340EADC001B0118BF5FEA1C
:101D40001C1CE0D1FD2A3FF650AF8B4240EBC25045
:101D500008BF20F0010070470CF0004C4CEA502006
:101D60007F32C2BFD2F1FF0340EAC250704740F455
:101D700000004FF00003013A37E792F0000F00F047
:101D8000004C02BF400010F4000F013AF9D040EAC5
:101D90000C0093F0000F01F0004C02BF490011F459
:101DA000000F013BF9D041EA0C0195E70CEAD15351
:101DB00092EA0C0F08D142027FF47DAF93EA0C0F38
:101DC0007FF470AF084676E793EA0C0F04D14B021C
:101DD0003FF44CAF08466EE730F0004C18BF31F0CE
:101DE000004CCAD130F000427FF45CAF31F00043C8
:101DF0007FF43CAF5FE700BF42000ED2B2F1FE4F6E
:101E00000BD34FF09E03B3EB126209D44FEA0023C9
:101E100043F0004323FA02F070474FF00000704790
:101E200012F1610F01D1420202D14FF0FF30704731
:101E30004FF00000704700BF53B94AB9002908BFEE
:101E400000281CBF4FF0FF314FF0FF3000F00CB8FE
:101E5000ADF1080C6DE904CE00F008F8DDF804E0FF
:101E6000DDE9022304B07047704700BF2DE9F04759
:101E700086468C460846089E154674461946002B31
:101E800040F0C2808542B2FA82F245D94AB1C2F12D
:101E9000200300FA02FC2EFA03F3954043EA0C0CEF
:101EA00094404FEA154EA8B2BCFBFEF8230C0EFB83
:101EB00018CC08FB00F943EA0C43994528D9EB18E4
:101EC00008F1FF3704D2994502D9A8F102072B4443
:101ED000A3EB0903A4B2B3FBFEFC0EFB1C330CFB0B
:101EE00000F044EA0344A04214D92C190CF1FF334A
:101EF00004D2A04202D9ACF102032C44241A43EAD2
:101F000007401EB1D440002334607360BDE8F08701
:101F10004746DDE76346F1E792BB431B01214FEAE9
:101F2000154EAFB2B3FBFEFC200C0EFB1C330CFBBA
:101F300007F840EA0343984562D9EB180CF1FF30EB
:101F400004D2984502D9ACF102002B44A3EB08035C
:101F5000A4B2B3FBFEFC0EFB1C330CFB07F744EAF8
:101F60000344A7424ED92C190CF1FF3304D2A742E7
:101F700002D9ACF102032C44E41B43EA0040C0E761
:101F8000C2F1200320FA03F1954090402EFA03F3AA
:101F900003434FEA154EAFB2B1FBFEFC0EFB1C1023
:101FA000190C0CFB07F841EA0041884504FA02F4D9
:101FB00022D969180CF1FF3004D2884502D9ACF15E
:101FC00002002944A1EB08019BB2B1FBFEFC0EFB11
:101FD0001C110CFB07F743EA01439F420ED9EB1893
:101FE0000CF1FF3104D29F4202D9ACF102012B4423
:101FF000DB1B41EA004192E76046E3E76146F7E711
:102000006046A3E76346B7E7834206D916B90021C5
:1020100008467BE7C6E900E0F9E7B3FA83F78FB932
:10202000834201D3724508D8BEEB020460EB030380
:1020300001209C461EB9002168E73846FAE7C6E948
:10204000004CF8E7C7F1200CBB4022FA0CF41C430B
:102050002EFA0CF120FA0CF3B84001434FEA144970
:102060000EFA07F5B3FBF9F81FFA84FE09FB1830E6
:102070000B0C08FB0EFA43EA00439A4502FA07F2FA
:1020800040D9E31808F1FF3004D29A4502D9A8F1EB
:1020900002002344A3EB0A0389B2B3FBF9F809FB5E
:1020A000183308FB0EFE41EA03418E452CD9611816
:1020B00008F1FF3304D28E4502D9A8F1020321446E
:1020C00043EA0040A0FB0298A1EB0E014145CE4639
:1020D000434602D306D14D4504D2B9EB020E68EB5C
:1020E00004030138002EA6D0B5EB0E0261EB03010C
:1020F00001FA0CFC22FA07F34CEA0303F940C6E9A3
:10210000003198E74046C5E74346D9E737B5224C4A
:1021100020680BF0CAFC18B9204809F07CFCFEE7E7
:1021200002F0FCFD20680AF0ACF920680AF0AFF973
:1021300000230622CDE90023194920681A4602F03F
:102140003FFD20680AF0A0F900214FF4803009F02B
:1021500097F920680AF09BF91249206802F062FDA5
:1021600020680AF091F920680AF091F900F07EFBEE
:1021700080B90D4809F04FFC02F0B8FD0146054654
:10218000206802F07FFD20680AF07EF9284600F002
:1021900021FBF1E70548EDE7B800002004E8000066
:1021A00029E8000076E800003FE8000052E800005F
:1021B00038B5104C20460BF078FCC0B12269A568F8
:1021C000136843F0400313602B680B4A0621204636
:1021D000984700280BDB40216B6920469847002870
:1021E00005DB00214FF4804009F04AF9F3E70020B5
:1021F00038BD00BFECE1000001000A00034A831E65
:102200009078034A126800FB032070472C0B0020D3
:102210002409002002460249024801230AF0ABBB10
:102220002C090020600800202DE9F047DFF8E8A025
:102230009DF8209006460D4614461F464FF00008B4
:10224000C14563D13549364809F0E5FB16F0180F52
:1022500002D0344809F0DFFBC4F3431804F01F092F
:1022600064123148314E04F07B0409F0D4FB04F2CF
:10227000BC712E482E4C09F0CEFB2E4809F0CBFB4A
:102280004146B8F1090F94BF2046304609F0C3FB20
:10229000284809F0C0FB4146B9F1090F8CBF304610
:1022A000204609F0B8FB244809F0B5FBE90AB5F56A
:1022B000B04F2CBF3046204609F0ADFBC5F34519A1
:1022C0001E4809F0A8FB05F01F084946B9F10A0F9E
:1022D0008CBF3046204609F09EFB4FEA480817485D
:1022E00009F099FB4146B8F10A0F8CBF30462046F1
:1022F00009F091FB104809F08EFB1148394609F0AE
:102300008AFBBDE8F0470F4809F085BB504609F04D
:1023100082FB08F1010893E780EC0000E51A002039
:102320007AEC00007DEC00007FEC000077EC000010
:1023300076EC000085EC000087EC00008CEC0000DF
:102340008EEC0000B2EC000010B5074A1188830043
:10235000B3FBF1F201FB1234044B18681044FFF791
:1023600059FF034B185910BD2C0B002028090020E1
:102370002C0900202DE9F84F0E460446A8B1A1B162
:102380001848DFF86490DFF864A009F044FB0025EA
:10239000002799F80230F9B28B42204607D8FFF7A0
:1023A000D3FF134B98420446F2D9BDE8F88FFFF7EC
:1023B00025FF0844FFF72EFF0028F6D1DFF8348010
:1023C00005F5007B18F8011B5046013509F023FB89
:1023D000AE42EAD0AB45F5D10120002109F050F81A
:1023E0000137D6E7B2EC00002C0B002097EC000080
:1023F000F7FFFF0F2C09002070B50C4B0C4D064663
:102400005869FFF7FBFEFFF705FF0FCD34460FC4F9
:102410000FCD0FC495E80700002384E80700B382BE
:102420000223738301233362304670BD2C0B0020DE
:102430002C0900202DE9F04FDFF8DC924D8B99F844
:1024400002A08B8A0C6A5746A9B080460E4645EA20
:1024500003454FF0000B3F01B4FBF7F75FFA8BF336
:102460009F4219D8F17A11F0180730D1AB4809F022
:10247000D2FA2C22394603A803AD0AF03AF80FCD60
:1024800044460FC40FCD0FC495E8070084E8070049
:10249000404629B0BDE8F08F2846FFF755FFA04A17
:1024A000904205460BF1010BD8D9022333622C224E
:1024B000002103A80AF01DF803AC0FCC45460FC558
:1024C0000FCC0FC594E8070085E80700E0E7240972
:1024D000B4FBFAF30AFB1344E4B22846FFF78EFE7E
:1024E0002044FFF797FED6F820E08E4B0EF00F0742
:1024F00003EB47170FCF0DF10C0CACE80F000FCF1B
:10250000ACE80F0097E807008CE807009DF80C1076
:10251000E52900F0E88009B92C22ACE79DF81730D6
:1025200003F03F030F2B4FF080020EAF40F084808A
:1025300001F0F00140297FD100217B4809F0D9FF4B
:102540009DF80CA068220AF00F0A0021384609F015
:10255000D0FF0AEB4A030AEB83033B44BA46BB4273
:1025600022D1724970480A781AF8013B002B5FD1DA
:10257000D6F820E00B706B4B0EF00F0903EB491CF3
:10258000BCE80F0003AF0FC7BCE80F000FC79CE803
:1025900007000EF1010387E807000C958DF8344021
:1025A0008DF83590336287E7316A5E4801F00F029B
:1025B00000EB42121046A3F10E0C02F10A0E90F845
:1025C00001B00CF801BF02308645F8D10520A3F117
:1025D0000D0B02F1040E1EF810C00BF800C0013004
:1025E0000B28F8D10131107F927F316211F00F0179
:1025F00003F8020C03F8012C18D199F802300134C9
:10260000E4B2A3420CD128460191FFF79DFE484B4E
:1026100001999842054602D9022333627CE70C46B1
:102620002846FFF7EBFD2044FFF7F4FD5B4696E7F5
:10263000571C8354FAB297E700213B4809F059FF31
:102640000DF10C0EBEE80F00BC46ACE80F00BEE872
:102650000F00ACE80F009EE807008CE807009DF82B
:1026600018C031499DF817E0002208460CF0080C0C
:1026700017F8013B202B1BD0BCF1000F06D0A3F1B3
:102680004109B9F1190F9CBF2033DBB20132082A8E
:1026900001F8013BECD11EF0100F0BD0336A0C9502
:1026A00003F00F028DF834408DF83520013379E7BF
:1026B000D2B2F0E79DF84030202BEFD02E23835488
:1026C0000DF13F0C01211CF8013F5718202B18BFBA
:1026D0002033FFB201F1010114BFDBB20023042952
:1026E000C355F0D1DAE70EF1010333621B0708BFCF
:1026F000013499F8023008BFE4B2A3427FF4EDAE92
:102700002846FFF721FE0A4B984205464FF0000489
:102710007FF6E3AEC9E600BF2C0B00209AEC000068
:10272000F7FFFF0F2C090020E51A0020E41A002013
:10273000F8FFFF0F82B02DE9F04198B00E461EA9B8
:1027400081E80C0007462C2200210DA809F0D1FEDB
:10275000DFF87C801EA968466D46FFF76BFE0FCD43
:102760000DAC0FC40FCD0FC495E8070084E8070037
:102770009DF8341021B92C220DA809F0BAFE17E0FB
:102780000025304609F0A3FEECB2A04206D9325D26
:1027900018F804309A4205F10105F2D0304609F0EC
:1027A00096FEA042D6D10A4809F091FEA042D1D1AE
:1027B0000DAC0FCC3D460FC50FCC0FC594E80700FC
:1027C00085E80700384618B0BDE8F04102B0704710
:1027D000E51A002030B599B0014602A809F0B7F813
:1027E000BDF82240BDF81C309DF81320099954EA29
:1027F000034405D11A4809F00EF9204619B030BD3E
:1028000012F0180F07D12046FFF7B4FD154809F064
:1028100002F90120F2E702AD0FCD0DAC0FC40FCDD0
:102820000FC495E8070084E807000F4C002502A8B4
:102830000DA9FFF7FFFD9DF808209DF81300099BE7
:10284000002AE3D022782E2A02D162785F2AEED0C5
:10285000BDF82020BDF81E100095FFF7E5FCE6E767
:10286000A5EC0000B2EC0000E51A0020F8B54248E3
:1028700009F0D1F84149424809F0ECFE08B10020C6
:10288000F8BD4FF40050FFF7C5FC05460028F6D10F
:102890003C493D4CB1F80B3023804B7BA370CB8976
:1028A000A3800B6AE3604B6A2361B1F81130238186
:1028B0000B7CA371CB6A63610B220B8E23834731A0
:1028C00004F11A0009F00AFEA288304B2188206921
:1028D0002F4F84F8225002F500521A60238901EB31
:1028E0004313013B93FBF1F3A17900FB0122134455
:1028F000E068284A1360C31A3B60FEF743FD0022DC
:102900004FF08143FEF7B8FD234B0022FEF7B4FDE4
:10291000FEF7C4FF0646FFF76FFA85B22846FFF7B9
:10292000C7F801463046FFF70DF81C49FFF714F9C8
:10293000FFF762FA294682B2194809F06CF8194883
:1029400009F069F8A2783B68B3FBF2F340F6F57240
:1029500093420ED9A3F6F673B3F5704F2CBF12480D
:10296000124809F058F81248124909F054F80120A9
:1029700086E71148F5E700BFB4EC000060080020CE
:1029800064E200002C0900202C0B00202809002004
:1029900020090020240900200000103E0000C84249
:1029A000D7EC0000EBEC0000F9EC000000ED0000BB
:1029B0000EED0000460B002007ED000010B5084B9F
:1029C000084C1B68012103B910BDDA6820688242F7
:1029D00001D1197002E0121A022AFAD91B69F2E732
:1029E000540B0020580B002010B50A4B1A683AB15E
:1029F0000948D36812690360002412B904B1036066
:102A000010BDD168126999422CBF194601240B46AA
:102A1000F3E700BF540B0020580B0020F8B54378B3
:102A200063BB1B4F81603B78102B04D1BDE8F8409D
:102A3000184808F0F0BF184C22781AB1174AD2F89B
:102A4000042511440122164D42702A68C1600133E9
:102A5000DBB2A2B92860002606613B70FFF7C4FF15
:102A60002B6893B9FFF7AAFF0E4B0C4A1B68C2F8FC
:102A70004435237813B9012313602370F8BD114640
:102A80001269002AFBD10861E5E71E701B69E8E7BF
:102A9000661B002020ED0000651B00200040024066
:102AA000540B0020580B002043786BB10B4A0021D7
:102AB00041701368984208D1036903B10161136042
:102AC000074A1378013B137070471A461B699842F6
:102AD000FBD10369136100230361F1E7540B00206C
:102AE000661B00202DE9F0411A4D1B4F2C68002673
:102AF00094B9FFF779FF194A1368B3F1807F04D3C3
:102B000003F17F4313602A68EAB9134AC2F84435D7
:102B1000BDE8F041FFF752BF2378D4F8108083B1AD
:102B2000636826709847637823B1A37823B9204659
:102B3000FFF7BAFF4446DBE7D7F80425A368134440
:102B4000E3602469D4E7D16801F17F41D160126963
:102B5000DAE700BF540B002000400240580B002071
:102B6000684620F007018D4601B5054B0022C3F8E9
:102B70004421FFF7B7FFBDE801408546704700BF1D
:102B80000040024008B5084B4FF40032C3F804235C
:102B90000022C3F808252420062102F029F9BDE807
:102BA0000840242002F0F4B800400240024840F6F9
:102BB0003D21FFF733BF00BF5C0B00200248836854
:102BC0004FF480515B691847ECE1000010B5074CE9
:102BD000FFF7F4FF23780133DBB2042B237004D119
:102BE0000348FFF761FF0023237010BD671B00201F
:102BF0005C0B002010B5044610B101280CD010BDAC
:102C00000C490D48012208F0FCFE0B484FF400412E
:102C1000BDE81040FFF702BF02460849084808F027
:102C2000F0FE08490848224608F0EBFE04484FF43D
:102C30000041EDE70FBA0000840B0020AD2B00002F
:102C4000700B0020CD2B00005C0B002010B50A4C4F
:102C500020460AF02AFF60B12269A168136843F494
:102C6000805313600B68054A20460C21BDE81040D4
:102C700018474FF0FF3010BDECE1000001000A00E2
:102C8000014B1B68184700BFBC000020014B1860B7
:102C9000704700BFBC00002007B50B46002102466C
:102CA0000091034800F014F903B05DF804FB00BF85
:102CB000812C00002DE9F047058B0446280790463B
:102CC00011D4022905F0070540F0CD80204609F017
:102CD00099F878B10138218B042811D8DFE800F089
:102CE000C3106D85950001290CBF45F0100545F016
:102CF0002005258388F31188BFF36F8FBDE8F08727
:102D000001F0070AAA4500F0A6800027B9463E4612
:102D1000A368002B00F0BD8041F00801218388F3F7
:102D20001188BFF36F8FA168002900F0BB800D6888
:102D3000002900F0B780D1F804803346524620467F
:102D4000C047002D76D02B6829461D46F0E701F0DC
:102D500007035A1F012A1BD8002221F00701062B66
:102D6000276889B2C4E9002209D13B4603E0628B9F
:102D7000013262831B68002BF9D141F002012183EB
:102D8000204609F03FF800287BD041F0200177E091
:102D9000042B0AD121F0070189B22183204609F0D2
:102DA00031F810B141F020012183218B01F0070A95
:102DB000AA4550D00027B946AAE7236921F00701A8
:102DC00041F00601062DD3F8009021832DD1B9F1F1
:102DD000000F40D041F00801218388F31188BFF330
:102DE0006F8F3A492046C84729E021F0070123693F
:102DF00041F0040189B2042DD3F804902183E6D078
:102E000000273E464FF0040A82E721F007012369BC
:102E100041F0050189B2052DD3F808902183D6D061
:102E200000273E464FF0050A72E700273E464FF066
:102E3000060A6DE72B4687E7B9F1000FD1D14FF0B5
:102E40002003EFF3118883F31288BFF36F8F238B76
:102E500023F008032383258BEA062ED525F01003E3
:102E6000238305F007056669218B002EBFF66FAF3F
:102E700000232768C4E9003321F0070141F0010174
:102E80002183218B01F0070AAA454FF000097FF446
:102E90003FAF002F9BD041F00801218388F31188B8
:102EA000BFF36F8F002FC7D03D6839463346524677
:102EB000204608F0D3FF2F46F4E7AB067FF51AAFA4
:102EC00025F02003238305F00705FFE689BE0000F7
:102ED0002DE9F04F814695B08B4617461C460025DC
:102EE000387808B9284658E37B1C2528039306D078
:102EF0005946C8470028C0F250830135FBE118222B
:102F000000210EA809F0F5FA7B78252B7DD000234F
:102F1000781C98469E469C461E46014610F8012B9A
:102F20002B2A00F0A18000F29880202A00F09F80D8
:102F3000232A00F09F802BB19DF8403043F04003DE
:102F40008DF84030B8F1000F05D09DF8403043F0C7
:102F500020038DF84030BEF1000F05D09DF84030C1
:102F600043F010038DF84030BCF1000F05D09DF800
:102F7000403043F008038DF840302EB19DF84030CA
:102F800043F004038DF840309DF8403003F04400D6
:102F9000442803D16FF386138DF840309DF84030FC
:102FA0002A2A43F080038DF840307FD19DF84120DC
:102FB00042F001024B1C8DF841201A782E2A9DF810
:102FC00041200CBF0121002161F341028DF8412015
:102FD00078D15A782A2A6ED0013300224FF00A0C99
:102FE000194611F8010BA0F13006092E40F2958028
:102FF0009DF840101292C1F3400040EAD2700A4698
:1030000060F341028DF840205CE0BA1C03928DF819
:1030100043309DF84130DA0740F12E8154F8048B9B
:10302000B8F1000F07DA9DF8402042F004028DF855
:103030004020C8F100085E0740F1278154F804AB36
:10304000BAF1000F80F226819DF841306FF3410301
:103050008DF841304FF0FF3A1CE12D2A0DD0302A77
:103060007FF469AF012358E74FF0010C55E74FF0AB
:10307000010E52E74FF001084FE701264DE70EFB26
:103080000262303A0346184610F8016BA6F1300C84
:10309000BCF1090FF3D999428FD09DF840101192DD
:1030A000D20F62F341018DF8401086E70B460022F3
:1030B0004FF00A0EE7E79DF8412042F004028DF838
:1030C000412002331A786C2A47D02BD8682A31D095
:1030D0006A2A4BD04C2A51D01A4612F8013B03926F
:1030E000782B9DF841208DF8433000F2BE806D2B87
:1030F00051D8692B00F2B980572B67D8412B03D0E8
:10310000453B022B00F2B1809DF84230042262F36D
:1031100002038DF84230012373E00CFB0202303AC7
:103120000B465DE7742A25D07A2AD5D19DF8412037
:1031300006210CE05A78682A9DF8412006D1012129
:1031400061F3C6028DF841200233C5E7022161F325
:10315000C6028DF841200133BEE75A786C2A9DF8EB
:10316000412001D10421EBE70321F0E79DF8412044
:103170000521ECE79DF841200721E8E7BDF8402054
:1031800022F4F04222F0020242F4804242F00202B3
:10319000ADF84020DFE76E3BD9B201238B4040F20F
:1031A00082410B4237D113F0240F51D1D8075CD59F
:1031B0009DF84230032161F302038DF8423002F0A2
:1031C0007803A3F140014B424B411AE0A3F15801AF
:1031D000C9B2012000FA01F111F4624F94D140F616
:1031E000010631421DD111F4043F3ED09DF842301A
:1031F00060F3020302F07802402A8DF8423034D0A6
:1032000000239DF84020C2F340010B4363F34102C9
:103210008DF84020FDE69DF84230022161F3020363
:10322000E8E79DF84210022002F0780260F3020104
:10323000402A8DF8421002BF9DF8401041F0010174
:103240008DF84010632BDBD1131E18BF0123D8E784
:103250009DF84230032161F3020312F0780F8DF8DC
:10326000423014BF01230023CBE79DF8403043F0E8
:1032700001038DF84030C3E79DF94020002AB4BF18
:10328000DDF844804FF0FF38D5E698077FF5E2AED1
:10329000DDF848A09DF841100023CDE911339DF8D9
:1032A000423003F00703012BC1F3C30133D1CB1E1E
:1032B000042B04D8DFE803F02146462121002368CF
:1032C00001294FEAE372CDE90E321CD19DF9383065
:1032D000DA17CDE90E3204349DF8403013F00306BE
:1032E00050D0039B3A465946484608F00FFF002845
:1032F000C0F253810544039FF2E554F8043BDA170A
:10330000CDE90E32E8E70229E5D11AB243F3C03322
:10331000CDE90E23DFE7022B24D1CB1E042B04D8EA
:10332000DFE803F0181010181800012954F8043BC6
:103330004FF0000214D00229CDE90E32CCD19BB25D
:103340000E93C9E7073424F00704F4E80223CDE91B
:103350000E23C1E754F8043B0E9300230F93BBE701
:10336000DBB2CDE7042B08D1073424F00704D4E9FD
:1033700000230834CDE90E23AEE7032BACD154F87B
:10338000043BDDE79DF843007828B4D862281CD8B8
:1033900025283FF4ADAD5828ADD10DF1360300938B
:1033A000DDE90E0108AB10AA08F06AFEBAF1000FC1
:1033B000074680F29A80002F9DD00DF13603D81B6E
:1033C000002E00F0C1800130BEE06338152892D88D
:1033D00001A252F820F000BFAD340000BF3400005D
:1033E000F7320000F7320000F7320000F732000039
:1033F000BF340000F7320000F7320000F73200005F
:10340000F73200004D350000E53400000B350000B8
:10341000F7320000F732000031340000F7320000CC
:10342000E5340000F7320000F7320000E534000018
:10343000BAF1000F0E9F35DB5146384609F065F8AA
:1034400007EB000A002F3FF456AF00269DF84230EC
:1034500013F01002059200F0938002305B06119A7F
:1034600048BF129B0492104448BFC018B8F1000F27
:1034700040F3A0809DF84020A8EB0008C2F3800331
:103480005007069300F19680510640F189803EB1C5
:1034900059463046C84700287FDB069B01351E464B
:1034A00030227EE0384609F012F8C9E70E9B8DF80D
:1034B0002030002608AF0DF1210A0120C6E71907C8
:1034C0005CBFC3F300135E01DDE90E2348BF2B266A
:1034D000002BBFF662AF524263EB4303CDE90E23EC
:1034E0002D265AE7002658E700269DF840200DF1CA
:1034F0003603DB1B6FF386129A458DF840207FF66A
:103500005AAFAAEB0303119355E70E9890B30DF150
:103510003603009310AA08AB002108F0B1FDBDF8F6
:10352000423003F0EF0343F4F04343F01003BAF1E9
:10353000000F0746ADF84230D6DA00283FF4DBAE84
:103540000DF13603181A00269A467FE70E9B0729CD
:103550003FF6D1AEDFE801F00C04060C08080C0CB5
:103560001D70C8E61D80C6E6EA17C3E90052C2E630
:103570001D60C0E62E4F064607F1050A052065E7E7
:103580001A0748BF013069E707931046069259466B
:10359000C8470028DDE9062304DA15B0BDE8F08F3E
:1035A000202243461946002903F1FF33ECDC454451
:1035B0006D1A98462EB159463046C8470028ECDBB4
:1035C00001359DF84230DA0601D41B0705D559466E
:1035D0003020C8470028E0DB0135059B33B19DF85A
:1035E00043005946C8470028D7DB0135049E2E44C6
:1035F00005E059463020C8470028CEDB0135731B53
:10360000002BF6DC53463A465946484608F07EFD04
:103610000028C2DB0544A844A8EB0503002B7FF774
:103620006AAE59462020C8470028B6DB0135F3E7CB
:1036300068ED000004F078BD2DE9F84305464FF031
:103640002003EFF3118683F31288BFF36F8F0E4BC5
:103650000E4F1C68DFF838804FF00C092CB986F348
:103660001188BFF36F8FBDE8F883D4E90123002DE3
:1036700018BF13462BB198F8102009FB02F2B85C72
:1036800098472468EAE700BFB00B0020A40B002095
:10369000A81A002070B5194B1C7CBFF35B8F04F097
:1036A0001F0301229A40164B610903EB8103D043AB
:1036B00053E8001F01EA000543E80056002EF7D149
:1036C000BFF35B8F0A4213D00E4B0F4D8BB10C230F
:1036D0006343EA18E85C517808F02CFF0020FFF7FC
:1036E000ABFF0C235C432A1900232B51C2E90133A1
:1036F00070BD83F31188BFF36F8FEFE7A81A002026
:10370000B80B002035C50000A40B00202DE9F041C6
:10371000354B07461D7C4FF02003EFF3118883F3F0
:103720001288BFF36F8F0C24304B314E6C431A1943
:10373000195D00294CD007CA06EB040C8CE8070081
:1037400000221A5588F31188BFF36F8F0C236B4347
:10375000F218F05C002839D07B1C10D0D2F808C0D9
:10376000244C254A4FF400400021ECFB004100238B
:103770002046FEF761FB0121381A04F06BFC07F0CC
:10378000C5FD0120FFF758FFBFF35B8F1B4B6A0994
:1037900003EB820305F01F0101228A4053E8000F6A
:1037A000104343E800010029F8D1BFF35B8F144BAD
:1037B0003BB10C2303FB05F03318305C597808F05B
:1037C000ADFEFFF767FF07F0B5FD0120BDE8F08112
:1037D0000146284600F016F80028B3D007C8344444
:1037E00084E80700AEE700BFA81A0020980B00206D
:1037F000A40B00203F420F0040420F00B80B0020F6
:103800001DC500002DE9F04F384C85B04B1C0F460C
:1038100003A90CBF4FF0FF384FF0000800F06EF81E
:103820006368002B054612DB09F0DBFED4E90032A9
:103830001C1A62F1000698424FF00003934102DB2C
:10384000013C46F10006012C76F1000302DA3C4609
:10385000464609E0B8F1FF3F08BFB7F1FF3F03D08C
:10386000A74278EB0603F2DB214B039F1B68009312
:103870006B1E1BB203EB4303DFF8789007EB830763
:103880004FF400484FF0000B25B9AA46504605B04A
:10389000BDE8F08F7868184ACC465946E0FB08C16D
:1038A00000236046FEF7C8FA0190B868124ACC4679
:1038B0005946E0FB08C100236046FEF7BDFA009BB5
:1038C000002BBA4601DB83420BD9B6F1FF3F08BF9C
:1038D000B4F1FF3FDAD0019B1844844276F1000333
:1038E000D4DA013DADB20C3FCEE700BF00000020AE
:1038F000C00000203F420F0040420F0008B9024BB9
:103900000B600020704700BF28E50000F0B40C4BAE
:103910000C4E5F6A0C4BB34203D36FF08500F0BCD2
:1039200070475D68BD4209D31C693CB195F802C07F
:103930000579AC4502D12346F0BC18472433EAE7A9
:10394000BC0B0020400400201C0400202DE9F0479F
:10395000134CDFF85080DFF8509005460E461746AE
:10396000444503D36FF08500BDE8F0876268D9F85D
:1039700024309A4212D3A36983B19078297988427E
:1039800005D13A4631462846BDE8F04718475279F6
:10399000012A03D13A463146284698472434DFE7C6
:1039A0001C04002040040020BC0B00202DE9F04145
:1039B0000B4CDFF8308005460E461746444502D3CF
:1039C0006FF0850009E063690BB92434F6E73A46E5
:1039D0003146284698470028F7D1BDE8F08100BF5E
:1039E0001C0400204004002010B5044608F0F4FF39
:1039F00010F1780F00D050B9054A204608F046FC77
:103A0000D2F8C43023EA0003C2F8C430002010BD4D
:103A1000BC0B002002480822002108F06ABD00BF4C
:103A2000770C002070B50B4B0B4CA34201D3002048
:103A300070BD196A1E7F00220439D5B2AE4201D88A
:103A40002433F2E7013211F832508542F5D10120DA
:103A5000EEE700BF1C0400204004002008B5094820
:103A60000378C3F341130A3350F823303BB100F11C
:103A7000080200F110019847C043C00F08BD184666
:103A8000FCE700BFBC0B002004282DE9F14FDFF854
:103A9000989004460F4616D001282DD1DFF88C806F
:103AA00098F8B93043B300F0E5FD214D4D4520D2E3
:103AB000D5F820B04FF0000A2B7F5FFA8AF6B342A8
:103AC00004D82435F2E7FFF7A5FFE7E70BEBC606BE
:103AD0000AF1010A307908F07FFF0246307908F0D8
:103AE000D5FBD8F8C430002A23EA0003C8F8C43054
:103AF000E2DA002388F8B9300D4D4D4508D30B4B61
:103B00001B6A6BB13946204601B0BDE8F04F18473B
:103B1000EB681BB13A462146284698472435ECE726
:103B200001B0BDE8F08F00BF40040020BC0B0020B6
:103B30001C04002073B5C4B263060D468DF807401F
:103B400007D02046FFF76EFF78B10D4B93F8BA000F
:103B500058B10B4E204655B102F0EEFAF3691BB195
:103B60000DF1070108209847012002B070BD02F056
:103B70000BFBF369002BF7D00DF107010920F2E7E9
:103B8000BC0B002073B586788DF80060037942790C
:103B90001C4C43EA0223ADF80230C378304603F0F0
:103BA00003038DF8043008F071FBD4F8C4301842D8
:103BB00005460BD0304600F03FFD3046FFF714FFBE
:103BC00009F0E8FF10B9962007F074FC684602F08F
:103BD0008FFA10F1780F03D010B1002002B070BD41
:103BE0009DF8000002F00CFB10F1780F01D00028C6
:103BF000F3D1D4F8C43001202B4384F8B900C4F8C1
:103C0000C430EBE7BC0B00202DE9F047924DAB69C7
:103C100004460E461746C3B9207800F01F0001285D
:103C200076D0022800F0DC8000BB94F900103A68DE
:103C3000637800292EDA062B0CD0082B25D0ABB9DF
:103C4000537001231370022303E198470028E3D146
:103C500000200DE06388190A0A1F012A8C4605D945
:103C6000072903D8DAB26B6A1C781CB96FF015000B
:103C7000BDE8F0875D78654503D1824200F0E480BD
:103C800001302344F0E71B78E3E095F8BA30137075
:103C90000123DEE0052B11D0092BE7D163886E6A82
:103CA000002B32D1FFF7B6FE638885F8BA30EB6996
:103CB000002BCDD0694903209847C9E7A07802F0CE
:103CC00005FA0028C4D0D1E77378042B10D0052B57
:103CD00011D0022B04D177796388BB4208BF012041
:103CE00033781E443378002BEED10028BED0D9E7BC
:103CF00096F80380F4E76388BB42F1D1B8F1000F76
:103D0000EED13046FFF73EFFEAE7FF27B846E9E786
:103D100095F8BA30D7F800C0002BA7D06F6AA288F8
:103D200094F804E03B46187800289FD0597802297F
:103D300004D193F80480F04500F292800344F2E746
:103D40008CF800308CF80130316081E71F4493E03B
:103D50000B2B8BD100264FF0FF08C146B24606E080
:103D60007B78042B0FD0052B21D03B781F443B7868
:103D7000002BF5D1EB6913B1514607209847002E6F
:103D80007FF466AF72E797F80280A38897F80390F4
:103D90009845EAD163889945E7D1B8F1070F1CD857
:103DA00005EB0803BA4683F8BB900126DDE7A3883C
:103DB0004345DAD1A3784B450AD0BE78304600F0AF
:103DC0003BFC3046FFF710FEB0FA80F67609CCE7F0
:103DD0003846FFF7D7FE0646C7E7BA460026C4E7CF
:103DE00094F900206378002A18DA002B7FF43EAFA4
:103DF00024793F6863060AD02046FFF713FE0028A7
:103E00003FF434AF95F8BA30002B3FF42FAF39466A
:103E1000204602F0D9F900237B7014E7012B08D06B
:103E2000032B7FF423AF6388002B7FF41FAF0121A6
:103E300003E0618800297FF419AFA088FFF77AFEBC
:103E400000287FF405AF11E702293B607FF41BAF28
:103E50005B883360FCE600BFBC0B0020760C0020C2
:103E600094F9000063780028BFF672AF002B3FF48E
:103E700067AF0A2B7FF4FAAE3B78002B3FF4F6AE27
:103E8000797804297FF462AFB9788A427FF45EAF13
:103E9000072A96BF5219002392F8BB308CF80030E5
:103EA000F6E600BF13B5164C237DF3B9E268A168AE
:103EB000019201AB802008F0F7F9019AA36813443E
:103EC000A360E3689B1AE3606BB962B12369E2887F
:103ED0009A4208DD94F8C82093FBF2F102FB1133FB
:103EE0000BB90123237502B010BD00231A461946F1
:103EF0008020237502B0BDE8104002F0ABB900BFCE
:103F0000BC0B002030B585B0002302460D4601935E
:103F1000002858D1002935D108220B460DEB0201AB
:103F200008F073FD002804DA802002F005F905B0DE
:103F300030BD2A4C029A2260039A626004F1380272
:103F4000A2609DF90820BDF80E302575002AC4E94D
:103F500003550ADB802B04D9802002F0EDF8002005
:103F6000E3E713B1C4E90333E1E7FFF777FD002886
:103F7000DAD0E28823699A42D4BFE260E360FFF7B7
:103F800091FFD4E7154CD4E90215002D01AB04DCF8
:103F900008F03BFD0028CADAC6E72A4608F035FDDE
:103FA0000028D9DB019AA3681344A360E3689B1A35
:103FB000E360002BBBD104F13803A360FFF74EFD93
:103FC0000028DCD1B0E78028B1D1044BDA68002AA0
:103FD000D5D11B7D002BD2D1A9E700BFBC0B00209F
:103FE000054B064A9A62064ADA62064A1A63064A8C
:103FF00058629A6100207047BC0B0020093C000009
:104000000D390000AD3900004D3900002DE9F341B4
:10401000414D04466F6A41484FF0FF324FF0FF3385
:1040200006F0C0FC95F8B860002E6ED13C482C62BA
:10403000E86102F029FA02F017F8041E49DB00F0EB
:104040003DFB041E45DB7B78012B61D1FB79002B06
:104050005ED0684685F8C830ADF802308DF804604F
:104060008DF8006002F044F8041E32DB80276846B9
:104070008DF8007002F03CF8041E2ADB2949304616
:1040800002F0EEF9041E24DB2649384602F0E8F976
:10409000041E1EDB244CDFF89480444520D300200E
:1040A00002F0AEF8041E14DBD5F8C430802043F0D3
:1040B0000103C5F8C43002F0A3F8041E09DBD5F8EB
:1040C000C43043F48033C5F8C430012385F8B830D8
:1040D0000024124806F0E0FC204602B0BDE8F08162
:1040E000276A0026227FF3B29A4201D82434D4E70B
:1040F00007EBC30257F83310107902F0B1F901361B
:104100000028EFD04FF0FF34E3E76FF07704E0E7EB
:104110006FF01504DDE700BFBC0B00201C0300207E
:10412000893A0000053F00001C04002040040020E4
:1041300010B50A4B93F8B8404CB900F055F848B1A7
:10414000FFF74EFF2046BDE81040FFF75FBF6FF05E
:10415000770010BD4FF0FF30FBE700BFBC0B002025
:1041600030B51F4B8BB005AA03F1100518685968CC
:10417000144603C40833AB422246F7D11B782370A0
:104180001022002101A808F0B4F9122200211548DC
:1041900008F0AFF9102101A808F0E3FD00281BDDAD
:1041A0000828B8BF0820093801AB0E491A180020AA
:1041B00012F8013F0AAC04EB131403F00F03283389
:1041C0006B44013014F8144C13F8143C0C7008289C
:1041D0004B7001F10201EBD102480BB030BD00BFC2
:1041E0007CED0000681B00202DE9F04F704C87B07B
:1041F0004FF0000B00264FF0011AB0463546B1468D
:1042000023782BB96B4B02349C42F3D1684832E0DF
:104210006378052B1BD8DFE803F09003C8901D3BA3
:10422000402304A88DF810B0ADF812308DF814B00A
:1042300008F0BAFB40B1082304A8ADF8123008F02A
:10424000B3FB08B1ADF812B0BDF81230E3712378BA
:104250001C44D5E7E378002BF9D1A37873B108F1BA
:1042600001085FFA88F8F2E76A68944209D02435B9
:104270009D42F9D3002007B0BDE8F08F4E4D4F4B63
:10428000F6E7AB68002BEAD0414620469847E6E7C0
:10429000002DEFD000222B7F9A42EBD2296AA07822
:1042A00001EBC2010B79984201D00132F3E70127FB
:1042B000E07800F003008DF81400207994F805C030
:1042C00040EA0C20ADF8120094F902000028FBB27D
:1042D00028DA07F110004FF0010C0CFA00F010EA98
:1042E0000A0F26D143F080008DF8100004A8CDE914
:1042F0000213019208F058FBDDE90121039BC0B9CC
:104300009DF81020A27012F0800F18BF10330A71B0
:1043100018BFDBB24FF0010214BF9A40BA404AEA1C
:10432000020A94E70120B84010EA0A0F01D11846AA
:10433000DAE70137102FBBD1B7E7032E1DD1FFF706
:104340000FFF074668B108F0C2F8019048B11C4859
:1043500008F0BDF8019A824203D13946A01C08F04A
:10436000BDF823786FF00201E218091B04EB530338
:10437000D14213D50136F6B269E7002EF1D1B9F179
:10438000000F3FF477AFA4EB090389F80230C3F3C1
:10439000072389F8033089F80480EBE702F801BCB1
:1043A00013F8010902F8020DE2E7A1464FE700BF4A
:1043B00060030020190400201C0400204004002099
:1043C0007CED000010B5094B00211A461C78844290
:1043D00004D15C6814B102EB811010BD01310429D5
:1043E00003F14003F2D10020F7E700BF880C002062
:1043F0002DE9F34150F8283C10F82C6C103304469A
:1044000010D1036950F8202C99073CD502BB13F05A
:10441000040304D11A461946304607F045FF00232D
:1044200044F8283C54F8283C10330ED054F8185C5B
:104430005DB154F81C7C54F8148C09F0ABFB0028D7
:104440004CD02C48214609F099FC02B0BDE8F0811F
:1044500050F8241C01AB304607F026FF10B16FF076
:104460001503DDE7019A54F8243C134444F8243C36
:1044700054F8203C9B1A44F8203C54F81C3C13444C
:1044800044F81C3CCEE750F8241C01AB304601F048
:104490005DFF0028E3D1019D54F8243C2B4444F8EF
:1044A000243C54F8203C5B1B44F8203C54F81C3C52
:1044B0002B4444F81C3C002DB1D0304601F0EAFFFB
:1044C000B5FBF0F303FB1055002DA8D154F8203CA8
:1044D000002BA4D0304601F081FFA3E744F8180C6C
:1044E000A4F1100006F048FB424639463046A84782
:1044F000ABE700BF400500204B1E012B73B50646FD
:104500000D460FD8FFF75EFF044668B9012D09D1AB
:1045100001AB01220DF10301304601F017FF019BB1
:10452000002BF5D102B070BD09F034FB04F12C0171
:1045300008B1012D05D1084602B0BDE87040FFF773
:1045400057BF034802B0BDE8704009F017BC00BF78
:10455000400500202DE9F74F064601911546984683
:1045600007F0EAFE044600285CD14FF02003EFF389
:10457000118A83F31288BFF36F8FDFF8B0B0002287
:104580000023584606F01CFB70B9DFF8A490A70181
:1045900009EB8414636813F1100F14D1019358468A
:1045A00006F0EAFA019B06E00134042C0BF1400B03
:1045B000E5D16FF00B038AF31188BFF36F8F1846B4
:1045C00003B0BDE8F08F019B2061C4E902350C9B6C
:1045D00063610D9BA36130466FF00F0309F807601C
:1045E000C4F83C80636001F055FF58B1304601F0DB
:1045F00051FFB5FBF0F303FB10551DB1E36B43F026
:104600000403E36318F0020F07D007F12C010948F7
:10461000494409F0B3FB0023CDE7304601F0DEFE4C
:104620000346C8E76FF00F03C9E700BFA40C0020E2
:10463000880C00204005002010B54FF02003EFF358
:10464000118483F31288BFF36F8FFFF7BBFE50B165
:104650004368103307D16FF08B03436000F12C01E6
:10466000034809F08BFB84F31188BFF36F8F10BDF3
:104670004005002070B50F4C04254FF02003EFF3E8
:10468000118683F31288BFF36F8F6368103307D1ED
:104690006FF08B030848636004F12C0109F06EFB96
:1046A00086F31188BFF36F8F013D04F14004E4D11C
:1046B00070BD00BF880C00204005002070B50A4C7A
:1046C0000A4E00253146204609F03BFB0122A4F1A9
:1046D00010001146013509F0F7FA042D04F14004E9
:1046E000F0D1002070BD00BFB40C0020F1430000E9
:1046F00070B504460E4601791248154607F0F8FDDC
:10470000E8B194F900206378002A11DB202B04D053
:10471000222B09D06FF0850005E0296807221038A8
:1047200007F0DCFE002070BD638800F8093CF9E763
:10473000212BEFD11038072328603360F2E76FF0A8
:104740001200F0E7880D002008B50146034807F085
:10475000DDFD10B1012300F8073C08BD880D0020E5
:104760000169012381F84B300B6833B191F849306E
:104770001BB10248083109F001BB70474005002019
:104780000169012381F84A300B6833B191F8483050
:104790001BB10248083109F0F1BA7047400500200A
:1047A0000D4A03460021A0F848101068C3F8940091
:1047B00090889279A3F8980083F89A2083F89C1047
:1047C00083F89B10A3F89E1083F8A010402203F1F9
:1047D0004C0007F08EBE00BF10E5000038B505693B
:1047E00095F89E0088B195F89F307BB985F84830E0
:1047F000D5F8900007F0D5FC0022044600230448B9
:1048000005F1180106F050FB204638BD0020FCE7FA
:104810004005002013B504698DF8071094F89E3008
:10482000A3B194F89F308BB90DF10701D4F8900033
:1048300084F84830012207F0B4FC014640B10D482D
:104840002122002304F1180106F02EFB02B010BD56
:10485000D4F89000012207F0F8FC0028F6D0D4F834
:10486000900001220DF1070107F09BFC0028E6D122
:10487000ECE700BF40050020F0B5D0F88C305B6855
:104880001B6A1F7D85B00546384607F055FD064674
:10489000E0B9A86F4FF4806203A907F0A1FC0446B9
:1048A000A0B18306A5F1180308BF00F1FF3485F815
:1048B00030600193064B0399009322460223384649
:1048C000FFF748FEA86F214607F0AAFC05B0F0BD2F
:1048D000D548000010B5012382F84830136814460B
:1048E0003BB192F84A3023B10A4802F1080109F0BD
:1048F00045FAD4F890309A681B699A4208D004F1BE
:1049000018010448BDE810400022002306F0CCBA8C
:1049100010BD00BF4005002010B504690023C4F895
:10492000A8300C4BC4F8A400596804F1A80269B976
:10493000C3E9002204F10800074909F002FA04F172
:104940001800064909F02BFA002010BD0A605A60D1
:10495000F0E700BF880D002063C300007948000025
:1049600073B5144602F14C060A1E05461FDDD4F845
:104970008C00314607F015FC012384F84930236888
:104980003BB194F84B3023B10E4804F1080109F013
:10499000F5F9D4F88C104B684A699A1ACB699B1ABE
:1049A0003F2B04D8012384F8A03002B070BD064B21
:1049B000009301940123402231462846FFF7CAFDA7
:1049C000F3E700BF400500206149000038B50D46FF
:1049D00001461E4807F080FC044680B30246691E6B
:1049E00052F8A4395B68052929D8DFE801F02028AE
:1049F0000320252914F8061C31B91B6A187BFFF720
:104A0000AFFF012304F8063C14F85C3CBBB901235A
:104A100004F85C3C54F8A43C8BB114F85A3C73B1D4
:104A2000A4F19C010A48BDE8384009F0A7B9BDE8E7
:104A300038401046FFF7B4BE012304F8053C38BDEA
:104A400014F8053C002BFAD00023F6E7880D00206F
:104A50004005002037B5094D0949002400944FF066
:104A6000FF334FF48062284606F0E6F905492846F0
:104A700009F096F8204603B030BD00BF4005002085
:104A8000C0300020C2ED0000F0B50B4C0B4D227081
:104A900001F01F01297000279A4200D9F0BD2E783D
:104AA000016901EBC6112678013206F1010C84F888
:104AB00000C0D2B28F55EFE77A1B00207B1B00208D
:104AC0002DE9F04F9DF824609DF82850062E1C46D5
:104AD0001DD1364BDFF8D8E0364F203906FB0131C7
:104AE000002311F8012B0DB1D243D2B29EF8006021
:104AF0000469013304EBC6143E78DBB206F1010C05
:104B0000062B87F800C0A255EBD1BDE8F08F102E20
:104B1000FBD1DFF8A480274E98F80030244F02EB39
:104B2000C3033370E3083B70244B203903EB0111BE
:104B30008A4600231AF801CB1DB16FEA0C0C5FFA0C
:104B40008CFCD0F8109097F800E0013309EBCE1EF2
:104B500096F80090DBB209F1010B082B86F800B043
:104B60000EF809C0E6D198F800C0083402EBCC0278
:104B7000C4F3C40432703C70CA5C0DB1D243D2B2EB
:104B800097F800C0046904EBCC1496F800C0013318
:104B90000CF1010E102B86F800E004F80C20EBD18C
:104BA000054A137801331370AFE700BFBBF3000071
:104BB0007B1B00207A1B00207C1B0020CBED00001B
:104BC0002DE9F74FDFF850809DF830909DF834A024
:104BD0000746084615461E460C4607F078FC00239B
:104BE00088F800300D4B1D700D4BF2081A7054FA06
:104BF00080FB5C4505D1002388F8003003B0BDE898
:104C0000F08FCDE9009A334614F8011B2A46384646
:104C1000FFF756FFEDE700BF7C1B00207A1B00204A
:104C20007B1B00202DE9F047DFF850C0144E002513
:104C3000AE4605F01F038CF8003086F800E0002334
:104C400001EBC51803F11002D2B29CF800700469A0
:104C500018F8039004EBC71401333778DBB207F17F
:104C6000010A934286F800A004F80790EDD1802B4A
:104C7000E8D10135082DDCD1BDE8F0877B1B002091
:104C80007A1B00202DE9F743164C876894F80090B2
:104C900088467F2300224FEAD901FFF7F5FE002660
:104CA0000623CDE9003632464B4641460546FFF71E
:104CB00087FF23781033DBB2402B23700A4B0BD1D4
:104CC0001A7826700AB901221A707B692178284661
:104CD00003B0BDE8F04318471B78002BF5D103B0B3
:104CE000BDE8F0837E1B00207D1B002010B5084C22
:104CF000216811B1074808F0DCFF4FF0FF324FF098
:104D0000FF33054805F004FF2060053010BD00BFEB
:104D1000900D0020300300205003002038B5094CCE
:104D2000094D2046294608F0C4FF05F188012046B8
:104D300008F0BFFF20460549BDE83840002201F0D9
:104D400063BF00BF30030020940D002050030020FB
:104D5000014910220A60704710ED00E072B6404031
:104D600080F31188BFF36F8FBFF34F8F30BF62B6F0
:104D7000BFF36F8F704700BF72B6494081F311884F
:104D8000BFF34F8F20BF80F3118862B6704700BF1A
:104D900040B2002807DB044A4109012300F01F004C
:104DA000834042F82130704700E100E040B2002823
:104DB0000CDB4309064900F01F002033012282402A
:104DC00041F82320BFF34F8FBFF36F8F704700BFB1
:104DD00000E100E0054B420900F01F0053F82220DB
:104DE000012303FA00F01040704700BF00E100E02B
:104DF00040B20028A8BF00F1604001F10101B8BF36
:104E0000064B4FEA4111ACBF00F5614000F00F00C6
:104E1000C9B2B4BF195480F80013704714ED00E014
:104E200030BFFFF7FDBF00BF0F4A08B50F4B22F0A0
:104E30007F029A60BFF34F8FBFF36F8FD3F8882044
:104E400022F47002C3F88820EFF3148323F00403E4
:104E500083F31488BFF36F8F05F0CEFB06F0BCFB25
:104E600000F020FA05F01AFC0010000000ED00E050
:104E7000094A0A49936809689967094958674B685C
:104E800043F080534B60002383F31188BFF36F8F8F
:104E90009368986F704700BFA81A0020C4E700000D
:104EA00000ED00E012498A684FF030001044EFF343
:104EB000098C80E8F01F202080F31288BFF36F8FE9
:104EC0000C4F4FF000668A698A603E60506F002385
:104ED000536780F3118804B5104600F029FABDE845
:104EE000044002F1300090E8F01F8CF3098870470D
:104EF000A81A002004ED00E01EF0040F0CBFEFF331
:104F00000880EFF30980816911F8021C0229FFD0A3
:104F100001B507F0CDFA01BD42F8203C009B42F8F4
:104F20001C3C0A49019B42F8183C029B42F8143C85
:104F300021F001014FF0807342F8043C42F8081C54
:104F40000023203A02654367704700BF31BA000072
:104F5000094A0346906870B113F1160F406E05D0F0
:104F6000A0F140029A4205D8834203D2814228BF71
:104F70000020704700207047A81A002008B5094B90
:104F80000D461446986000F0D3F9204685F3098851
:104F9000002163B681F31188BFF36F8F00220023D5
:104FA00006F046FDA81A002001B572B60B4A5069FA
:104FB00000281EBF0021516108F0F7FD62B6EFF333
:104FC0000580A0F110004FEAC0000549014409C95D
:104FD0009847BDE80140034908470000A81A00208F
:104FE00078E20000E94F0000044B99689869884214
:104FF00003D003494FF080520A607047A81A00207E
:1050000004ED00E070B5264B15469A6A12F0100FB9
:105010009A6A14BF1124102412F0080F9A6A18BF5C
:105020001224920706460AD5586B9A6A140634D59C
:1050300019B19A6A22F080029A62132401E06FF09B
:105040001500174B9A6A12F0010F9A6A18BF1424C0
:1050500012F0200F9A6A18BF1524D20602D49B6A58
:105060009B070AD50E4B5B68190506D53146FFF73D
:105070006FFF10B180F309880224094B9A6A9206E7
:1050800042BF5A6A22F400525A629A6A42F0FF0200
:105090009A6200232B70204670BD6FF01500CCE79C
:1050A00000ED00E0134B9A6A12F0007F9A6A14BF79
:1050B0001E201D2012F0807F9A6A18BF1F2012F454
:1050C000002F9A6A18BF212012F4802F9A6A18BF05
:1050D000222012F4003F9A6A18BF232012F4803F66
:1050E0009A6A6FEA02426FEA12429A6218BF24205B
:1050F000704700BF00ED00E010B5194B0246986AFA
:105100009C6A10F4805F14BF1720162014F4006FFF
:105110009C6A18BF1820A40509D5986B986A0004EA
:1051200004D51AB19A6A22F400429A6219200C4BF3
:105130009A6A12F4806F9A6A18BF1A20D2050CD4AA
:105140009B6A13F4005F18BF1C20054A936A43F45E
:105150007F43936200230B7010BD1B20F5E700BF57
:1051600000ED00E070B5454B5B688AB00546C3F3BF
:105170000803002686F31188BFF36F8F02F07F408B
:10518000B0F17F4F11D102F00C0008280DD01007AC
:105190004CBF0D4601260022033B8DF80720032B50
:1051A00005D8DFE803F01E5D615A3546F3E70024B9
:1051B0009DF807309BB92022294602A807F08EF9F6
:1051C000099B002E54D0C3F3080222B96FEA53237F
:1051D0006FEA4323099302A9204607F067F90AB052
:1051E00070BD264BDA6A9107E1D4DA6A002ADEDB69
:1051F000DA6A5200DBD55A69A96942F480725A61B1
:10520000BFF34F8FBFF36F8F5A6931F8021C22F43E
:1052100080725A61BFF34F8FBFF36F8F4DF60272EA
:1052200091420AD09A6AD2B24AB10DF10702012125
:105230002846FFF7E7FE0446BAE72C68B8E79A6A03
:1052400012F47F4F05D00DF107010120FFF754FF45
:10525000F1E79B6AB3F5803FA9D3FFF723FFEAE7A5
:105260000DF107020021E3E70DF107010020EDE752
:1052700023F4FF7323F00103ACE700BF00ED00E06F
:10528000024A536943F010035361704700ED00E098
:10529000EFF30880EFF3098101B57246FFF762FF73
:1052A00001BD00BF044800232021C2180133302B68
:1052B00082F80013F9D1704700E100E0FEF7BAF977
:1052C000202080F3118808484FF40461401880F3CF
:1052D0000988EFF314800221084380F31488BFF398
:1052E0006F8FFFF7A1FD000040390020084B9B683D
:1052F00083420BD1EFF3058343B1064B5A6842F06A
:1053000080525A605A6A22F400425A6206F0F2B899
:10531000A81A002000ED00E0024B034A03480121D7
:1053200000F070B8000004200000002074E50000C8
:10533000426E054B403A1A60044A4021C3E901120B
:105340001846012100F068B8A40E002000000B15DB
:10535000F0B5204E00258D4239DA446874B353B15C
:1053600004F1FF3C14EA0C0F2FD11F2C2DD9076834
:105370001CEA070F29D1202C0768D0F808C05FFA73
:1053800082FE1ED9B4F1004F1DD8013CB4FA84F45A
:10539000C4F11F046400BEF1070F4CEA040C14D8DA
:1053A00027F01F04144344F01004C6F89820C6F8F0
:1053B0009C404CF00104C6F8A040013201350C308D
:1053C000C9E70824E7E73E24E5E76FF01502104639
:1053D000F0BD00BF00ED00E0044B0522C3F89420AF
:1053E000BFF34F8FBFF36F8F704700BF00ED00E03A
:1053F000BFF35F8F024B0022C3F89420704700BFB9
:1054000000ED00E010B5034C01232278FFF7A0FF68
:10541000207010BD7F1B002008B5094A00231278B8
:10542000FFF796FF10F1160F02D0064A072800DD9D
:1054300008BDC2F89800C2F8A0300130F6E700BFFE
:105440007F1B002000ED00E014490868082810B513
:1054500021D8FFF7CDFF124C49680022904201F19C
:105460000C0105D10F4B1870FFF7B6FF002010BDDF
:10547000C4F8982051F80C3C23F01F03134343F069
:105480001003C4F89C3051F8043C43F00103C4F805
:10549000A0300132E2E74FF0FF30E8E780E500009E
:1054A00000ED00E07F1B0020014B1860704700BF3B
:1054B0001C0100200E4A0123C2F840354FF0804203
:1054C0004FF08051C2F87835D1F83001082808D162
:1054D000D1F83411052904D80648415C09B1C2F855
:1054E00038364FF080430122C3F8802500207047F2
:1054F00000E001400FF6000020B1034B800143F0B3
:1055000001031847704700BF20E500004FF08043BB
:10551000D3F84036DB072ED54FF01023D3F80433F1
:1055200003F00703072B26D1144A0123C2F80435E0
:10553000D2F80034002BFBD04FF01021D1F8043307
:1055400023F0070343F00403C1F804330023C2F837
:1055500004350A4AD2F80034002BFBD0BFF34F8F3A
:105560000749084BCA6802F4E0621343CB60BFF3FB
:105570004F8F00BFFDE70020704700BF00E00140F3
:1055800000ED00E00400FA0570B50023051D43603E
:105590000126A3F1FE330446467383602946006862
:1055A00006F0CEFFB0B9206B06F0EDFF02232068B5
:1055B0006372294606F0C4FF60B9E0672674206B69
:1055C00006F0E1FF044B636020682946BDE87040A7
:1055D00006F0B6BF70BD00BF801A060070B50D4D55
:1055E0000446206807F08FF838B17D207D3D08F033
:1055F000F9FC002DF5DC01200BE00C266FF07300A8
:10560000013E04D0204607F0B3F80128F8D0002866
:10561000E7D170BD8096980030B58BB005460C463A
:105620001822002103A806F064FF372301931123F9
:105630002404079328680294C823002201A909932F
:1056400007F05AF888B9079B012B03D1094B039A3D
:10565000134063B995F84C302BB9039B13F0200F1E
:1056600008BF6FF085000BB030BD0120FBE76FF085
:105670000400F8E70880F9FD2DE9F04390F84C307C
:1056800091B00546002B00F06B81002107F05DF919
:105690000446002840F0EC80EE6F85F87900C6F3F0
:1056A000C006B607642008F09DFC2923CDE9073623
:1056B00014230D93C8230F9300212846FFF7ACFF56
:1056C0000128024600F09180002840F04E812868B1
:1056D00007A907F02CF90246002840F0468195F80A
:1056E0004C20002E00F04381099B002A75D0D8077A
:1056F00076D43146284607F028F90446002840F0C1
:10570000B7802B6D590042BFEA6F42F00202EA6790
:10571000DA0142BFEA6F42F02002EA679B0342BF10
:10572000EB6F43F04003EB67284607F097F8044619
:10573000002840F09D80284607F059F804460028CC
:1057400040F096802E46AA6A8B4B9A4294BF46F848
:10575000042F46F8043F2868314607F0EFF8044666
:10576000002840F085800146242207A806F0C1FEEB
:105770002146182201A806F0BCFE696E2846FFF7F4
:105780004BFF0446002873D13323CDE907301123A2
:105790000D93C8230F934FF008080123CDE902832E
:1057A000286842F2107305F1800701AA07A905973E
:1057B000069307F0BCF80446002859D1D5F88000BC
:1057C00001BA10F4000F00F00F02C9B215D1012A7E
:1057D00052D0022A15D1042315E0002BC0F2C38059
:1057E0004FF4A470002105F04BFE0134B4F57A7F2C
:1057F0007FF462AF6FF073043AE0012A3CD0022AD2
:105800003CD00AB901232B67440542BFEB6F43F03C
:105810000403EB67C80742BFEB6F43F48073EB6789
:10582000890742BFEB6F43F08003EB67E96F11F02C
:10583000020418D12146182209A8D5F800904FF487
:10584000007806F056FE1023CDE90738C8230F93E1
:105850002246112307A948460D9307F068F804462D
:1058600030B9C5F86C8095F836309B0608D4002412
:10587000204611B0BDE8F0830223C4E74346C2E7E7
:105880002B6F012BF3D96B6D002BF0D03B4BAB652D
:1058900001246C671822002109A8D5F8008006F0C1
:1058A00028FE1022002101A806F023FE344B0597A4
:1058B0004FF0060CCDE907C311230D93C8230F93B6
:1058C0004023CDE9023401AA42F2107307A94046F1
:1058D000069307F02CF804460028C9D195F89030BB
:1058E0006A6F03F00F0393422ED0EB6F5C07BED5B7
:1058F0002422002107A806F0FCFD696E2846FFF768
:105900008BFE04460028B3D10623079301230D9391
:10591000C8230F93024602232868089307A907F0BB
:1059200006F804460028A3D10D9B012B04D1154C89
:10593000099B1C40002C9BD104232868AB72314684
:1059400006F0FCFF044693E70423EB72AB6D286876
:105950006B60314606F0F2FF04460028C5D087E7A9
:105960006FF0850484E72B65CBE6144680E7002AB8
:105970003FF4C7AEBDE600BF40787D0180F0FA027B
:10598000F1FFFF800880F9FD020600F07F0312D5C9
:10599000082B05D1010700F00F0306D50E4870470C
:1059A00010F0780F12D100F00F034C2000EB4310E1
:1059B0000A4B18447047082B05D1020700F00F036B
:1059C00006D50748704710F0780FF6D000207047D2
:1059D000044800EB43107047FC0F0020B00E00207D
:1059E0001C1100201C1000200149024808F0C6B913
:1059F000D80E0020E00500200146014808F059B902
:105A00004003002002480022002305F081B800BFB7
:105A10004003002010B5054CFFF7F4FF20B1011D35
:105A2000204608F08EF8F7E710BD00BF0003002005
:105A300007B500230E48002201A904F0AFFE90B183
:105A4000FFF7E8FF0A480022002301A904F0A6FEA0
:105A500038B90198042340600374FFF7CDFFFFF7C6
:105A6000C3FF002001E00198406003B05DF804FB33
:105A700000030020022810B511D8094B1C5CFFF769
:105A8000D7FF60B1002202740472FFF7B5FF054B27
:105A900093F824301BB1BDE81040FFF7A5BF10BD3F
:105AA00027F60000B00E0020F8B587780646384685
:105AB000FFF76AFF3B06F578044612D5002D43D167
:105AC000FFF7B6FF034600283ED00122A5770274F7
:105AD000032202739C60FFF78FFFBDE8F840FFF7D9
:105AE00083BF4DB1012D2FD1FFF7A2FF034658B35D
:105AF000657705740573EDE7FFF79AFF20B3B27879
:105B0000124B12F0800F02F0080111D041B1D3F80E
:105B1000A836E36001230374022303738460DAE789
:105B200002F00F02142101FB0233D3F80836F0E72C
:105B300011B1D3F8A837ECE702F00F02142101FBF2
:105B40000233D3F80837E4E7F8BD00BF0070024025
:105B500013B5124804F014F8114B98421AD11148A9
:105B600003F02CF80024104803F06EF80F49104899
:105B700000944FF0FF334FF4806205F05DF90D495A
:105B80000B4808F00DF80C480C4908F0DAF82046EC
:105B900002B010BD6FF00400FAE700BF015C000026
:105BA0000000AD0B2AF60000A0E500000035002043
:105BB000E00500201CF60000D80E0020855D0000E6
:105BC00010B50E49BFF35B8F002351E8002F012A67
:105BD00003D141E800300028F7D1BFF35B8F0CD12F
:105BE00051F8044C1439204606F0ECF9783004D111
:105BF0002046BDE8104006F0C0B910BDD00E002010
:105C0000F0B5064689B01422002103A806F071FC05
:105C10003378013B052B21D8DFE803F07A03141415
:105C20006A1603238DF814300024FFF701FF0346A2
:105C3000A0B1047400F10802DDE9050182E8030067
:105C400018461DE00423EDE7B7783846FFF79CFEC1
:105C5000837A044623B1013B022B43D909B0F0BD3E
:105C60003B06F57813D5002DF8D1FFF7E1FE03468A
:105C70000028F3D00122A5770274032202739C60EE
:105C8000FFF7BAFE09B0BDE8F040FFF7ADBE55B171
:105C9000012DE3D1FFF7CCFE03460028DED0657767
:105CA00005740573EBE7FFF7C3FE07460028D5D060
:105CB0000123037402230373846004F10C01B078A0
:105CC00007F0B7FE134AE168B2F88C328B4206D96E
:105CD0005B1AA2F88C3204F08FF93846D0E7A2F8AC
:105CE0008C52FAE7304609B0BDE8F040FFF7DCBE61
:105CF00001A804F05BF99DF80530052B04D19DF84F
:105D0000043013F0600FA9D0034B059301248CE7F6
:105D100002248AE7B00E00201C10002038B50024B1
:105D200064F07F00C0B2FFF72FFE013406F025FEBD
:105D3000082CF5D10E4D0024E0B2FFF725FE0369D3
:105D400003B90561013406F018FE082C05F1400581
:105D5000F2D1084806F011FE074BD3F87C2212B9A5
:105D6000064AC3F87C22064806F007FE002038BD2C
:105D700040150020FC0F0020B00E00204011002034
:105D80001C1100202DE9F043A74CDFF8A08285B05C
:105D90000746FFF737FE10B905B0BDE8F08394F869
:105DA0002530027C00F104093BB9002A00F088800C
:105DB0009E48494607F0C5FEEBE7042A44D8DFE8D1
:105DC00012F07F000500020118014101037B856884
:105DD000032B39D8DFE803F0023F5C616E690822CB
:105DE0000021304606F085FB914B9248D3F8802481
:105DF0003270D3F884247270D3F88824D3F88C14CA
:105E000042EA01227280D3F89024D3F8941442EA33
:105E10000122B280D3F89824D3F89C3442EA0323B9
:105E20000822F3803146EA6006F058FB2B68687A56
:105E30000021984796F90030002B08DBF38833B136
:105E4000A4F88C3204F0D8F849464046B2E7002363
:105E5000A4F88C32F8E76B7F002BF5D02B7F002B5A
:105E6000F2D000266E774FF0FF3273482E774FF056
:105E7000FF3306F095FD6B6901936B68CDE902363F
:105E800001A9687A03F0BEFE6B4806F08BFDDBE7E4
:105E90002B680121687A9847D6E7AB7A6BB9EB7F1C
:105EA0005BB965484FF0FF324FF0FF3306F078FDE5
:105EB00004F0D2F8604806F075FD2B680221E9E78E
:105EC000027A042AC0D8DFE802F05903236773007E
:105ED00003F020FE05460028B6D103F057FDBFF3BE
:105EE0005B8F5649012351E8002F002A03D141E876
:105EF00000300028F7D1BFF35B8FA5D141F8085CD3
:105F000041F8105CE0696361143905F0DEFF9BE73E
:105F1000002565F07F00C0B2FFF736FD037A13B1AC
:105F2000407A04F049FA0135082DF2D194F8543141
:105F30001BB194F8550104F03FFA0025E8B2FFF7D1
:105F400023FD037A13B1407A04F036FA0135082DA7
:105F5000F4D194F874321BB194F8750204F02CFA61
:105F6000002003F0B9FD012384F825302368002BBD
:105F70003FF46AAF00210220984765E7002584F8C6
:105F8000255004F0D5F9FFF71BFE2368002B3FF4E2
:105F90005BAF29460420EFE7002B3FF455AF03F039
:105FA000C3FD2368002B3FF44FAF00210520E3E73A
:105FB0002268002A3FF448AF002B3FF445AF002190
:105FC0000620904740E707F110054FF0FF334FF0F0
:105FD000FF32284606F0E4FCFFF7A0FE284606F054
:105FE000E1FC57F8283C002B3FF42EAF00210120A4
:105FF000C2E794F874327BB1012584F8895284F8A1
:106000008852FFF715FD38B10D4A0574057382609B
:10601000FFF7F2FCFFF7E8FC57F8283C002B3FF4B1
:1060200013AF00210A20A7E7B00E002000030020D4
:1060300000700240B40E0020E80E0020D00E0020B8
:106040001C11002007F087FB04F072F903F094FCA8
:10605000FFF7E0FCFFF762FE07F076FB014803F074
:106060008FFDF1E6015C000038B5164D95F824402F
:106070002CBB05F1380007F0A7FD204600F010FB0F
:1060800022460121E8612720FEF7B2FE07F05CFB03
:10609000FFF744FE044610B9012385F824300A4B6B
:1060A0001B680BB1FFF7A0FC4FF08043D3F83834E6
:1060B000DB0702D50020FFF7DDFC204638BD0024B9
:1060C000FBE700BFB00E002040030020074B93F811
:1060D00024203AB193F82530002B14BF00206FF034
:1060E000120070476FF01200704700BFB00E002022
:1060F00038B5104B93F824300446C3B105782846D0
:10610000FFF742FC10B96FF0150038BD45722379D6
:106110008372638843602078618810F0080F02D191
:106120004B1E0B42EFD107F07FFC0020EDE76FF034
:106130001200EAE7B00E002038B5124B93F8242085
:106140000546CAB193F82530B3B1FFF71DFC0446EC
:10615000A8B1837A012B12D007D9023B012B07D9B2
:106160006369A3610020E06038BD03F07DFFF7E7BD
:10617000284603F0EDFEF3E76FF01200F4E76FF04E
:106180001500F1E7B00E002038B50E4B93F824202F
:10619000054682B193F825306BB1FFF7F5FB68B186
:1061A00015F008040AD1284603F0F4FE284604F04E
:1061B00057F9204638BD6FF01200FBE76FF015006D
:1061C000F8E700BFB00E002038B50C4B93F8242040
:1061D00005460C4662B193F825304BB1FFF7D4FB6E
:1061E00048B144B1284603F0BBFE2070002038BD02
:1061F0006FF01200FBE76FF01500F8E7B00E00201B
:1062000070B5134E96F824300446C3B1FFF7BCFBBB
:106210000546B8B1230705D4204603F0BBFE20464F
:1062200004F01EF92B7A83B901232B7296F82530DE
:106230000BB9002070BD204604F0BEF8F9E76FF0FE
:106240001200F7E76FF01500F4E76FF07700F1E761
:10625000B00E00202DE9F043DFF8E4801E4698F8E8
:10626000243085B0074689461546002B61D098F842
:106270002530002B5DD003065ED5FFF785FB044675
:10628000002859D0037A002B56D04FF0FF334FF03F
:10629000FF3208F1380006F083FBA37F4BB108F111
:1062A000380006F07FFB6FF00A04204605B0BDE819
:1062B000F083A37AC5B13BB30123A3774FF0000865
:1062C00001A93846CDE90195CDF80C8003F09AFC80
:1062D0001C4B984229D084F81E801EBB6FF004042A
:1062E000194806F05FFBE0E7E27F02B1E577002B9B
:1062F000E2D103F0C1FEB842DED003F0ADFE124899
:1063000006F050FB0024D0E7B8F80A30AB42F0D9D1
:106310006268B5FBF2F302FB1353002BE9D10123B2
:10632000E377E6E7C6F80080D8E706B135600024D9
:10633000D6E76FF01204B8E76FF01504B5E700BFB9
:10634000B00E00200000AD0BE80E00202DE9F0415A
:106350001D46204B174693F824200E46002A33D0C2
:1063600093F8253083B3030631D401B97FBBFFF71F
:106370000BFB044658B3037A4BB34FF0FF33164878
:106380004FF0FF3206F00CFBE3689F42B84628BF8F
:10639000984646B93FB905B12B600F4806F002FB9D
:1063A0000020BDE8F081A1694246304606F096F82B
:1063B000A3694344A361E368A3EB0803E360002DF2
:1063C000EBD0C5F80080E8E76FF01200E9E76FF066
:1063D0001500E6E7B00E0020E80E002070B51E4D57
:1063E00095F82420034682B395F825206AB31B064E
:1063F0002ED4FFF7C9FA044650B3037A43B34FF0E3
:10640000FF334FF0FF3205F1380006F0C9FAE368B8
:10641000B3B9012663692677A361637F83B1FFF770
:1064200007FB30B905F1380006F0BCFA6FF00B003D
:1064300070BD067484600673FFF7DEFAFFF7D4FAC6
:10644000064806F0AFFA0020F2E76FF01200EFE71F
:106450006FF01500ECE700BFB00E0020E80E002042
:1064600010B5084B93F824300C462BB1FFF78CFA8B
:1064700028B10460002010BD6FF01200FBE76FF040
:106480001500F8E7B00E0020014B1860704700BF00
:10649000B00E002008B5074B93F8243023B1FFF766
:1064A00073FA20B1406808BD6FF01200FBE76FF08F
:1064B0001500F8E7B00E0020084B70B5C31A0D4662
:1064C00007499B10044659430648402206F0C8FA83
:1064D0002B4601462046BDE870401847541700205F
:1064E000B76DDBB6C4E1000073B50C4C0C4A402319
:1064F000041B00930D460B460A49A410614306464F
:10650000094806F0DAFA011E05DA30462B4602B0D9
:10651000BDE87040184702B070BD00BF541700209E
:1065200027CB0000B76DDBB6C4E10000002270B5D8
:10653000012104461046FEF75BFC0F4801F084FF82
:106540000E4B984215D101F08FFF26690C49304659
:1065500005F0A8FC00280BDB0125356424690849F7
:1065600004F11C0005F09EFC002801DBE56400201E
:1065700070BD6FF00400FBE7B96500000000AD0BD3
:10658000A4E5000070B501460C2309484B43C4182C
:10659000D4E90E56403300221844A26306F04DFAA7
:1065A0002DB132462B460348BDE87040184770BDF8
:1065B00054170020C4E1000010B1012804D0704736
:1065C000034B1B6C5B0701D1FFF7DCBF704700BFBB
:1065D0005417002008B54FF02003EFF3118183F327
:1065E0001288BFF36F8F124A136843F002001060E5
:1065F000DA0708D481F31188BFF36F8F0120BDE85B
:10660000084006F0FFBF4FF08043D3F80C24D3F8C6
:106610000C34DB07EED5074806F00FFA81F311883A
:10662000BFF36F8F0020BDE80840FFF7ABBF00BF8E
:10663000A4170020941700201FB500220123CDE9E4
:106640000223094ACDF800D06B46CDF804D006F0FD
:1066500063FA002805DB4FF480420023684604F00B
:10666000AFFA05B05DF804FB45CB000010B54FF064
:106670002003EFF3118483F31288BFF36F8F074A6F
:10668000136823F00201DB07116002D4012006F039
:10669000F5FF84F31188BFF36F8F10BDA41700209E
:1066A000024AC3B21C2003FB00207047541700208D
:1066B0002DE9F0413849BFF35B8F0746012251E8CD
:1066C000003F41E800200028F9D1BFF35B8F33B9C8
:1066D000324933484B60CB608A6005F0F6FB7B1E85
:1066E000012B2BD8012F07D14FF08043D3F81C3456
:1066F00003F00303012B21D007F04CFA0546F8B94B
:10670000284B1B78E3B14FF080430222C3F80823E3
:106710000646DFF894804FF08044D4F81824D4F86B
:106720001834D20316D503F00303012B01D0012F37
:1067300010D15DB386F31188BFF36F8FBDE8F08190
:106740004FF02003EFF3118683F31288BFF36F8FAE
:106750000125DEE7ADB13046FEF70EFBD4F8183563
:10676000002BDAD1D4F80421002AD6D0C4F80431A1
:10677000D4F804310123C4F81835C8F88031A36077
:10678000CBE70021212004F07BFEE7E74FF08043B8
:106790000222C3F80423D1E750170020401700203D
:1067A000701700202C20002000E100E002488368E0
:1067B000DB6A03B11847704700E200000146024857
:1067C00083685B68184700BF00E2000008B507480F
:1067D00007F06BF938B10648FEF766FE0448FCF78F
:1067E00055FA002008BD6FF01200FBE700E2000040
:1067F00069CB000038B504460D460820FFF7DEFFE0
:106800003DB92020FFF7DAFFBDE838400820FFF748
:10681000D5BF0A4805F0FFF82544EDB2607804F8CA
:10682000010BFFF7CBFFE3B2AB42F7D12020FFF71C
:10683000C5FFBDE83840024805F0EDB851F600004C
:1068400055F600002DE9FF4E994E9A4FB36801931B
:10685000019B5B6C002B40F0BE81B468236C002B65
:1068600040F0BF81636B33B9A3694BB9FFF79EFF5B
:1068700004B0BDE8F08E304698470028E8D0F3E732
:1068800001220DF10F01304698470028EEDB3B68EE
:1068900093B3BFF35B8F884C2368BFF35B8F13F018
:1068A000020F234600F0D5809DF80F50D7F80090D6
:1068B000BFF35B8F53E8002F22F0040143E8001080
:1068C0000028F7D1BFF35B8F510729D5A5F1300B15
:1068D000BBF1090FDFF8E4A118D90123CAF8003091
:1068E000482D5BD8422D5BD9433D052D58D8DFE8B4
:1068F00005F0756457935784714B18680022002384
:1069000004F006F938600028C3D1B1E70821204619
:1069100006F01BF96B4BCAF800B000221A6097E72B
:10692000BFF35B8F2368BFF35B8F1A07D8D5A5F140
:106930003003092B10D8BFF35B8F2368BFF35B8F45
:1069400013F0100F14BF5F4A5C4A13680A2101FB61
:106950000353303B13607BE73B2D18D0BFF35B8FB5
:1069600054E8003F23F0080344E80032002AF7D13E
:10697000BFF35B8FBFF35B8F54E8003F23F010033E
:1069800044E80032002AF7D1BFF35B8FA8E710215B
:10699000204606F0DAF8C306E0D459E77E2D44D04D
:1069A000BFF35B8F54E8003F23F0020344E800325A
:1069B000002AF7D1BFF35B8F4AE743483F4A037889
:1069C00011688B42ECD3414D2A785B1A52FA81F25E
:1069D00003703F482A7005F01EF8E1E73B48374B4B
:1069E000027819688A42DBD3CBB2D21A0270364AD7
:1069F0001078034413703748EDE7334D29780029A8
:106A0000CED0334805F007F8304A137829780B4484
:106A1000137000232B70C3E72C4D29780029BFD0B9
:106A20002C4804F0F8FF284AEFE7284D2B78002B7C
:106A3000B6D02848012104F0EEFF234A29781078C7
:106A400009F105090139C9B248442970FFF7D2FE9E
:106A5000A6E7BFF35B8F54E8003F23F0010244E850
:106A600000210029F7D1BFF35B8F13F0010F9DF8D0
:106A70000F500BD05B2D7FF4EBAE0221204606F0C9
:106A800064F80421204606F060F8E1E6A5F1200351
:106A90005E2B6ED90D2DDFF840901FD8072D2ED913
:106AA000083D052D2BD8DFE805F01D53342A2A3880
:106AB00000E20000A8170020B4170020B017002043
:106AC000C0170020AC170020821B0020811B002073
:106AD00059F600005FF60000801B00201B2D13D02C
