:020000040800F2
:10000000403F0020FD300008DB7F0008E930000899
:10001000E9300008E9300008E9300008000000007D
:10002000000000000000000000000000F93100089E
:10003000E93000080000000091310008F54E00088A
:10004000B5330008B5330008B5330008B5330008F0
:10005000B5330008B5330008B5330008B5330008E0
:10006000B5330008B5330008B5330008B5330008D0
:10007000B5330008B5330008B5330008B5330008C0
:10008000B5330008B5330008B5330008B5330008B0
:10009000B5330008B5330008B5330008B5330008A0
:1000A000B5330008B5330008B5330008B533000890
:1000B000B5330008B5330008B5330008B533000880
:1000C000B5330008B5330008B5330008B533000870
:1000D000B5330008B5330008B5330008B533000860
:1000E000B5330008B5330008B5330008B533000850
:1000F000B5330008B5330008B5330008B533000840
:10010000B5330008B5330008B5330008B53300082F
:10011000B5330008B5330008B5330008B53300081F
:10012000B5330008B5330008B5330008B53300080F
:10013000B5330008B5330008B5330008B5330008FF
:10014000B5330008B5330008B5330008B5330008EF
:10015000B5330008B5330008B5330008B5330008DF
:10016000B5330008B5330008B5330008B5330008CF
:10017000B5330008B5330008B5330008B5330008BF
:10018000B5330008B5330008B5330008B5330008AF
:04019000B53300087B
:1001940081F0004102E000BF83F0004330B54FEA34
:1001A40041044FEA430594EA050F08BF90EA020FA1
:1001B4001FBF54EA000C55EA020C7FEA645C7FEA34
:1001C400655C00F0E2804FEA5454D4EB5555B8BF57
:1001D4006D420CDD2C4480EA020281EA030382EAC8
:1001E400000083EA010180EA020281EA0303362D5A
:1001F40088BF30BD11F0004F4FEA01314FF4801C2D
:100204004CEA113102D0404261EB410113F0004F3E
:100214004FEA03334CEA133302D0524263EB4303F5
:1002240094EA050F00F0A780A4F10104D5F1200E93
:100234000DDB02FA0EFC22FA05F2801841F10001EE
:1002440003FA0EF2801843FA05F359410EE0A5F1C2
:1002540020050EF1200E012A03FA0EFC28BF4CF0F3
:10026400020C43FA05F3C01851EBE37101F00045A9
:1002740007D54FF0000EDCF1000C7EEB00006EEBB6
:100284000101B1F5801F1BD3B1F5001F0CD3490840
:100294005FEA30004FEA3C0C04F101044FEA445297
:1002A40012F5800F80F09A80BCF1004F08BF5FEA1E
:1002B400500C50F1000041EB045141EA050130BDFE
:1002C4005FEA4C0C404141EB0101013C28BFB1F510
:1002D400801FE9D291F0000F04BF01460020B1FA5B
:1002E40081F308BF2033A3F10B03B3F120020CDA2E
:1002F4000C3208DD02F1140CC2F10C0201FA0CF00C
:1003040021FA02F10CE002F11402D8BFC2F1200C70
:1003140001FA02F120FA0CFCDCBF41EA0C01904026
:10032400E41AA2BF01EB0451294330BD6FEA04046F
:100334001F3C1CDA0C340EDC04F11404C4F120025A
:1003440020FA04F001FA02F340EA030021FA04F36C
:1003540045EA030130BDC4F10C04C4F1200220FAC3
:1003640002F001FA04F340EA0300294630BD21FA01
:1003740004F0294630BD94F0000F83F4801306BFC7
:1003840081F480110134013D4EE77FEA645C18BFBB
:100394007FEA655C29D094EA050F08BF90EA020F52
:1003A40005D054EA000C04BF1946104630BD91EA4A
:1003B400030F1EBF0021002030BD5FEA545C05D14D
:1003C4004000494128BF41F0004130BD14F580048C
:1003D4003CBF01F5801130BD01F0004545F0FE4100
:1003E40041F470014FF0000030BD7FEA645C1ABF35
:1003F400194610467FEA655C1CBF0B46024650EA6C
:10040400013406BF52EA033591EA030F41F4002197
:1004140030BD00BF90F0000F04BF0021704730B51D
:100424004FF4806404F132044FF000054FF00001F2
:1004340050E700BF90F0000F04BF0021704730B5B3
:100444004FF4806404F1320410F0004548BF404288
:100454004FF000013EE700BF42004FEAE2014FEADD
:1004640031014FEA02701FBF12F07F4393F07F4FB8
:1004740081F06051704732F07F4208BF704793F0BB
:100484007F4F04BF41F40021704730B54FF46074CE
:1004940001F0004521F000411CE700BF50EA0102D1
:1004A40008BF704730B54FF000050AE050EA01027A
:1004B40008BF704730B511F0004502D5404261EBEA
:1004C40041014FF4806404F132045FEA915C3FF42B
:1004D400D8AE4FF003025FEADC0C18BF03325FEAC8
:1004E400DC0C18BF033202EBDC02C2F1200300FA79
:1004F40003FC20FA02F001FA03FE40EA0E0021FA9E
:1005040002F11444BDE600BF70B54FF0FF0C4CF48B
:10051400E06C1CEA11541DBF1CEA135594EA0C0F3D
:1005240095EA0C0F00F0DEF82C4481EA030621EA78
:100534004C5123EA4C5350EA013518BF52EA0335B3
:1005440041F4801143F4801338D0A0FB02CE4FF065
:100554000005E1FB02E506F00042E0FB03E54FF095
:100564000006E1FB03569CF0000F18BF4EF0010E8D
:10057400A4F1FF04B6F5007F64F5407404D25FEA89
:100584004E0E6D4146EB060642EAC62141EA55513C
:100594004FEAC52040EA5E504FEACE2EB4F1FD0C7E
:1005A40088BFBCF5E06F1ED8BEF1004F08BF5FEAFC
:1005B400500E50F1000041EB045170BD06F00046AE
:1005C40046EA010140EA020081EA0301B4EB5C045B
:1005D400C2BFD4EB0C0541EA045170BD41F4801153
:1005E4004FF0000E013C00F3AB8014F1360FDEBF78
:1005F400002001F0004170BDC4F10004203C35DA54
:100604000C341BDC04F11404C4F1200500FA05F3D6
:1006140020FA04F001FA05F240EA020001F0004277
:1006240021F0004110EBD37021FA04F642EB0601ED
:100634005EEA430E08BF20EAD37070BDC4F10C0417
:10064400C4F1200500FA04F320FA05F001FA04F2DB
:1006540040EA020001F0004110EBD37041F10001C7
:100664005EEA430E08BF20EAD37070BDC4F12005D2
:1006740000FA05F24EEA020E20FA04F301FA05F23A
:1006840043EA020321FA04F001F0004121FA04F2E2
:1006940020EA020000EBD3705EEA430E08BF20EAB2
:1006A400D37070BD94F0000F0FD101F000464000EC
:1006B40041EB010111F4801F08BF013CF7D041EA6E
:1006C400060195F0000F18BF704703F00046520072
:1006D40043EB030313F4801F08BF013DF7D043EA43
:1006E4000603704794EA0C0F0CEA135518BF95EAF9
:1006F4000C0F0CD050EA410618BF52EA4306D1D180
:1007040081EA030101F000414FF0000070BD50EA9E
:10071400410606BF1046194652EA430619D094EA28
:100724000C0F02D150EA013613D195EA0C0F05D112
:1007340052EA03361CBF104619460AD181EA030166
:1007440001F0004141F0FE4141F470014FF000001E
:1007540070BD41F0FE4141F4780170BD70B54FF0B9
:10076400FF0C4CF4E06C1CEA11541DBF1CEA135539
:1007740094EA0C0F95EA0C0F00F0A7F8A4EB05041B
:1007840081EA030E52EA03354FEA013100F0888012
:100794004FEA03334FF0805545EA131343EA1263DB
:1007A4004FEA022245EA111545EA10654FEA002690
:1007B4000EF000419D4208BF964244F1FD0404F549
:1007C400407402D25B084FEA3202B61A65EB0305A5
:1007D4005B084FEA32024FF480104FF4002CB6EB62
:1007E400020E75EB030E22BFB61A754640EA0C00E2
:1007F4005B084FEA3202B6EB020E75EB030E22BF22
:10080400B61A754640EA5C005B084FEA3202B6EB62
:10081400020E75EB030E22BFB61A754640EA9C0021
:100824005B084FEA3202B6EB020E75EB030E22BFF1
:10083400B61A754640EADC0055EA060E18D04FEAAF
:10084400051545EA16754FEA06164FEAC30343EA4F
:1008540052734FEAC2025FEA1C1CC0D111F4801F1C
:100864000BD141EA00014FF000004FF0004CB6E715
:1008740011F4801F04BF01430020B4F1FD0C88BFB4
:10088400BCF5E06F3FF6AFAEB5EB030C04BFB6EBBF
:10089400020C5FEA500C50F1000041EB045170BDB2
:1008A4000EF0004E4EEA113114EB5C04C2BFD4EBDF
:1008B4000C0541EA045170BD41F480114FF0000E63
:1008C400013C90E645EA060E8DE60CEA135594EADF
:1008D4000C0F08BF95EA0C0F3FF43BAF94EA0C0FE2
:1008E4000AD150EA01347FF434AF95EA0C0F7FF457
:1008F40025AF104619462CE795EA0C0F06D152EAAB
:1009040003353FF4FDAE1046194622E750EA41068E
:1009140018BF52EA43067FF4C5AE50EA41047FF49F
:100924000DAF52EA43057FF4EBAE12E74FEA410202
:10093400B2F1E04324BFB3F5001CDCF1FE5C0DD939
:1009440001F0004C4FEAC0024CEA5070B2F1004F83
:1009540040EB830008BF20F00100704711F0804F86
:1009640021D113F13872BCBF01F00040704741F44B
:1009740080114FEA5252C2F11802C2F1200C10FA4F
:100984000CF320FA02F018BF40F001004FEAC12333
:100994004FEAD32303FA0CFC40EA0C0023FA02F3D7
:1009A4004FEA4303CCE77FEA625307D150EA0133AD
:1009B4001EBF4FF0FE4040F44000704701F000407D
:1009C40040F0FE4040F40000704700BF80F000405B
:1009D40002E000BF81F0004142001FBF5FEA410313
:1009E40092EA030F7FEA226C7FEA236C6AD04FEA13
:1009F4001262D2EB1363C1BFD21841404840414058
:100A0400B8BF5B42192B88BF704710F0004F40F409
:100A1400000020F07F4018BF404211F0004F41F425
:100A2400000121F07F4118BF494292EA030F3FD0F1
:100A3400A2F1010241FA03FC10EB0C00C3F1200304
:100A440001FA03F100F0004302D5494260EB400093
:100A5400B0F5000F13D3B0F1807F06D340084FEAFE
:100A6400310102F10102FE2A51D2B1F1004F40EBF3
:100A7400C25008BF20F0010040EA0300704749005B
:100A840040EB0000013A28BFB0F5000FEDD2B0FAF8
:100A940080FCACF1080CB2EB0C0200FA0CF0AABF1B
:100AA40000EBC25052421843BCBFD04018437047B9
:100AB40092F0000F81F4000106BF80F400000132BF
:100AC400013BB5E74FEA41037FEA226C18BF7FEA96
:100AD400236C21D092EA030F04D092F0000F08BFD8
:100AE4000846704790EA010F1CBF0020704712F0BF
:100AF4007F4F04D1400028BF40F00040704712F1FE
:100B040000723CBF00F50000704700F0004343F062
:100B1400FE4040F4000070477FEA226216BF084698
:100B24007FEA23630146420206BF5FEA412390EA5B
:100B3400010F40F4800070474FF0000304E000BF51
:100B440010F0004348BF40425FEA000C08BF704702
:100B540043F0964301464FF000001CE050EA0102C6
:100B640008BF70474FF000030AE000BF50EA0102DB
:100B740008BF704711F0004302D5404261EB4101C8
:100B84005FEA010C02BF84460146002043F0B643ED
:100B940008BFA3F18053A3F50003BCFA8CF2083A12
:100BA400A3EBC25310DB01FA02FC634400FA02FC1B
:100BB400C2F12002BCF1004F20FA02F243EB020022
:100BC40008BF20F00100704702F1200201FA02FC84
:100BD400C2F1200250EA4C0021FA02F243EB020077
:100BE40008BF20EADC7070474FF0FF0C1CEAD052BB
:100BF4001EBF1CEAD15392EA0C0F93EA0C0F6FD07C
:100C04001A4480EA010C400218BF5FEA41211ED059
:100C14004FF0006343EA501043EA5111A0FB013145
:100C24000CF00040B1F5000F3EBF490041EAD3711A
:100C34005B0040EA010062F17F02FD2A1DD8B3F196
:100C4400004F40EBC25008BF20F00100704790F005
:100C5400000F0CF0004C08BF49024CEA502040EA57
:100C640051207F3AC2BFD2F1FF0340EAC25070471D
:100C740040F400004FF00003013A5DDC12F1190F5B
:100C8400DCBF00F000407047C2F10002410021FACD
:100C940002F1C2F1200200FA02FC5FEA310040F1E5
:100CA400000053EA4C0308BF20EADC70704792F05E
:100CB400000F00F0004C02BF400010F4000F013A96
:100CC400F9D040EA0C0093F0000F01F0004C02BF91
:100CD400490011F4000F013BF9D041EA0C018FE700
:100CE4000CEAD15392EA0C0F18BF93EA0C0F0AD006
:100CF40030F0004C18BF31F0004CD8D180EA01002C
:100D040000F00040704790F0000F17BF90F0004FC4
:100D1400084691F0000F91F0004F14D092EA0C0FA6
:100D240001D142020FD193EA0C0F03D14B0218BF39
:100D3400084608D180EA010000F0004040F0FE407F
:100D440040F40000704740F0FE4040F4400070471B
:100D54004FF0FF0C1CEAD0521EBF1CEAD15392EA9A
:100D64000C0F93EA0C0F69D0A2EB030280EA010C8A
:100D740049024FEA402037D04FF0805343EA111123
:100D840043EA10130CF000408B4238BF5B0042F181
:100D94007D024FF4000C8B4224BF5B1A40EA0C0026
:100DA400B3EB510F24BFA3EB510340EA5C00B3EB58
:100DB400910F24BFA3EB910340EA9C00B3EBD10F46
:100DC40024BFA3EBD10340EADC001B0118BF5FEA98
:100DD4001C1CE0D1FD2A3FF650AF8B4240EBC250C1
:100DE40008BF20F0010070470CF0004C4CEA502082
:100DF4007F32C2BFD2F1FF0340EAC250704740F4D1
:100E040000004FF00003013A37E792F0000F00F0C2
:100E1400004C02BF400010F4000F013AF9D040EA40
:100E24000C0093F0000F01F0004C02BF490011F4D4
:100E3400000F013BF9D041EA0C0195E70CEAD153CC
:100E440092EA0C0F08D142027FF47DAF93EA0C0FB3
:100E54007FF470AF084676E793EA0C0F04D14B0297
:100E64003FF44CAF08466EE730F0004C18BF31F049
:100E7400004CCAD130F000427FF45CAF31F0004343
:100E84007FF43CAF5FE700BF42000ED2B2F1FE4FE9
:100E94000BD34FF09E03B3EB126209D44FEA002345
:100EA40043F0004323FA02F070474FF0000070470C
:100EB40012F1610F01D1420202D14FF0FF307047AD
:100EC4004FF00000704700BF53B94AB9002908BF6A
:100ED40000281CBF4FF0FF314FF0FF3000F00CB87A
:100EE400ADF1080C6DE904CE00F008F8DDF804E07B
:100EF400DDE9022304B07047704700BF2DE9F047D5
:100F040086468C460846089E154674461946002BAC
:100F140040F0C2808542B2FA82F245D94AB1C2F1A8
:100F2400200300FA02FC2EFA03F3954043EA0C0C6A
:100F340094404FEA154EA8B2BCFBFEF8230C0EFBFE
:100F440018CC08FB00F943EA0C43994528D9EB185F
:100F540008F1FF3704D2994502D9A8F102072B44BE
:100F6400A3EB0903A4B2B3FBFEFC0EFB1C330CFB86
:100F740000F044EA0344A04214D92C190CF1FF33C5
:100F840004D2A04202D9ACF102032C44241A43EA4D
:100F940007401EB1D440002334607360BDE8F0877D
:100FA4004746DDE76346F1E792BB431B01214FEA65
:100FB400154EAFB2B3FBFEFC200C0EFB1C330CFB36
:100FC40007F840EA0343984562D9EB180CF1FF3067
:100FD40004D2984502D9ACF102002B44A3EB0803D8
:100FE400A4B2B3FBFEFC0EFB1C330CFB07F744EA74
:100FF4000344A7424ED92C190CF1FF3304D2A74263
:1010040002D9ACF102032C44E41B43EA0040C0E7DC
:10101400C2F1200320FA03F1954090402EFA03F325
:1010240003434FEA154EAFB2B1FBFEFC0EFB1C109E
:10103400190C0CFB07F841EA0041884504FA02F454
:1010440022D969180CF1FF3004D2884502D9ACF1D9
:1010540002002944A1EB08019BB2B1FBFEFC0EFB8C
:101064001C110CFB07F743EA01439F420ED9EB180E
:101074000CF1FF3104D29F4202D9ACF102012B449E
:10108400DB1B41EA004192E76046E3E76146F7E78C
:101094006046A3E76346B7E7834206D916B9002141
:1010A40008467BE7C6E900E0F9E7B3FA83F78FB9AE
:1010B400834201D3724508D8BEEB020460EB0303FC
:1010C40001209C461EB9002168E73846FAE7C6E9C4
:1010D400004CF8E7C7F1200CBB4022FA0CF41C4387
:1010E4002EFA0CF120FA0CF3B84001434FEA1449EC
:1010F4000EFA07F5B3FBF9F81FFA84FE09FB183062
:101104000B0C08FB0EFA43EA00439A4502FA07F275
:1011140040D9E31808F1FF3004D29A4502D9A8F166
:1011240002002344A3EB0A0389B2B3FBF9F809FBD9
:10113400183308FB0EFE41EA03418E452CD9611891
:1011440008F1FF3304D28E4502D9A8F102032144E9
:1011540043EA0040A0FB0298A1EB0E014145CE46B4
:10116400434602D306D14D4504D2B9EB020E68EBD7
:1011740004030138002EA6D0B5EB0E0261EB030187
:1011840001FA0CFC22FA07F34CEA0303F940C6E91E
:10119400003198E74046C5E74346D9E7034613F8CC
:1011A400012B002AFBD1181A0138704773B5224C61
:1011B400206808F095FC18B9204806F0A5FAFEE767
:1011C40001F0E4F920681E4E06F0EAFE206806F0FD
:1011D400EDFE00230622CDE900231A4920681A46B1
:1011E40001F0BAFC206806F0DEFE4FF4FA6006F067
:1011F40084FA206806F0DAFE1349206801F0DEFC68
:10120400206806F0D0FE4FF4FA6006F076FA206803
:1012140006F0CCFE01F0A2F901460546206801F073
:10122400FDFC206806F0BFFE3046294606F06CFA45
:10123400012006F062FAEDE7B000002016AB0008CA
:1012440051AB00083BAB000899AB000838B5104C13
:10125400204608F045FCC0B12269A568136843F430
:10126400005313602B680B4A0D2120469847002831
:101274000BDB4FF400516B6920469847002804DBD0
:101284004FF4FA7006F039FAF3E7002038BD00BFD6
:10129400D4A300080100060008B501F0F1FC60B910
:1012A400074806F031FA40F6B83006F026FA002175
:1012B4004FF4FA7005F0E8FDF9E70248F1E700BFE2
:1012C40058AB00086BAB0008014B1B68184700BF04
:1012D400B4000020014B1860704700BFB400002028
:1012E40030B585B004460D4610220021684608F04A
:1012F40036FF02238DF802302A46044B019321461F
:10130400684605F0A3FF05B030BD00BFCD1200084C
:1013140080B505460E461746984605F0D3FD0346AC
:1013240008F098FFDFF81890044649F80030424668
:1013340030463946A84754F8090001F0F7FE00BFCB
:1013440008000000064B1A6842F400721A601A681A
:1013540042F480621A60034B034A1A60002070470B
:10136400003C0240E40100200024F400034A5368D6
:1013740023F0020353600020704700BF002004E004
:10138400014B036000207047F4A70008F0B40C4B35
:101394000C4E5F6A0C4BB34203D36FF08500F0BC74
:1013A40070475D68BD4209D31C693CB195F802C021
:1013B4000579AC4502D12346F0BC18472433EAE74B
:1013C400C807002034030020100300202DE9F04753
:1013D400134CDFF85080DFF8509005460E46174650
:1013E400444503D36FF08500BDE8F0876268D9F8FF
:1013F40024309A4212D3A36983B190782979884220
:1014040005D13A4631462846BDE8F0471847527997
:10141400012A03D13A463146284698472434DFE767
:101424001003002034030020C80700202DE9F041F8
:101434000B4CDFF8308005460E461746444502D370
:101444006FF0850009E063690BB92434F6E73A4686
:101454003146284698470028F7D1BDE8F08100BFFF
:10146400100300203403002010B5044602F00CFBE6
:1014740010F1780F00D050B9054A204606F0D0FB91
:10148400D2F8C43023EA0003C2F8C430002010BDEF
:10149400C8070020024B00221A605A60704700BF40
:1014A4008308002070B50B4B0B4CA34201D30020E2
:1014B40070BD196A1E7F00220439D5B2AE4201D82C
:1014C4002433F2E7013211F832508542F5D101207C
:1014D400EEE700BF100300203403002008B50948DC
:1014E4000378C3F341130A3350F823303BB100F1BE
:1014F400080200F110019847C043C00F08BD184608
:10150400FCE700BFC807002004282DE9F14FDFF8ED
:10151400989004460F4616D001282DD1DFF88C8010
:1015240098F8B93043B300F007FE214D4D4520D261
:10153400D5F820B04FF0000A2B7F5FFA8AF6B34249
:1015440004D82435F2E7FFF7A5FFE7E70BEBC6065F
:101554000AF1010A307902F097FA0246307906F06E
:101564005FFBD8F8C430002A23EA0003C8F8C4306B
:10157400E2DA002388F8B9300D4D4D4508D30B4B02
:101584001B6A6BB13946204601B0BDE8F04F1847DD
:10159400EB681BB13A462146284698472435ECE7C8
:1015A40001B0BDE8F08F00BF34030020C80700205D
:1015B4001003002073B5C4B263060D468DF80740CE
:1015C40007D02046FFF76EFF78B10D4B93F8BA00B1
:1015D40058B10B4E204655B102F008FAF3691BB11D
:1015E4000DF1070108209847012002B070BD02F0F8
:1015F40013FAF369002BF7D00DF107010920F2E784
:10160400C807002073B586788DF8006003794279A5
:101614001C4C43EA0223ADF80230C378304603F091
:1016240003038DF8043006F0FBFAD4F8C4301842F2
:1016340005460BD0304600F061FD3046FFF714FF3D
:1016440008F069FA10B9962008F057FC684606F0CD
:1016540045FD10F1780F03D010B1002002B070BD29
:101664009DF8000002F0EEF910F1780F01D0002887
:10167400F3D1D4F8C43001202B4384F8B900C4F862
:10168400C430EBE7C80700202DE9F047A34EB36947
:1016940004460F461546FBB9237803F01F03012BBC
:1016A40000F09D80022B00F0048133BB94F900000C
:1016B4002A686178002834DA062912D008292BD048
:1016C400D9B901231370517096F8C3305B0043F00D
:1016D4000103137002232AE198470028DCD100207B
:1016E4000DE06288100A011F0129844605D90728E4
:1016F40003D8716AD2B20C781CB96FF01500BDE83A
:10170400F0874E78664503D19A4200F00B8101338D
:101714002144F0E70B780AE196F8BA3013700123FC
:1017240005E101390829E8D801A353F821F000BFE5
:10173400CD170008FF160008DB170008FF16000885
:1017440059170008FF160008FF160008FF160008C6
:1017540065170008A07802F009F90028BFD0CCE78B
:101764006388756A63BBFFF795FE638886F8BA30B1
:10177400F369002BB3D06A4903209847AFE76B782D
:10178400042B10D0052B11D0022B04D16F79638860
:10179400BB4208BF01202B781D442B78002BEED1CF
:1017A4000028AAD0DFE795F80380F4E76388BB42FA
:1017B400F1D1B8F1000FEED12846FFF723FFEAE795
:1017C400FF270020B846E8E76388012B95D1002362
:1017D40086F8C33083E76388012B8ED1F8E796F847
:1017E400BA30D5F800C0002B87D0756AA38894F866
:1017F40004E02A46107800283FF47FAF517802298C
:1018040004D192F80480F04500F293800244F1E799
:101814008CF800208CF80120396060E7154494E0CE
:101824000B2A7FF46AAF00274FF0FF08C146BA467F
:1018340006E06B78042B0FD0052B21D02B781D44A8
:101844002B78002BF5D1F36913B151460720984743
:10185400002F7FF444AF50E795F80280A38895F8F1
:1018640003909845EAD163889945E7D1B8F1070F09
:101874001CD806EB0803AA4683F8BB900127DDE7D2
:10188400A3884345DAD1A3784B450AD0AF783846CC
:1018940000F034FC3846FFF7E7FDB0FA80F77F0923
:1018A400CCE72846FFF7AEFE0746C7E7AA4600275F
:1018B400C4E794F900206378002A18DA002B7FF437
:1018C4001CAF24792D6863060AD02046FFF7EAFD91
:1018D40000283FF412AF96F8BA30002B3FF40DAF56
:1018E4002946204606F00FFC00236B70F2E6012B1C
:1018F40008D0032B7FF401AF6388002B7FF4FDAE87
:10190400012103E0618800297FF4F7AEA088FFF786
:1019140051FE00287FF4E3AEEFE600BFC8070020C5
:1019240082080020022829607FF4F4AE4B883B60D3
:10193400D5E694F9000062780028BFF671AF002A5A
:101944003FF466AF0A2A7FF4D8AE2A78002A3FF41F
:10195400D4AE697804297FF461AFA9788B427FF40F
:101964005DAF072B96BF9B19002393F8BB308CF80F
:101974000030D4E613B5164C237DF3B9E268A168B0
:10198400019201AB802006F059F9019AA36813442F
:10199400A360E3689B1AE3606BB962B12369E288D0
:1019A4009A4208DD94F8C82093FBF2F102FB11334C
:1019B4000BB90123237502B010BD00231A46194642
:1019C4008020237502B0BDE8104002F071B800BF5A
:1019D400C807002030B585B0002302460D460193A8
:1019E400002858D1002935D108220B460DEB0201FD
:1019F40006F096FB002804DA802001F0F7FF05B01A
:101A040030BD2A4C029A2260039A626004F13802C3
:101A1400A2609DF90820BDF80E302575002AC4E99E
:101A240003550ADB802B04D9802001F0DFFF00205E
:101A3400E3E713B1C4E90333E1E7FFF74FFD0028FF
:101A4400DAD0E28823699A42D4BFE260E360FFF708
:101A540091FFD4E7154CD4E90215002D01AB04DC49
:101A640006F05EFB0028CADAC6E72A4606F058FBF1
:101A74000028D9DB019AA3681344A360E3689B1A86
:101A8400E360002BBBD104F13803A360FFF726FD0C
:101A94000028DCD1B0E78028B1D1044BDA68002AF1
:101AA400D5D11B7D002BD2D1A9E700BFC8070020E8
:101AB400054B064A9A62064ADA62064A1A63064ADD
:101AC40058629A6100207047C80700208D160008EC
:101AD4009113000831140008D11300082DE9F341D3
:101AE400414D04466F6A41484FF0FF324FF0FF33D7
:101AF40004F072FC95F8B860002E6ED13C482C625C
:101B0400E86101F02DFF01F08FFE041E49DB00F0B7
:101B140037FB041E45DB7B78012B61D1FB79002B5D
:101B24005ED0684685F8C830ADF802308DF80460A0
:101B34008DF8006006F0D2FA041E32DB8027684676
:101B44008DF8007006F0CAFA041E2ADB29493046D3
:101B540006F0AAFA041E24DB2649384606F0A4FA45
:101B6400041E1EDB244CDFF89480444520D300205F
:101B740001F068FF041E14DBD5F8C430802043F064
:101B84000103C5F8C43001F05DFF041E09DBD5F87C
:101B9400C43043F48033C5F8C430012385F8B83029
:101BA4000024124804F0DAFB204602B0BDE8F081BC
:101BB400276A0026227FF3B29A4201D82434D4E75C
:101BC40007EBC30257F83310107906F06DFA0136AB
:101BD4000028EFD04FF0FF34E3E76FF07704E0E73D
:101BE4006FF01504DDE700BFC807002020020020C5
:101BF4000D150008D9190008100300203403002033
:101C040010B50A4B93F8B8404CB900F055F848B1F8
:101C1400FFF74EFF2046BDE81040FFF75FBF6FF0AF
:101C2400770010BD4FF0FF30FBE700BFC80700206E
:101C340030B51F4B8BB005AA03F11005186859681D
:101C4400144603C40833AB422246F7D11B782370F1
:101C54001022002101A808F082FA1222002115485E
:101C640008F07DFA102101A802F036FC00281BDDE3
:101C74000828B8BF0820093801AB0E491A180020FB
:101C840012F8013F0AAC04EB131403F00F032833DA
:101C94006B44013014F8144C13F8143C0C700828ED
:101CA4004B7001F10201EBD102480BB030BD00BF13
:101CB40099AF0008E81500202DE9F04F704C87B06B
:101CC4004FF0000B00264FF0011AB0463546B146DE
:101CD40023782BB96B4B02349C42F3D1684833E030
:101CE4006378052B1BD8DFE803F09003C8901D3BF5
:101CF400402304A88DF810B0ADF812308DF814B05C
:101D040006F0DDF940B1082304A8ADF8123006F05E
:101D1400D6F908B1ADF812B0BDF81230E3712378EA
:101D24001C44D5E7E378002BF9D1A3787BB108F103
:101D340001085FFA88F8F2E76B689C4209D0243501
:101D4400514B9D42F8D3002007B0BDE8F08F4F4DB2
:101D5400F6E7AB68002BEAD0414620469847E6E711
:101D6400002DF0D000222B7F9A42ECD2296AA07871
:101D740001EBC2010B79984201D00132F3E701274C
:101D8400E07800F003008DF81400207994F805C081
:101D940040EA0C20ADF8120094F902000028FBB2CE
:101DA40028DA07F110004FF0010C0CFA00F010EAE9
:101DB4000A0F26D143F080008DF8100004A8CDE965
:101DC4000213019206F07BF9DDE90121039BC0B9FE
:101DD4009DF81020A27012F0800F18BF10330A7102
:101DE40018BFDBB24FF0010214BF9A40BA404AEA6E
:101DF400020A94E70120B84010EA0A0F01D11846FC
:101E0400DAE70137102FBBD1B7E7032E1DD1FFF757
:101E14000FFF074668B1FFF7C1F9102809D138460A
:101E2400A31C07F1100250F8041B43F8041B904252
:101E3400F9D123786FF00201E218091B04EB530374
:101E4400D14213D50136F6B269E7002EF1D1B9F1CA
:101E5400000F3FF478AFA4EB090389F80230C3F311
:101E6400072389F8033089F80480EBE702F801BC02
:101E740013F8010902F8020DE2E7A1464FE700BF9B
:101E8400540200200D03002034030020100300201E
:101E940010B5094B00211A461C78844204D15C68B1
:101EA40014B102EB811010BD0131042903F1400388
:101EB400F2D10020F7E700BF940800202DE9F34198
:101EC40050F8283C10F82C6C103304460AD10369EE
:101ED40050F8202C980736D5D2B9590715D50023C8
:101EE40044F8283C54F8283C10330BD054E90775C7
:101EF40054F8148C07F00FFE00284FD02E482146CA
:101F040007F0F9FE02B0BDE8F08143F00403236159
:101F140054F8241C01AB304605F090FE10B16FF06C
:101F24001503DDE7019A54F8243C134444F8243C97
:101F340054F8203C9B1A44F8203C54F81C3C1344AD
:101F440044F81C3CCEE754F8241C01AB304601F0A5
:101F540001FE0028E3D1019D54F8243C2B4444F8AD
:101F6400243C54F8203C5B1B44F8203C54F81C3CB3
:101F74002B4444F81C3C002DB1D0304606F0DEF86A
:101F8400B5FBF0F303FB1055002DA8D154F8203C09
:101F9400002BA4D0304601F00DFEA3E744F8180C42
:101FA400A4F1100004F0C6FA002DABD04246394625
:101FB4003046A847A6E700BF980400204B1E012B1B
:101FC40073B506460D460FD8FFF762FF044668B99D
:101FD400012D09D101AB01220DF10301304601F0BD
:101FE400B9FD019B002BF5D102B070BD07F093FD44
:101FF40004F12C0108B1012D05D1084602B0BDE859
:102004007040FFF75BBF034802B0BDE8704007F0C3
:1020140072BE00BF980400202DE9F74F06460191D7
:102024001546984605F052FE044600285CD14FF050
:102034001003EFF3118A83F31288BFF36F8FDFF875
:10204400B0B000220023584604F09AFA70B9DFF8C1
:10205400A490A70109EB8414636813F1100F14D141
:102064000193584604F066FA019B06E00134042CFF
:102074000BF1400BE5D16FF00B038AF31188BFF32A
:102084006F8F184603B0BDE8F08F019B2061C4E94F
:1020940002350C9B63610D9BA36130466FF00F0307
:1020A40009F80760C4F83C80636006F047F858B14B
:1020B400304606F043F8B5FBF0F303FB10551DB1B1
:1020C400E36B43F00403E36318F0020F07D007F156
:1020D4002C010948494407F00EFE0023CDE73046A1
:1020E40001F068FD0346C8E76FF00F03C9E700BFBE
:1020F400B0080020940800209804002010B54FF088
:102104001003EFF3118483F31288BFF36F8FFFF78B
:10211400BFFE50B14368103307D16FF08B034360A7
:1021240000F12C01034807F0E6FD84F31188BFF3A6
:102134006F8F10BD9804002070B50F4C04254FF02C
:102144001003EFF3118683F31288BFF36F8F636874
:10215400103307D16FF08B030848636004F12C013E
:1021640007F0C9FD86F31188BFF36F8F013D04F1B9
:102174004004E4D170BD00BF9408002098040020FE
:1021840070B50A4C0A4E00253146204607F096FDEC
:102194000122A4F110001146013507F052FD042D6F
:1021A40004F14004F0D1002070BD00BFC00800203D
:1021B400C11E000808B50146034805F071FD10B1C1
:1021C400012300F8073C08BD94090020016901239C
:1021D40081F84B300B6833B191F849301BB1024898
:1021E400083107F088BD7047980400200169012375
:1021F40081F84A300B6833B191F848301BB102487A
:10220400083107F078BD70479804002070B50123A9
:1022140082F8483013680D4614463BB192F84A30B0
:1022240023B10E4802F1080107F065FDD4F890309F
:102234009A681B699A4205D17DB904F118014FF4DB
:102244007A7204E004F11801002DF8D00022BDE8F0
:1022540070400248002304F007BB70BD98040020BE
:1022640038B5056995F89E0088B195F89F307BB91B
:1022740085F84830D5F8900005F052FC0022044659
:102284000023044805F1180104F0EEFA204638BD95
:102294000020FCE798040020F0B5D0F88C305B688F
:1022A4001B6A1F7D85B00446384605F00FFD0646BF
:1022B400F8B994F88630E3B1A06F4FF4806203A9B3
:1022C40005F04DFC0546A0B18306A4F1180308BF30
:1022D40000F1FF3584F830600193074B03990093B4
:1022E4002A4602233846FFF797FEA06F294605F0D9
:1022F40056FC05B0F0BD00BF1122000870B50446BD
:102304000E4601791548154605F0BCFC10B394F946
:1023140000206378002A16DB202B04D0222B0ED059
:102324006FF085000AE02B681A6840F8102C9A8830
:1023340020F80C2C9B7900F80A3C002070BD6388BF
:1023440000F8093CF9E7212BEAD11038072328606B
:102354003360F2E76FF01200F0E700BF9409002049
:102364000D4A03460021A0F848101068C3F89400F1
:1023740090889279A3F8980083F89A2083F89C10A7
:1023840083F89B10A3F89E1083F8A010402203F159
:102394004C0007F0E4BE00BFECA7000810B50469C8
:1023A4000023C4F8A8300C4BC4F8A400596804F105
:1023B400A80269B9C3E9002204F10800074907F03B
:1023C4007DFC04F11800064907F0A6FC002010BDAE
:1023D4000A605A60F0E700BF94090020FB7C000803
:1023E4009D22000813B504698DF80710002384F8B2
:1023F4004830D4F8900001220DF1070105F090FB5C
:1024040010B907F088FB40B10A22002304F1180137
:10241400064804F029FA02B010BD94F8A130002B4C
:10242400F2D000210A2004F02FFDE2E798040020F6
:1024340037B514460A1E054620DDD4F88C0004F195
:102444004C0105F06DFB012384F8493023683BB14E
:1024540094F84B3023B1114804F1080107F04BFC08
:10246400D4F88C104B684A699A1ACB699B1A3F2B93
:1024740004D8012384F8A03003B030BD94F89E3012
:10248400002BF9D0064B009301940123402204F160
:102494004C012846FFF7C0FDEEE700BF980400207A
:1024A40035240008F7B50D4601461D4805F0DEFB4E
:1024B400044610B30646691E56F8A4395F68052918
:1024C4001BD8DFE801F01C1A031C222610F8061C96
:1024D40099B9012300F8063C3B6A3246187BFFF7A2
:1024E400A7FF14F85C2C42B93B6A187D0D4B00938E
:1024F400019602231146FFF78FFD03B0F0BD30466D
:1025040003B0BDE8F040FFF72BBF012304F8053CFE
:10251400F3E710F8053C002BEFD00023F6E700BFEB
:10252400940900201122000837B5094D09490024F7
:1025340000944FF0FF334FF48062284604F05CF9B6
:102544000549284603F018FE204603B030BD00BFFD
:1025540098040020402D0020B8AF000810B5084CA6
:10256400216811B1074807F061FB4FF0FF324FF0CB
:10257400FF33054803F0AAFF2060053010BD00BFFB
:102584009C090020340200204402002038B5094C84
:10259400094D2046294607F049FB05F188012046EC
:1025A40007F044FB20460549BDE83840002201F00D
:1025B400C1BE00BF34020020A00900204402002054
:1025C4002DE9F041134F4668044600254FF04008BA
:1025D4002169114887F80080802201EBC51107F0BA
:1025E400B0FD05F01F0150396068C9B205F02FFC39
:1025F4006068022105F02BFC6068102105F027FCBF
:10260400013504498122304605F011FC082DDFD143
:10261400BDE8F081FA190020FB190020024951F8A5
:10262400040B83685B6818473401002030B50D4CF7
:1026340089B00125CDE90002CDF808D020680395C2
:102644000B4661B104ABCDE90412CDE906358368CC
:102654001D6806AB02AA211DA84709B030BD8268D7
:102664001568F7E73401002008B5FFF7D7FF074BDB
:102674004FF400721846FF2107F071FD0A22002171
:10268400FFF7D4FFBDE80840FFF7C8BF7B1A00205E
:1026940037B5FF23094D8DF8073009242846012258
:1026A4000DF10701013CFFF7C1FF14F0FF049DF891
:1026B400070001D0FF28F1D003B030BD7B1A002001
:1026C400002110B59422084605F04DFCFFF7E0FF09
:1026D4000122044600210348FFF7A8FFFFF79EFFED
:1026E400204610BD7B1A002010B50446FFF7D0FF2A
:1026F4000128207006D8611C0348BDE8104004225C
:10270400FFF794BF10BD00BF7B1A002010B58622CE
:1027140004464FF4D571082005F025FC2046FFF748
:10272400E3FF044801220021FFF780FFBDE81040C9
:10273400FFF774BF7B1A002010B50022114604462F
:102744003A2005F010FC2046FFF7CEFF0448012292
:102754000021FFF76BFFBDE81040FFF75FBF00BF2C
:102764007B1A0020002210B51146372005F0FBFB30
:10277400FFF78EFF0122044600210348FFF756FFAE
:10278400FFF74CFF204610BD7B1A002010B5002235
:102794004FF08041292005F0E6FBFFF779FF012285
:1027A400044600210348FFF741FFFFF737FF2046A7
:1027B40010BD00BF7B1A002010B50446200604D5C6
:1027C4001548BDE8104004F09FBF0CB91348F8E762
:1027D400610602D5124804F097FFA20602D51148FB
:1027E40004F092FFE30602D50F4804F08DFF2007A2
:1027F40002D50E4804F088FF610702D50C4804F0A6
:1028040083FFA20702D50B4804F07EFFE30701D53E
:102814000948D6E710BD00BFCBAF0008DCAF000805
:10282400EBAF0008FDAF00080DB000081FB00008B2
:102834002BB0000839B000084BB0000810B50446AE
:10284400200702D50A4804F05FFF610702D5094852
:1028540004F05AFFA20702D5074804F055FFE30726
:1028640004D5BDE81040054804F04EBF10BD00BFBC
:1028740057B000086CB000087FB000088BB00008A7
:102884002DE9F743FF230746884616468DF807309F
:10289400FFF7FEFE054600BBDFF8489041F29514B1
:1028A400013C01220DF107014846A4B2FFF7BEFE28
:1028B4009DF8073064B1FE2BF2D1424639460948EF
:1028C400FFF7B4FE074802220021FFF7AFFE01E044
:1028D400FE2BF2D09DF807303370284603B0BDE8D4
:1028E400F08300BF7B1A002038B5FF2313700D4618
:1028F400144601469522112005F035FB22464FF47B
:1029040000712846FFF7BCFF01220446002103485A
:10291400FFF78CFEFFF782FE204638BD7B1A0020AD
:1029240007B50DF10702FFF7DFFF78B99DF807003F
:102934000F2805D8FFF782FF042003B05DF804FBDD
:10294400FF2806D1044804F0DFFEF5E7FFF734FF63
:10295400F2E70320F1E700BF94B0000837B52C4C30
:102964002C4804F0D1FE206807F0BAF8002842D0C1
:10297400E06800283BD1FFF777FE3324FFF7A0FE81
:1029840001288DF8000038D16846FFF7BFFE9DF896
:102994000050012D2FD19DF80430AA2B2BD1662491
:1029A400013C14F0FF0426D0FFF7DCFE01288DF86B
:1029B400000003D8FFF7EAFE8DF800006420002130
:1029C40004F062FA9DF80030002BE9D16846FFF765
:1029D400B3FE9DF901209DF80130002A0BDA5B0655
:1029E40002D50D4804F090FE284603B030BD07F030
:1029F40077F80028BFD10225F6E7013C14F0FF0464
:102A0400BCD10028F7D1054804F07EFEF3E700BFEF
:102A140034010020A3B00008DEB00008CDB00008E7
:102A2400F0B50B4C0B4D227001F01F0129700027EB
:102A34009A4200D9F0BD2E78016901EBC6112678BF
:102A4400013206F1010C84F800C0D2B28F55EFE7D1
:102A54007B1C00207C1C00202DE9F04F9DF8246095
:102A64009DF82850062E1C461DD1364BDFF8D8E0C1
:102A7400364F203906FB0131002311F8012B0DB12B
:102A8400D243D2B29EF800600469013304EBC61449
:102A94003E78DBB206F1010C062B87F800C0A25584
:102AA400EBD1BDE8F08F102EFBD1DFF8A480274EC8
:102AB40098F80030244F02EBC3033370E3083B70F3
:102AC400244B203903EB01118A4600231AF801CB69
:102AD4001DB16FEA0C0C5FFA8CFCD0F8109097F8DB
:102AE40000E0013309EBCE1E96F80090DBB209F149
:102AF400010B082B86F800B00EF809C0E6D198F84F
:102B040000C0083402EBCC02C4F3C40432703C703D
:102B1400CA5C0DB1D243D2B297F800C0046904EB89
:102B2400CC1496F800C001330CF1010E102B86F87A
:102B340000E004F80C20EBD1054A1378013313703C
:102B4400AFE700BFE0B600087C1C00207B1C00201F
:102B54007D1C0020F0B000082DE9F74FDFF850800D
:102B64009DF830909DF834A00746084615461E4649
:102B74000C46FEF713FB002388F800300D4B1D7044
:102B84000D4BF2081A7054FA80FB5C4505D1002302
:102B940088F8003003B0BDE8F08FCDE9009A3346E1
:102BA40014F8011B2A463846FFF756FFEDE700BF2D
:102BB4007D1C00207B1C00207C1C00202DE9F0479C
:102BC400DFF850C0144E0025AE4605F01F038CF804
:102BD400003086F800E0002301EBC51803F1100271
:102BE400D2B29CF80070046918F8039004EBC7147F
:102BF40001333778DBB207F1010A934286F800A06B
:102C040004F80790EDD1802BE8D10135082DDCD1F3
:102C1400BDE8F0877C1C00207B1C00202DE9F743D5
:102C2400154ED0F80890347888467F23E1080022B6
:102C3400FFF7F6FE00270623CDE900373A46234680
:102C440041461034E4B20546FFF786FF0B4A347060
:102C5400402C13780BD137700BB901231370D9F8BA
:102C640014303178284603B0BDE8F0431847002BF0
:102C7400F5D103B0BDE8F0837F1C00207E1C00204A
:102C8400F8B5FFF76BFE022801D10020F8BD404DD6
:102C94004FF400502946FFF743FE0328F5D13D4C7D
:102CA400EE6A66612E8E2683D5F847606B7BC4F886
:102CB4001A60D5F84B60D5F824C0B5F80B10286A13
:102CC4002F7CEA89A370C4F81E60B5F81130B5F8FA
:102CD4004F6095F8515084F824500025668484F898
:102CE40022502D4DA28002F500522A6023810CFB54
:102CF400072201EB4313013B93FBF1F31344274AEF
:102D0400A771274F1360C31AC4F810C03B60218019
:102D1400E060FDF77FFB00224FF08143FDF7F4FBF9
:102D2400204B0022FDF7F0FBFDF700FE0646FEF700
:102D3400ABF885B22846FDF703FF01463046FDF7A0
:102D440049FE1949FDF750FFFEF79EF8294682B265
:102D5400164804F0D9FC164804F0D6FCA2783B6867
:102D6400B3FBF2F340F6F57293420ED9A3F6F67371
:102D7400B3F5704F2CBF0F480F4804F0C5FC0F4843
:102D84000F4904F0C1FC012080E70E48F5E700BFBD
:102D9400BC0A0020BC0C0020B80A0020B40A0020A1
:102DA400B00A00200000103E0000C84221B900080B
:102DB40035B9000843B900084AB9000858B90008F1
:102DC400D60C002051B9000830BFFFF7FDBF00BF8B
:102DD400124B134A2DE9F041D518DFF84880013D24
:102DE400B5FBF3F55D43104B08EB0304013CB4FB66
:102DF400F3F403FB04540E1B07460C49304607F05A
:102E0400A0F9701942460021083E07F0A8F9C7F856
:102E1400A46004F10800BDE8F08100BF01000000D7
:102E2400000000000400000004000000C4A7000823
:102E3400044B99685869884203D003494FF0805283
:102E44000A607047AC15002004ED00E070B5264B15
:102E540015469A6A12F0100F9A6A14BF11241024AE
:102E640012F0080F9A6A18BF1224920706460AD570
:102E7400586B9A6A140634D519B19A6A22F0800202
:102E84009A62132401E06FF01500174B9A6A12F04E
:102E9400010F9A6A18BF142412F0200F9A6A18BFFF
:102EA4001524D20602D49B6A9B070AD50E4B5B6895
:102EB400190506D5314600F027FA10B180F30988C8
:102EC4000224094B9A6A920642BF5A6A22F40052BB
:102ED4005A629A6A42F0FF029A6200232B702046DB
:102EE40070BD6FF01500CCE700ED00E0134B9A6A5B
:102EF40012F0007F9A6A14BF1E201D2012F0807FFA
:102F04009A6A18BF1F2012F4002F9A6A18BF212052
:102F140012F4802F9A6A18BF222012F4003F9A6A92
:102F240018BF232012F4803F9A6A6FEA02426FEAC4
:102F340012429A6218BF2420704700BF00ED00E0DF
:102F440010B5194B0246986A9C6A10F4805F14BF4E
:102F54001720162014F4006F9C6A18BF1820A405CB
:102F640009D5986B986A000404D51AB19A6A22F4B8
:102F740000429A6219200C4B9A6A12F4806F9A6A82
:102F840018BF1A20D2050CD49B6A13F4005F18BF33
:102F94001C20054A936A43F47F43936200230B7019
:102FA40010BD1B20F5E700BF00ED00E0F0B5484B75
:102FB4005B688BB00446C3F30803002585F31188CE
:102FC400BFF36F8F02F07F40B0F17F4F11D102F059
:102FD4000C0008280DD010074CBF0C460125002218
:102FE400033B8DF80720032B05D8DFE803F02463A7
:102FF40067602C46F3E700239DF80720CAB902AEA8
:1030040004F1200720686168324603C20834BC42D8
:103014001646F7D1099A002D54D0C2F3080121B9FC
:103024006FEA52226FEA4222099202A9184604F07A
:10303400CCFF0BB0F0BD264BDA6A9107DBD4DA6A19
:10304400002AD8DBDA6A5200D5D55A69A16942F45C
:1030540080725A61BFF34F8FBFF36F8F5A6931F893
:10306400021C22F480725A61BFF34F8FBFF36F8F3B
:103074004DF6027291420AD09A6AD2B24AB10DF167
:10308400070201212046FFF7E1FE0346B4E7236867
:10309400B2E79A6A12F47F4F05D00DF107010120BF
:1030A400FFF74EFFF1E79B6AB3F5803FA3D3FFF729
:1030B4001DFFEAE70DF107020021E3E70DF1070127
:1030C4000020EDE722F4FF7222F00102ACE700BF1A
:1030D40000ED00E0024A536943F010035361704766
:1030E40000ED00E0EFF30880EFF3098101B57246CB
:1030F400FFF75CFF01BD00BF00200A4908701020E3
:1031040080F3118808484FF40461401880F309885B
:10311400EFF314800221084380F31488BFF36F8F08
:1031240000F0B2F8841C002080310020084B9B681A
:1031340083420BD1EFF3058343B1064B5A6842F047
:1031440080525A605A6A22F400425A6206F0E6BE7D
:10315400AC15002000ED00E00A4A93686FF00A0104
:10316400C3F8AC100849C3F8A8004B6843F0805377
:103174004B60002383F31188BFF36F8F9368D3F8F8
:10318400AC007047AC15002000ED00E016498A68D9
:103194004FF030001044EFF3098C80E8F01F10204A
:1031A40080F31288BFF36F8F104F4FF000664A69A7
:1031B4008A603E604FF0A404141920680C4C20600F
:1031C400D2F8A8000023C2F8A83080F3118804B50F
:1031D400104600F00DF9BDE8044002F1300090E81B
:1031E400F01F8CF309887047AC15002004ED00E053
:1031F400E40C00201EF0040F0CBFEFF30880EFF383
:103204000980816911F8021C0229FFD001B504F07C
:10321400DEFE01BD40B2002807DB044A4109012358
:1032240000F01F00834042F82130704700E100E0C5
:1032340040B200280CDB4309064900F01F0020338C
:103244000122824041F82320BFF34F8FBFF36F8FD9
:10325400704700BF00E100E040B20028A8BF00F1C1
:10326400604001F10101B8BF064B4FEA0111ACBF48
:1032740000F5614000F00F00C9B2B4BF195480F8E2
:103284000013704714ED00E00F4A08B50F4B22F00D
:103294007F029A60BFF34F8FBFF36F8FD3F88820FC
:1032A40022F47002C3F88820EFF3148323F004039C
:1032B40083F31488BFF36F8F02F07EFE03F01AFECF
:1032C40000F06AF802F0CEFE0000000800ED00E015
:1032D40042F8203C009B42F81C3C0A49019B42F8FE
:1032E400183C029B42F8143C21F001014FF080731A
:1032F40042F8043C42F8081C0023203A0265C0F856
:10330400A8307047151300080A4A0346906878B13C
:1033140013F1160FD0F8940005D0A0F140029A42A0
:1033240005D8834203D2814228BF00207047002081
:10333400704700BFAC15002008B514460A4A0B4B71
:103344009060D0F8A4201A600D4600F051F8204691
:1033540085F30988002163B681F31188BFF36F8F69
:1033640000220023FDF7D4FFAC150020E40C00205C
:10337400014910220A60704710ED00E072B6404027
:1033840080F31188BFF36F8FBFF34F8F30BF62B6E6
:10339400BFF36F8F704700BF044800231021C21889
:1033A4000133552B82F80013F9D1704700E100E096
:1033B40001B5EFF30580A0F110004FEAC000044905
:1033C400014409C99847BDE8014002490847000083
:1033D40074A40008352E0008024B034A0348012157
:1033E40000F078B8000001200000002040A8000888
:1033F400D0F89420054B403A1A60054A4021C3E9AD
:1034040001121846012100F06FB800BFE80C00203B
:1034140000000B15084AC2F898000B6823F01F033C
:10342400034343F01003C2F89C308B6843F001035C
:10343400C2F8A030704700BF00ED00E02DE9F04372
:10344400DFF8608085B00E461F4604464FF0000941
:10345400B14523DA6068D8B13FB1411E08421BD19F
:103464001F2819D92368194216D12368019304F03F
:10347400BDFDA36803430393D8F89050C5F3072513
:10348400D0B2013DA84207D801A9FFF7C3FF421CEF
:1034940009F101090C34DBE76FF01502104605B0A1
:1034A400BDE8F08300ED00E0044B0522C3F894204E
:1034B400BFF34F8FBFF36F8F704700BF00ED00E085
:1034C400BFF35F8F024B0022C3F89420704700BF04
:1034D40000ED00E010B5034C01232278FFF7AEFFA6
:1034E400207010BD801C002008B50B4A0023127800
:1034F400FFF7A4FF10F1160F07D0084A0021D2F8F5
:103504009030C3F30723984200DB08BDC2F898004B
:10351400C2F8A0100130F2E7801C002000ED00E0AA
:103524002DE9FF414B4B4C4DD3F890302C68C3F33D
:1035340007239C4200F28A80FFF7C2FF00200C267A
:1035440084420FD1454D464F2C706846FDF718FF55
:10355400DFF8008106460024A6420AD1FFF7A4FF43
:1035640000201CE0696806FB0011FFF753FF0130DF
:10357400E6E7009800EB04114FEA041CCB683B40DB
:10358400B3F5000F50D00DD8B3F5001F36D0B3F506
:10359400800F3ED0B3F5801F13D06FF0150004B038
:1035A400BDE8F081B3F1807F47D0B3F1007FF4D15F
:1035B40050F80C3088684A6804F018FD40F4802004
:1035C40009E050F80C3088684A6804F00FFD40F0B8
:1035D400885040F43020CDE901230390D8F890308E
:1035E4002878C3F30723013B9842D6D801A9FFF7F3
:1035F40011FF2B7801332B700134ADE750F80C30F8
:1036040088684A6804F0F2FC40F0885040F40020D6
:10361400E1E750F80C3088684A6804F0E7FC40F0B1
:10362400E06040F40030D6E750F80C3088684A680F
:1036340004F0DCFC40F08270CDE750F80C30886870
:103644004A6804F0D3FC40F08870C4E74FF0FF30C0
:10365400A5E700BF00ED00E04CA80008801C002096
:103664000000F0FF08B5024B1B689847002008BD16
:10367400F40C0020034B044A1860937843F00203CF
:1036840093707047F40C00204C01002008B50649E3
:10369400064821F00701C1F1005202F5803204F01E
:1036A400CEF9002008BD00BFC74B0020F80C002055
:1036B4002DE9F0410F4E104F054600244FF001084C
:1036C4002B7853FA84F01F280DDC726908FA00F392
:1036D40033EA020207D1736157F830301BB107EBAC
:1036E400C002516898476A780134E3B29A42E7D23B
:1036F400BDE8F081003C0140040D0020044B184457
:1037040000230133994200F8012BFADC704700BF13
:10371400F001002010B4064B064902460C68185606
:103724000123934023430B6010BCFFF773BD00BF1C
:10373400F0010020003C01401F2806DC034901225F
:103744000B68824023EA02030B607047003C01408F
:1037540003292AD8DFE801F0020E141F134B0122BB
:103764009968824021EA02019960D96821EA02023B
:10377400DA6070470D4B0122996882401143F3E7E8
:103784000A4B0122D96882401143D960996821EA21
:1037940002029A607047012303FA00F0034B9A680F
:1037A40002439A60DA681043D8607047003C0140D5
:1037B40030B50A4B53F830408C4204D103EBC005BA
:1037C4006D68954205D034B943F8301003EBC0035B
:1037D4005A60002030BD6FF00F00FBE7040D00209D
:1037E400034B002243F8302003EBC0035A607047B8
:1037F400040D002020F08002032A0BDC064B10F09D
:10380400800F03F190010CBF18460846242303FBE4
:10381400020070470020704794120020014801F014
:1038240077BC00BF840D002073B5464C204606F0DB
:1038340057F9002800F08280A568AB6913B96FF0CE
:1038440004002EE040490022204698470028F6D183
:103854002B683E49204698470028F0D1EB68002B9E
:10386400EDD02046384901AA984704460028E6D1FD
:10387400374B019A9A4216D1364D4FF0A042042399
:10388400C5E900230123EB6002204023C5E905308C
:1038940001AA3148EC6221462C6105F0FDF80028AC
:1038A40004DA02B070BD6FF08500FAE7019B22468E
:1038B4001979186800F024FF0028F2DB284605F087
:1038C400BEFC0028BBD1234805F05BFD0028B6D11F
:1038D400204805F036FD04460028B0D14023A5F861
:1038E400103585F81405A5F8A03585F8A4051B4DF9
:1038F4001848A02105F0D0FE10222146A5F2B450AC
:1039040005F0ABFEA5F2B456012228461146013457
:1039140006F097F9042C05F1240505D05822E1B2EC
:10392400304605F09AFEEFE7002211464320FFF7E8
:1039340093FC4320FFF76EFC0020B2E76FF0120007
:10394400AFE700BF34A3000894A800088CA80008BF
:10395400006CDC02840D00206CA8000838130020E1
:10396400014BC3F80C057047840D0020014608B5CF
:10397400044805F02DFD002814BF6FF0040000205A
:1039840008BD00BF840D002008B513460206014699
:1039940005D5802800D12BB16FF0150010E0402B25
:1039A40028BF402321F080020648920102F5C66236
:1039B400024405F088FD002814BF6FF004000020C5
:1039C40008BD00BF840D0020030610B50C4607D4C3
:1039D40031B10146044805F09AFD2060002010BD75
:1039E4006FF01500FBE700BF840D002038B50546D5
:1039F400FFF700FF044638B10648294605F0AFFD3D
:103A040028B90123637138BD6FF01500FBE76FF02F
:103A14000400F8E7840D002038B50546FFF7EAFEF8
:103A2400044638B10648294605F0D1FD28B960712D
:103A3400E06038BD6FF01500FBE76FF00400F8E7B5
:103A4400840D002038B50446FFF7D4FEA0B10D4D17
:103A5400037902882146284605F0CEFC78B963B282
:103A6400002B0BDD402202FB0451204601F5C66108
:103A7400BDE83840FFF788BF6FF0150038BD6FF020
:103A84000400FBE7840D002010B50446FFF7B2FEE6
:103A940048B10648214605F0E7FC002814BF6FF042
:103AA4000400002010BD6FF01500FBE7840D00201A
:103AB4002DE9F8430646894615469846FFF79AFECF
:103AC40000283ED033063CD500F114070022002321
:103AD400384602F055FD0446B0BB06F01CF810B998
:103AE4004320FFF7A5FB802E02D1402D28BF40259F
:103AF4004A4617482B46314605F011FD024658B197
:103B0400384602F017FD06F006F810B94320FFF717
:103B140081FB6FF0040411E0802E04D11DB1014635
:103B24003046FFF731FF05F0F6FF10B94320FFF7E9
:103B340071FBB8F1000F01D0C8F800502046BDE871
:103B4400F8836FF01504F9E76FF00A04F6E700BF95
:103B5400840D00202DE9F8438146884616461F4609
:103B6400FFF748FE044600B319F0800FC5681CD166
:103B7400B8F1000F14D0B54228BF354603690C498B
:103B84004FF4C66606EB89161E442A463144404665
:103B940006F0D7FAE3685B1BE36023692B442361D7
:103BA40007B13D600020BDE8F8836FF01500FAE727
:103BB400840D002010B50446FFF71CFE80B12306D7
:103BC4000ED4C3680BB1002010BD402206494FF447
:103BD400C66312FB043319442046FFF7D5FEF2E70F
:103BE4006FF01500F0E700BF840D002010B5134CF2
:103BF400002340228021204605F0FEFB00234022C2
:103C04001946204605F0F8FB04F2B45002F092FC89
:103C140004F5BB6002F08EFC04F2FC5002F08AFC56
:103C240004F5C46002F086FCD4F80C3523B1BDE879
:103C3400104000210120184710BD00BF840D002052
:103C4400034BD3F80C3513B10021022018477047F9
:103C5400840D0020034BD3F80C3513B1002104204C
:103C640018477047840D0020034BD3F80C3513B16B
:103C74000021052018477047840D0020034BD3F81A
:103C84000C3513B10021062018477047840D00201D
:103C940070B5114C0823D4F8C814D4F8C404C4F87B
:103CA4001C35D4F81835002504F5C66686E80300EB
:103CB400C4F820557BB1294628469847B4F8CA244D
:103CC4004AB194F9C434AB4205DB31462846BDE819
:103CD4007040FFF759BE70BD840D002010B5254B10
:103CE40018680B68442B144628D82F2B05D8013BA1
:103CF400052B0DD96FF085001FE0A3F130010122DF
:103D04008A401D490A4216D1402BF3D1400812E0E3
:103D1400052BEFD801A252F823F000BF473D00085D
:103D24005B3D0008F93C0008393D0008733D00087C
:103D34003B3D000800202060002010BDA82BFAD0D5
:103D4400D8E700F0A7F81923B0FBF3F04FF4A873F9
:103D540058438008EFE700F09DF81923B0FBF3F017
:103D64004FF4A87358430723B0FBF3F0E3E74FF491
:103D7400FA40E0E7E401002011011000F8B5414CDD
:103D8400414F00F09FF801F08FF9A3683F4AC3F355
:103D940003131578D35C47FA05F520FA03F6AE420F
:103DA40002D2284602F064F8236823F480232360B7
:103DB400236843F480332360324B1A689203FCD5A2
:103DC4005A6F42F001025A675A6F9407FCD59A68F9
:103DD40002F00C02082A17D11A68900707D41A684F
:103DE40042F001021A60274A13689907FCD5254B53
:103DF4009A6822F003029A609A6812F00C0FFBD1C1
:103E04009A6822F0F0029A601E4C236823F08073B3
:103E14002360636823F4403343F48033636063684E
:103E240023F0706343F0E063636000F037F82368C5
:103E340043F08073236023689B01FCD5A36823F0BF
:103E4400F003A360A36823F0030343F00203A36019
:103E54000C4CA36803F00C03082BFAD1AE4202D336
:103E6400284602F005F80A4B1F60A36823F4E053C8
:103E740043F48053A360A36823F46043A360002049
:103E8400F8BD00BF0038024000BD010571BA00084A
:103E9400E40100200048704740787D01064A074944
:103EA40053681940064B0B435360536823F4403363
:103EB40043F4803353607047003802400080BFFFF2
:103EC40019544000064B1A6C42F080521A641B6C61
:103ED40082B003F080530193019B02B0704700BF8E
:103EE4000038024002488368DB6A03B11847704710
:103EF40010A400080146024883685B68184700BFA5
:103F040010A4000808B5074805F0EAFD38B10648D2
:103F1400FFF7B0FB0448FDF7DDF9002008BD6FF0A2
:103F24001200FBE710A400089D82000838B504467F
:103F34000D460820FFF7DEFF3DB92020FFF7DAFF2A
:103F4400BDE838400820FFF7D5BF0A4803F0DCFB82
:103F54002544EDB2607804F8010BFFF7CBFFE3B220
:103F6400AB42F7D12020FFF7C5FFBDE83840024837
:103F740003F0CABBB2B90008B6B900082DE9F74F7F
:103F84009C4F9D4ED7F80880D8F84430BBB13846D2
:103F94009847002813DDD8F8403083B13846984755
:103FA40000280CDDD8F834304BB138469847002847
:103FB40005DBE9D0D8F8183023B9FFF793FF03B035
:103FC400BDE8F08F01220DF107013846984700281B
:103FD400F3DB336893B3BFF35B8F884C2368BFF381
:103FE4005B8F13F0020F234600F0D6809DF8075034
:103FF400D6F80090BFF35B8F53E8002F22F0040142
:1040040043E800100028F7D1BFF35B8F50072AD58F
:104014007B4BDFF8F0A15B5D13F0040F18D1012393
:10402400CAF80030482D5CD8422D5CD9433D052D9B
:1040340059D8DFE805F0766558945885724B1868AE
:104044000022002302F042FA30600028C3D1B6E710
:104054000821204604F011F96C4B303D0022CAF8C7
:1040640000501A6090E7BFF35B8F2368BFF35B8F48
:104074001907D7D5624B5B5D5A0710D5BFF35B8F29
:104084002368BFF35B8F13F0100F14BF5F4A5D4AC0
:1040940013680A2101FB0353303B136074E73B2D83
:1040A40018D0BFF35B8F54E8003F23F0080344E8C3
:1040B4000032002AF7D1BFF35B8FBFF35B8F54E864
:1040C400003F23F0100344E80032002AF7D1BFF385
:1040D4005B8FA7E71021204604F0CFF8C306E0D495
:1040E40052E77E2D44D0BFF35B8F54E8003F23F0AA
:1040F400020344E80032002AF7D1BFF35B8F43E7A1
:104104004348404A037811688B42ECD3414D2A78E6
:104114005B1A52FA81F203703F482A7003F0F4FAF2
:10412400E1E73C48374B027819688A42DBD3CBB2CB
:10413400D21A0270364A1078034413703748EDE7F8
:10414400334D29780029CED0334803F0DDFA314AC3
:10415400137829780B44137000232B70C3E72D4D7B
:1041640029780029BFD02D4803F0CEFA284AEFE77A
:10417400284D2B78002BB6D02848012103F0C4FA2F
:10418400234A2978107809F105090139C9B248444C
:104194002970FFF7CBFEA6E7BFF35B8F54E8003F1F
:1041A40023F0010244E800210029F7D1BFF35B8F1B
:1041B40013F0010F9DF807500BD05B2D7FF4E4AE94
:1041C4000221204604F059F80421204604F055F851
:1041D400DAE60B4B5B5D13F0970F6CD10D2D1FD8F6
:1041E400072D2ED9083D052D2BD8DFE805F01D53EA
:1041F400342A2A3810A40008B4140020C014002063
:10420400D7BA0008BC140020CC140020B814002035
:10421400831C0020821C0020BAB90008C0B9000821
:104224001B2D13D07F2D0CD13B4A13784BB1013B8E
:10423400DBB213703068394A053311781844FFF73C
:1042440075FE374B9DF807201A709DE60121204624
:1042540004F013F8F5E7324B1B780D2BF1D0DFF89F
:10426400B8902E4D99F8001033682A780B44134403
:1042740000245C710D20FFF73DFE0A20FFF73AFE93
:10428400284B3168186889F800402C7005F0CEFC82
:104294003460D6E7244B1B68002BD2D01F4A127817
:1042A400002ACED11C4C30682178053098472378F9
:1042B40018442070C5E7194A174B147893F800B0D6
:1042C40004EB0B027E2ABCDCD6F800A00BF1010241
:1042D40028461A70FFF70EFE0AEB0B030CB95D714A
:1042E400AFE793F8059011485D7103F00DFA0BF1F7
:1042F400060B013CDA44E4B2013C4846E4B2FFF761
:10430400F9FD4B46FF2C9AF800900AF8013BF3D1D3
:10431400074803F0F9F994E7831C0020821C00206D
:10432400811C0020C8140020C4140020B2B9000865
:10433400B6B90008164B73B51860164B1960164BC6
:104344001A60FFF7CFFD154DAC68236A0BB1284600
:104354009847A36C1BB112491048002298470F4E8E
:10436400636B23B9AB689B6A73B902B070BD304606
:1043740098470028F6DDA369002BF1D001220DF146
:10438400070130469847EBE704489847EDE700BF3C
:10439400CC140020C8140020C414002010A4000869
:1043A400813F000838B5036904465860084D284623
:1043B40005F096FB40B16168AB680C311B68284678
:1043C400984700EAE07038BD6FF01200FBE700BFC9
:1043D40034A30008F7B51746B7F5001F466802690D
:1043E4000C461D4624D101F00302043292000F232F
:1043F400934043EA9103DAB23349023251F822205E
:10440400190C02EA134391FAA1F2B2FA82F2D340F0
:10441400B2689A4209D12046FFF78EF92046FFF789
:10442400DFF900212046FFF793F9002003B0F0BD27
:10443400B7F5800F41D025492046FFF7B9F9002888
:104444003ED1234AB66892E803006B4683E8030032
:1044540020488268194612689047C0B904F00303E3
:1044640004339B000F229A4042EA9402D3B29B0089
:1044740003F1804303F59C33110C986820EA124041
:1044840091FAA1F2B2FA82F2964006439E60B5F127
:10449400806F0ED0B5F1C06F0DD005F17E43594247
:1044A400594149002046FFF753F92046FFF732F9F6
:1044B400BBE70121F6E70321F4E76FF08500B5E7D8
:1044C4006FF00F00B2E700BF00380140C784000856
:1044D400C4A7000834A300081FB50C4BD3F8182A4E
:1044E40012BA0192D3F8142A12BA02920C29D3F800
:1044F400103A28BF0C211BBA0C460A4601A90393A3
:1045040005F01FFE204604B010BD00BF0070FF1F61
:1045140010B502694368126ADB68C2F34202012AD9
:1045240004D0022A21D06FF0150010BD58681F4A2C
:10453400B1FBF2F220F03F0010435860186A0132D8
:1045440020F03F0002431A62194AB1FBF2F140F62F
:10455400FC72114208BF0421DA6922F44F4222F0AE
:10456400FF020A43DA610020DFE758680F4AB1FB13
:10457400F2F220F03F0010435860186A4FF496742A
:10458400624320F03F004FF47A74B2FBF4F201323C
:1045940002431A62074A914289BF013248F201017B
:1045A400B1FBF2F141F40041D6E700BF40420F00F5
:1045B400400D03007F4F1200F7B5054643680469B8
:1045C4001548DE680F4659688368DB68002201924B
:1045D40023B96FF00405284603B0F0BD01AA98473B
:1045E4000028F6DB276210344FF0FF324FF0FF3320
:1045F400204601F0C5FF336823F0010333603368BC
:1046040023F01A03336001992846FFF781FF05461A
:10461400204601F08FFFDEE734A300082DE9F743BD
:104624000446D0F8048005694FF0FF320021284683
:1046340005F007FB0027D8F800302046984785F896
:104644004C700122114605F1100005F0FAFA274ECC
:10465400304605F045FA002845D0D4F8049001AA64
:10466400D9F81400394604F017FAB8420DDB019B5F
:104674003A461979186800F043F8B84205DBB36884
:10468400D9F804101B6830469847D8F81010184B16
:10469400994222D015D8174B994220D0164BCB1AE9
:1046A40059425941890041F010012046FFF784FF27
:1046B400002803DB012385F84C30002003B0BDE85B
:1046C400F0830E4B99420CD003F5C31303F520631A
:1046D40099420CBF0A210021E5E70621E3E7022104
:1046E400E1E70821DFE76FF01200E7E734A30008F1
:1046F40040420F00A0860100801A060040E133000A
:104704002DE9F0471E4F044600EBC1060025B442D4
:1047140001D1002014E02068C30600F01F0911D461
:10472400656845F02005C0F3471AC0F343200A2802
:1047340023D857F82080B8F1000F0DD16FF0120084
:10474400BDE8F087B9F1100F04D0B9F1110FEAD127
:104754006568E8E73025E6E7404605F0C1F900283A
:10476400ECD04B462A460AF00F01404603F0C0FE47
:10477400002804F10804CADAE2E76FF01500DFE765
:10478400B8A900084268116801F1140353E8003F16
:1047940043F0010301F1140C4CE800300028F3D17C
:1047A40013680E498B4207D0A1F54C418B4203D0CC
:1047B40001F550418B4203D1196941F0400119615F
:1047C400126802F10C0353E8003F43F4807302F1D2
:1047D4000C0040E800310029F3D17047001001407B
:1047E4004268116801F1140353E8003F23F0010308
:1047F40001F1140C4CE800300028F3D113680E4981
:104804008B4207D0A1F54C418B4203D001F55041B6
:104814008B4203D1196921F040011961126802F138
:104824000C0353E8003F23F4807302F10C0040E8CA
:1048340000310029F3D1704700100140F8B5036935
:104844000C465E6823794168012B34D09A1E554288
:104854005541AD026279022A9CBF354F37F812C028
:10486400A27988BF4FF4005C042A27D0003B18BF0C
:1048740001231B03E279012A0A680CBF4FF4407735
:104884000027A642D1681CD121F4B05129430B431F
:10489400D360136923F4405343EA0C031361436860
:1048A4001A68536923F440733B4353613168BDE88C
:1048B400F84004F0F3B94FF4C065CBE74FF48053EC
:1048C400D8E701F4C0618D421FBFD16821F4C061F3
:1048D4002943D160426811680A6902F44052944540
:1048E4001FBF0A6922F4405242EA0C020A6142687C
:1048F4001168CA6802F4805293421FBFCA6822F446
:1049040080521343CB6043681A68536903F44073BD
:104914009F421FBF536923F440733B435361216893
:104924003368994203D004F0B9F923683360F8BDC1
:1049340010AB00082DE9F04103694768D3F80480FF
:104944000B790C46012B4979A57936D102294FD927
:10495400042D4AD04FF480564FF4C06203238B4297
:1049640043D1002E7CD0002A14BF03220422AA4281
:104974003BD1E3796BB1012B37D13B683B4A93427E
:1049840007D0A2F54C42934203D002F55042934221
:104994002BD13A68D36823F40053D3602146FFF740
:1049A4004DFF3A68D36843F40053D36094E803009E
:1049B40088E803000020BDE8F081022B08D1022919
:1049C40021D9042D11D04FF480624FF48056C5E7ED
:1049D40002290A461FD9042D04D133B94FF4805655
:1049E4001A46BBE763BB0329C1D06FF08500E2E739
:1049F4001F4A042D32F811C0F7D04FF4C062033BB4
:104A0400012B10D8F1E71A4A042D32F811C0ECD06A
:104A14004FF48062F3E7164A042D32F811C016D120
:104A2400002BE2D11A464FF48056BCF5805F13D0B8
:104A3400BCF5405F12D0BCF1000F8FD101238EE78B
:104A4400033B012BD1D90022BFE70022D7E7002B7B
:104A5400FBD11A461E46E8E7002380E702237EE7DF
:104A6400002A14BF0222032281E700BF0010014084
:104A740010AB0008F7B50569466804462948286064
:104A840005F02EF818B96FF0120003B0F0BD2868D5
:104A9400F16883681B6898470028F6DB306A01AA2E
:104AA400002103F0F9FF0028EFDB019B00221979B4
:104AB4001868FFF725FE0028E7DB656823692A6884
:104AC4005F68D36823F40053D360686805F008F87E
:104AD4000028D8D0D5E901018368DB6803B1984781
:104AE4002A6802F10C0353E8003F43F00C0302F17F
:104AF4000C0040E800310029F3D139462046FFF785
:104B04009DFE2B7D23B12A68536943F0080353614A
:104B14002A68D36843F40053D3602046736A9847E5
:104B24000020B2E734A300082DE9F34104460569E7
:104B340046682F4F384604F0D3FF002855D0BB6891
:104B440031691B683846984700284BDB706801AA16
:104B5400002103F0A1FF002844DB019B0022197906
:104B64001868FFF7CDFD00283CDBB3682046984762
:104B7400AC6801260834D5E9023203EBC203A4F180
:104B84000802934204D8284604F0EEF9002029E0F4
:104B940054F8080C04F0A4FF38B354F8080C14F8C3
:104BA400041C34F8023CD0F810C0D0F80880DCF8BB
:104BB4000070DA0754BF43F4B01383F4D01323F422
:104BC400801206FA01FEDB074CBF4EEA070727EA0C
:104BD4000E07CCF80070D8F800309847002804F18C
:104BE4000804C8DA02B0BDE8F0816FF01200F9E7FA
:104BF40034A300082DE9F04F1F4643680669D3F833
:104C040000808BB081460D46924602B99FB3AB88B3
:104C14009A0434D44FF0FF324FF0FF3306F1100002
:104C240001F0AEFC7560DFF83CE2D9F810B0D9F8B9
:104C340004C0BEE80F0002AC0FC49EE80F0084E875
:104C44000F00DBF80020AB88DCF800409542C3F38A
:104C5400451100F09580082918D0102916D06FF05E
:104C6400850733689B8813F4005304D1736006F1FD
:104C7400100001F05FFC38460BB0BDE8F08FB3695B
:104C8400002BC7D173689D42C4D1CCE713F4004F05
:104C94006368754814BF43F0100323F01003636086
:104CA4008368DCF81010DB6813B96FF00407D8E7E9
:104CB40001AA98470028F8DB019A2968012322FAFF
:104CC40003F0884205D90133092BF8D16FF0150799
:104CD400C7E722680AA922F04002226001EB83039D
:104CE400226853F8243C22F0380213432360AB8833
:104CF4009B0703D4236823F0020302E0236843F0F4
:104D040002032360AB8813F0040F236814BF43F03D
:104D1400010323F001032360236823F44443236045
:104D2400AB8813F0100F236814BF43F0800323F003
:104D340080032360236823F400532360AB68002BB3
:104D440070D0236843F400732360636823F0040382
:104D54006360AB8813F0010F236814BF23F48273DC
:104D640043F482732360AB88C3F34513082B236891
:104D74000CBF23F4006343F400632360CBF80050BA
:104D8400AB88C3F34513082B0CBF01230223304621
:104D94003A46514604F087F8D8F8003043F040030F
:104DA400C8F80030D9F81040206848B183683BB196
:104DB4000121083004F0C4F82368186904F081FE66
:104DC400D8F8043043F02003C8F804302FB1D8F8E1
:104DD400043043F04003C8F80430D8F8043043F0FA
:104DE4008003C8F804300022B06B1346834227D1F5
:104DF4000023346C1946A14229D19342304638BF6E
:104E040013464FF4FA525A4350F8203B1B68B2FB46
:104E1400F3F20A23C832A2FB032301F0B1FBE8B981
:104E2400376B1EE7AB8813F0010F236823F400737C
:104E34008AD143F480232360636843F0040387E743
:104E4400716B01EBC301013349680A44CEE7F06B8F
:104E540000EBC100013140680344CCE76FF07307F5
:104E6400FFE600BFCCA7000834A3000810B54FF03C
:104E7400E0230F499C691A6908689B690D4902F48B
:104E8400803234B993B903464AB90A681044C01A47
:104E940010BD002B08BF03460AB9A342F5D90A681E
:104EA40002440A604FF0E0221269EEE70446F3E799
:104EB400A4150020A01500200A4B102283F82320FB
:104EC400094B42F2D0021A60084B002018604FF0E0
:104ED400E02342F2CF025A6198611A6942F0070254
:104EE4001A61704700ED00E0A4150020A015002011
:104EF40010B5FFF7BBFF104B1049D3E90042086817
:104F0400001942F10002C3E900020D4A00230B60BC
:104F1400D2E9004142F2D003001BB0FBF3F043435B
:104F24001B1941F10001C2E9003102F0B9F8BDE8F2
:104F34001040FDF77DBF00BF70050020A0150020C4
:104F4400680500202DE9F041DFF8E08099B1421CAA
:104F54000BD14FF0E022136923F0010313614FF0EA
:104F64007F43C8F80030BDE8F081D8F8006001281C
:104F740007DC00270BE0431CD8F80060F7D140F2AF
:104F8400CC7040F2CD739842A8BF1846471E4FF02C
:104F94001003EFF3118583F31288BFF36F8FFFF7CC
:104FA40065FF234C4FF0E0239969D4E9002380186E
:104FB40043F10003C4E900031E4B00221A601E4B98
:104FC4001A68831A2ED442F2D00C0CFB073303F573
:104FD40003530F33B3FBFCF7131A0CFB0733B3F57E
:104FE400806F164A38BF4FF48063934228BF13463C
:104FF4004FF0E022C8F80030013B90695361002370
:1050040093618142A1EB0003D4E9001238BF9B19DC
:105014005B1842F10002C4E9003285F31188BFF342
:105024006F8FA0E74FF48063E2E700BFA415002070
:1050340070050020A015002068050020C0D5FF00E1
:1050440038B54FF01003EFF3118583F31288BFF3E3
:105054006F8F084B1C68084B1B68E41AFFF706FFA8
:1050640085F31188BFF36F8F42F2D0032044B0FB65
:10507400F3F038BD700500206805002038B54FF006
:105084001003EFF3118583F31288BFF36F8F054B81
:105094001C68FFF7EBFE85F31188BFF36F8F204484
:1050A40038BD00BF7005002008B513498B6803F0B4
:1050B4000C03042B1CD0082B1CD14A684B6849688C
:1050C40013F4800314BF0D480D48C1F3881118BFB1
:1050D400002302F03F02A1FB0001FBF7F5FE064BA3
:1050E4005B68C3F3014301335B00B0FBF3F008BD1D
:1050F4000248FCE70248FAE70038024040787D01A4
:105104000024F400014B1868704700BFE40100203C
:105114002DE9F04F066889B00446304604F0BDFC22
:105124000390002840F05581206804F088FC002892
:1051340000F04F81D6F808382068C3F30D23C4F873
:10514400FC3404F07CFC870741BF2268536903F0F8
:1051540002035361206804F072FCC00606F5006582
:105164002CD52268936923F010039361D6F820802C
:10517400C8F34343022B08F00F0740F02D8147F694
:10518400F07318EA030F14D0242303FB0747C8F372
:105194000A19D7F88C124A46304604F0B0FBD7F807
:1051A4008C324B44C7F88C32D7F89C324B44C7F846
:1051B4009C322268936943F010039361206804F0E1
:1051C4003EFC010300F11A81206804F038FC42031C
:1051D4000DD5206804F03FFC2746049006F5106BBB
:1051E4004FF0000A049B2068002B40F0CC8120681B
:1051F40004F025FC002813DA6B6823F001036B60CC
:1052040094F8F434012B40F06882002184F8F414FB
:10521400204604F045FA2268536903F000435361C1
:10522400206804F00CFC01050AD5AB68DA0702D546
:105234002046FEF719FD2268536903F400635361A5
:10524400206804F0FCFBC30433D56B6823F001032E
:105254006B601021206800F035FB06F510634FF6F3
:105264007F3162680398824200F23B82EB6943F02B
:105274000113EB61236B002B00F05082D5F88430CE
:1052840043F00B03C5F884306B6C43F00B036B6481
:10529400D6F8003823F4FE63C6F8003804F2C4429A
:1052A400217C206800F0BEFD2268536903F480531A
:1052B4005361206804F0C3FB870416D5206804F00A
:1052C400F0FB206804F070FAE0602768FFF71AFF2B
:1052D400227B0146384600F085FA2046FEF786FC1C
:1052E4002268536903F400535361206804F0A7FB58
:1052F400000707D5204604F068F82268536903F0D4
:1053040008035361206804F09AFB010600F111823E
:10531400206804F094FBC2020CD5A04606F512697D
:1053240001276368BB4200F21D822268536903F4BB
:1053340080135361206804F082FB83022CD523463A
:1053440006F53260012162688A4220D993F8A4C22A
:105354000268BCF1010F40F01B82002A80F218821F
:10536400D4F8FC7402F4803207F00107BA4240F02A
:105374000F8283F8A3C2B26942F08002B2617269FB
:10538400170600F105826B6843F400736B602268B2
:10539400536903F400135361206804F050FB410087
:1053A40007D52046FEF74CFC2268536903F080437E
:1053B4005361206804F043FB42070AD523685D6803
:1053C4006B0702D52046FEF745FC226853682B4341
:1053D400536009B0BDE8F08F062B7FF4EAAE0822D3
:1053E40004F2C441304604F08AFA242303FB07473D
:1053F400C8F30A18D7F89C324344D8E6206804F06E
:1054040022FB06F530680490A2460027049B20681E
:10541400002B3FF4D9AE049BDB0762D55FFA87FB10
:10542400594604F020FB10F0010F81461BD00123E4
:10543400C8F8083020682169D0F840C000F530630E
:1054440003EB471301299A6878D1110707D5B149AD
:105454008C4508D9100406D54FF4004202E09106A9
:1054640048D520229A6019F0080F0FD00823C8F8F5
:1054740008302368A749186C03F5306303EB47131E
:1054840088429A686ED82046FEF702FC19F0100F85
:105494001CBF1023C8F8083019F0020F14D0736928
:1054A4001A0642BF6B6843F480636B609AF87F32DC
:1054B400012B06D100238AF87F325946204603F097
:1054C40085FF0223C8F8083019F0200F1CBF2023E1
:1054D400C8F8083019F4005F1CBF4FF40053C8F833
:1054E4000830049B5B080137049308F120080AF193
:1054F400240A8BE712F0280FB5D186498C4501D9CF
:105504001204A9D41A69DAF89832C2F312029B1A67
:10551400CAF89C326FB9D4F894222AB904F2C4426E
:10552400012100F07FFC04E0D4F88C221A44C4F872
:105534008C225946204602F00AFE94E776498C45AF
:1055440006D1110488D49006F3D520229A60F0E79E
:10555400002FEED1D4F89432002BEAD104F2C442E5
:105564003946DEE7110444BF4FF400429A602046F6
:10557400FEF78EFB2169012988D1206804F2C44218
:1055840000F050FC82E7049BDB0740F19D805FFA4A
:105594008AF31946079304F06FFA10F0010F80465E
:1055A40020D06B6B01210AF00F0201FA02F223EA08
:1055B40002036B63CBF80810216901290DD1D7E9E7
:1055C40012231344FB64BAF1000F06D1636D23B9AF
:1055D400206804F2C44200F025FC5FFA8AF12046F8
:1055E40002F0CBFD18F0080F1CBF0823CBF80830DD
:1055F40018F0100F1CBF1023CBF8083018F0400F20
:105604001CBF4023CBF8083018F0020F12D05146CB
:10561400304600F057F997F83F30012B07D10023AB
:1056240087F83F305FFA8AF1204603F0D0FE022368
:10563400CBF808302368059318F0800F44D0FA6D36
:105644007B6D9A4240D8A3EB0208BB6C984528BFF7
:105654009846059B03F5106308F1030803EB4A130E
:105664004FEA98080693069BFA6D99697B6D89B297
:10567400414527D39A420BD3059B0AF00F00D3F878
:1056840034280121814022EA0102C3F834281BE0B6
:10569400A3EB0209BB6C079A0598994528BF994664
:1056A400237C0093F96C1FFA89F304F015F9FB6C61
:1056B4004B44FB64FB6D09F103084B444FEA980823
:1056C400FB65D0E79A42D7D2049B5B080AF1010A32
:1056D400049324370BF1200B84E52046FEF7CEFA21
:1056E40099E599601A6822F400121A60C3F8081246
:1056F400D3F8002222F40012C3F80022D3F80022C7
:1057040042F00062C3F80022039A0132039220336C
:10571400A7E500BF0A30544F0A31544F6B6943F474
:10572400005343F02B036B612B6943F00B032B6194
:10573400AEE5B36923F08003B361012704F27F2847
:105744004FF024096368BB427FF6E2AD09FB07F31F
:1057540018F80330012B03D1F9B2204603F06DFF92
:105764000137EFE798F86430D9F80020012B09D10C
:10577400002A07DA67F07F0188F86330C9B220464F
:1057840003F05BFF013708F1240809F12009C8E59B
:10579400013124332030D6E582B00023104901932F
:1057A4000246019B01330193019B8B4215D8136977
:1057B400002BF6DA002301931369094943F001032E
:1057C4001361019B01330193019B8B4205D810693E
:1057D40010F00100F5D102B070470320FBE700BFD1
:1057E400400D0300022A4AD1274B284A0B44934216
:1057F40039D9274B274A0B44934236D9264AA1F577
:105804007403A3F51053934231D9244AA1F183734D
:10581400A3F5E74393422CD3214B224A0B449342F2
:1058240029D9214B214A0B44934226D3204B214AA8
:105834000B44934223D3204AA1F1B773A3F55853E1
:1058440093421ED31D4B1E4A0B4493422CBF062386
:105854000723C26822F47052C260C26842EA8323FA
:10586400C360002070470F23F3E70E23F1E70D23F5
:10587400EFE70C23EDE70B23EBE70A23E9E7092322
:10588400E7E70823E5E700BF405327FFFF340C0098
:10589400401E1BFF3F420F007F4F120020D6130013
:1058A40060B6E5FE5FE3160000D3CEFE40771B0032
:1058B400C05BB3FEC091210020753800E05459FE4E
:1058C400E09C410082B00246002310480193019BF2
:1058D40001330193019B834215D81369002BF6DA37
:1058E400890141F020010023019311610749019BC3
:1058F40001330193019B8B4205D8106910F02000FD
:10590400F5D102B070470320FBE700BF400D030050
:1059140082B000230F4901930246019B0133019396
:10592400019B8B4213D81369002BF6DA00230193F1
:10593400084910231361019B01330193019B8B429E
:1059440005D8106910F01000F5D102B0704703209B
:10595400FBE700BF400D030084B02DE9F843044683
:1059640009A880E80E00139E00230F46194603F190
:10597400400204EB820201330F2B5160F7D104F58E
:105984000068002E73D1D8F8043043F00203C8F83D
:105994000430A36B43F40013A363A36B23F4002329
:1059A400A363A36B23F48023A3630023C4F8003E02
:1059B400D4F80038C4F800380E9B012B61D10B9940
:1059C40000295CD1204603F0E8FE10212046FFF7B1
:1059D40079FF05462046FFF79BFF2843C0B200230A
:1059E4000038C8F8103018BF0120C8F8143004F586
:1059F4001062C8F81C3019464FF090454FF0006C07
:105A04004FF67F3EBB423ED1002204F5306311467F
:105A14004FF090454FF0006C4FF67F3EBA4244D1B0
:105A2400D8F8103023F48073C8F810300023A36131
:105A34006FF0804363610C9B1BB9A36943F01003AF
:105A4400A361A269224B1343A3610F9B1BB1A369FA
:105A540043F00803A361012E01BFA36943F080430F
:105A640043F00403A361BDE8F84304B07047A36B9B
:105A740023F40013A363A36B43F4002394E71946B0
:105A8400A0E703219EE7D2F80090B9F1000F0ADAEB
:105A94003BB9C2F800C011610133C2F808E02032FA
:105AA400B0E71560F7E71160F5E7D3F80090B9F1B6
:105AB400000F0ADA3AB9C3F800C019610132C3F819
:105AC40008E02033AAE71D60F7E71960F5E700BF97
