:1010000040CF0020E1B000009FE80300CDB0000019
:10101000CDB00000CDB00000CDB000000000000059
:10102000000000000000000000000000E5B100002A
:10103000CDB00000000000007DB10000CDB0000088
:10104000D5B30000C9760200D5B30000D5B30000C7
:10105000D5B30000D5B30000D5B30000D5B3000070
:10106000D5B30000D5B30000D5B30000D5B3000060
:10107000D5B30000D5B30000D5B30000D5B3000050
:10108000D5B30000D5B30000D5B30000D5B3000040
:10109000D5B30000D5B30000D5B30000D5B3000030
:1010A000D5B30000D5B30000D5B30000D5B3000020
:1010B000D5B30000D5B30000D5B30000D5B3000010
:1010C000D5B30000D5B30000D5B30000D5B3000000
:1010D000D5B30000D5B30000D5B30000D5B30000F0
:1010E000D5B30000D5B30000D5B30000D5B30000E0
:1010F000D5B30000D5B30000D5B30000D5B30000D0
:1011000001F0FF01102A2BDB10F0070F08D010F8B8
:10111000013B013A8B422DD010F0070F42B3F6D1BC
:10112000F0B441EA012141EA014122F007047FF0D5
:1011300000070023F0E80256083C85EA010586EA2C
:10114000010685FA47F5A3FA87F586FA47F6A5FA68
:1011500087F68EB9EED1F0BC01F0FF0102F0070274
:1011600032B110F8013B013A83EA010313B1F8D11F
:101170000020704701387047002D06BF3546033800
:10118000073815F0010F07D1013015F4807F02BF39
:10119000013015F4C03F0130F0BC0138704700BF8A
:1011A0007BB972B90029BEBF00204FF0004106E0B4
:1011B00008BF00281CBF6FF000414FF0FF3000F067
:1011C00057B8ADF1080C6DE904CE002909DB002BFE
:1011D0001ADB00F04FF8DDF804E0DDE9022304B08B
:1011E0007047404261EB4101002B1BDB00F042F8ED
:1011F000DDF804E0DDE9022304B0404261EB410187
:10120000524263EB43037047524263EB430300F0E7
:1012100031F8DDF804E0DDE9022304B0404261EB7F
:1012200041017047524263EB430300F023F8DDF8BD
:1012300004E0DDE9022304B0524263EB430370474C
:1012400053B94AB9002908BF00281CBF4FF0FF312D
:101250004FF0FF3000F00CB8ADF1080C6DE904CE92
:1012600000F008F8DDF804E0DDE9022304B070477F
:10127000704700BF2DE9F04786468C460846089E19
:10128000154674461946002B40F0C2808542B2FADA
:1012900082F245D94AB1C2F1200300FA02FC2EFACB
:1012A00003F3954043EA0C0C94404FEA154EA8B264
:1012B000BCFBFEF8230C0EFB18CC08FB00F943EA3C
:1012C0000C43994528D9EB1808F1FF3704D299450A
:1012D00002D9A8F102072B44A3EB0903A4B2B3FB84
:1012E000FEFC0EFB1C330CFB00F044EA0344A0425E
:1012F00014D92C190CF1FF3304D2A04202D9ACF15D
:1013000002032C44241A43EA07401EB1D4400023B0
:1013100034607360BDE8F0874746DDE76346F1E778
:1013200092BB431B01214FEA154EAFB2B3FBFEFC4B
:10133000200C0EFB1C330CFB07F840EA03439845D6
:1013400062D9EB180CF1FF3004D2984502D9ACF108
:1013500002002B44A3EB0803A4B2B3FBFEFC0EFB7C
:101360001C330CFB07F744EA0344A7424ED92C195F
:101370000CF1FF3304D2A74202D9ACF102032C4492
:10138000E41B43EA0040C0E7C2F1200320FA03F166
:10139000954090402EFA03F303434FEA154EAFB247
:1013A000B1FBFEFC0EFB1C10190C0CFB07F841EA0C
:1013B0000041884504FA02F422D969180CF1FF3083
:1013C00004D2884502D9ACF102002944A1EB0801FE
:1013D0009BB2B1FBFEFC0EFB1C110CFB07F743EAB2
:1013E00001439F420ED9EB180CF1FF3104D29F420A
:1013F00002D9ACF102012B44DB1B41EA004192E728
:101400006046E3E76146F7E76046A3E76346B7E770
:10141000834206D916B9002108467BE7C6E900E0F9
:10142000F9E7B3FA83F78FB9834201D3724508D83D
:10143000BEEB020460EB030301209C461EB90021B1
:1014400068E73846FAE7C6E9004CF8E7C7F1200C30
:10145000BB4022FA0CF41C432EFA0CF120FA0CF3D8
:10146000B84001434FEA14490EFA07F5B3FBF9F807
:101470001FFA84FE09FB18300B0C08FB0EFA43EA36
:1014800000439A4502FA07F240D9E31808F1FF3009
:1014900004D29A4502D9A8F102002344A3EB0A031F
:1014A00089B2B3FBF9F809FB183308FB0EFE41EAD9
:1014B00003418E452CD9611808F1FF3304D28E45C3
:1014C00002D9A8F10203214443EA0040A0FB02989C
:1014D000A1EB0E014145CE46434602D306D14D4510
:1014E00004D2B9EB020E68EB04030138002EA6D03B
:1014F000B5EB0E0261EB030101FA0CFC22FA07F3D3
:101500004CEA0303F940C6E9003198E74046C5E7D5
:101510004346D9E710F8012B11F8013B012A28BFF7
:101520009A42F7D0D01A7047034611F8012B03F8FE
:10153000012B002AF9D17047034613F8012B002A2A
:10154000FBD1181A013870472DE9F04706468AB0DA
:101550000F46904644F063FC4FF47A73A0FB0345BA
:1015600003FB0155E40B012F44EA45444FEAD5350E
:1015700008D1CDE900452A4A082130463BF01AFA45
:10158000002013E0D8F8047026483946FFF7C2FF60
:1015900078B125483946FFF7BDFF50B13046234AA0
:1015A0003B4601213BF006FA6FF004000AB0BDE8AB
:1015B000F0872046294618A3D3E90023FFF7F0FD62
:1015C00005460C4610461946194A0023FFF7E8FD68
:1015D00080460F46104619464EF660220023FFF75C
:1015E000DFFD82468946104619464FF47A72002381
:1015F000FFF7D6FDCDE904A9CDE90601CDE9082321
:10160000CDE90287CDE900540A4A082130463BF073
:10161000D1F9B5E7AFF30080005C260500000000BB
:10162000A5A90400B6A90400B9A90400C2A9040030
:1016300080EE3600D9A904002DE9F041474D82B073
:10164000D5F85C31996811F0010100AF24D13A1D41
:1016500040F603400BF080FA0446002874D17C6801
:10166000E3681B78ABB90DF08DFABFF35B8FD5F84B
:10167000D430BFF35B8F05F1D40203F00903BFF34D
:101680005B8F52E8001F42E800300028F9D1BFF319
:101690005B8F204629F0F0FA3A1D002141F2030049
:1016A0000BF05AFA044600284ED17B682C4EDA68BB
:1016B000D2F80100D2F8051003C6184629F0DCFA6A
:1016C00021463A1D41F201000BF046FA044600287B
:1016D0003AD17868C3685A7885F870205A88A5F896
:1016E00072201A7985F87120B3F80720A5F87420C4
:1016F000B3F80530A5F8763029F0BEFA21463A1D38
:1017000041F202000BF028FA0446E8B9D7F8048049
:10171000D8F80C20531C413218685968344603C469
:10172000083393422646F7D10E483DF079FA4046F9
:1017300029F0A2FA95F87C30590619D40A480368B2
:101740005A0706D16FF0120420460837BD46BDE89F
:10175000F081064A01213DF02FFBF3E7B0000020A5
:101760002801002030010020981400209BC50400AF
:101770003A1D002142F203000BF0EEF90446002866
:10178000E2D17B68A84EDA68D2F80100D2F80510E1
:1017900003C6184629F070FA21463A1D42F20200AB
:1017A0000BF0DAF904460028CED17C68E368B3F880
:1017B000012091B249B1D97839B1A5F80421DA787C
:1017C000114606F1280044F08AF8204629F054FA20
:1017D00095F87C6016F0200618D1022140F66D4085
:1017E0000BF088F80446002800F0CA8002210C3073
:1017F00040F07AFD0123037046702146324640F6E0
:101800006D400BF0A9F9044600289DD195F89C3055
:101810001B0712D53A1D002142F21C000BF09CF967
:101820000446002890D17868C368D3F80120D3F823
:101830000530C5E9382329F01FFA95F8D8309E06FF
:1018400022D5B91C38460BF003FA044600287FF471
:101850007BAF042142F224000BF04CF8064600282E
:1018600000F08E8004210C3040F03EFD3B88038068
:101870007B8843802246314642F224000BF06CF90B
:10188000044600287FF460AF95F8D8305C0610D588
:101890003A1D002142F22A000BF05EF904460028AE
:1018A0007FF452AF7868C3685B7885F8203129F0FF
:1018B000E3F9082142F201000BF01CF8044600286D
:1018C0005ED008210C3040F00FFD95F8D81011F0D3
:1018D000400F024640F2022308BF032388074CBF93
:1018E00043F02C0043F00C0095F8D9308E0648BF29
:1018F00040F0400013F0090F18BF40F40060CB0720
:1019000095F8A23003F0060348BF40F01000062B04
:1019100008BF40F4C07000213DF081FA214600224A
:1019200042F201000BF018F9044600287FF40CAFD6
:1019300095F87C30B5F804119E0624D4C9B93A1D37
:1019400041F205000BF008F9044600287FF4FCAED4
:10195000B5F804317C684BB9E368B3F80120A5F809
:1019600004219A883148114643F0B9FF204629F0F6
:1019700083F9082140F601400AF0BCFF044680B913
:101980006FF06804E0E60029F3D1294803685C079A
:1019900002D16FF00404D7E6264A01213DF00CFA8B
:1019A000F7E708210C3040F09FFC95F8D830D907B4
:1019B00002462ED420484FF000513DF030FA214627
:1019C000002240F601400BF0C7F8044600287FF4DF
:1019D000BBAE01463A1D4FF601400BF0BDF8144C6A
:1019E00070B3236813F0060F04D0144A0221204676
:1019F0003DF0E2F90CF0DCFC044600287FF4A4AED4
:101A00000EF0A4FC044600287FF49EAE0BF0CAFD45
:101A10009AE603A1D1E90001CFE700BFAFF3008050
:101A2000908800020080002088010020B80100207A
:101A300098140020BFC5040010880002E2C504000D
:101A40007B68DE68236803F00703022B66D9B6F8CB
:101A50000130032B96BF4E4A4E4952F82310E846F8
:101A60008AB06A464C48D3614FF4007313844B4BE1
:101A7000C2E9050142F8103F49484FF413513DF0C7
:101A8000BFF9236803F00703022BC54646D9B6F811
:101A90000120B6F80330022A54D1032B52D8414A10
:101AA00052F82310E8468AB06A463F48D3614FF4A3
:101AB00000731384394BC2E9050142F8103F3848DE
:101AC0004FF413513DF09CF9236803F00703022BF8
:101AD000C54623D9737996F806E0B6F807C0D6F85C
:101AE0000900032B96BF314A2A4952F823106E464B
:101AF0008CB06A46DFF8B880C2E9073E4FF4007345
:101B000093852C4BC2E90581C2E909C04FF473519A
:101B100042F8103F22483DF073F9B546786829F045
:101B2000ABF83A1D00214FF602400BF015F80646BF
:101B300050B1236813F0060F3FF45CAF1E4A1848FB
:101B4000022155E71349ADE77868C368B3F801305F
:101B5000A5F8C13029F090F895F8C1305B077FF502
:101B600049AF3A1D31464FF603400AF0F5FF30B158
:101B7000236813F0060F3FF43DAF104ADFE77868A3
:101B8000C3685B7885F8C03029F076F832E700BF8B
:101B9000C475040009C4040006C604000400000162
:101BA00098140020B47504001FC60400A475040036
:101BB00037C604000700000164C604008DC6040097
:101BC0002DE9F04F00248FB0CDE90544FF23DFF865
:101BD0007091DFF870A18DF81330054604264FF0A0
:101BE000020807ABCDE9019305AB00930DF1130299
:101BF00006AB03210020DDF818B0CDF81C801AF0E8
:101C00001DF90228074663D0079A9DF81330002A71
:101C100062D04D4A0097082128463AF0CBFE4B4A45
:101C20004B4E2346082128463AF0C4FE069F4FF04B
:101C3000070AA7FB060140A3D3E900230AFB07110B
:101C4000FFF7FEFA434A00903B46082128463AF047
:101C5000B1FEBCB3404A082128463AF0ABFE3F4AE9
:101C6000082128463AF0A6FE3D4A082128463AF0C7
:101C7000A1FE394A082128463AF09CFE0DF12009C0
:101C80004FF00008D9F8047019F808BBA7FB06014B
:101C900029A3D3E900230AFB0711FFF7D1FA08F1C2
:101CA0000108CDE900705B462E4A082128463AF02B
:101CB00081FE5FFA88F39C42E4D8274A082128462F
:101CC0003AF078FE002017E0032100201AF0C8F84F
:101CD000079B022BF8D097E7FF2B9AD0069A5A451C
:101CE0001CD0013E16F0FF0609D128461E4A0821E5
:101CF0003AF060FE6FF00A000FB0BDE8F08F2CB133
:101D000033465246082128463AF054FE9DF81330D7
:101D10008DF82030059B0993012462E70EAA02EB9F
:101D2000C4020134E4B202F8183C032C059B42F8CB
:101D3000143C7FF456AF72E700CA9A3B00000000E3
:101D4000F520040021FE0400DEFD040045FE040031
:101D50008D49FD1A53FE040065FE04007CFE04005C
:101D600093FE0400AAFE0400FDFD04000000000034
:101D70002DE9F843D0E90C35D0F82C805C193034CB
:101D8000A0450F46164619D81D4DA3FB05011AA301
:101D9000D3E90023FFF754FA0346A4EB0800A0FBA5
:101DA000050123F07F4414A3D3E90023FFF748FA89
:101DB00020F07F403C603060BDE8F883DFF8409061
:101DC0000DA3D3E90023A8FB0901FFF739FA044664
:101DD00005F1300008A3D3E90023A0FB0901FFF7B8
:101DE0002FFA24F07F4420F07F403C603060BDE853
:101DF000F88300BFAFF300808D49FD1A0700000093
:101E000000CA9A3B00000000002800F046812DE93E
:101E1000F04FC74C94F86A2012F001058DB040F0E5
:101E2000798194F82500FF2300F0030084F8263020
:101E300024F0DAFF94F86A00420727D494F82920A6
:101E400094F8353004EB820204EB8303D66AD3F8AE
:101E5000388086B1B64831461DF06AFC33785B069F
:101E600005D5062118F038FB002800F05581B04850
:101E700041461DF05DFC337813F00E0F40F09E805C
:101E8000236A93B10C200DB0BDE8F08F2A4604F10F
:101E90006B01C0F3C00025F043F9FF2884F8260049
:101EA000CCD0284624F0E6FFC8E71AF00DFD8146A5
:101EB000002800F059811AF013FD8246002800F036
:101EC00050811EF05BF80546002800F04F81D0F8E5
:101ED00088004FF6FF732B8505F11C0B002800F0DE
:101EE000378105F17C0205F1780118F001FBB5F8A6
:101EF000763023F4EF6323F0070343F4887343F051
:101F00000103A5F8763095F8393003F03F0363F00C
:101F10007F0385F8393095F88E3023F0070385F874
:101F20008E3095F83C3023F00703002785F83C30CD
:101F30004FF4C023C5F888312846C5E91277C5F8A3
:101F40008870A5F88C706F86C5F82E7085F83B7088
:101F50002F65A5F88E71A5F8847120F053FD85F8E2
:101F60005071C5F854911EF097FA95F8943160F3CA
:101F7000020385F894311EF095FA95F8943160F3D8
:101F8000C50385F8943195F8803167F3410385F8EE
:101F90008031012128461EF095FE05F1D40020F085
:101FA000B9FAC4E9189AC4F820B0C5E905772F70CA
:101FB000ED6126F041F9002840F0B08094F824301B
:101FC0000121C3F342030DF12B008DF82B3018F0E3
:101FD0002BFC0246002862D098F8011030461DF014
:101FE00069F931235349A360534BB4F86870A0FBDF
:101FF00001010025C01841F107014BA3D3E90023DB
:10200000C4E9055525706560E560FFF719F92061A1
:1020100019F03EFF00F109083FB9357805F00F05CA
:10202000A5F10105B5FA85F56D0994F82400236939
:1020300065F3000010F0010584F8240036D03F4A13
:1020400009920020106002253D4A3E4F04930BAEDA
:10205000019305920321CDE90200069443460090C6
:10206000089607972A460B9519F09EFD31461AF0FF
:10207000CBFCA0B9344905914AF2D8330093CDE99D
:102080000300CDE901000797089606944346012214
:1020900003210B9519F054FD2EE01DF057B8236A6B
:1020A000002B3FF4EFAE1DF00FF8EBE6234A274874
:1020B000049303F247130694029591211360A7FB42
:1020C000000301FB07311F4B07931D4B05934FF690
:1020D000FF730992022703930BAE13A3D3E90023E6
:1020E0000B970896FFF7ACF84346CDE900503A4607
:1020F0002846032119F058FD31461AF085FC0028C6
:10210000CDD194F86A3043F0010384F86A301DF0B1
:1021100029FD10B30020B6E61220B4E61CF0D4FF6F
:102120000320B0E6AFF300808D49FD1A07000000E0
:102130009C4F002000CA9A3B8C49FD1A904F00200A
:1021400031F301001DC0010045EE0100002AE784C3
:1021500005F18000C5F88800C3E6012024F026FEC2
:10216000D8E748461AF0B6FB07208CE650461AF02E
:10217000BDFB48461AF0AEFBF6E700BF00000000CA
:1021800070B590F824308AB0C3F342030D4604467C
:1021900001210DF1230016468DF8233018F044FB81
:1021A0007178024628461DF085F81F491F4AA0FB9A
:1021B0000131981841F1070119A3D3E90023FFF772
:1021C0003FF823699842054621D21B1A002201924A
:1021D000174A0293174BA21AA3FB0232022192095B
:1021E00000230A4409AE099113490591CDE903334F
:1021F0000321D2B206960093184619F035FD3146F8
:102200001AF002FC38B9256100200AB070BDFBD974
:10221000C21A0023DBE70C200AB070BDAFF30080C8
:102220008D49FD1A0700000000CA9A3B8C49FD1A2F
:102230009C4F002009CB3D8D1DC001000000000017
:1022400038B5194C9DF810E094F848C01CF0010511
:1022500023D163F3420C400194F83230A1874FEA56
:10226000CE0E0EF0180E00F0200040EA0E0023F013
:10227000380303430D4884F832309121A2FB000358
:1022800084F848C001FB023105A3D3E90023FEF71F
:10229000D7FFC4E91000284638BD0C25284638BDB4
:1022A0008D49FD1A07000000E82F0020002AE7846E
:1022B00010B504469DF8080022844FEA411CC00076
:1022C000A17D00F018000CF0200C4CEA000C0C482A
:1022D00021F038014CEA010CA3FB0002912184F8A3
:1022E00016C001FB032104A3D3E90023FEF7A8FFD6
:1022F000606210BDAFF300808D49FD1A0700000039
:10230000002AE784000000002DE9F047044600F1B0
:10231000350190F8480094F832305B4DDFF86C815D
:10232000C0F3400060F386138CB084F8323019F0AB
:1023300001FE94F83220A38F5548E46102F079023F
:10234000002784F832209121A3FB0002C4E905771D
:10235000277001FB03214AA3D3E90023FEF770FF96
:10236000651B626C4B4B6760AD08A3FB053502F142
:102370000903984298BF3A46C5F3470522644FF0D7
:1023800031028CBF19460146A26005EB4502E760A9
:10239000216148F82210064619F07AFD236A00F1FF
:1023A00009074FEA450A002B4AD00DF12C09AA442F
:1023B00008EB8A030993CDF820900694A38F344844
:1023C0004FF00008A3FB0002CDF80C80912101FB27
:1023D000032123690493304B0793304B05934FF04F
:1023E000020A27A3D3E90023CDF82CA0FEF728FF8B
:1023F000104619464FF47A720023FEF721FF043588
:10240000EDB2CDE9016003213B462A46CDF80080BC
:10241000404619F0C9FB49461AF0F6FA60B994F83B
:10242000483043F0010384F848301DF057F908B3F1
:1024300000200CB0BDE8F0870C200CB0BDE8F087A0
:102440000DF12C09CDE90A3321694B460AAA032074
:1024500001F02AF90028AAD10B99114808A3D3E961
:102460000023A1FB0001FEF7EBFE0A9B20F07F4753
:102470001F449CE7504624F099FCD9E7AFF3008055
:102480008D49FD1A07000000E82F00202850002089
:10249000002AE784BD86F21A1DC0010055F901002B
:1024A00000CA9A3B000000002DE9F04F05468BB0B2
:1024B0008B46012002219A46144628F05DF900223D
:1024C00002218146012018F063F83B494FF4D07295
:1024D000284617F0EDFF461DF6B2384B0095324600
:1024E0000121002019F0D8FB10F0FD0F0CD0344A68
:1024F0003449354840F6320339F0F3FB404080F36D
:1025000011884FF0030002DF304BA4FB0348204644
:1025100027A3D3E900234146FEF792FE2C4B20F07F
:102520007F47A7FB03310722E01A02FB071168EB84
:1025300001014FF47A720023FEF782FECDE90170AB
:10254000CDF800B008950695296995F939402148DC
:102550000491214931EA240128BF014605911F4C0D
:1025600007944FF6FE710391534632460121002035
:1025700019F0E6FA10F0FD0F0CD0114A114912487B
:1025800040F6470339F0ADFB404080F311884FF02F
:10259000030002DFB9F1000F02D10BB0BDE8F08FEC
:1025A0000122022110460BB0BDE8F04F17F0F0BF3A
:1025B0008D49FD1A070000003830002025FF01007A
:1025C00000890400C48904003082040000CA9A3BD8
:1025D0008D49FD1A895E020031600200CDFE0100C6
:1025E0002DE9F043C469228D4FF6FF739A428DB0F6
:1025F00000F088800546204620F0FCFC95F8283045
:10260000012B00F00F81022B00F00281002B00F063
:10261000E18094F85071002F40F0FD80E68DB4F811
:102620003080002E71D1AA8C08F101060023CDE97B
:102630000A33B6B2002A70D094F93930002BC0F2B8
:1026400048810023A4F88A3195F82630D90740F153
:10265000EF800023A4F88E310DF127023146204689
:1026600020F00CFA743000F04681B4F888312BB1B8
:10267000B34240F20D819B1BA4F88831B4F8843139
:102680002BB1B34240F2FB809B1BA4F88431258E12
:1026900017B9A84500F0EA800135ADB294F8D13001
:1026A00013F001065AD1DDE90A130A46002B40F067
:1026B000ED80002900F0DC801E461846228DE4697A
:1026C0000694CDE903570532A74D0290CDE90016D7
:1026D000D2B201210020059519F0C6FA10F0FD0FC5
:1026E00010D01AF0BBF984420CD0A04AA049A148EE
:1026F0004FF4A36339F0F5FA404080F311884FF0AE
:10270000030002DF0DB0BDE8F083AA8C464400232D
:10271000CDE90A33B6B2002A8ED195F82630DA0711
:1027200097D4B4F88A31002B00F08280B34240F293
:10273000FA809B1BA4F88A31B4F88E31002B8BD021
:102740009E4280F0DE809B1B9BB20022062BA4F8E9
:102750008E31228600F2AC8001277DE794F9392082
:102760006FF30003002A84F8D13077DB94F8760009
:10277000C0F3C00100F0070025F0C4FBB4F86E20E0
:10278000B4F86C30134403F2D51303447A4A7B48FF
:102790000721E3FB0021104671A3D3E90023FEF7D4
:1027A0004FFDDDE90A1320F07F422069226190424B
:1027B00035BF161A801A002000260A46002B7FF427
:1027C0007DAF56EA010C7FF479AF002850D019464E
:1027D0001E4673E794F88E3003F01803182B7FF42D
:1027E00018AFA18DB4F886218B1D9A42C4BF931FE8
:1027F0005B1AB4F88211CCBF9BB21346994200F029
:102800008C80A4F88231A4F88431A4F8882100E7F0
:102810003D2784F85071394620460DB0BDE8F0439D
:102820001DF01CBF0023A4F88831A4F88431F0E621
:10283000B4F88E31002B83D1628DB4F88C3140F224
:10284000E24101FB02F242F2107101FB0323013B62
:10285000B3FBF2F39BB2A4F88E316FE794F87700E4
:10286000012100F0070025F04FFB87E73D4615E703
:10287000002D4BD000261146304633461EE700237C
:10288000A4F88431204620F099F900E7304615E796
:102890001AF072F8014600283BD00023A4F88831D2
:1028A000238DC3801B23037100681AF02FF8E5E61F
:1028B00094F939309342BFF6CFAEB8F1000F7FF4F0
:1028C0004BAFD4F878315A08DB0743D4C4F87821E9
:1028D000C2E628460AAA0BA904F1D409FFF748FA70
:1028E00048461FF059FE18B348461FF055FE18B36E
:1028F00000232386A5E69DF8271020461DF0AEFE96
:1029000000E7082120461DF0A9FEFBE6002FB1D10B
:10291000F8E60123A4F88831B0E6B4F8881100295C
:102920007FF477AE6FE73E2120461DF097FEE9E683
:10293000FF201DF053FED7E70246D4E91E0117F031
:10294000EFFD0028D4D194F83C30580744BFA38D44
:10295000238676E642F00042C4F87821FCE600BF08
:102960008D49FD1A070000008DFE0100008904005A
:10297000108A0400308204008C49FD1A00CA9A3B78
:102980002DE9F04F87B0CDE90432BDF8442003783B
:102990000292BDF84820BDF84080BDF84C50468EEC
:1029A000B0F82E90B0F814B1019104460392002BB8
:1029B00000F0CB80013EB6B2A368D4F80C71721B54
:1029C00092B2002B009209DAE168626823F00043BA
:1029D00091422CBF7F18BF18A360FF1A009A638D25
:1029E00013FB02F39BB2B3FBF8F218FB02F080B2C8
:1029F00083421FFA82FA80F09780C01A40F2E242C6
:102A00005D4902FB00F0A0FB010159A3D3E90023BB
:102A1000FEF716FC20F07F400744D94494F8393083
:102A20004D44AD1B554440F2E246DB09E58506FB0B
:102A300008F500F08E80226C0099A36CDFF838B1A5
:102A400002FB1133A36425F049FC814694F874011C
:102A5000C0F3420025F044FC059B814406FB03F3D0
:102A600005FB09F9236509F57429444B09F23F294F
:102A7000A3FB09394FEA994303FB0AF02364A5EB52
:102A80000309A36C6A080344963A934228BF13468D
:102A9000C4E911230023C4F87C31A0FB0B0134A34B
:102AA000D3E90023FEF7CCFB049B3F1A3448A0FB7C
:102AB0000330800A06FB00F02DA3D3E90023A0FB1E
:102AC0000B01FEF7BDFB20F07F46029BA385039B15
:102AD000A4F88C3129462046A4F82A8020F00AF870
:102AE000284BA18D2B44881DB3FBF5F39AB290427D
:102AF000A4F8862102D2521A063A92B2019BA4F897
:102B0000822113B10023A4F88E313B464A46314658
:102B10002046FFF7C9FC94F8803143F0010384F8A4
:102B2000803107B0BDE8F08F08FB1231124840F247
:102B3000E24389B203FB01F1A1FB00010CA3D3E93D
:102B40000023FEF77DFB3F1A67E74E445E44B6B2B2
:102B500032E7049B0848A3FB000105A3D3E9002347
:102B6000FEF76EFB20F07F46A9460136ADE700BFB9
:102B70008D49FD1A0700000000CA9A3B83DE1B4303
:102B80005917B7D17FC3C9012DE9F04F0B6891F8F0
:102B90001180D3F80090037F176895B00446C3F303
:102BA0008013D0F81E008DF83F30B8F1FF0F638C12
:102BB00012900E461546ADF84C300DF1480A49D139
:102BC0009AE803001090ADF844102346E28D53F8C4
:102BD0002EBB9B78AB722A81D4F82A306B60D4F874
:102BE0003A30AB6105F1180094F83E3003710521CD
:102BF00017F01AFE6B7F00F03F0060F305036B7760
:102C000094F83F30C3F30402AA77A28EEA81012828
:102C100003F01F0392B205D91B3303F01F030B2BE4
:102C200000D81ABB0022C9F8142095F8203062F3AE
:102C3000000385F82030E5680126584621462671B4
:102C400019F05AFE28682E71294619F05FFE15B05A
:102C5000BDE8F08F10AA0DF13F01404623F0CAFDF8
:102C60009DF83F3002338DF83F30AEE733680021E6
:102C70005960E38EEA892B8240F2E24303FB02F2C1
:102C80000B92638E0D9338461FF048FF94F83F2057
:102C900097F87411520962F3430187F8741125F013
:102CA0001DFB0C9097F87401C0F3420025F018FB4F
:102CB0000C9A0B99104401FB00F0B94A00F57420FE
:102CC00000F23F20A2FB00204A08800C963A68627E
:102CD000AA6294F8312040F2E24302FB03F3AB63B3
:102CE000238FA7F88C3138461FF004FF0B99AD4BAA
:102CF000AD4AC7F890210B44B3FBF1F39AB2A7F8A1
:102D00008621298A881D824204DDC1F57F41FA317E
:102D10000A4492B2A7F882216B68C7F8783123463B
:102D200013F81C2FC2F340120C92DA0700F1138142
:102D30004FF48073A38399F8260024F007FB04F175
:102D40002B03002800F0EB80626AC4F82B20228D50
:102D50009A80B8F1FF0F00F0E680BAF804301298BC
:102D6000A4F82930C4F825009DF83F30A3771098C7
:102D7000BDF84430C4F81F00A4F82330EB89638603
:102D80002B8AA386B7F88C31E38697F87431C3F3A6
:102D9000420384F8383038461DF0FCF8A881E08002
:102DA00021465846746819F0A7FDAB89E3801C23BF
:102DB00023710C9BD4F80080002B40F0BA800C9B50
:102DC00023772146404619F0A1FD95F85B00B5F840
:102DD0005080B5F85240012100F0070025F094F82A
:102DE000444404F2D514DFF8C48104448246704898
:102DF0000721E4FB080131230024BB607C6066A34B
:102E0000D3E90023FC60FEF71BFA20F07F40386115
:102E10000B9B6D6A0D995D1BF36840F2E24202FB69
:102E2000013303F2B241A1EB0A0A2246022101203A
:102E300017F0AEFB48461CF037FC0246AAFB08011F
:102E4000924655A3D3E90023FEF7FAF9CDF8049092
:102E5000B3685849009120F07F480AF102023A3BDA
:102E6000D2B220464344012118F058FF01287FD0F8
:102E700099F82430DB0766D438461DF08BF84B4BAD
:102E8000A5FB03A9044644A3D3E9002350464946C1
:102E9000FEF7D6F9484BB668484A079220F07F45BE
:102EA000A5FB0331BAEB0300454B059340F2D11368
:102EB000069708933B694FF0000BCDE903B34FF041
:102EC000070303FB051169EB01014FF47A7200233C
:102ED000FEF7B6F905343A3EE4B2CDE90150CDF83B
:102EE0000080334622460121584618F029FE10F092
:102EF000FD0F0CD0334A344934484FF4E97338F0AD
:102F0000F0FE404080F311884FF0030002DF012201
:102F10000221104617F03CFB15B0BDE8F08FC4F855
:102F20002B00988015E70022C4F82520A4F829205A
:102F30001AE76B7F43F040036B77281D23F052FAAA
:102F40000123E8833CE70023012200931846114641
:102F500018F0A2FE90E71B4A1D491C48F82338F0E0
:102F6000C0FE404080F311884FF0030002DFDFE62F
:102F700019F074FD81453FF47BAF124A154913489F
:102F800040F2792338F0ADFE404080F311884FF0D5
:102F9000030002DF6CE700BF8D49FD1A0700000047
:102FA00083DE1B437FC3C901404B4C0000CA9A3BE0
:102FB0008C49FD1A4D5E02008D49FD1A1D5E02000E
:102FC000895E0200C48E0400C489040030820400BB
:102FD00000860400208F04002DE9F04F8BB0CDE96E
:102FE000040103930020BDF858309DF85480BDF8CB
:102FF0005CB0BDF860A0069316461CF0C1FD002829
:1030000000F0468108F001090446484618F082FFA6
:10301000B9F1000F6CD1236A04F11C020792002B56
:103020006DD0276A3D6897F85A00C0F3C00100F0E0
:10303000070024F067FFB7F85210B7F8502000F2ED
:10304000D5130A441344CA48CA4A0721E3FB0021A6
:103050001046C5A3D3E90023FEF7F2F820F07F4025
:103060002861304623F0E2FE94F833306FF34103D9
:1030700084F83330FF2384F834306EB3A8F10203B0
:10308000012B40F2098194F84810039D68F3420136
:1030900084F8481094F8331065F30001DDE9042347
:1030A00084F833101499096861621499898821851C
:1030B000A4F830A004F11C0000960021FFF7F8F8F6
:1030C000606425F0B9F8002840F0F1802046FFF751
:1030D0001BF90BB0BDE8F08F24F0E6FA0028CDD044
:1030E00014990398324624F01BF884F83400C5E79D
:1030F000062117F0F1F900288DD11220E9E719F027
:10310000E3FB0790002800F00C811CF037FF054618
:10311000002800F00381203017F09AFB05F11C070E
:10312000002840F0EE80032105F1240024F09EFDEC
:10313000069BD5F888006B854FF6FF73A5F82CB079
:103140002B85002800F0EF8005F17C0205F1780165
:1031500017F0CEF9B5F8763023F4EF6323F00703C8
:1031600043F4887343F00103A5F8763095F88E3068
:103170004FF0000B23F0070385F88E300121C5F8CE
:1031800088B0A5F88CB028461DF09CFDC5F82EB07F
:10319000A5F832B005F1340023F0CEF895F83930B7
:1031A00060F30503012185F839300DF1270024F083
:1031B0005DFD9DF82720704B85F83BB0A3FB021303
:1031C000DB0803EB4303A2EB830295F83930A98DAA
:1031D000A5F88EB103F03F0385F8393095F83C30FF
:1031E000A5F884B1053223F0030385F83A20069A46
:1031F00085F83C3040F2E24B604BA5F88CA10BFB0C
:1032000002FB4FF4C0225B44C5F88821881DB3FB44
:10321000FBF39AB28242A5F8862102DD063A521AE1
:1032200092B2A5F8822128461FF0ECFB59462846A9
:103230001FF060FC4FF0000B079BC5F8543185F878
:1032400050B11DF029F995F8943160F3020385F827
:1032500094311DF027F995F8943160F3C50385F892
:10326000943195F880316BF3410385F8803105F195
:10327000D4001FF04FF93123C5F804B0C5F80CB0E5
:10328000AB602762C5E905BB85F800B0ED61CAE611
:103290000C200BB0BDE8F08F002023F0EBFD94F87C
:1032A000333043F00203C84684F83330EBE6256A36
:1032B000EB6E63B1324A3349334840F21D4338F074
:1032C00010FD404080F311884FF0030002DF05F14C
:1032D000600105F15C0017F00FF90646002835D0B3
:1032E0002F68EE66D7F8545115B3284619F0F2FA54
:1032F00038461CF049FE0023032023620BB0BDE8D2
:10330000F08F1F4A21492048C12338F0EAFC404091
:1033100080F311884FF0030002DF04E7079819F0EB
:10332000D9FA0720D5E605F18000C5F888000BE73B
:10333000134A1749144840F2264338F0D2FC404063
:1033400080F311884FF0030002DFCEE70C4A1049EA
:103350000D4840F21F4338F0C4FC404080F3118810
:103360004FF0030002DFBBE78D49FD1A07000000A4
:1033700000CA9A3B8C49FD1AABAAAAAA7FC3C9010D
:10338000508F0400F4870400308204008C82040013
:1033900050890400000000002DE9F04F04468DB074
:1033A00090F81C80238D406AADF82C30E307C8F3F9
:1033B000C0170E461546C8F340180A9000F10D815B
:1033C0000023A383B37C707C13F001031CBFD4F8EB
:1033D0001E30C4F82B3004F12B0214BF638CC4F8E8
:1033E0002B30FF28938004F1250904F11F0240F0DF
:1033F000E5800023BDF82C100A98C4F82530A9F800
:103400000430A777C4F81F0091803368D3F8009088
:10341000EB8963862B8AA386B9F83030E38624F0E3
:103420005BFF84F838002F6838461CF0B3FD00219C
:10343000A881E08038461FF071FBD6F804A0206810
:10344000214619F059FAAB89AAF806301C23DAF89C
:1034500000408AF80430B8F1000F40F0CC808AF8C0
:103460001C805146204619F051FABB687A6895F8DD
:103470005A00B5F80E80F568674C934238BF134682
:10348000C0F3C00103F1090A00F0070040F2E24373
:1034900003FB08F824F036FD002202212D1A01203A
:1034A00017F076F848461CF041FBA5FB044558A3ED
:1034B000D3E90023834629462046FDF7C1FECDF817
:1034C0000490B3685549009120F07F490BF1040244
:1034D000A3EB0A03D2B24B440121002018F01EFCDA
:1034E00010F0FD0F0CD04E4A4E494F4840F23D338C
:1034F00038F0F7FB404080F311884FF0030002DF03
:103500004FF0000B5B4603220121CDF800B0584676
:1035100018F0C2FB38461CF03DFDB36806463E4835
:10352000A3EB0A0AA8FB000139A3D3E90023FDF7A6
:1035300087FE19463D4B08933D4B069340F26D3391
:10354000079709933B698046CDE904B310460023F1
:103550004FF47A72FDF774FE364B0722A9FB033154
:10356000CDE9028002FB0911E01A65EB01014FF47D
:103570007A720023FDF764FE0536F6B2CDE90090BD
:10358000534632460121584618F0F6FA10F0FD0F66
:103590000CD0234A2349244840F26E3338F0A1FB73
:1035A000404080F311884FF0030002DF0122022126
:1035B00010460DB0BDE8F04F16F0EABF04F11E0151
:1035C00023F018F9A37FBDF82C200A98C4F8250031
:1035D0000233A377A9F8042017E7114A16491248C5
:1035E00040F2BD2338F07DFB404080F311884FF05E
:1035F000030002DFE4E66B7F43F040036B77281D96
:1036000022F0F0FE4FF00108E88328E7AFF30080D6
:103610008D49FD1A0700000000CA9A3BFD5F0200B9
:10362000508F0400C489040030820400016002004D
:10363000316002008D49FD1A008604000000000080
:10364000052801D00020704770B500200D461CF001
:10365000A9FC044618B190F93930002B01DA00209A
:1036600070BD90F876000E4EC0F3C00100F0070068
:1036700024F048FC0B4A00F265400721E0FB0621DC
:10368000104605A3D3E90023FDF7DAFD20F07F40C3
:103690002860204670BD00BF8D49FD1A070000005C
:1036A00000CA9A3B8C49FD1A2DE9F04F93B0FF24D4
:1036B0000B930B1D0A930023CDE90E3305461646E6
:1036C0008DF837409B464FF0040A1F4699469846AE
:1036D00010AB0693564B0593564B03930FAB0193D8
:1036E0000EAB002000930223109304900290334607
:1036F0000DF13702294618F055FB022815D0109B12
:10370000CBB9FF2C26D03368BB4223D0BAF1000FCF
:1037100040D00AF1FF3AFF245FFA8AFA8DF8374069
:10372000D6E72946002018F09BFB109B022BF8D00F
:10373000109B002BE5D0404A404941484FF4F773B5
:1037400038F0CFFA404080F311884FF0030002DFD9
:10375000FF2CD8D19DF83700FF2829D011A9FFF7F9
:103760006FFF0028B4D0FF2C0E9F119B0AD041465A
:103770003846099318F08EFB0A9B03EB090290422E
:10378000099B17D8B8469DF837403768DDF83CB03C
:1037900099469DE72B49284A29484FF4FB7338F096
:1037A000A0FA404080F311884FF0030002DFB0E739
:1037B000FF2C34D024480721A9FB000301FB093169
:1037C00019A3D3E90023FDF73BFD044600B14034C3
:1037D0001E4AABF57423A3F51073934216D81A480A
:1037E0000721A8FB000301FB08310FA3D3E9002345
:1037F000FDF726FD164BA3FB0B2304EB93440B9B19
:10380000044400201C6013B0BDE8F08F0BF1E87B8E
:103810000BF5D43B08F1FF380BF5A57BDFE76FF024
:10382000090013B0BDE8F08F00CA9A3B0000000009
:10383000FD620200016302009C8F0400E08F04001F
:1038400030820400E88F04008D49FD1ABFBDF07F6F
:1038500083DE1B43000000002DE9F043C668476883
:1038600073683D491A68D0F80090A7F57423A3F552
:1038700010738B4283B0804607D907F1E87707F5CC
:10388000D43709F1FF3907F5A57773681169DD8928
:10389000CDF8049006F1100301AA0220FFF704FFFF
:1038A00000284ED10199A1EB09031B0237D4084629
:1038B000494618F0EFFA034628480721A3FB000207
:1038C00001FB032122A3D3E90023FDF7B9FC3469EE
:1038D0000444002C346109DB40F2E24305FB03F3AE
:1038E000A3422FD2E41AA342FCD33461D8F80030AB
:1038F0001A48A3EB0903A3FB0002072101FB0321E4
:1039000013A3D3E90023FDF79BFC154BA3FB07375B
:10391000A0EB97402044306103B0BDE8F0834846F7
:1039200018F0B8FA03460D480721A3FB000201FB7B
:10393000032107A3D3E90023FDF782FC3469241A8D
:10394000C7E73469002CD1D103B0BDE8F08300BFD4
:1039500000CA9A3B00000000BFBDF07F8D49FD1AF0
:1039600083DE1B4300000000F0B5C468636883B0C9
:103970000546002B63D126F047FA002026F06AFAAC
:103980000021084626F058FA00222521082026F0BA
:1039900097FA454B019301A826F07AFA434940F281
:1039A0005B6026F023FB237AC3F3420262F3061323
:1039B0002046237224F0B2FE23F076FE58BB637AD1
:1039C0009B071FD127682E68384624F039FA064431
:1039D0006A6806F10901012026F062FC26F04EFD1E
:1039E00020461BF06DFE811C3246C9B2384624F0D9
:1039F00035FA054670BB204624F0BCF988B9002092
:103A000003B0F0BD012023F0C5F94178821C007895
:103A100026F0E6FBD6E7607A10F0030018BF01201D
:103A2000F1E7234A2349244840F22C4338F059F95E
:103A3000404080F311884FF0030002DFDFE793F886
:103A400020309A0797D01D48214626F09BF926F092
:103A500089FAD4E7164A1A49174840F2144338F055
:103A600040F9184B0721A5FB030301FB05310CA30B
:103A7000D3E90023FDF7E4FB13490246134838F06D
:103A800030F9404080F311884FF0030002DF104806
:103A9000214626F077F926F065FA6FF08B00AFE744
:103AA00000CA9A3B00000000D6BE898E55555500CD
:103AB000B89304009C83040030820400E57F020078
:103AC000B08204008D49FD1A689404003C940400FF
:103AD000ED820200000000002DE9F041C46894F975
:103AE0001630002B8CB0C0F2FF80636805460E468E
:103AF000002B40F0EE80A37D6FF30003A37526F04A
:103B000083F9002026F0A6F90021084626F094F952
:103B100000222521082026F0D3F9012019F050F8C1
:103B20000746002800F0C78007F11C0026F0F2F9D4
:103B3000874B0B930BA826F0ABF9864940F25B60EC
:103B400026F054FAA07DC0F34100253024F098F906
:103B50008148214626F016F9A37D9B0603D46368AD
:103B6000002B00F0A580962026F08EFB00231A463D
:103B70001946184626F0A0FA23F096FD002838D101
:103B8000A37D13F0180F59D1D4F800802F68404658
:103B900024F056F907446A6807F10901002026F06D
:103BA0007FFB26F06BFC26F0F7FA20461BF0CCFFDB
:103BB000011DC9B240463A4624F050F9804600281B
:103BC00040F0998016B9636A002B4ED1636843B107
:103BD000624B0122022100209D6016F00DFD00289D
:103BE00035D1204624F0C6F8D0B900200CB0BDE88D
:103BF000F081A07DC0F3C00023F0CCF807460DF1A2
:103C00002B0023F0CBFB79788046BA1C387826F05D
:103C1000E7FA9DF82B000022414626F0FFFCB3E7AF
:103C20004F4A5049504840F20B2338F05AF8404070
:103C300080F311884FF0030002DFD6E7012023F064
:103C4000A9F84178821C007826F0CAFA9CE7444A19
:103C50004649454840F2062338F043F8404080F397
:103C600011884FF0030002DFBBE7414A0792414A47
:103C7000059240F2F31200930892CDE90366CDE974
:103C8000016606943B463146032217F059FF10F0B7
:103C9000FD0F9BD0324A384933484FF4FA7338F05D
:103CA00020F8404080F311884FF0030002DF8DE7D9
:103CB00026F062FA60E72A4A30492B484FF4C57370
:103CC00038F00FF8404080F311884FF0030002DF16
:103CD0002AE7636893F82030D90705D4636893F81E
:103CE00020309A077FF507AF2548214626F04AF88D
:103CF00026F038F979E71A4A22491B4840F2E513C1
:103D000037F0EFFF204B0721A8FB030301FB08312D
:103D10000DA3D3E90023FDF793FA1C4902461C4882
:103D200037F0DFFF404080F311884FF0030002DFDF
:103D30001848214626F026F826F014F96FF08B007B
:103D400054E700BFAFF3008000CA9A3B00000000B8
:103D5000D6BE898E55555500393E0000880B00208F
:103D6000749404009C83040030820400A483040043
:103D7000658E0200058F0200408704000494040051
:103D8000E57F0200B08204008D49FD1AC094040052
:103D90003C940400418D020038B5044624F080FFB5
:103DA000A37DA27DC3F34103013303F00303032B7F
:103DB00008BF002363F3420214BF03F1250025204E
:103DC000A27524F05DF863680BB123694BB918F054
:103DD0005FF8C11C002026F0D7FABDE8384026F075
:103DE0004DBB26F0FFFA054618F052F8C11C002022
:103DF00026F0CAFA26F042FB26F0F4FA294618F01B
:103E000049F80B4A03460721A0FB020201FB0321EC
:103E100005A3D3E90023FDF713FA23691B1A2361D5
:103E200038BD00BFAFF3008000CA9A3B000000001D
:103E30008D49FD1A000000002DE9F0478AB00446C4
:103E400026F0C0F8C0B250B924F072F8C448214638
:103E500025F098FF0AB0BDE8F04726F083B826F0B9
:103E6000D1F8054626F0F0F9074626F0F7F9814625
:103E700026F02EFC064626F00DFC824626F0A6F91A
:103E8000EDB2804626F086F924F052F8002DDDD000
:103E9000012018F095FE0546002800F04D8117F02E
:103EA000FF07F6B240F0E380002E40F0DA804FF0DA
:103EB000FF093A464B463146204625F017F90028BF
:103EC000C4D02A7F616800238DF823305FFA88F719
:103ED00002F00F03002900F0EC80616891F82010D7
:103EE000880700F1E680072BB0D0A17D090740F1DB
:103EF0004381002B40F0C4806B7F063B1F2BA5D86D
:103F0000042018F05DFE0028A0D026F0BFFA636AF6
:103F1000074643B9238C40F2712202FB03F3B0FB46
:103F2000F3F203FB120723681A698E4B0721A2FBE9
:103F3000030301FB023188A3D3E90023FDF780F9D5
:103F40006FF44A7C00EB0C03BB42FFF47FAF26F01A
:103F500013F94846636823F007FAE37D9907804622
:103F600040F1E581002800F0E2818246012726F039
:103F700057F8CDE9027A09AB049305F11E030193CA
:103F80002B7FC3F3801301460746009300220123D1
:103F9000204625F0C5F8384625F0C2FF26F008F87F
:103FA000002840F0CA817048214625F0EBFE626887
:103FB00092F8203043F0010382F82030A37D43F0D3
:103FC0008003A37518F01EFE172202714FF6FF72D0
:103FD000C28095F81CC082463B46CCF3401C00F1E1
:103FE0001C0207F1200E1D6858689968DF68D760C9
:103FF0001033734515605060916002F11002F2D1E8
:104000001B6813609AF81C30CAF808406CF345131B
:104010008AF81C3026F0E6F9002ECAF81000099B39
:10402000CAF8143008BF4FF0FF098AF81990E37DF1
:1040300013F0020303D0B8F1000318BF01239AF86C
:104040001A2063F300028AF81A2018F0DBFDCAF880
:104050000C00DAF8000051460AB0BDE8F04718F04D
:10406000FFBD5FFA8AF023F00DFA814621E7A07DBB
:104070005FFA89F1C0F3C00023F09AF9814618E78E
:10408000012B40F089806A7F0C2A7FF4DFAE2A7F03
:10409000CDF80090194600230193D20905F12403BD
:1040A000204624F077FF00287FF42AAF2B7F03F00F
:1040B0000F03002B70D16B7F052B7FF6C7AE252B2E
:1040C0003FF6C4AEA27D02F02102202A09D1626827
:1040D000002A00F0C180052B7FF6B8AE252B3FF6F5
:1040E000B5AE63682BB12B7F03F00F03072B7FF472
:1040F000ADAE03209DF8238018F062FD0546002830
:104100003FF4A4AE18F07EFD4FF6FF73EB8005235D
:104110002B71002F3CD17F20AB7E2876002E08BF6C
:104120004FF0FF0968F34103286885F81990AB76D2
:10413000294618F095FD89E60C4A0D490D4840F2D4
:10414000C72337F0CEFD404080F311884FF00300C5
:1041500002DFA4E6AFF3008000CA9A3B0000000033
:10416000598D02008D49FD1A498F02007494040094
:104170000494040030820400B9F1FF0F8DF82490FC
:10418000C2F380184BD0227E91453FF4B2AE90E747
:1041900026F00CF8C0B2BFE7062B8CD04521D940E1
:1041A00011F0010139D1012B10D16B7F0C2B7FF461
:1041B0004DAE2A7FCDF800900DF123030193D20973
:1041C00005F12403204624F0E5FE08BB2B7F03F015
:1041D0000F03042B7FF43AAE6B7F063B1F2B3FF699
:1041E00035AEA37DDB077FF531AE25F019FF2B7FC0
:1041F0000278C3F38013B3EBD21F7FF427AE0830ED
:10420000062205F11E0142F038F800287FF41EAEA8
:104210006B7F002B7FF465AF18E66B7F5BE705F1E2
:104220001E0A09AA5146404623F0E2F900283FF44D
:104230003DAFE37D03F0010343457FF437AF5146C3
:10424000062204F1080042F018F800287FF42EAF8F
:104250002B7F03F00F034CE69620079226F014F80C
:10426000079A104625F0E0FE032018F0A9FC8046CE
:1042700000283FF4EBAD18F0C5FC4FF6FF73A8F82B
:104280000630052388F80430002F64D17F23002EE8
:1042900088F8183014BF4B46FF2388F8193098F877
:1042A0001A30D8F800006FF3410388F81A304146FD
:1042B00018F0D6FC25F0B4FE06460322337862F3EC
:1042C000030333702B7F3278C3F3801363F3C71279
:1042D0000C2332704846737023F046F8E27D920753
:1042E0003DD500283BD03178324641F0400102F8FC
:1042F000021B0168C6F8021083889380D5F81E302F
:10430000B3606B8CB381304625F00AFE25F050FE79
:10431000002835D126F0B2F8A37D204843F00103F0
:104320002146A3750AB0BDE8F04725F02BBDA77D57
:1043300004F1190AC7F3801719E6194A19491A48EE
:1043400040F2A44337F0CDFC404080F311884FF099
:10435000030002DF27E625F029FFC3B297E7A37D1C
:104360003278C3F3801363F38612334603F8022BCB
:10437000D4F81920C6F80220B4F81D209A80BDE7B1
:10438000074A084908484FF4A56337F0AAFC4040A3
:1043900080F311884FF0030002DFBBE76D8D020050
:1043A000749404000C9404003082040000000000A7
:1043B0002DE9F041C468A2894FF6FF739A4282B09A
:1043C00000F0C780054624F0AFFF2B89628AE08A9F
:1043D0001A4492B21044637FA28280B2411CE182EF
:1043E0005E064FF00001618204F1180100F18C803B
:1043F00003F03F000B46A17F009004F11F0021F065
:10440000A9FF0646D4E90B231344D4E90D02002189
:104410000244E1626163A16AA26394F872208B4254
:1044200028BF0B4612F00402236377D025F0ECFC82
:10443000002025F00FFD201D25F02AFD2389A17AFB
:1044400040F25B6043EA014125F0D0FD304623F0A5
:1044500017FD2146584825F095FC962025F014FFBD
:1044600094F85A2094F85B00C2F3C003002102F0D4
:10447000070200F0070025F01FFE204624F0B4FFDD
:1044800027682E68384623F0DBFC06446A6806F18C
:104490000901002025F004FF804625F0C3FF00201D
:1044A00025F0DAFF236B94F85B0003F13002A36B75
:1044B00000F00700012103EB420525F03FFD4544D4
:1044C000054494F85B0000F00700022824D004287B
:1044D0000CBF4FF4BC73282301211D4425F030FD8F
:1044E000284425F091FFA18905313246C9B23846EA
:1044F00023F0B4FC054698BB204623F03BFCD0B922
:10450000002002B0BDE8F0810A4603F03F03E18BD2
:1045100021F06CFF064675E71823DDE7D4E91701A3
:1045200015F0FEFF002881D194F8723043F00403A7
:1045300084F872307AE7214A2149224840F2551323
:1045400037F0CFFB404080F311884FF0030002DFCB
:10455000D6E71D48214625F015FC25F003FDCFE7E1
:10456000164A1A49174840F24B1337F0BAFB184B5A
:104570000721A5FB030301FB05310DA3D3E90023AC
:10458000FCF75EFE13490246134837F0AAFB404091
:1045900080F311884FF0030002DF1048214625F018
:1045A000F1FB25F0DFFC6FF08B00AAE7AFF3008092
:1045B00000CA9A3B000000004196020040950400AA
:1045C0009C83040030820400E57F0200B082040076
:1045D0008D49FD1A949504003C940400C17F0200AB
:1045E000F0B5C468A2894FF6FF739A4285B000F017
:1045F0008B80054624F098FE2B89628AE08A1A4453
:1046000092B21044637FA28280B2411CE1825E06B6
:104610004FF00001618204F118015FD403F03F0004
:104620000B46A17F009004F11F0021F093FE064687
:10463000204603A924F0A6FF039B94F872101A7871
:1046400061F3C3021A70039A94F872301178C3F3BD
:10465000400363F38201117025F0D6FB002025F0A2
:10466000F9FB201D25F014FC2389A17A40F25B6040
:1046700043EA014125F0BAFC304623F001FC0399DE
:10468000204624F053FF2146374825F07BFB962037
:1046900025F0FAFD94F85B0000F0070025F0C4FC5B
:1046A00027682E68384623F0CBFB06446A6806F17B
:1046B0000901012025F0F4FD25F0E0FEA189053176
:1046C0003246C9B2384623F0C9FB054618BB20461E
:1046D00023F050FB50B9002005B0F0BD0A4603F0AE
:1046E0003F03E18B21F082FE0646A1E71F4A2049E5
:1046F000204840F2031337F0F4FA404080F3118869
:104700004FF0030002DFE6E71B48214625F03AFBA5
:1047100025F028FCDFE7154A18491648F92337F039
:10472000E0FA174B0721A5FB030301FB05310CA39E
:10473000D3E90023FCF784FD12490246124837F002
:10474000D0FA404080F311884FF0030002DF0F4899
:10475000214625F017FB25F005FC6FF08B00BBE729
:1047600000CA9A3B0000000075940200A095040066
:104770009C83040030820400E57F0200B0820400C4
:104780008D49FD1AF09504003C940400C17F02009D
:1047900007B50548009313460A46044936F0DBFE88
:1047A00003B05DF804FB00BFE09E040093A2040088
:1047B00007B5CB8801938B8800934B880A880448FF
:1047C000044936F0C8FE012003B05DF804FB00BFC9
:1047D000FD9E040086A2040070B51D461446002606
:1047E00022B9084836F0B7FE204670BDD6541946A7
:1047F000054836F0B0FE20463246294600F0C8FC97
:104800000120F2E7249F0400349F040010B5074BF9
:10481000074C002908BF1C463CF0B0FC224603466A
:10482000BDE810400349044836F095BE5E9F040081
:10483000C6D9040069A20400699F04007FB5142250
:10484000002101A841F0DEFC084B0949039301A8AF
:104850000AF0DCFA014628B1064836F07CFE07B0C3
:104860005DF804FB044836F076FEF8E7A00030005F
:10487000294C0000839F0400A69F04002DE9F04707
:10488000344B1B6890B005468846002B5AD10378FC
:10489000063B012B06D8447814F0010454D02E486E
:1048A00036F059FE012010B0BDE8F08796E80F0001
:1048B00087E80F00D9F80410D9F800006B4603C34D
:1048C0006B6823440DF1190203F1100153F8040B36
:1048D00042F8040B8B42F9D102238DF818301F4B9C
:1048E0000BAA03F1100A9646186859689446ACE87A
:1048F0000300083353456246F6D11B788CF800302C
:10490000714606A83AF0A0F938B1154836F023FEF2
:1049100002346B789C42C9DBC4E70AF0F3FA014623
:1049200018B1104836F017FEF2E73946094B6A46CF
:1049300040460BF0CFFA014620B10B4836F00BFE93
:10494000FFF77CFF0020AEE7084E02AF06F110092A
:10495000DFE700BFEC390020C59F0400E86C0400CD
:10496000D39F0400DD9F0400FB9F0400D06C040073
:104970002DE9F041064690B015460C4659B97E48DF
:1049800036F0E9FD14222146284641F03BFC002088
:1049900010B0BDE8F081098A7848794D36F0DBFD2A
:1049A000784BD5F800C001AA03F1100896461868A4
:1049B0005968174603C7083343453A46F7D11B7871
:1049C0003B70604671463AF03FF9DFF8BCC180BBEE
:1049D0000BAFACF110033A4618685968BE46AEE812
:1049E0000300083363457746F6D11B788EF8003014
:1049F000664B0DF13C0E9C46174603CF7745186079
:104A000059603A4603F10803F6D13A781A70238ABE
:104A10005B49C5F800C001332B81304603232B745A
:104A20000EF026FE01460028B1D0594836F093FD1D
:104A3000ADE706AAD5F800E0ACF11003904618687F
:104A40005968174603C7083363453A46F7D11B78C0
:104A50003B70414670463AF0F7F84E4F90BB204607
:104A60003CF03AFBA7F110030BAA1868596894466A
:104A7000ACE803000833BB426246F6D11B788CF8E1
:104A80000030424B0BAF0DF13C0E9C463A4603CA38
:104A9000724518605960174603F10803F6D1127881
:104AA0001A70238A3649C5F800C002332B8130467C
:104AB00003232B740EF0DCFD014600283FF467AFA2
:104AC0003548B3E7D5F800E0A7F110030BAA186842
:104AD00059689446ACE803000833BB426246F6D1FD
:104AE0001B788CF800300BA970463AF0ADF870BB1B
:104AF00042F60213ADF80230244B8DF800006F46E9
:104B00000DF1100E9C463A4603CA72451860596072
:104B1000174603F10803F6D112781A70238AC5F8F4
:104B200000C002332B81204604232B743CF0D4FABE
:104B30001A4B988120463CF0CFFA114930460EF0CE
:104B400097FD014600283FF422AF15486EE7134950
:104B5000144B0B6001230B82238ACB8130460FF06C
:104B6000CDFA014620B110F1780F01D00E485DE773
:104B70000E4836F0F0FC0AE718A004002BA0040051
:104B8000D8390020E86C0400096D0400F4120020FC
:104B900042A004001A6D04006AA00400BC39002081
:104BA00093A00400D9470000B8A00400D3A00400DB
:104BB00070B503788AB004460E4607AD032B20D8A3
:104BC000DFE803F002191B1D11492846FCF7ACFC75
:104BD000059563780493A3780393E378029323798C
:104BE000019363790093A3790A4A1E21304635F078
:104BF000F5FF0AB070BD0849E7E70849E5E708494D
:104C0000E3E7084A0A21284635F0E8FFE0E700BF5D
:104C1000E1A0040003A10400E8A00400EFA0040048
:104C2000F9A00400A02E050070B588B016466946AC
:104C300005461C46FFF7BCFF012E04D803492A464F
:104C4000204607F0A9F908B070BD00BF7D480000FC
:104C50007FB50B4B00930B4B0FCB01AC84E80F00DF
:104C6000094C2046FCF768FC6A460146204600F0E5
:104C70008FFA00214FF4203035F0B2FBF1E700BF8E
:104C800002001092880400200513002008B50B488C
:104C900040F079FC78B10A484FF4D01136F01DFB92
:104CA000002808DB074840F06EFC20B106484FF4AE
:104CB000B01136F012FB002008BD00BF4C650400A7
:104CC000A06E040038650400986E040008B505481D
:104CD000012136F01CFBBDE808400348002136F0F6
:104CE00016BB00BF986E0400A06E0400F0B597B02C
:104CF00004460D463AF089FD06A9FFF759FF0EA9B3
:104D000020460BF08FF8014618B13C4836F023FCE2
:104D100013E09DF83970002F66D1394E7DB12A46D7
:104D200006A9384836F017FC30680AF0BDFE306836
:104D30003AF046FC3760FFF781FD17B0F0BD06A9D9
:104D40003148356036F007FC20463CF017FA2F4D0D
:104D50002F4902462F4836F0FEFB2F4B2C492F4897
:104D60002B6036F0F8FB294620460EF055FC024633
:104D700018B127492A4836F0EEFB20460AF094FE87
:104D8000284A137801331370274B01AD03F1100744
:104D90002A46186859682E4603C60833BB42354672
:104DA000F7D11B783370214B05AF1E46154603CD56
:104DB000BD42186059602A4603F10803F6D12A78EB
:104DC0001B491A701B4B4B6001230B814FF6FF737D
:104DD000CB81204600230E600B740EF049FC014687
:104DE0000028AAD0144891E7FFF770FF06A91348DE
:104DF00036F0B1FB09F06AFD9FE700BF26A1040071
:104E0000EC3900204BA1040069A10400B83900204E
:104E100079A2040086A104000D4800009CA10400B2
:104E2000B1A10400186F0020E86C0400F412002007
:104E3000D839002071490000D2A10400F3A1040078
:104E400008B50548012136F062FABDE8084003487C
:104E5000002136F05CBA00BFA06E0400986E04001A
:104E600070B598B005460E463AF0CFFC08A9FFF79A
:104E70009FFE10A928460AF0D5FF044620B101463E
:104E8000174836F068FB15E01648324608A936F098
:104E900062FB154B1C609DF841306BB928463AF017
:104EA0008FFB28460AF000FE104A1378013B13706E
:104EB000FFF7C4FC18B070BD0D4EFFF7C1FF0FCE59
:104EC00003AD0FC533682B600A49009423460222C4
:104ED00003A809F0C9FC01460028EBD00648D0E73A
:104EE00026A1040021A20400EC390020186F002044
:104EF0001C6D0400886E040043A204002DE9F04FED
:104F000087B080464948DDF844A0494F0D46144615
:104F1000994636F020FB0026236833443846197A38
:104F2000013636F018FB102EF6D1424836F013FB4E
:104F300095F83370404A4148C7F30217022F0CBF5F
:104F400036233423402135F049FE22683C4902F1E2
:104F50000803183253F8040B41F8040B9342F9D1BB
:104F6000DFF8E0B00223ABF8003028464EF21633EB
:104F7000ABF802303EF0C4FC202206460021324845
:104F800041F040F93246304928463EF053FC2E4964
:104F900004462E4836F0DFFA00222D4B94429A55F3
:104FA00014DA2C4803685D073DD02B4A23460121C3
:104FB00037F0A8F927480368590734D02346274A11
:104FC000012107B0BDE8F04F37F09CB9002E344600
:104FD000F0DB28463EF034FAD9F800301A8849F25E
:104FE00010239A4205D11E4807B0BDE8F04F36F0B5
:104FF000B2BA022F1B4ACDF810A014BF0823182301
:1050000000200021CDE90201CDE9003216495B46BE
:105010002E2240463EF0A2F8031E04DA0D48026834
:10502000520700D0CBE707B0BDE8F08FADA2040077
:10503000C4A2040004AB0400C8A20400196F00203D
:10504000986E0020946E00205A6F0020D2A20400B7
:105050005B6F0020CC140020DFA20400F6A2040045
:1050600014A3040051B3030022A3040037B51A4C63
:10507000236803F00703022B04D9184A03212046B2
:1050800037F037F90023164D00931649286800229F
:1050900000232AF0D5FF002807DA23685B0704D035
:1050A000114A0D48012137F024F94FF0FF330F4822
:1050B0004FF0FF3234F092FC236803F00703022B19
:1050C00004D90B4A0448032137F013F9286803B0C8
:1050D000BDE830402AF0BEBDCC14002051A304002E
:1050E000083A0020FD4E000062A30400F0390020C1
:1050F00082A3040010B588B01F4B204C02931422E9
:10510000002103A841F07EF802212346112208461F
:105110002AF0E8FC031E12DA19480268540728D066
:10512000184A012137F0EEF8154803685B0720D0D4
:10513000154A012108B0BDE8104037F0DAB818224E
:10514000206802A92AF0AAFD021E0DDA0C480368A5
:1051500059070ED0BDF80A305BBA9BB2012100920C
:105160000A4A37F0D9F8DFE708B0BDE81040FFF78A
:105170007DBF08B010BD00BF02001092083A0020A9
:10518000CC1400208EA30400DDA30400BBA3040004
:10519000F0B5164B04461868134687B0144A00262B
:1051A0000027C3B90493CDE9026718230093114B7C
:1051B00001920A4621463DF0D1FF0028034612DA4B
:1051C0000D48026852070ED00C4A012107B0BDE815
:1051D000F04037F097B8002501921822CDE9026718
:1051E00004950092E5E707B0F0BD00BF083A002043
:1051F00051B30300946E0020CC140020F6A20400EA
:1052000000B51348036803F00703022B89B003D9E4
:10521000104A032137F06DF84FF0FF3200210E489D
:1052200040F05DFB00220023CDE9062300236FF050
:105230000802CDE90323CDE9013300930749084B68
:1052400008484FF4FA6234F08BF909B05DF804FBBA
:10525000CC140020F9A30400F03900208084002041
:10526000F5500000801C0020F8B51848184F0C4677
:10527000164636F070F9002533682B443846197A03
:10528000013536F068F9102DF6D1124836F063F981
:1052900020463EF035FB3022054600210E4840F006
:1052A000B1FF0D492A4620463EF0C4FA0B4B0122BD
:1052B0001A700B4B197801B91A7020463EF0C0F8ED
:1052C00036F047F8074B1860F8BD00BF0EA4040085
:1052D000C4A2040004AB04002C3A00205B7400203C
:1052E0005A740020283A002037B50023144D00934B
:1052F00014492868144C002200232AF0A1FE00283B
:1053000007DA23685B0704D0104A0121204636F0F3
:10531000F0FF4FF0FF330E484FF0FF3234F05EFBEA
:10532000236803F00703022B04D90A4A0648032125
:1053300036F0DFFF286803B0BDE830402AF08ABCB1
:10534000243A0020695200003815002062A30400AE
:105350000C3A002028A4040010B588B01F4B204C44
:1053600002931422002103A840F04CFF022123469F
:10537000112208462AF0B6FB031E12DA1948026809
:10538000540728D0184A012136F0BCFF154803689D
:105390005B0720D0154A012108B0BDE8104036F067
:1053A000A8BF1822206802A92AF078FC021E0DDA94
:1053B0000C48036859070ED0BDF80A305BBA9BB29F
:1053C000012100920A4A36F0A7FFDFE708B0BDE8E6
:1053D0001040FFF789BF08B010BD00BF02001111D7
:1053E000243A0020381500208EA30400DDA3040019
:1053F000BBA30400F0B54F4F4F4E3B7891B0002B4C
:1054000045D14E4C4E4836F0A6F8302200212046B9
:1054100040F0F8FEE32323700B23A370494B0A935B
:10542000494B0FCB0BAD85E80F0000200021CDE9E3
:105430000201002304930193444818230093006859
:105440000AAB302221463DF089FE031E07DA4048B0
:105450000268520703D03F4A012136F053FF3378E8
:1054600003BB3B78002B63D035F073FF3A4B1B68CE
:10547000C01A4FF47A73B0FBF3F0384BD3E9002332
:10548000801843F10003CDE90A030AA81DE035F0B6
:1054900060FF314B1B68C01AB0F5FA1FDFD33378B9
:1054A000002BAED02E4836F056F824498B6AC86AD5
:1054B0001BBA00BA8B62C8622A49284800225B18CE
:1054C000327042F1FF32C0E9003235F0D3FA264B98
:1054D0000446D0E90421806953F8203003932368FF
:1054E000029363680193A3680093E3681F48013245
:1054F00001F26C7136F02FF80023CDE90A33CDE9C3
:105500000733ADF830308DF82430D4E90432E16847
:1055100000910133164902F26C720AA835F08AFB39
:1055200023680093D4E90132124907A835F082FBC1
:1055300011B0F0BD5A7400205B7400202C3A00209A
:1055400043A404000200007B98040020243A0020B9
:105550003815002069A40400283A0020F01D00201E
:1055600057A404005CD2557CA804002081A4040048
:1055700098A40400A1A4040000B51348036803F034
:105580000703022B89B003D9104A032136F0B1FE7C
:105590004FF0FF3200210E4840F0A1F90022002315
:1055A000CDE9062300236FF00802CDE90323CDE9FE
:1055B000013300930749084B08484FF4FA7233F05F
:1055C000CFFF09B05DF804FB38150020AAA4040041
:1055D0000C3A0020C08C002059530000381D0020D8
:1055E0002DE9F84380460F46154600F0ABF8C36836
:1055F00004461BB943691A78002A4CD10023E360A2
:105600006368434557F8232008DB3D4B6361204620
:1056100000F07EF84FF0FF30BDE8F883511C616167
:1056200016782D2EF1D1911C61615178A1602D2940
:1056300004D1927862B901336360E6E741B9304B37
:1056400063613146284640F028FE0028DFD0A6607E
:10565000D4F808902846494640F01FFEB9F13A0FA9
:10566000626900D0E0B9137813B9636801336360ED
:1056700023685BB12B783A2B08D0224803685A077D
:1056800004D0214A4B46012136F03CFE204600F072
:105690003FF83F20C0E75A1C42611B788360D7E780
:1056A00043783A2B0BD000232361137813B9636836
:1056B00001336360204600F02BF8A068ACE7117856
:1056C00066680F4B29B90136B045666004DD57F8AE
:1056D0002620C4E90423EAE763612D783A2D04D13A
:1056E000204600F015F8284696E72368002BCDD019
:1056F000044803685B07C9D0044A4B46C3E700BFB0
:1057000092190500C014002004A5040019A5040086
:10571000074B02681A60074B42681A60064B8268A2
:105720001A60064BC2681A60054B02691A6070471E
:10573000E0040020DC040020643A0020603A0020ED
:105740005C3A002000487047C40400202DE9F04F67
:1057500091B08407009302F004030293C2F3C203E2
:1057600003F10103DDF86890039205460E460593A8
:1057700040F0BA81041D30B1072909D86FF01B0031
:1057800011B0BDE8F08F01F00706341DC6F1080620
:10579000009B4FF00008591E4FF0040A4FF0FF33F2
:1057A0000193CDF810804746C34653460DB1009A89
:1057B00022600598002800F3E8809848009A824209
:1057C00003D397488242C0F0E080039AA4EB050E11
:1057D00092074FEA9E0000F103810F2F00F2B18083
:1057E000002D00F0058107F140020DEB020C019A3B
:1057F0000CF8200C0CF8102C049801300490E7E011
:105800007A285DD84B280ED8472859D829282DD872
:10581000252852D054D820287AD02338D0F1000B34
:105820004BEB000B74E04C382E2849D8DFE800F031
:105830007048484848484848484848484B484848BD
:10584000484848484859484B4B595959704B6D483E
:105850007048184B184848827F4B48484B487F0097
:1058600000204FF0000B4FF0040A38E02A38C0B295
:10587000012202FA00F010EA0E0F49D110F0625C2A
:105880002FD110EA020B43D06046013C5444B4FBD4
:10589000FAF40AFB04F4002D61D0A3EB050CA44438
:1058A0006645FFF46BAF002868D1042B47D159F847
:1058B000043B2360043404232AE0019A013A019254
:1058C0004FF0000B24E011F8010C6C2834D111F8D2
:1058D000023C00206C2B8346C5D14FF0080A53468A
:1058E000D3E709F1070929F007090734F9E802AB02
:1058F00024F0070435B106982044B0423FF63EAF8D
:10590000C4E900AB08344FF0000B4FF0080A5346CF
:1059100011F8010F002878D0BBF1000F7FF470AFB1
:105920002528F5D1019B013301934FF0010B4FF076
:10593000040AECE7584694E700208346A5E7082BC5
:1059400002D06FF015001BE709F1070929F00709DC
:10595000F9E80223C4E9002308340823D8E768B92A
:10596000042B02D109F10409A4E7082BE9D109F1BC
:10597000070929F0070909F10809EDE7059A013A35
:10598000059259F8042B009210E7039A900720D54E
:10599000A4EB050E4FEA9E004FF0010CBEF5007F10
:1059A000CFD20F2FCDD8F5B107F140020DEB020E8B
:1059B000C0B2019A0EF8200C0EF8102CBCF1000FAA
:1059C0003FF41AAF60F07F000EF8200C08F10108D8
:1059D0000137C5F10802043406924FF6DA7E97E7E4
:1059E0004FF0000CDAE7BCF1000F01D00136EFE711
:1059F000029802360028EBD10098CDE90631FBF77A
:105A00009BFDDDE906310644E2E7631BB3F5806FD9
:105A100097D23DB9A6F10804E018B1E63C64040051
:105A2000E0330500029A28609B082B709DF8103027
:105A3000C2B1EB7085F80280B8F1000F05D008A85C
:105A40000022C5F1010C97420ED1C5F101030DF101
:105A500020094FF0000A01930DF1300B574512D188
:105A6000601B8DE66B70E5E710F8013B190608D561
:105A700004EB0C0E764503F07F03FFF47FAE04F8D1
:105A8000013B0132DFE7B8F1000F03D099F90020A4
:105A9000002A17DB029BD3B11AF80B2004F8012B64
:105AA0000022019B981820448642FFF467AE99F8C3
:105AB000000004F8010B00990392204640F07AFBA5
:105AC000039A14440AF1010A09F10109C6E799F899
:105AD000002055F822300093029B45F822300098B0
:105AE000FBF72AFD421CDCE76FF00D0048E600BF23
:105AF0002DE9F04F95B000AF90F802B0BB61BB6FDD
:105B00007A62C3F3C00304463B618A4641B94578D3
:105B100000780BEB80002044554517D8A0EB040A11
:105B2000E3787B61BBF1000F02D0BB6FD80716D4BE
:105B30007B6953BB7B6A1BB1BA69514620469847C3
:105B4000554628465437BD46BDE8F08F461C3046C2
:105B5000FBF7F2FC013030440AF1010ADCE723785C
:105B60003B629B00FB603B6A6268FA6104EB83095D
:105B70007B6A002B40F002815546C84609EB0B0AB0
:105B80000026D04555D1D94413E0BB6F9907D1D534
:105B900023783B6299469B00FB606368FB617B6AEC
:105BA00004EB8909002B7ED15546BBF1000F53D180
:105BB0005E46BB6F13F0050F7B6909EB430ABB6FB1
:105BC00003F002030CBF4FF0020B4FF0010B7B629E
:105BD000D145B6D019F8021B19F8013C54F82380BE
:105BE000AA4B984502D3AA4B98453CD33B69002B5E
:105BF00046D0F86935F000FC002841D0A54803687C
:105C000013F0060F13D0E8468AB06A46A24B5361E0
:105C1000FB69C2E906314FF4007313849F4B42F8CD
:105C2000103F00234FF4125100F0F0FDC546023D35
:105C3000CEE718F8013B54F82300FBF77DFCFB6F1F
:105C400001303BB1D7F880309E423EBFFB6F23F856
:105C500016000136054494E7BB6F13F004061CBF21
:105C60007E6AD944A5E73B6923B1F86935F0C4FBE6
:105C70000028C3D1BB6FDA0705D4A5EB0B05A7E756
:105C80007B6A002BA4D04046FBF756FCFB6F43B168
:105C9000D7F880309E423FBFFA6F431C22F816307F
:105CA0000136054494E7BBF1000F6DD0BB6F13F0D4
:105CB00004066CD0D846002607F140005A464946F3
:105CC00040F078FA7B695B007B607B69D94409EB23
:105CD0004303BB60BB6F03F002033B60BB684B45F3
:105CE00057D1B96F6378B86F890706EB030254BFC9
:105CF0004FEA58010021C507D2B200F19A8010F096
:105D0000040F14BF40460020FB616270A070E17078
:105D1000BA69F9687B6A20469847051EFFF611AFFD
:105D20003B6A2370FB6963707B69E3704146BA6923
:105D30007B6A84F802B007F140009847B0F1000890
:105D4000C0F2AE80FB68BA69AAEB0B01C91A7B6886
:105D50004846C91A7B6A98470028C0F2A380A84425
:105D600008EB00054FF0000B07F1300AB34562D392
:105D70000021BA697B6A08469847E2E65E464FF022
:105D8000000807F1300099E75E46D8469AE7B0462A
:105D900098E719F8021B3D4B19F8015C54F82500EF
:105DA000984202D33A4B98421DD33B6923B1F8691C
:105DB00035F022FB002891D13B68FBB908F128039C
:105DC00007F1280208F1010003EB020C07F1500370
:105DD00053FA80F008F102080CF8101C5FFA88F8FA
:105DE00000F8105C7AE73B692BB1F86935F004FBE9
:105DF00000287FF473AFBB6FDB0709D506F12803DA
:105E000007F12802711C9E1806F8205CCEB265E7E7
:105E1000BB6F58077FF562AF08F1280307F128022E
:105E200008F1010103EB020808F8105C5FFA81F841
:105E300054E7002068E71BF80A3087F82F3054F841
:105E40002390FB6FFBB133F81B80BA697B6A012199
:105E500007F12F009847002824DB0544B8F1000F14
:105E600006D14846FBF768FB00F101081FFA88F8E5
:105E7000BA697B6A414648469847002812DB0544C8
:105E80000BF1010B72E7D7F87C80DEE73C6404007D
:105E9000E0330500B814002042A50400040000010E
:105EA00045464EE605464CE6014B1860704700BF7C
:105EB000E404002080B505460E461746984634F0A7
:105EC000CBFA034640F0B0FADFF81890044649F8E0
:105ED0000030424630463946A84754F8090005F0DC
:105EE0001DF900BF080000002DE9F047058B0446AE
:105EF0002807904611D4022905F0070540F0CD800F
:105F0000204635F01DFD78B10138218B042811D8C9
:105F1000DFE800F0C3106D85950001290CBF45F046
:105F2000100545F02005258388F31188BFF36F8F96
:105F3000BDE8F08701F0070AAA4500F0A680002717
:105F4000B9463E46A368002B00F0BD8041F0080131
:105F5000218388F31188BFF36F8FA168002900F0B7
:105F6000BB800D68002900F0B780D1F8048033466B
:105F700052462046C047002D76D02B6829461D4644
:105F8000F0E701F007035A1F012A1BD8002221F075
:105F90000701062B276889B2C4E9002209D13B46D4
:105FA00003E0628B013262831B68002BF9D141F060
:105FB00002012183204635F0C3FC00287BD041F04C
:105FC000200177E0042B0AD121F0070189B2218357
:105FD000204635F0B5FC10B141F020012183218B22
:105FE00001F0070AAA4550D00027B946AAE723695D
:105FF00021F0070141F00601062DD3F8009021831E
:106000002DD1B9F1000F40D041F00801218388F370
:106010001188BFF36F8F3A492046C84729E021F025
:106020000701236941F0040189B2042DD3F80490DB
:106030002183E6D000273E464FF0040A82E721F094
:106040000701236941F0050189B2052DD3F80890B5
:106050002183D6D000273E464FF0050A72E700277D
:106060003E464FF0060A6DE72B4687E7B9F1000F71
:10607000D1D14FF02003EFF3118883F31288BFF3DF
:106080006F8F238B23F008032383258BEA062ED5FD
:1060900025F01003238305F007056669218B002E88
:1060A000BFF66FAF00232768C4E9003321F0070172
:1060B00041F001012183218B01F0070AAA454FF02D
:1060C00000097FF43FAF002F9BD041F008012183EE
:1060D00088F31188BFF36F8F002FC7D03D68394612
:1060E00033465246204635F057FC2F46F4E7AB06C0
:1060F0007FF51AAF25F02003238305F00705FFE69F
:10610000C5B9030031F014BD2DE9F047DFF8588020
:10611000044607464FF0010914B93846BDE8F08738
:1061200094FAA4F5B5FA85F509FA05F32E0108EB02
:1061300005156FEA030A24EA03042B7B002BEBD03E
:1061400058F806301B694BB9464404227368284648
:10615000196807EA0A0700F01DFBDDE728469847A3
:106160000028D9D1F0E700BF286A040030B51049F3
:10617000104889B000223FF099FE0F4D0F494FF4AF
:1061800000320023CDE9062300240E23CDE9033499
:10619000CDE901440A4B00944FF44072284633F095
:1061A000DFF90849284633F013F9204609B030BD1D
:1061B000C9610000B8220020F81D0020008F0020D7
:1061C000E9640000F6A50400014833F0E1BB00BF1C
:1061D000F81600202DE9F04780461F480F4635F09D
:1061E000F6FF0646002830D000252846BDE8F08797
:1061F000237B73B12368DB680BB120469847236883
:106200001B69D3B9636804221968204600F0C2FAFA
:10621000013610344C45EBD3B8F1000FE5D0002D1A
:10622000E2D02846FFF770FF0546002FF7D0002187
:106230004FF4A47034F0D4F8F1E7204698470028D2
:10624000E0D00AFA06F31D43E2E7044CDFF81090B1
:1062500005464FF0010ADDE7783A0020286A04007D
:10626000386A040008B5034608462BB1044A136097
:1062700000F072FD002008BD6FF01500FBE700BFC5
:10628000E804002010B5044C237813B9034833F018
:106290007FFB0123237010BD5C740020F8160020E2
:1062A00010B50446084835F092FF5CB1BFF35B8F30
:1062B000064B53E8001F013943E80012002AF8D1C9
:1062C000BFF35B8F10BD00BF703A0020743A00200E
:1062D0000020064BBFF35B8F014653E8000F43E8F5
:1062E0000012002AF9D1BFF35B8F7047703A00208B
:1062F00070B5FFF7EDFF084C084E0546B44200D3D9
:1063000070BD63685B792BB123685B6813B1294664
:10631000204698471034F1E7286A0400386A0400E0
:1063200010B5044C0449204635F0E2FD034B1C60D7
:1063300010BD00BF24140020A86E0400683A00209D
:10634000094A0A4808B500231370094A1360094A2C
:106350004FF400411360FFF785FFFFF7E1FFBDE851
:10636000084000F06FB900BF5D740020CBC103008E
:10637000703A0020743A00200146002201480023B0
:1063800035F0D7BD24140020014835F070BE00BFA1
:1063900024140020024B0146186835F0BABE00BF35
:1063A000683A0020014835F0F0BE00BF24140020F8
:1063B000F8B5354B1878002864D0FFF7E5FF0446A0
:1063C00090B1BFF35B8F314B53E8001F013943E8B5
:1063D0000012002AF8D1BFF35B8F2D4D2D4EB54230
:1063E0002DD32046FFF7D6FF2B4B2C4C1B68002BE0
:1063F00019DD3FF014FD4FF47A72A0FB020302FB9B
:106400000131C30BD4E9002043EA41439B1A4FEA10
:10641000D13140F2E93261EB0001934271F10001A8
:1064200001D3FFF765FFD4E9003213F57A7342F127
:106430000002C4E90032BDE8F840FFF7B3BF6B6863
:106440005B793BB121784B0706D52B6821461B6849
:10645000284698471035C2E72388626813F4E07F26
:10646000C3F38217C1F3C201EFD0002AEDD00C4B69
:10647000D21A42F38F020123284600F0A5F9B84250
:10648000E8D3E2E7F8BD00BF5C740020743A002056
:10649000286A0400386A0400703A0020B022002004
:1064A0006814002070B50D4D297861B90120FFF7FF
:1064B00091FE0B4C0B4EB44206D3FFF779FF002838
:1064C000FBD101232B7070BD63685B791BB123681E
:1064D00020469B6898471034EDE700BF5D740020AC
:1064E000286A0400386A040000212DE9F0470846B4
:1064F000FFF770FE044658B340F267684FF000099A
:106500003FF092FF1B4B1C4A1B58136033B11B4BCF
:106510001B68092B02DD1A4833F03AFA194FDFF8ED
:1065200060A0002544B12046FFF7EEFD044618B9EF
:106530004FF0FF384FF0FF39FFF73AFF064628B912
:10654000B5B942464B46504633F048FA3546E9E77E
:106550004FF0FF384FF0FF39D2E72B689B691BB132
:1065600000221146284698471035BD42F5D3E8E78A
:10657000054DFAE7080000006C3A0020743A00204C
:10658000F8160020386A0400286A040013B5184879
:1065900035F01DFE174B1B787BB14FF02003EFF356
:1065A000118483F31288BFF36F8FFFF701FF84F329
:1065B0001188BFF36F8F02B010BD0F4B1B68002B0B
:1065C000F9D050B900220023CDE900230B484FF445
:1065D0000042002334F048F9EDE70928EBD10748E1
:1065E0003FF070FC064802B0BDE8104033F0D0B96F
:1065F000743A00205D7400206C3A0020B82200201C
:10660000F816002010B5064B1B6804469847214633
:10661000A060044835F00BFDBDE81040FFF7B6BFA1
:10662000E804002024140020044A054B9B1AB1EB17
:10663000D30F34BF52F83100002070473068040097
:10664000286A04000B480C4B30B51B1A0B4CDB08B6
:1066500000210430994200D130BD10F83120256866
:1066600002F0070225F007052A4344F8042B013104
:10667000F0E700BF30680400286A040068140020B6
:10668000F8B50B4F0B4DED1B0646ED080024AC4250
:1066900003D14FF0FF342046F8BD57F8340020B145
:1066A0003146FAF737FF0028F5D00134EFE700BF95
:1066B00030680400286A04002DE9F843884615462E
:1066C0001E4698B9224FDFF88C90044609E0384600
:1066D00033462A464146FFF7EFFF844238BF04465F
:1066E00010374F45F3D32046BDE8F8831A4B1B4AB9
:1066F000D21AB5EBD20F28D203EBC5031C79B442F2
:1067000028BF34464368164E1A7956F8253002EBF6
:1067100042020721914023EA010304F0070101FA34
:1067200002F213430021032223FA02F000F00700D3
:10673000814202F1030238BF01461E2AF4D123F040
:1067400007030B4346F82530CDE70024DAE700BF06
:10675000286A0400386A040030680400286A0400CB
:1067600068140020F8B5094D094BED1A06460F468E
:10677000ED080024AC4200D3F8BD002122B23B4614
:1067800030460134FFF798FFA4B2F3E7286A04000B
:106790003068040038B50B4BC31A0D461B11114667
:1067A000426801331371436804469971FFF7DAFFB9
:1067B00063681D60636801225A71BDE83840FFF7C5
:1067C00061BD00BF286A04000146184663B1002A73
:1067D00014DB4B680A491B7951F8220003EB430391
:1067E000D84000F007007047064B0749C91AB2EBC2
:1067F000D10F04D203EBC20318797047042070470D
:106800006814002030680400286A04002DE9F04F65
:106810008FB004AFC1F34A28B8600D4691467B6043
:106820000C0DB8F1000F67D0002607F114034FF0EC
:10683000040B4FF00A0AC7F80C80C7E907667E62AE
:106840000193CDF808B0CDF800A007F11C03F9685A
:1068500032464846FFF74CF9B0F5006F034620D3A7
:106860002A48036813F0060F17D06C468AB0D9F88F
:10687000041004AB264DC3E9055140F2FF71D96104
:106880001A464FF400711984224B42F8103F4FF41E
:1068900012513346FFF7BAFFA5462C37BD46BDE877
:1068A000F08FC0F30A0804F11700184420F0070025
:1068B00080083B60FFF760FD68F35325044690B104
:1068C0003B68154AC7E9083600F1100107F11403C7
:1068D000F961CDE900A3CDF808B0F96807F11C0310
:1068E0004846FFF705F968F353257B68B9682A46DF
:1068F000204635F0AEFCD0E704F1170020F0070089
:106900008008FFF739FD0446EDE700BFD0140020F2
:106910000BA604000400000127C203002DE9F04F7C
:1069200087B0DDE91269DDE9105A04460F46934647
:106930009846A6B31021CDF8009033465246002069
:10694000CDF81490FEF702FF014605F11700084448
:10695000144B039104F007040BF0070BE40020F044
:10696000070003EA412344EA8B1480081C43FFF725
:1069700003FD44EA0554054640B13EB10399CDF804
:106980000090334652461030FEF7E0FE4346224662
:106990003946284607B0BDE8F04F35F05ABC3146BD
:1069A000D3E700BF00FE0F000EB403B503AB0146F2
:1069B00053F8042B0448019304F0A6FE02B05DF8DE
:1069C00004EB03B0704700BF65C30300CA0605D4DB
:1069D0008B064CBF02490349FFF7E6BF704700BF73
:1069E00004AB04004AA604002DE9F04F89B09A4692
:1069F000DDE914739DF84CB00593169B179E069223
:106A000004460D460493BBF1000F00F0858006F0AC
:106A10000803079335F0F9FB06F002090246002847
:106A200049D086492046FFF7BFFF8046B9F1000FE5
:106A300008D016F0440F40D181492A462046FFF77E
:106A4000B3FF804406F0010353B17E4B7E4953F8F7
:106A50002B207E4B2046002A08BF1A46FFF7A4FFD2
:106A600006F00803002B54D0794B7A4953F82B20B9
:106A70002046FFF799FF0546069B2BB176491A463B
:106A80002046FFF791FF0544BAF1000F05D0734986
:106A900052462046FFF788FF05444544002F49D160
:106AA000049B002B4FD1F30700F1C18031462046F3
:106AB000FFF78CFFB5E08046B8E7694B18680028FF
:106AC000BFD0684B4FF47A791B68B5FBF3F54FF4F0
:106AD0006161B5FBF0F300FB135509FB05F54FF0C1
